{"contracts/DaoApprovedResources.sol":{"DaoApprovedResources":{"abi":[{"inputs":[],"name":"GovernanceDAO","outputs":[{"internalType":"address","name":"","type":"address"}],"stateMutability":"view","type":"function"},{"inputs":[],"name":"contractGraphLib","outputs":[{"internalType":"address","name":"","type":"address"}],"stateMutability":"view","type":"function"},{"inputs":[{"internalType":"string","name":"_name","type":"string"},{"internalType":"bytes32","name":"_icon","type":"bytes32"}],"name":"createGroup","outputs":[],"stateMutability":"nonpayable","type":"function"},{"inputs":[{"internalType":"string","name":"_group","type":"string"},{"internalType":"string","name":"_name","type":"string"},{"internalType":"string","name":"_link","type":"string"},{"internalType":"string","name":"_metadata","type":"string"},{"internalType":"bytes32","name":"_icon","type":"bytes32"}],"name":"createResource","outputs":[],"stateMutability":"nonpayable","type":"function"},{"inputs":[{"internalType":"string","name":"_name","type":"string"}],"name":"deleteGroup","outputs":[],"stateMutability":"nonpayable","type":"function"},{"inputs":[{"internalType":"string","name":"_from_group","type":"string"},{"internalType":"string","name":"_name","type":"string"}],"name":"deleteResource","outputs":[],"stateMutability":"nonpayable","type":"function"},{"inputs":[{"internalType":"string","name":"_name","type":"string"}],"name":"getGroup","outputs":[{"components":[{"internalType":"uint64","name":"id","type":"uint64"},{"internalType":"uint64","name":"elem","type":"uint64"},{"internalType":"uint64","name":"next","type":"uint64"},{"internalType":"uint64","name":"prev","type":"uint64"},{"internalType":"string","name":"name","type":"string"},{"internalType":"string","name":"icon","type":"string"}],"internalType":"struct DaoApprovedResources.Group","name":"","type":"tuple"}],"stateMutability":"view","type":"function"},{"inputs":[{"internalType":"uint64","name":"_id_start","type":"uint64"},{"internalType":"uint64","name":"_amount","type":"uint64"}],"name":"getGroups","outputs":[{"components":[{"internalType":"uint64","name":"id","type":"uint64"},{"internalType":"uint64","name":"elem","type":"uint64"},{"internalType":"uint64","name":"next","type":"uint64"},{"internalType":"uint64","name":"prev","type":"uint64"},{"internalType":"string","name":"name","type":"string"},{"internalType":"string","name":"icon","type":"string"}],"internalType":"struct DaoApprovedResources.Group[]","name":"","type":"tuple[]"}],"stateMutability":"view","type":"function"},{"inputs":[{"internalType":"string","name":"_group_name","type":"string"},{"internalType":"string","name":"_resource_name","type":"string"}],"name":"getResource","outputs":[{"components":[{"internalType":"uint64","name":"id","type":"uint64"},{"internalType":"uint64","name":"parent","type":"uint64"},{"internalType":"uint64","name":"next","type":"uint64"},{"internalType":"uint64","name":"prev","type":"uint64"},{"internalType":"string","name":"name","type":"string"},{"internalType":"string","name":"link","type":"string"},{"internalType":"string","name":"metadata","type":"string"},{"internalType":"string","name":"icon","type":"string"}],"internalType":"struct DaoApprovedResources.Resource","name":"","type":"tuple"}],"stateMutability":"view","type":"function"},{"inputs":[{"internalType":"uint64","name":"_id_group_start","type":"uint64"},{"internalType":"uint64","name":"_id_resource_start","type":"uint64"},{"internalType":"uint64","name":"_amount","type":"uint64"}],"name":"getResources","outputs":[{"components":[{"internalType":"uint64","name":"id","type":"uint64"},{"internalType":"uint64","name":"parent","type":"uint64"},{"internalType":"uint64","name":"next","type":"uint64"},{"internalType":"uint64","name":"prev","type":"uint64"},{"internalType":"string","name":"name","type":"string"},{"internalType":"string","name":"link","type":"string"},{"internalType":"string","name":"metadata","type":"string"},{"internalType":"string","name":"icon","type":"string"}],"internalType":"struct DaoApprovedResources.Resource[]","name":"","type":"tuple[]"}],"stateMutability":"view","type":"function"},{"inputs":[{"internalType":"string","name":"_name","type":"string"},{"internalType":"string","name":"_after_name","type":"string"}],"name":"moveGroup","outputs":[],"stateMutability":"nonpayable","type":"function"},{"inputs":[{"internalType":"string","name":"_from_group","type":"string"},{"internalType":"string","name":"_name","type":"string"},{"internalType":"string","name":"_in_group","type":"string"},{"internalType":"string","name":"_after_name","type":"string"}],"name":"moveResource","outputs":[],"stateMutability":"nonpayable","type":"function"},{"inputs":[{"internalType":"string","name":"_name","type":"string"},{"internalType":"string","name":"_new_name","type":"string"},{"internalType":"bytes32","name":"_new_icon","type":"bytes32"}],"name":"renameGroup","outputs":[],"stateMutability":"nonpayable","type":"function"},{"inputs":[{"internalType":"address","name":"_newOwner","type":"address"}],"name":"setNewOwner","outputs":[],"stateMutability":"nonpayable","type":"function"},{"inputs":[],"name":"totalGroups","outputs":[{"internalType":"uint64","name":"","type":"uint64"}],"stateMutability":"view","type":"function"}],"evm":{"bytecode":{"linkReferences":{},"object":"608060405260008054600160401b600160e01b0319167b810059e1406dedafd1bdca4e0137cba306c0ce36000000000000000017905534801561004157600080fd5b506130b9806100516000396000f3fe608060405234801561001057600080fd5b50600436106100f55760003560e01c8063894a823d11610097578063c5b42c2211610066578063c5b42c2214610229578063c75f289314610244578063e08a3afd1461028b578063f5a1f5b41461029e57600080fd5b8063894a823d146101a45780639ca85bf0146101c4578063a046ae13146101f6578063abef281e1461020957600080fd5b80632e8b92a9116100d35780632e8b92a91461014b5780635140dcf31461015e5780636158623e1461017e5780638651dd7a1461019157600080fd5b8063034cbb22146100fa578063188850811461010f57806319d0cc8414610138575b600080fd5b61010d610108366004612713565b6102b1565b005b61012261011d36600461279b565b610413565b60405161012f91906128ff565b60405180910390f35b61010d610146366004612961565b610a19565b61010d6101593660046129c4565b610be4565b61017161016c366004612a00565b610f63565b60405161012f9190612a9a565b61010d61018c366004612961565b611327565b61010d61019f366004612aef565b6114a0565b6101b76101b2366004612961565b611720565b60405161012f9190612b33565b6000546101de90600160401b90046001600160a01b031681565b6040516001600160a01b03909116815260200161012f565b61010d610204366004612b46565b611ab0565b61021c6102173660046129c4565b611efb565b60405161012f9190612bf2565b6101de73fe2bbc3d86c3e4666d3e352f68b2a224cac2823881565b61027360008052600260205260008051602061306483398151915254600160401b90046001600160401b031690565b6040516001600160401b03909116815260200161012f565b61010d610299366004612c05565b61213a565b61010d6102ac366004612cb9565b612476565b600054600160401b90046001600160a01b031633146102eb5760405162461bcd60e51b81526004016102e290612ce2565b60405180910390fd5b60006102f6846124d8565b6001600160401b038082166000908152600260205260409020549192501661031d57600080fd5b825160000361032b57600080fd5b610334836124d8565b6001600160401b03161561034757600080fd5b806001600061035586612507565b815260208082019290925260409081016000908120805467ffffffffffffffff19166001600160401b0395861617905592841683526002909152902060010161039e8482612d97565b5060408051602081018490520160408051601f198184030181529181526001600160401b03831660009081526002602081905291902001906103e09082612d97565b50600160006103ee86612507565b81526020810191909152604001600020805467ffffffffffffffff1916905550505050565b60606000846001600160401b03161161044d576001600160401b03808516600090815260026020526040902054600160801b90041661044f565b835b6001600160401b038082166000908152600360209081526040808320978416835296905294852054919550600160801b909104169283900361051f576001600160401b03938416600090815260026020908152604080832054600160801b908190048816808552600384528285208580529093529220549095919004169250831580156104e357506001600160401b038316155b1561051f5760408051600180825281830190925290816020015b610505612537565b8152602001906001900390816104fd579050509050610a12565b6000826001600160401b03166001600160401b0381111561054257610542612650565b60405190808252806020026020018201604052801561057b57816020015b610568612537565b8152602001906001900390816105605790505b50905060005b6000866001600160401b03161180156105ab5750836001600160401b0316816001600160401b0316105b15610a0e57846001600160401b0316600003610609576001600160401b03958616600090815260026020908152604080832054600160801b908190048a16808552600384528285208580529093529220549097919004169450610581565b6001600160401b038087166000908152600360209081526040808320898516845282529182902082516101008101845281548086168252600160401b8104861693820193909352600160801b8304851693810193909352600160c01b909104909216606082015260018201805491929160808401919061068890612d12565b80601f01602080910402602001604051908101604052809291908181526020018280546106b490612d12565b80156107015780601f106106d657610100808354040283529160200191610701565b820191906000526020600020905b8154815290600101906020018083116106e457829003601f168201915b5050505050815260200160028201805461071a90612d12565b80601f016020809104026020016040519081016040528092919081815260200182805461074690612d12565b80156107935780601f1061076857610100808354040283529160200191610793565b820191906000526020600020905b81548152906001019060200180831161077657829003601f168201915b505050505081526020016003820180546107ac90612d12565b80601f01602080910402602001604051908101604052809291908181526020018280546107d890612d12565b80156108255780601f106107fa57610100808354040283529160200191610825565b820191906000526020600020905b81548152906001019060200180831161080857829003601f168201915b5050505050815260200160048201805461083e90612d12565b80601f016020809104026020016040519081016040528092919081815260200182805461086a90612d12565b80156108b75780601f1061088c576101008083540402835291602001916108b7565b820191906000526020600020905b81548152906001019060200180831161089a57829003601f168201915b50505050508152505082826001600160401b0316815181106108db576108db612e56565b602002602001018190525073fe2bbc3d86c3e4666d3e352f68b2a224cac282386001600160a01b031663bac6dd6d83836001600160401b03168151811061092457610924612e56565b602002602001015160e0015161093990612e6c565b6040518263ffffffff1660e01b815260040161095791815260200190565b600060405180830381865afa158015610974573d6000803e3d6000fd5b505050506040513d6000823e601f3d908101601f1916820160405261099c9190810190612e90565b82826001600160401b0316815181106109b7576109b7612e56565b602002602001015160e0018190525080806109d190612f13565b6001600160401b0380891660009081526003602090815260408083209a841683529990529790972054600160801b90049096169591506105819050565b5090505b9392505050565b600054600160401b90046001600160a01b03163314610a4a5760405162461bcd60e51b81526004016102e290612ce2565b6000610a55836124d8565b90506000610a62836124d8565b6001600160401b038084166000908152600360209081526040808320848616845290915290205491925016610a9657600080fd5b600060016000610aa586612507565b815260208082019290925260409081016000908120805467ffffffffffffffff19166001600160401b0395861617905585841680825260038452828220868616835284528282208054600160c01b80820488168552858520805467ffffffffffffffff60801b1916600160801b938490048a16840217905591549081048716845284842080546001600160c01b03169183900488169092021790558152600290925290208054600160401b9004909116906008610b6183612f39565b82546101009290920a6001600160401b03818102199093169183160217909155838116600090815260036020908152604080832093861683529290529081208181559150610bb260018301826125a0565b610bc06002830160006125a0565b610bce6003830160006125a0565b610bdc6004830160006125a0565b505050505050565b600054600160401b90046001600160a01b03163314610c155760405162461bcd60e51b81526004016102e290612ce2565b6000610c20826124d8565b6001600160401b0380821660009081526002602052604090205491925016610c4757600080fd5b600060016000610c5685612507565b815260208082019290925260409081016000908120805467ffffffffffffffff19166001600160401b03958616179055848416808252600284528282208054600160c01b80820488168552858520805467ffffffffffffffff60801b1916600160801b938490048a16840217905591548181048816855285852080546001600160c01b0316918490048916909302179091559082526003845282822082805290935290812080548282559290920490921691610d1560018301826125a0565b610d236002830160006125a0565b610d316003830160006125a0565b610d3f6004830160006125a0565b505060005b6001600160401b03808416600090815260026020526040902054600160401b900416811015610ed5576001600160401b03838116600090815260036020908152604080832086851684529091528120805460019182018054600160801b909204909416938391610e3b9190610db890612d12565b80601f0160208091040260200160405190810160405280929190818152602001828054610de490612d12565b8015610e315780601f10610e0657610100808354040283529160200191610e31565b820191906000526020600020905b815481529060010190602001808311610e1457829003601f168201915b5050505050612507565b815260208082019290925260409081016000908120805467ffffffffffffffff19166001600160401b03958616179055878416815260038352818120938716815292909152812081815590610e9360018301826125a0565b610ea16002830160006125a0565b610eaf6003830160006125a0565b610ebd6004830160006125a0565b50909250819050610ecd81612f5c565b915050610d44565b506000805260026020526000805160206130648339815191528054600160401b90046001600160401b0316906008610f0c83612f39565b82546101009290920a6001600160401b03818102199093169183160217909155831660009081526002602052604081208181559150610f4e60018301826125a0565b610f5c6002830160006125a0565b5050505050565b6001600160401b03918216600090815260026020526040812054600160801b900490921691606090839003610fc95760408051600180825281830190925290816020015b610faf6125dd565b815260200190600190039081610fa7579050509050611321565b6000826001600160401b03166001600160401b03811115610fec57610fec612650565b60405190808252806020026020018201604052801561102557816020015b6110126125dd565b81526020019060019003908161100a5790505b50905060005b836001600160401b0316816001600160401b0316101561131d576001600160401b0385161561131d576001600160401b03808616600090815260026020908152604091829020825160c08101845281548086168252600160401b8104861693820193909352600160801b8304851693810193909352600160c01b90910490921660608201526001820180549192916080840191906110c890612d12565b80601f01602080910402602001604051908101604052809291908181526020018280546110f490612d12565b80156111415780601f1061111657610100808354040283529160200191611141565b820191906000526020600020905b81548152906001019060200180831161112457829003601f168201915b5050505050815260200160028201805461115a90612d12565b80601f016020809104026020016040519081016040528092919081815260200182805461118690612d12565b80156111d35780601f106111a8576101008083540402835291602001916111d3565b820191906000526020600020905b8154815290600101906020018083116111b657829003601f168201915b50505050508152505082826001600160401b0316815181106111f7576111f7612e56565b602002602001018190525073fe2bbc3d86c3e4666d3e352f68b2a224cac282386001600160a01b031663bac6dd6d83836001600160401b03168151811061124057611240612e56565b602002602001015160a0015161125590612e6c565b6040518263ffffffff1660e01b815260040161127391815260200190565b600060405180830381865afa158015611290573d6000803e3d6000fd5b505050506040513d6000823e601f3d908101601f191682016040526112b89190810190612e90565b82826001600160401b0316815181106112d3576112d3612e56565b60209081029190910181015160a001919091526001600160401b03958616600090815260029091526040902054600160801b9004909416938061131581612f13565b91505061102b565b5090505b92915050565b600054600160401b90046001600160a01b031633146113585760405162461bcd60e51b81526004016102e290612ce2565b6000611363836124d8565b90506000611370836124d8565b9050806001600160401b0316826001600160401b03160361139057600080fd5b6001600160401b0380831660009081526002602052604090205416158015906113d257506001600160401b038082166000908152600260205260409020541615155b6113db57600080fd5b6001600160401b039182166000818152600260205260408082208054600160c01b80820488168552838520805467ffffffffffffffff60801b19908116600160801b948590048b1685021790915583548381048a16875285872080546001600160c01b03908116928590048c168502929092179055978916808752858720805486546001600160801b0316908690048c1686028b1617918402919091178555805490911683880217905591540490951682529020805490921692029190911790555050565b600054600160401b90046001600160a01b031633146114d15760405162461bcd60e51b81526004016102e290612ce2565b81516000036114df57600080fd5b6114e8826124d8565b6001600160401b0316156114fb57600080fd5b600080546001600160401b0316908061151383612f13565b91906101000a8154816001600160401b0302191690836001600160401b031602179055505060008054906101000a90046001600160401b03166001600061155985612507565b815260208082019290925260409081016000908120805467ffffffffffffffff19166001600160401b03958616179055815160c0810183528154851680825281850183815282850184815260008051602061306483398151915254600160c01b90819004891660608601908152608086018c81528851808b018d905289518082038c018152908a018a5260a08801529487526002909852959094208351815492519551975189169096026001600160c01b03978916600160801b02979097166001600160801b03958916600160401b026001600160801b031990931696909816959095171792909216949094179290921781559051600182019061165d9082612d97565b5060a082015160028201906116729082612d97565b505060008054600260205260008051602061306483398151915280546001600160401b03600160c01b918290048116855260408520805467ffffffffffffffff60801b1916948216600160801b0294909417909355835493805281546001600160c01b03169383160292909217808355600160401b900416915060086116f783612f13565b91906101000a8154816001600160401b0302191690836001600160401b03160217905550505050565b611728612537565b600060036000611737866124d8565b6001600160401b03166001600160401b031681526020019081526020016000206000611762856124d8565b6001600160401b039081168252602080830193909352604091820160002082516101008101845281548084168252600160401b8104841695820195909552600160801b8504831693810193909352600160c01b9093041660608201526001820180549192916080840191906117d690612d12565b80601f016020809104026020016040519081016040528092919081815260200182805461180290612d12565b801561184f5780601f106118245761010080835404028352916020019161184f565b820191906000526020600020905b81548152906001019060200180831161183257829003601f168201915b5050505050815260200160028201805461186890612d12565b80601f016020809104026020016040519081016040528092919081815260200182805461189490612d12565b80156118e15780601f106118b6576101008083540402835291602001916118e1565b820191906000526020600020905b8154815290600101906020018083116118c457829003601f168201915b505050505081526020016003820180546118fa90612d12565b80601f016020809104026020016040519081016040528092919081815260200182805461192690612d12565b80156119735780601f1061194857610100808354040283529160200191611973565b820191906000526020600020905b81548152906001019060200180831161195657829003601f168201915b5050505050815260200160048201805461198c90612d12565b80601f01602080910402602001604051908101604052809291908181526020018280546119b890612d12565b8015611a055780601f106119da57610100808354040283529160200191611a05565b820191906000526020600020905b8154815290600101906020018083116119e857829003601f168201915b505050505081525050905073fe2bbc3d86c3e4666d3e352f68b2a224cac282386001600160a01b031663bac6dd6d8260e00151611a4190612e6c565b6040518263ffffffff1660e01b8152600401611a5f91815260200190565b600060405180830381865afa158015611a7c573d6000803e3d6000fd5b505050506040513d6000823e601f3d908101601f19168201604052611aa49190810190612e90565b60e08201529392505050565b600054600160401b90046001600160a01b03163314611ae15760405162461bcd60e51b81526004016102e290612ce2565b6000611aec856124d8565b90506000611af9856124d8565b90506000611b06856124d8565b90506000611b13856124d8565b9050806001600160401b0316836001600160401b031603611b3357600080fd5b6001600160401b03808516600090815260036020908152604080832087851684529091529020541615801590611b8f57506001600160401b03808316600090815260036020908152604080832085851684529091529020541615155b611b9857600080fd5b6001600160401b03848116600081815260036020908152604080832088861684529091528082208054600160c01b80820487168552838520805467ffffffffffffffff60801b1916600160801b93849004891684021790559154908104861684529190922080546001600160c01b031691839004851690920217905590831614611e5e576001600160401b03808516600090815260036020818152604080842088861680865290835281852088871686529383528185209085529091529091208154815467ffffffffffffffff19811691851691821783558354600160401b908190048616026001600160801b0319909116909117178082558254600160801b9081900485160267ffffffffffffffff60801b198216811783558354600160c01b908190049095169094026001600160c01b039094166001600160801b039091161792909217825590600180820190611cf390840182612f75565b50600281810190611d0690840182612f75565b50600381810190611d1990840182612f75565b50600481810190611d2c90840182612f75565b5050506001600160401b0382811660008181526003602090815260408083208886168452825280832080546fffffffffffffffff00000000000000001916600160401b958602179055888516835260029091529020805491909104909116906008611d9683612f39565b82546101009290920a6001600160401b0381810219909316918316021790915583811660009081526002602052604090208054600160401b900490911691506008611de083612f13565b82546101009290920a6001600160401b03818102199093169183160217909155858116600090815260036020908152604080832093881683529290529081208181559150611e3160018301826125a0565b611e3f6002830160006125a0565b611e4d6003830160006125a0565b611e5b6004830160006125a0565b50505b6001600160401b03918216600090815260036020908152604080832093851680845293909152808220805495851680845282842080546001600160801b0316600160801b98899004881689026001600160c01b0390811691909117600160c01b978802178255835467ffffffffffffffff60801b191689840217909355549690960490941682529020805490921692029190911790555050505050565b611f036125dd565b600060026000611f12856124d8565b6001600160401b0390811682526020808301939093526040918201600020825160c08101845281548084168252600160401b8104841695820195909552600160801b8504831693810193909352600160c01b909304166060820152600182018054919291608084019190611f8590612d12565b80601f0160208091040260200160405190810160405280929190818152602001828054611fb190612d12565b8015611ffe5780601f10611fd357610100808354040283529160200191611ffe565b820191906000526020600020905b815481529060010190602001808311611fe157829003601f168201915b5050505050815260200160028201805461201790612d12565b80601f016020809104026020016040519081016040528092919081815260200182805461204390612d12565b80156120905780601f1061206557610100808354040283529160200191612090565b820191906000526020600020905b81548152906001019060200180831161207357829003601f168201915b505050505081525050905073fe2bbc3d86c3e4666d3e352f68b2a224cac282386001600160a01b031663bac6dd6d8260a001516120cc90612e6c565b6040518263ffffffff1660e01b81526004016120ea91815260200190565b600060405180830381865afa158015612107573d6000803e3d6000fd5b505050506040513d6000823e601f3d908101601f1916820160405261212f9190810190612e90565b60a082015292915050565b600054600160401b90046001600160a01b0316331461216b5760405162461bcd60e51b81526004016102e290612ce2565b6000612176866124d8565b6001600160401b038082166000908152600260205260409020549192501661219d57600080fd5b84516000036121ab57600080fd5b6121b4856124d8565b6001600160401b0316156121c757600080fd5b83516000036121d557600080fd5b600080546001600160401b031690806121ed83612f13565b91906101000a8154816001600160401b0302191690836001600160401b031602179055505060008054906101000a90046001600160401b03166001600061223388612507565b815260208082019290925260409081016000908120805467ffffffffffffffff19166001600160401b0395861617905581516101008101835281548516815285851681850181905281840183905282526003845282822082805284529082902054600160c01b900490931660608401526080830188905260a0830187905260c08301869052805191820185905260e08301910160408051601f1981840301815291815291526001600160401b0380841660009081526003602090815283822082548416835281529083902084518154928601519486015160608701518516600160c01b026001600160c01b03918616600160801b02919091166001600160801b03968616600160401b026001600160801b03199095169290951691909117929092179390931691909117178155608082015160018201906123749082612d97565b5060a082015160028201906123899082612d97565b5060c0820151600382019061239e9082612d97565b5060e082015160048201906123b39082612d97565b5050600080546001600160401b0384811680845260036020908152604080862086805282528086208054600160c01b9081900486168852828820805467ffffffffffffffff60801b1916978716600160801b0297909717909655865481546001600160c01b0316908616909602959095179094559084526002905291208054600160401b90049091169150600861244983612f13565b91906101000a8154816001600160401b0302191690836001600160401b0316021790555050505050505050565b600054600160401b90046001600160a01b031633146124a75760405162461bcd60e51b81526004016102e290612ce2565b600080546001600160a01b03909216600160401b0268010000000000000000600160e01b0319909216919091179055565b6000600160006124e784612507565b81526020810191909152604001600020546001600160401b031692915050565b60008160405160200161251a9190613047565b604051602081830303815290604052805190602001209050919050565b60405180610100016040528060006001600160401b0316815260200160006001600160401b0316815260200160006001600160401b0316815260200160006001600160401b03168152602001606081526020016060815260200160608152602001606081525090565b5080546125ac90612d12565b6000825580601f106125bc575050565b601f0160209004906000526020600020908101906125da9190612637565b50565b6040518060c0016040528060006001600160401b0316815260200160006001600160401b0316815260200160006001600160401b0316815260200160006001600160401b0316815260200160608152602001606081525090565b5b8082111561264c5760008155600101612638565b5090565b634e487b7160e01b600052604160045260246000fd5b604051601f8201601f191681016001600160401b038111828210171561268e5761268e612650565b604052919050565b60006001600160401b038211156126af576126af612650565b50601f01601f191660200190565b600082601f8301126126ce57600080fd5b81356126e16126dc82612696565b612666565b8181528460208386010111156126f657600080fd5b816020850160208301376000918101602001919091529392505050565b60008060006060848603121561272857600080fd5b83356001600160401b038082111561273f57600080fd5b61274b878388016126bd565b9450602086013591508082111561276157600080fd5b5061276e868287016126bd565b925050604084013590509250925092565b80356001600160401b038116811461279657600080fd5b919050565b6000806000606084860312156127b057600080fd5b6127b98461277f565b92506127c76020850161277f565b91506127d56040850161277f565b90509250925092565b60005b838110156127f95781810151838201526020016127e1565b50506000910152565b6000815180845261281a8160208601602086016127de565b601f01601f19169290920160200192915050565b80516001600160401b031682526000610100602083015161285a60208601826001600160401b03169052565b50604083015161287560408601826001600160401b03169052565b50606083015161289060608601826001600160401b03169052565b5060808301518160808601526128a882860182612802565b91505060a083015184820360a08601526128c28282612802565b91505060c083015184820360c08601526128dc8282612802565b91505060e083015184820360e08601526128f68282612802565b95945050505050565b6000602080830181845280855180835260408601915060408160051b870101925083870160005b8281101561295457603f1988860301845261294285835161282e565b94509285019290850190600101612926565b5092979650505050505050565b6000806040838503121561297457600080fd5b82356001600160401b038082111561298b57600080fd5b612997868387016126bd565b935060208501359150808211156129ad57600080fd5b506129ba858286016126bd565b9150509250929050565b6000602082840312156129d657600080fd5b81356001600160401b038111156129ec57600080fd5b6129f8848285016126bd565b949350505050565b60008060408385031215612a1357600080fd5b612a1c8361277f565b9150612a2a6020840161277f565b90509250929050565b60006001600160401b0380835116845280602084015116602085015280604084015116604085015280606084015116606085015250608082015160c06080850152612a8160c0850182612802565b905060a083015184820360a08601526128f68282612802565b6000602080830181845280855180835260408601915060408160051b870101925083870160005b8281101561295457603f19888603018452612add858351612a33565b94509285019290850190600101612ac1565b60008060408385031215612b0257600080fd5b82356001600160401b03811115612b1857600080fd5b612b24858286016126bd565b95602094909401359450505050565b602081526000610a12602083018461282e565b60008060008060808587031215612b5c57600080fd5b84356001600160401b0380821115612b7357600080fd5b612b7f888389016126bd565b95506020870135915080821115612b9557600080fd5b612ba1888389016126bd565b94506040870135915080821115612bb757600080fd5b612bc3888389016126bd565b93506060870135915080821115612bd957600080fd5b50612be6878288016126bd565b91505092959194509250565b602081526000610a126020830184612a33565b600080600080600060a08688031215612c1d57600080fd5b85356001600160401b0380821115612c3457600080fd5b612c4089838a016126bd565b96506020880135915080821115612c5657600080fd5b612c6289838a016126bd565b95506040880135915080821115612c7857600080fd5b612c8489838a016126bd565b94506060880135915080821115612c9a57600080fd5b50612ca7888289016126bd565b95989497509295608001359392505050565b600060208284031215612ccb57600080fd5b81356001600160a01b0381168114610a1257600080fd5b6020808252601690820152754f6e6c792044414f2063616e2063616c6c207468697360501b604082015260600190565b600181811c90821680612d2657607f821691505b602082108103612d4657634e487b7160e01b600052602260045260246000fd5b50919050565b601f821115612d9257600081815260208120601f850160051c81016020861015612d735750805b601f850160051c820191505b81811015610bdc57828155600101612d7f565b505050565b81516001600160401b03811115612db057612db0612650565b612dc481612dbe8454612d12565b84612d4c565b602080601f831160018114612df95760008415612de15750858301515b600019600386901b1c1916600185901b178555610bdc565b600085815260208120601f198616915b82811015612e2857888601518255948401946001909101908401612e09565b5085821015612e465787850151600019600388901b60f8161c191681555b5050505050600190811b01905550565b634e487b7160e01b600052603260045260246000fd5b80516020808301519190811015612d465760001960209190910360031b1b16919050565b600060208284031215612ea257600080fd5b81516001600160401b03811115612eb857600080fd5b8201601f81018413612ec957600080fd5b8051612ed76126dc82612696565b818152856020838501011115612eec57600080fd5b6128f68260208301602086016127de565b634e487b7160e01b600052601160045260246000fd5b60006001600160401b03808316818103612f2f57612f2f612efd565b6001019392505050565b60006001600160401b03821680612f5257612f52612efd565b6000190192915050565b600060018201612f6e57612f6e612efd565b5060010190565b818103612f80575050565b612f8a8254612d12565b6001600160401b03811115612fa157612fa1612650565b612faf81612dbe8454612d12565b6000601f821160018114612fe35760008315612fcb5750848201545b600019600385901b1c1916600184901b178455610f5c565b600085815260209020601f19841690600086815260209020845b8381101561301d5782860154825560019586019590910190602001612ffd565b5085831015612e465793015460001960f8600387901b161c19169092555050600190811b01905550565b600082516130598184602087016127de565b919091019291505056feac33ff75c19e70fe83507db0d683fd3465c996598dc972688b7ace676c89077ba2646970667358221220b66258c713acfd9356306b04166b908f26c70b4fe65872b0828d5046b207b29364736f6c63430008110033","opcodes":"PUSH1 0x80 PUSH1 0x40 MSTORE PUSH1 0x0 DUP1 SLOAD PUSH1 0x1 PUSH1 0x40 SHL PUSH1 0x1 PUSH1 0xE0 SHL SUB NOT AND PUSH28 0x810059E1406DEDAFD1BDCA4E0137CBA306C0CE360000000000000000 OR SWAP1 SSTORE CALLVALUE DUP1 ISZERO PUSH2 0x41 JUMPI PUSH1 0x0 DUP1 REVERT JUMPDEST POP PUSH2 0x30B9 DUP1 PUSH2 0x51 PUSH1 0x0 CODECOPY PUSH1 0x0 RETURN INVALID PUSH1 0x80 PUSH1 0x40 MSTORE CALLVALUE DUP1 ISZERO PUSH2 0x10 JUMPI PUSH1 0x0 DUP1 REVERT JUMPDEST POP PUSH1 0x4 CALLDATASIZE LT PUSH2 0xF5 JUMPI PUSH1 0x0 CALLDATALOAD PUSH1 0xE0 SHR DUP1 PUSH4 0x894A823D GT PUSH2 0x97 JUMPI DUP1 PUSH4 0xC5B42C22 GT PUSH2 0x66 JUMPI DUP1 PUSH4 0xC5B42C22 EQ PUSH2 0x229 JUMPI DUP1 PUSH4 0xC75F2893 EQ PUSH2 0x244 JUMPI DUP1 PUSH4 0xE08A3AFD EQ PUSH2 0x28B JUMPI DUP1 PUSH4 0xF5A1F5B4 EQ PUSH2 0x29E JUMPI PUSH1 0x0 DUP1 REVERT JUMPDEST DUP1 PUSH4 0x894A823D EQ PUSH2 0x1A4 JUMPI DUP1 PUSH4 0x9CA85BF0 EQ PUSH2 0x1C4 JUMPI DUP1 PUSH4 0xA046AE13 EQ PUSH2 0x1F6 JUMPI DUP1 PUSH4 0xABEF281E EQ PUSH2 0x209 JUMPI PUSH1 0x0 DUP1 REVERT JUMPDEST DUP1 PUSH4 0x2E8B92A9 GT PUSH2 0xD3 JUMPI DUP1 PUSH4 0x2E8B92A9 EQ PUSH2 0x14B JUMPI DUP1 PUSH4 0x5140DCF3 EQ PUSH2 0x15E JUMPI DUP1 PUSH4 0x6158623E EQ PUSH2 0x17E JUMPI DUP1 PUSH4 0x8651DD7A EQ PUSH2 0x191 JUMPI PUSH1 0x0 DUP1 REVERT JUMPDEST DUP1 PUSH4 0x34CBB22 EQ PUSH2 0xFA JUMPI DUP1 PUSH4 0x18885081 EQ PUSH2 0x10F JUMPI DUP1 PUSH4 0x19D0CC84 EQ PUSH2 0x138 JUMPI JUMPDEST PUSH1 0x0 DUP1 REVERT JUMPDEST PUSH2 0x10D PUSH2 0x108 CALLDATASIZE PUSH1 0x4 PUSH2 0x2713 JUMP JUMPDEST PUSH2 0x2B1 JUMP JUMPDEST STOP JUMPDEST PUSH2 0x122 PUSH2 0x11D CALLDATASIZE PUSH1 0x4 PUSH2 0x279B JUMP JUMPDEST PUSH2 0x413 JUMP JUMPDEST PUSH1 0x40 MLOAD PUSH2 0x12F SWAP2 SWAP1 PUSH2 0x28FF JUMP JUMPDEST PUSH1 0x40 MLOAD DUP1 SWAP2 SUB SWAP1 RETURN JUMPDEST PUSH2 0x10D PUSH2 0x146 CALLDATASIZE PUSH1 0x4 PUSH2 0x2961 JUMP JUMPDEST PUSH2 0xA19 JUMP JUMPDEST PUSH2 0x10D PUSH2 0x159 CALLDATASIZE PUSH1 0x4 PUSH2 0x29C4 JUMP JUMPDEST PUSH2 0xBE4 JUMP JUMPDEST PUSH2 0x171 PUSH2 0x16C CALLDATASIZE PUSH1 0x4 PUSH2 0x2A00 JUMP JUMPDEST PUSH2 0xF63 JUMP JUMPDEST PUSH1 0x40 MLOAD PUSH2 0x12F SWAP2 SWAP1 PUSH2 0x2A9A JUMP JUMPDEST PUSH2 0x10D PUSH2 0x18C CALLDATASIZE PUSH1 0x4 PUSH2 0x2961 JUMP JUMPDEST PUSH2 0x1327 JUMP JUMPDEST PUSH2 0x10D PUSH2 0x19F CALLDATASIZE PUSH1 0x4 PUSH2 0x2AEF JUMP JUMPDEST PUSH2 0x14A0 JUMP JUMPDEST PUSH2 0x1B7 PUSH2 0x1B2 CALLDATASIZE PUSH1 0x4 PUSH2 0x2961 JUMP JUMPDEST PUSH2 0x1720 JUMP JUMPDEST PUSH1 0x40 MLOAD PUSH2 0x12F SWAP2 SWAP1 PUSH2 0x2B33 JUMP JUMPDEST PUSH1 0x0 SLOAD PUSH2 0x1DE SWAP1 PUSH1 0x1 PUSH1 0x40 SHL SWAP1 DIV PUSH1 0x1 PUSH1 0x1 PUSH1 0xA0 SHL SUB AND DUP2 JUMP JUMPDEST PUSH1 0x40 MLOAD PUSH1 0x1 PUSH1 0x1 PUSH1 0xA0 SHL SUB SWAP1 SWAP2 AND DUP2 MSTORE PUSH1 0x20 ADD PUSH2 0x12F JUMP JUMPDEST PUSH2 0x10D PUSH2 0x204 CALLDATASIZE PUSH1 0x4 PUSH2 0x2B46 JUMP JUMPDEST PUSH2 0x1AB0 JUMP JUMPDEST PUSH2 0x21C PUSH2 0x217 CALLDATASIZE PUSH1 0x4 PUSH2 0x29C4 JUMP JUMPDEST PUSH2 0x1EFB JUMP JUMPDEST PUSH1 0x40 MLOAD PUSH2 0x12F SWAP2 SWAP1 PUSH2 0x2BF2 JUMP JUMPDEST PUSH2 0x1DE PUSH20 0xFE2BBC3D86C3E4666D3E352F68B2A224CAC28238 DUP2 JUMP JUMPDEST PUSH2 0x273 PUSH1 0x0 DUP1 MSTORE PUSH1 0x2 PUSH1 0x20 MSTORE PUSH1 0x0 DUP1 MLOAD PUSH1 0x20 PUSH2 0x3064 DUP4 CODECOPY DUP2 MLOAD SWAP2 MSTORE SLOAD PUSH1 0x1 PUSH1 0x40 SHL SWAP1 DIV PUSH1 0x1 PUSH1 0x1 PUSH1 0x40 SHL SUB AND SWAP1 JUMP JUMPDEST PUSH1 0x40 MLOAD PUSH1 0x1 PUSH1 0x1 PUSH1 0x40 SHL SUB SWAP1 SWAP2 AND DUP2 MSTORE PUSH1 0x20 ADD PUSH2 0x12F JUMP JUMPDEST PUSH2 0x10D PUSH2 0x299 CALLDATASIZE PUSH1 0x4 PUSH2 0x2C05 JUMP JUMPDEST PUSH2 0x213A JUMP JUMPDEST PUSH2 0x10D PUSH2 0x2AC CALLDATASIZE PUSH1 0x4 PUSH2 0x2CB9 JUMP JUMPDEST PUSH2 0x2476 JUMP JUMPDEST PUSH1 0x0 SLOAD PUSH1 0x1 PUSH1 0x40 SHL SWAP1 DIV PUSH1 0x1 PUSH1 0x1 PUSH1 0xA0 SHL SUB AND CALLER EQ PUSH2 0x2EB JUMPI PUSH1 0x40 MLOAD PUSH3 0x461BCD PUSH1 0xE5 SHL DUP2 MSTORE PUSH1 0x4 ADD PUSH2 0x2E2 SWAP1 PUSH2 0x2CE2 JUMP JUMPDEST PUSH1 0x40 MLOAD DUP1 SWAP2 SUB SWAP1 REVERT JUMPDEST PUSH1 0x0 PUSH2 0x2F6 DUP5 PUSH2 0x24D8 JUMP JUMPDEST PUSH1 0x1 PUSH1 0x1 PUSH1 0x40 SHL SUB DUP1 DUP3 AND PUSH1 0x0 SWAP1 DUP2 MSTORE PUSH1 0x2 PUSH1 0x20 MSTORE PUSH1 0x40 SWAP1 KECCAK256 SLOAD SWAP2 SWAP3 POP AND PUSH2 0x31D JUMPI PUSH1 0x0 DUP1 REVERT JUMPDEST DUP3 MLOAD PUSH1 0x0 SUB PUSH2 0x32B JUMPI PUSH1 0x0 DUP1 REVERT JUMPDEST PUSH2 0x334 DUP4 PUSH2 0x24D8 JUMP JUMPDEST PUSH1 0x1 PUSH1 0x1 PUSH1 0x40 SHL SUB AND ISZERO PUSH2 0x347 JUMPI PUSH1 0x0 DUP1 REVERT JUMPDEST DUP1 PUSH1 0x1 PUSH1 0x0 PUSH2 0x355 DUP7 PUSH2 0x2507 JUMP JUMPDEST DUP2 MSTORE PUSH1 0x20 DUP1 DUP3 ADD SWAP3 SWAP1 SWAP3 MSTORE PUSH1 0x40 SWAP1 DUP2 ADD PUSH1 0x0 SWAP1 DUP2 KECCAK256 DUP1 SLOAD PUSH8 0xFFFFFFFFFFFFFFFF NOT AND PUSH1 0x1 PUSH1 0x1 PUSH1 0x40 SHL SUB SWAP6 DUP7 AND OR SWAP1 SSTORE SWAP3 DUP5 AND DUP4 MSTORE PUSH1 0x2 SWAP1 SWAP2 MSTORE SWAP1 KECCAK256 PUSH1 0x1 ADD PUSH2 0x39E DUP5 DUP3 PUSH2 0x2D97 JUMP JUMPDEST POP PUSH1 0x40 DUP1 MLOAD PUSH1 0x20 DUP2 ADD DUP5 SWAP1 MSTORE ADD PUSH1 0x40 DUP1 MLOAD PUSH1 0x1F NOT DUP2 DUP5 SUB ADD DUP2 MSTORE SWAP2 DUP2 MSTORE PUSH1 0x1 PUSH1 0x1 PUSH1 0x40 SHL SUB DUP4 AND PUSH1 0x0 SWAP1 DUP2 MSTORE PUSH1 0x2 PUSH1 0x20 DUP2 SWAP1 MSTORE SWAP2 SWAP1 KECCAK256 ADD SWAP1 PUSH2 0x3E0 SWAP1 DUP3 PUSH2 0x2D97 JUMP JUMPDEST POP PUSH1 0x1 PUSH1 0x0 PUSH2 0x3EE DUP7 PUSH2 0x2507 JUMP JUMPDEST DUP2 MSTORE PUSH1 0x20 DUP2 ADD SWAP2 SWAP1 SWAP2 MSTORE PUSH1 0x40 ADD PUSH1 0x0 KECCAK256 DUP1 SLOAD PUSH8 0xFFFFFFFFFFFFFFFF NOT AND SWAP1 SSTORE POP POP POP POP JUMP JUMPDEST PUSH1 0x60 PUSH1 0x0 DUP5 PUSH1 0x1 PUSH1 0x1 PUSH1 0x40 SHL SUB AND GT PUSH2 0x44D JUMPI PUSH1 0x1 PUSH1 0x1 PUSH1 0x40 SHL SUB DUP1 DUP6 AND PUSH1 0x0 SWAP1 DUP2 MSTORE PUSH1 0x2 PUSH1 0x20 MSTORE PUSH1 0x40 SWAP1 KECCAK256 SLOAD PUSH1 0x1 PUSH1 0x80 SHL SWAP1 DIV AND PUSH2 0x44F JUMP JUMPDEST DUP4 JUMPDEST PUSH1 0x1 PUSH1 0x1 PUSH1 0x40 SHL SUB DUP1 DUP3 AND PUSH1 0x0 SWAP1 DUP2 MSTORE PUSH1 0x3 PUSH1 0x20 SWAP1 DUP2 MSTORE PUSH1 0x40 DUP1 DUP4 KECCAK256 SWAP8 DUP5 AND DUP4 MSTORE SWAP7 SWAP1 MSTORE SWAP5 DUP6 KECCAK256 SLOAD SWAP2 SWAP6 POP PUSH1 0x1 PUSH1 0x80 SHL SWAP1 SWAP2 DIV AND SWAP3 DUP4 SWAP1 SUB PUSH2 0x51F JUMPI PUSH1 0x1 PUSH1 0x1 PUSH1 0x40 SHL SUB SWAP4 DUP5 AND PUSH1 0x0 SWAP1 DUP2 MSTORE PUSH1 0x2 PUSH1 0x20 SWAP1 DUP2 MSTORE PUSH1 0x40 DUP1 DUP4 KECCAK256 SLOAD PUSH1 0x1 PUSH1 0x80 SHL SWAP1 DUP2 SWAP1 DIV DUP9 AND DUP1 DUP6 MSTORE PUSH1 0x3 DUP5 MSTORE DUP3 DUP6 KECCAK256 DUP6 DUP1 MSTORE SWAP1 SWAP4 MSTORE SWAP3 KECCAK256 SLOAD SWAP1 SWAP6 SWAP2 SWAP1 DIV AND SWAP3 POP DUP4 ISZERO DUP1 ISZERO PUSH2 0x4E3 JUMPI POP PUSH1 0x1 PUSH1 0x1 PUSH1 0x40 SHL SUB DUP4 AND ISZERO JUMPDEST ISZERO PUSH2 0x51F JUMPI PUSH1 0x40 DUP1 MLOAD PUSH1 0x1 DUP1 DUP3 MSTORE DUP2 DUP4 ADD SWAP1 SWAP3 MSTORE SWAP1 DUP2 PUSH1 0x20 ADD JUMPDEST PUSH2 0x505 PUSH2 0x2537 JUMP JUMPDEST DUP2 MSTORE PUSH1 0x20 ADD SWAP1 PUSH1 0x1 SWAP1 SUB SWAP1 DUP2 PUSH2 0x4FD JUMPI SWAP1 POP POP SWAP1 POP PUSH2 0xA12 JUMP JUMPDEST PUSH1 0x0 DUP3 PUSH1 0x1 PUSH1 0x1 PUSH1 0x40 SHL SUB AND PUSH1 0x1 PUSH1 0x1 PUSH1 0x40 SHL SUB DUP2 GT ISZERO PUSH2 0x542 JUMPI PUSH2 0x542 PUSH2 0x2650 JUMP JUMPDEST PUSH1 0x40 MLOAD SWAP1 DUP1 DUP3 MSTORE DUP1 PUSH1 0x20 MUL PUSH1 0x20 ADD DUP3 ADD PUSH1 0x40 MSTORE DUP1 ISZERO PUSH2 0x57B JUMPI DUP2 PUSH1 0x20 ADD JUMPDEST PUSH2 0x568 PUSH2 0x2537 JUMP JUMPDEST DUP2 MSTORE PUSH1 0x20 ADD SWAP1 PUSH1 0x1 SWAP1 SUB SWAP1 DUP2 PUSH2 0x560 JUMPI SWAP1 POP JUMPDEST POP SWAP1 POP PUSH1 0x0 JUMPDEST PUSH1 0x0 DUP7 PUSH1 0x1 PUSH1 0x1 PUSH1 0x40 SHL SUB AND GT DUP1 ISZERO PUSH2 0x5AB JUMPI POP DUP4 PUSH1 0x1 PUSH1 0x1 PUSH1 0x40 SHL SUB AND DUP2 PUSH1 0x1 PUSH1 0x1 PUSH1 0x40 SHL SUB AND LT JUMPDEST ISZERO PUSH2 0xA0E JUMPI DUP5 PUSH1 0x1 PUSH1 0x1 PUSH1 0x40 SHL SUB AND PUSH1 0x0 SUB PUSH2 0x609 JUMPI PUSH1 0x1 PUSH1 0x1 PUSH1 0x40 SHL SUB SWAP6 DUP7 AND PUSH1 0x0 SWAP1 DUP2 MSTORE PUSH1 0x2 PUSH1 0x20 SWAP1 DUP2 MSTORE PUSH1 0x40 DUP1 DUP4 KECCAK256 SLOAD PUSH1 0x1 PUSH1 0x80 SHL SWAP1 DUP2 SWAP1 DIV DUP11 AND DUP1 DUP6 MSTORE PUSH1 0x3 DUP5 MSTORE DUP3 DUP6 KECCAK256 DUP6 DUP1 MSTORE SWAP1 SWAP4 MSTORE SWAP3 KECCAK256 SLOAD SWAP1 SWAP8 SWAP2 SWAP1 DIV AND SWAP5 POP PUSH2 0x581 JUMP JUMPDEST PUSH1 0x1 PUSH1 0x1 PUSH1 0x40 SHL SUB DUP1 DUP8 AND PUSH1 0x0 SWAP1 DUP2 MSTORE PUSH1 0x3 PUSH1 0x20 SWAP1 DUP2 MSTORE PUSH1 0x40 DUP1 DUP4 KECCAK256 DUP10 DUP6 AND DUP5 MSTORE DUP3 MSTORE SWAP2 DUP3 SWAP1 KECCAK256 DUP3 MLOAD PUSH2 0x100 DUP2 ADD DUP5 MSTORE DUP2 SLOAD DUP1 DUP7 AND DUP3 MSTORE PUSH1 0x1 PUSH1 0x40 SHL DUP2 DIV DUP7 AND SWAP4 DUP3 ADD SWAP4 SWAP1 SWAP4 MSTORE PUSH1 0x1 PUSH1 0x80 SHL DUP4 DIV DUP6 AND SWAP4 DUP2 ADD SWAP4 SWAP1 SWAP4 MSTORE PUSH1 0x1 PUSH1 0xC0 SHL SWAP1 SWAP2 DIV SWAP1 SWAP3 AND PUSH1 0x60 DUP3 ADD MSTORE PUSH1 0x1 DUP3 ADD DUP1 SLOAD SWAP2 SWAP3 SWAP2 PUSH1 0x80 DUP5 ADD SWAP2 SWAP1 PUSH2 0x688 SWAP1 PUSH2 0x2D12 JUMP JUMPDEST DUP1 PUSH1 0x1F ADD PUSH1 0x20 DUP1 SWAP2 DIV MUL PUSH1 0x20 ADD PUSH1 0x40 MLOAD SWAP1 DUP2 ADD PUSH1 0x40 MSTORE DUP1 SWAP3 SWAP2 SWAP1 DUP2 DUP2 MSTORE PUSH1 0x20 ADD DUP3 DUP1 SLOAD PUSH2 0x6B4 SWAP1 PUSH2 0x2D12 JUMP JUMPDEST DUP1 ISZERO PUSH2 0x701 JUMPI DUP1 PUSH1 0x1F LT PUSH2 0x6D6 JUMPI PUSH2 0x100 DUP1 DUP4 SLOAD DIV MUL DUP4 MSTORE SWAP2 PUSH1 0x20 ADD SWAP2 PUSH2 0x701 JUMP JUMPDEST DUP3 ADD SWAP2 SWAP1 PUSH1 0x0 MSTORE PUSH1 0x20 PUSH1 0x0 KECCAK256 SWAP1 JUMPDEST DUP2 SLOAD DUP2 MSTORE SWAP1 PUSH1 0x1 ADD SWAP1 PUSH1 0x20 ADD DUP1 DUP4 GT PUSH2 0x6E4 JUMPI DUP3 SWAP1 SUB PUSH1 0x1F AND DUP3 ADD SWAP2 JUMPDEST POP POP POP POP POP DUP2 MSTORE PUSH1 0x20 ADD PUSH1 0x2 DUP3 ADD DUP1 SLOAD PUSH2 0x71A SWAP1 PUSH2 0x2D12 JUMP JUMPDEST DUP1 PUSH1 0x1F ADD PUSH1 0x20 DUP1 SWAP2 DIV MUL PUSH1 0x20 ADD PUSH1 0x40 MLOAD SWAP1 DUP2 ADD PUSH1 0x40 MSTORE DUP1 SWAP3 SWAP2 SWAP1 DUP2 DUP2 MSTORE PUSH1 0x20 ADD DUP3 DUP1 SLOAD PUSH2 0x746 SWAP1 PUSH2 0x2D12 JUMP JUMPDEST DUP1 ISZERO PUSH2 0x793 JUMPI DUP1 PUSH1 0x1F LT PUSH2 0x768 JUMPI PUSH2 0x100 DUP1 DUP4 SLOAD DIV MUL DUP4 MSTORE SWAP2 PUSH1 0x20 ADD SWAP2 PUSH2 0x793 JUMP JUMPDEST DUP3 ADD SWAP2 SWAP1 PUSH1 0x0 MSTORE PUSH1 0x20 PUSH1 0x0 KECCAK256 SWAP1 JUMPDEST DUP2 SLOAD DUP2 MSTORE SWAP1 PUSH1 0x1 ADD SWAP1 PUSH1 0x20 ADD DUP1 DUP4 GT PUSH2 0x776 JUMPI DUP3 SWAP1 SUB PUSH1 0x1F AND DUP3 ADD SWAP2 JUMPDEST POP POP POP POP POP DUP2 MSTORE PUSH1 0x20 ADD PUSH1 0x3 DUP3 ADD DUP1 SLOAD PUSH2 0x7AC SWAP1 PUSH2 0x2D12 JUMP JUMPDEST DUP1 PUSH1 0x1F ADD PUSH1 0x20 DUP1 SWAP2 DIV MUL PUSH1 0x20 ADD PUSH1 0x40 MLOAD SWAP1 DUP2 ADD PUSH1 0x40 MSTORE DUP1 SWAP3 SWAP2 SWAP1 DUP2 DUP2 MSTORE PUSH1 0x20 ADD DUP3 DUP1 SLOAD PUSH2 0x7D8 SWAP1 PUSH2 0x2D12 JUMP JUMPDEST DUP1 ISZERO PUSH2 0x825 JUMPI DUP1 PUSH1 0x1F LT PUSH2 0x7FA JUMPI PUSH2 0x100 DUP1 DUP4 SLOAD DIV MUL DUP4 MSTORE SWAP2 PUSH1 0x20 ADD SWAP2 PUSH2 0x825 JUMP JUMPDEST DUP3 ADD SWAP2 SWAP1 PUSH1 0x0 MSTORE PUSH1 0x20 PUSH1 0x0 KECCAK256 SWAP1 JUMPDEST DUP2 SLOAD DUP2 MSTORE SWAP1 PUSH1 0x1 ADD SWAP1 PUSH1 0x20 ADD DUP1 DUP4 GT PUSH2 0x808 JUMPI DUP3 SWAP1 SUB PUSH1 0x1F AND DUP3 ADD SWAP2 JUMPDEST POP POP POP POP POP DUP2 MSTORE PUSH1 0x20 ADD PUSH1 0x4 DUP3 ADD DUP1 SLOAD PUSH2 0x83E SWAP1 PUSH2 0x2D12 JUMP JUMPDEST DUP1 PUSH1 0x1F ADD PUSH1 0x20 DUP1 SWAP2 DIV MUL PUSH1 0x20 ADD PUSH1 0x40 MLOAD SWAP1 DUP2 ADD PUSH1 0x40 MSTORE DUP1 SWAP3 SWAP2 SWAP1 DUP2 DUP2 MSTORE PUSH1 0x20 ADD DUP3 DUP1 SLOAD PUSH2 0x86A SWAP1 PUSH2 0x2D12 JUMP JUMPDEST DUP1 ISZERO PUSH2 0x8B7 JUMPI DUP1 PUSH1 0x1F LT PUSH2 0x88C JUMPI PUSH2 0x100 DUP1 DUP4 SLOAD DIV MUL DUP4 MSTORE SWAP2 PUSH1 0x20 ADD SWAP2 PUSH2 0x8B7 JUMP JUMPDEST DUP3 ADD SWAP2 SWAP1 PUSH1 0x0 MSTORE PUSH1 0x20 PUSH1 0x0 KECCAK256 SWAP1 JUMPDEST DUP2 SLOAD DUP2 MSTORE SWAP1 PUSH1 0x1 ADD SWAP1 PUSH1 0x20 ADD DUP1 DUP4 GT PUSH2 0x89A JUMPI DUP3 SWAP1 SUB PUSH1 0x1F AND DUP3 ADD SWAP2 JUMPDEST POP POP POP POP POP DUP2 MSTORE POP POP DUP3 DUP3 PUSH1 0x1 PUSH1 0x1 PUSH1 0x40 SHL SUB AND DUP2 MLOAD DUP2 LT PUSH2 0x8DB JUMPI PUSH2 0x8DB PUSH2 0x2E56 JUMP JUMPDEST PUSH1 0x20 MUL PUSH1 0x20 ADD ADD DUP2 SWAP1 MSTORE POP PUSH20 0xFE2BBC3D86C3E4666D3E352F68B2A224CAC28238 PUSH1 0x1 PUSH1 0x1 PUSH1 0xA0 SHL SUB AND PUSH4 0xBAC6DD6D DUP4 DUP4 PUSH1 0x1 PUSH1 0x1 PUSH1 0x40 SHL SUB AND DUP2 MLOAD DUP2 LT PUSH2 0x924 JUMPI PUSH2 0x924 PUSH2 0x2E56 JUMP JUMPDEST PUSH1 0x20 MUL PUSH1 0x20 ADD ADD MLOAD PUSH1 0xE0 ADD MLOAD PUSH2 0x939 SWAP1 PUSH2 0x2E6C JUMP JUMPDEST PUSH1 0x40 MLOAD DUP3 PUSH4 0xFFFFFFFF AND PUSH1 0xE0 SHL DUP2 MSTORE PUSH1 0x4 ADD PUSH2 0x957 SWAP2 DUP2 MSTORE PUSH1 0x20 ADD SWAP1 JUMP JUMPDEST PUSH1 0x0 PUSH1 0x40 MLOAD DUP1 DUP4 SUB DUP2 DUP7 GAS STATICCALL ISZERO DUP1 ISZERO PUSH2 0x974 JUMPI RETURNDATASIZE PUSH1 0x0 DUP1 RETURNDATACOPY RETURNDATASIZE PUSH1 0x0 REVERT JUMPDEST POP POP POP POP PUSH1 0x40 MLOAD RETURNDATASIZE PUSH1 0x0 DUP3 RETURNDATACOPY PUSH1 0x1F RETURNDATASIZE SWAP1 DUP2 ADD PUSH1 0x1F NOT AND DUP3 ADD PUSH1 0x40 MSTORE PUSH2 0x99C SWAP2 SWAP1 DUP2 ADD SWAP1 PUSH2 0x2E90 JUMP JUMPDEST DUP3 DUP3 PUSH1 0x1 PUSH1 0x1 PUSH1 0x40 SHL SUB AND DUP2 MLOAD DUP2 LT PUSH2 0x9B7 JUMPI PUSH2 0x9B7 PUSH2 0x2E56 JUMP JUMPDEST PUSH1 0x20 MUL PUSH1 0x20 ADD ADD MLOAD PUSH1 0xE0 ADD DUP2 SWAP1 MSTORE POP DUP1 DUP1 PUSH2 0x9D1 SWAP1 PUSH2 0x2F13 JUMP JUMPDEST PUSH1 0x1 PUSH1 0x1 PUSH1 0x40 SHL SUB DUP1 DUP10 AND PUSH1 0x0 SWAP1 DUP2 MSTORE PUSH1 0x3 PUSH1 0x20 SWAP1 DUP2 MSTORE PUSH1 0x40 DUP1 DUP4 KECCAK256 SWAP11 DUP5 AND DUP4 MSTORE SWAP10 SWAP1 MSTORE SWAP8 SWAP1 SWAP8 KECCAK256 SLOAD PUSH1 0x1 PUSH1 0x80 SHL SWAP1 DIV SWAP1 SWAP7 AND SWAP6 SWAP2 POP PUSH2 0x581 SWAP1 POP JUMP JUMPDEST POP SWAP1 POP JUMPDEST SWAP4 SWAP3 POP POP POP JUMP JUMPDEST PUSH1 0x0 SLOAD PUSH1 0x1 PUSH1 0x40 SHL SWAP1 DIV PUSH1 0x1 PUSH1 0x1 PUSH1 0xA0 SHL SUB AND CALLER EQ PUSH2 0xA4A JUMPI PUSH1 0x40 MLOAD PUSH3 0x461BCD PUSH1 0xE5 SHL DUP2 MSTORE PUSH1 0x4 ADD PUSH2 0x2E2 SWAP1 PUSH2 0x2CE2 JUMP JUMPDEST PUSH1 0x0 PUSH2 0xA55 DUP4 PUSH2 0x24D8 JUMP JUMPDEST SWAP1 POP PUSH1 0x0 PUSH2 0xA62 DUP4 PUSH2 0x24D8 JUMP JUMPDEST PUSH1 0x1 PUSH1 0x1 PUSH1 0x40 SHL SUB DUP1 DUP5 AND PUSH1 0x0 SWAP1 DUP2 MSTORE PUSH1 0x3 PUSH1 0x20 SWAP1 DUP2 MSTORE PUSH1 0x40 DUP1 DUP4 KECCAK256 DUP5 DUP7 AND DUP5 MSTORE SWAP1 SWAP2 MSTORE SWAP1 KECCAK256 SLOAD SWAP2 SWAP3 POP AND PUSH2 0xA96 JUMPI PUSH1 0x0 DUP1 REVERT JUMPDEST PUSH1 0x0 PUSH1 0x1 PUSH1 0x0 PUSH2 0xAA5 DUP7 PUSH2 0x2507 JUMP JUMPDEST DUP2 MSTORE PUSH1 0x20 DUP1 DUP3 ADD SWAP3 SWAP1 SWAP3 MSTORE PUSH1 0x40 SWAP1 DUP2 ADD PUSH1 0x0 SWAP1 DUP2 KECCAK256 DUP1 SLOAD PUSH8 0xFFFFFFFFFFFFFFFF NOT AND PUSH1 0x1 PUSH1 0x1 PUSH1 0x40 SHL SUB SWAP6 DUP7 AND OR SWAP1 SSTORE DUP6 DUP5 AND DUP1 DUP3 MSTORE PUSH1 0x3 DUP5 MSTORE DUP3 DUP3 KECCAK256 DUP7 DUP7 AND DUP4 MSTORE DUP5 MSTORE DUP3 DUP3 KECCAK256 DUP1 SLOAD PUSH1 0x1 PUSH1 0xC0 SHL DUP1 DUP3 DIV DUP9 AND DUP6 MSTORE DUP6 DUP6 KECCAK256 DUP1 SLOAD PUSH8 0xFFFFFFFFFFFFFFFF PUSH1 0x80 SHL NOT AND PUSH1 0x1 PUSH1 0x80 SHL SWAP4 DUP5 SWAP1 DIV DUP11 AND DUP5 MUL OR SWAP1 SSTORE SWAP2 SLOAD SWAP1 DUP2 DIV DUP8 AND DUP5 MSTORE DUP5 DUP5 KECCAK256 DUP1 SLOAD PUSH1 0x1 PUSH1 0x1 PUSH1 0xC0 SHL SUB AND SWAP2 DUP4 SWAP1 DIV DUP9 AND SWAP1 SWAP3 MUL OR SWAP1 SSTORE DUP2 MSTORE PUSH1 0x2 SWAP1 SWAP3 MSTORE SWAP1 KECCAK256 DUP1 SLOAD PUSH1 0x1 PUSH1 0x40 SHL SWAP1 DIV SWAP1 SWAP2 AND SWAP1 PUSH1 0x8 PUSH2 0xB61 DUP4 PUSH2 0x2F39 JUMP JUMPDEST DUP3 SLOAD PUSH2 0x100 SWAP3 SWAP1 SWAP3 EXP PUSH1 0x1 PUSH1 0x1 PUSH1 0x40 SHL SUB DUP2 DUP2 MUL NOT SWAP1 SWAP4 AND SWAP2 DUP4 AND MUL OR SWAP1 SWAP2 SSTORE DUP4 DUP2 AND PUSH1 0x0 SWAP1 DUP2 MSTORE PUSH1 0x3 PUSH1 0x20 SWAP1 DUP2 MSTORE PUSH1 0x40 DUP1 DUP4 KECCAK256 SWAP4 DUP7 AND DUP4 MSTORE SWAP3 SWAP1 MSTORE SWAP1 DUP2 KECCAK256 DUP2 DUP2 SSTORE SWAP2 POP PUSH2 0xBB2 PUSH1 0x1 DUP4 ADD DUP3 PUSH2 0x25A0 JUMP JUMPDEST PUSH2 0xBC0 PUSH1 0x2 DUP4 ADD PUSH1 0x0 PUSH2 0x25A0 JUMP JUMPDEST PUSH2 0xBCE PUSH1 0x3 DUP4 ADD PUSH1 0x0 PUSH2 0x25A0 JUMP JUMPDEST PUSH2 0xBDC PUSH1 0x4 DUP4 ADD PUSH1 0x0 PUSH2 0x25A0 JUMP JUMPDEST POP POP POP POP POP POP JUMP JUMPDEST PUSH1 0x0 SLOAD PUSH1 0x1 PUSH1 0x40 SHL SWAP1 DIV PUSH1 0x1 PUSH1 0x1 PUSH1 0xA0 SHL SUB AND CALLER EQ PUSH2 0xC15 JUMPI PUSH1 0x40 MLOAD PUSH3 0x461BCD PUSH1 0xE5 SHL DUP2 MSTORE PUSH1 0x4 ADD PUSH2 0x2E2 SWAP1 PUSH2 0x2CE2 JUMP JUMPDEST PUSH1 0x0 PUSH2 0xC20 DUP3 PUSH2 0x24D8 JUMP JUMPDEST PUSH1 0x1 PUSH1 0x1 PUSH1 0x40 SHL SUB DUP1 DUP3 AND PUSH1 0x0 SWAP1 DUP2 MSTORE PUSH1 0x2 PUSH1 0x20 MSTORE PUSH1 0x40 SWAP1 KECCAK256 SLOAD SWAP2 SWAP3 POP AND PUSH2 0xC47 JUMPI PUSH1 0x0 DUP1 REVERT JUMPDEST PUSH1 0x0 PUSH1 0x1 PUSH1 0x0 PUSH2 0xC56 DUP6 PUSH2 0x2507 JUMP JUMPDEST DUP2 MSTORE PUSH1 0x20 DUP1 DUP3 ADD SWAP3 SWAP1 SWAP3 MSTORE PUSH1 0x40 SWAP1 DUP2 ADD PUSH1 0x0 SWAP1 DUP2 KECCAK256 DUP1 SLOAD PUSH8 0xFFFFFFFFFFFFFFFF NOT AND PUSH1 0x1 PUSH1 0x1 PUSH1 0x40 SHL SUB SWAP6 DUP7 AND OR SWAP1 SSTORE DUP5 DUP5 AND DUP1 DUP3 MSTORE PUSH1 0x2 DUP5 MSTORE DUP3 DUP3 KECCAK256 DUP1 SLOAD PUSH1 0x1 PUSH1 0xC0 SHL DUP1 DUP3 DIV DUP9 AND DUP6 MSTORE DUP6 DUP6 KECCAK256 DUP1 SLOAD PUSH8 0xFFFFFFFFFFFFFFFF PUSH1 0x80 SHL NOT AND PUSH1 0x1 PUSH1 0x80 SHL SWAP4 DUP5 SWAP1 DIV DUP11 AND DUP5 MUL OR SWAP1 SSTORE SWAP2 SLOAD DUP2 DUP2 DIV DUP9 AND DUP6 MSTORE DUP6 DUP6 KECCAK256 DUP1 SLOAD PUSH1 0x1 PUSH1 0x1 PUSH1 0xC0 SHL SUB AND SWAP2 DUP5 SWAP1 DIV DUP10 AND SWAP1 SWAP4 MUL OR SWAP1 SWAP2 SSTORE SWAP1 DUP3 MSTORE PUSH1 0x3 DUP5 MSTORE DUP3 DUP3 KECCAK256 DUP3 DUP1 MSTORE SWAP1 SWAP4 MSTORE SWAP1 DUP2 KECCAK256 DUP1 SLOAD DUP3 DUP3 SSTORE SWAP3 SWAP1 SWAP3 DIV SWAP1 SWAP3 AND SWAP2 PUSH2 0xD15 PUSH1 0x1 DUP4 ADD DUP3 PUSH2 0x25A0 JUMP JUMPDEST PUSH2 0xD23 PUSH1 0x2 DUP4 ADD PUSH1 0x0 PUSH2 0x25A0 JUMP JUMPDEST PUSH2 0xD31 PUSH1 0x3 DUP4 ADD PUSH1 0x0 PUSH2 0x25A0 JUMP JUMPDEST PUSH2 0xD3F PUSH1 0x4 DUP4 ADD PUSH1 0x0 PUSH2 0x25A0 JUMP JUMPDEST POP POP PUSH1 0x0 JUMPDEST PUSH1 0x1 PUSH1 0x1 PUSH1 0x40 SHL SUB DUP1 DUP5 AND PUSH1 0x0 SWAP1 DUP2 MSTORE PUSH1 0x2 PUSH1 0x20 MSTORE PUSH1 0x40 SWAP1 KECCAK256 SLOAD PUSH1 0x1 PUSH1 0x40 SHL SWAP1 DIV AND DUP2 LT ISZERO PUSH2 0xED5 JUMPI PUSH1 0x1 PUSH1 0x1 PUSH1 0x40 SHL SUB DUP4 DUP2 AND PUSH1 0x0 SWAP1 DUP2 MSTORE PUSH1 0x3 PUSH1 0x20 SWAP1 DUP2 MSTORE PUSH1 0x40 DUP1 DUP4 KECCAK256 DUP7 DUP6 AND DUP5 MSTORE SWAP1 SWAP2 MSTORE DUP2 KECCAK256 DUP1 SLOAD PUSH1 0x1 SWAP2 DUP3 ADD DUP1 SLOAD PUSH1 0x1 PUSH1 0x80 SHL SWAP1 SWAP3 DIV SWAP1 SWAP5 AND SWAP4 DUP4 SWAP2 PUSH2 0xE3B SWAP2 SWAP1 PUSH2 0xDB8 SWAP1 PUSH2 0x2D12 JUMP JUMPDEST DUP1 PUSH1 0x1F ADD PUSH1 0x20 DUP1 SWAP2 DIV MUL PUSH1 0x20 ADD PUSH1 0x40 MLOAD SWAP1 DUP2 ADD PUSH1 0x40 MSTORE DUP1 SWAP3 SWAP2 SWAP1 DUP2 DUP2 MSTORE PUSH1 0x20 ADD DUP3 DUP1 SLOAD PUSH2 0xDE4 SWAP1 PUSH2 0x2D12 JUMP JUMPDEST DUP1 ISZERO PUSH2 0xE31 JUMPI DUP1 PUSH1 0x1F LT PUSH2 0xE06 JUMPI PUSH2 0x100 DUP1 DUP4 SLOAD DIV MUL DUP4 MSTORE SWAP2 PUSH1 0x20 ADD SWAP2 PUSH2 0xE31 JUMP JUMPDEST DUP3 ADD SWAP2 SWAP1 PUSH1 0x0 MSTORE PUSH1 0x20 PUSH1 0x0 KECCAK256 SWAP1 JUMPDEST DUP2 SLOAD DUP2 MSTORE SWAP1 PUSH1 0x1 ADD SWAP1 PUSH1 0x20 ADD DUP1 DUP4 GT PUSH2 0xE14 JUMPI DUP3 SWAP1 SUB PUSH1 0x1F AND DUP3 ADD SWAP2 JUMPDEST POP POP POP POP POP PUSH2 0x2507 JUMP JUMPDEST DUP2 MSTORE PUSH1 0x20 DUP1 DUP3 ADD SWAP3 SWAP1 SWAP3 MSTORE PUSH1 0x40 SWAP1 DUP2 ADD PUSH1 0x0 SWAP1 DUP2 KECCAK256 DUP1 SLOAD PUSH8 0xFFFFFFFFFFFFFFFF NOT AND PUSH1 0x1 PUSH1 0x1 PUSH1 0x40 SHL SUB SWAP6 DUP7 AND OR SWAP1 SSTORE DUP8 DUP5 AND DUP2 MSTORE PUSH1 0x3 DUP4 MSTORE DUP2 DUP2 KECCAK256 SWAP4 DUP8 AND DUP2 MSTORE SWAP3 SWAP1 SWAP2 MSTORE DUP2 KECCAK256 DUP2 DUP2 SSTORE SWAP1 PUSH2 0xE93 PUSH1 0x1 DUP4 ADD DUP3 PUSH2 0x25A0 JUMP JUMPDEST PUSH2 0xEA1 PUSH1 0x2 DUP4 ADD PUSH1 0x0 PUSH2 0x25A0 JUMP JUMPDEST PUSH2 0xEAF PUSH1 0x3 DUP4 ADD PUSH1 0x0 PUSH2 0x25A0 JUMP JUMPDEST PUSH2 0xEBD PUSH1 0x4 DUP4 ADD PUSH1 0x0 PUSH2 0x25A0 JUMP JUMPDEST POP SWAP1 SWAP3 POP DUP2 SWAP1 POP PUSH2 0xECD DUP2 PUSH2 0x2F5C JUMP JUMPDEST SWAP2 POP POP PUSH2 0xD44 JUMP JUMPDEST POP PUSH1 0x0 DUP1 MSTORE PUSH1 0x2 PUSH1 0x20 MSTORE PUSH1 0x0 DUP1 MLOAD PUSH1 0x20 PUSH2 0x3064 DUP4 CODECOPY DUP2 MLOAD SWAP2 MSTORE DUP1 SLOAD PUSH1 0x1 PUSH1 0x40 SHL SWAP1 DIV PUSH1 0x1 PUSH1 0x1 PUSH1 0x40 SHL SUB AND SWAP1 PUSH1 0x8 PUSH2 0xF0C DUP4 PUSH2 0x2F39 JUMP JUMPDEST DUP3 SLOAD PUSH2 0x100 SWAP3 SWAP1 SWAP3 EXP PUSH1 0x1 PUSH1 0x1 PUSH1 0x40 SHL SUB DUP2 DUP2 MUL NOT SWAP1 SWAP4 AND SWAP2 DUP4 AND MUL OR SWAP1 SWAP2 SSTORE DUP4 AND PUSH1 0x0 SWAP1 DUP2 MSTORE PUSH1 0x2 PUSH1 0x20 MSTORE PUSH1 0x40 DUP2 KECCAK256 DUP2 DUP2 SSTORE SWAP2 POP PUSH2 0xF4E PUSH1 0x1 DUP4 ADD DUP3 PUSH2 0x25A0 JUMP JUMPDEST PUSH2 0xF5C PUSH1 0x2 DUP4 ADD PUSH1 0x0 PUSH2 0x25A0 JUMP JUMPDEST POP POP POP POP POP JUMP JUMPDEST PUSH1 0x1 PUSH1 0x1 PUSH1 0x40 SHL SUB SWAP2 DUP3 AND PUSH1 0x0 SWAP1 DUP2 MSTORE PUSH1 0x2 PUSH1 0x20 MSTORE PUSH1 0x40 DUP2 KECCAK256 SLOAD PUSH1 0x1 PUSH1 0x80 SHL SWAP1 DIV SWAP1 SWAP3 AND SWAP2 PUSH1 0x60 SWAP1 DUP4 SWAP1 SUB PUSH2 0xFC9 JUMPI PUSH1 0x40 DUP1 MLOAD PUSH1 0x1 DUP1 DUP3 MSTORE DUP2 DUP4 ADD SWAP1 SWAP3 MSTORE SWAP1 DUP2 PUSH1 0x20 ADD JUMPDEST PUSH2 0xFAF PUSH2 0x25DD JUMP JUMPDEST DUP2 MSTORE PUSH1 0x20 ADD SWAP1 PUSH1 0x1 SWAP1 SUB SWAP1 DUP2 PUSH2 0xFA7 JUMPI SWAP1 POP POP SWAP1 POP PUSH2 0x1321 JUMP JUMPDEST PUSH1 0x0 DUP3 PUSH1 0x1 PUSH1 0x1 PUSH1 0x40 SHL SUB AND PUSH1 0x1 PUSH1 0x1 PUSH1 0x40 SHL SUB DUP2 GT ISZERO PUSH2 0xFEC JUMPI PUSH2 0xFEC PUSH2 0x2650 JUMP JUMPDEST PUSH1 0x40 MLOAD SWAP1 DUP1 DUP3 MSTORE DUP1 PUSH1 0x20 MUL PUSH1 0x20 ADD DUP3 ADD PUSH1 0x40 MSTORE DUP1 ISZERO PUSH2 0x1025 JUMPI DUP2 PUSH1 0x20 ADD JUMPDEST PUSH2 0x1012 PUSH2 0x25DD JUMP JUMPDEST DUP2 MSTORE PUSH1 0x20 ADD SWAP1 PUSH1 0x1 SWAP1 SUB SWAP1 DUP2 PUSH2 0x100A JUMPI SWAP1 POP JUMPDEST POP SWAP1 POP PUSH1 0x0 JUMPDEST DUP4 PUSH1 0x1 PUSH1 0x1 PUSH1 0x40 SHL SUB AND DUP2 PUSH1 0x1 PUSH1 0x1 PUSH1 0x40 SHL SUB AND LT ISZERO PUSH2 0x131D JUMPI PUSH1 0x1 PUSH1 0x1 PUSH1 0x40 SHL SUB DUP6 AND ISZERO PUSH2 0x131D JUMPI PUSH1 0x1 PUSH1 0x1 PUSH1 0x40 SHL SUB DUP1 DUP7 AND PUSH1 0x0 SWAP1 DUP2 MSTORE PUSH1 0x2 PUSH1 0x20 SWAP1 DUP2 MSTORE PUSH1 0x40 SWAP2 DUP3 SWAP1 KECCAK256 DUP3 MLOAD PUSH1 0xC0 DUP2 ADD DUP5 MSTORE DUP2 SLOAD DUP1 DUP7 AND DUP3 MSTORE PUSH1 0x1 PUSH1 0x40 SHL DUP2 DIV DUP7 AND SWAP4 DUP3 ADD SWAP4 SWAP1 SWAP4 MSTORE PUSH1 0x1 PUSH1 0x80 SHL DUP4 DIV DUP6 AND SWAP4 DUP2 ADD SWAP4 SWAP1 SWAP4 MSTORE PUSH1 0x1 PUSH1 0xC0 SHL SWAP1 SWAP2 DIV SWAP1 SWAP3 AND PUSH1 0x60 DUP3 ADD MSTORE PUSH1 0x1 DUP3 ADD DUP1 SLOAD SWAP2 SWAP3 SWAP2 PUSH1 0x80 DUP5 ADD SWAP2 SWAP1 PUSH2 0x10C8 SWAP1 PUSH2 0x2D12 JUMP JUMPDEST DUP1 PUSH1 0x1F ADD PUSH1 0x20 DUP1 SWAP2 DIV MUL PUSH1 0x20 ADD PUSH1 0x40 MLOAD SWAP1 DUP2 ADD PUSH1 0x40 MSTORE DUP1 SWAP3 SWAP2 SWAP1 DUP2 DUP2 MSTORE PUSH1 0x20 ADD DUP3 DUP1 SLOAD PUSH2 0x10F4 SWAP1 PUSH2 0x2D12 JUMP JUMPDEST DUP1 ISZERO PUSH2 0x1141 JUMPI DUP1 PUSH1 0x1F LT PUSH2 0x1116 JUMPI PUSH2 0x100 DUP1 DUP4 SLOAD DIV MUL DUP4 MSTORE SWAP2 PUSH1 0x20 ADD SWAP2 PUSH2 0x1141 JUMP JUMPDEST DUP3 ADD SWAP2 SWAP1 PUSH1 0x0 MSTORE PUSH1 0x20 PUSH1 0x0 KECCAK256 SWAP1 JUMPDEST DUP2 SLOAD DUP2 MSTORE SWAP1 PUSH1 0x1 ADD SWAP1 PUSH1 0x20 ADD DUP1 DUP4 GT PUSH2 0x1124 JUMPI DUP3 SWAP1 SUB PUSH1 0x1F AND DUP3 ADD SWAP2 JUMPDEST POP POP POP POP POP DUP2 MSTORE PUSH1 0x20 ADD PUSH1 0x2 DUP3 ADD DUP1 SLOAD PUSH2 0x115A SWAP1 PUSH2 0x2D12 JUMP JUMPDEST DUP1 PUSH1 0x1F ADD PUSH1 0x20 DUP1 SWAP2 DIV MUL PUSH1 0x20 ADD PUSH1 0x40 MLOAD SWAP1 DUP2 ADD PUSH1 0x40 MSTORE DUP1 SWAP3 SWAP2 SWAP1 DUP2 DUP2 MSTORE PUSH1 0x20 ADD DUP3 DUP1 SLOAD PUSH2 0x1186 SWAP1 PUSH2 0x2D12 JUMP JUMPDEST DUP1 ISZERO PUSH2 0x11D3 JUMPI DUP1 PUSH1 0x1F LT PUSH2 0x11A8 JUMPI PUSH2 0x100 DUP1 DUP4 SLOAD DIV MUL DUP4 MSTORE SWAP2 PUSH1 0x20 ADD SWAP2 PUSH2 0x11D3 JUMP JUMPDEST DUP3 ADD SWAP2 SWAP1 PUSH1 0x0 MSTORE PUSH1 0x20 PUSH1 0x0 KECCAK256 SWAP1 JUMPDEST DUP2 SLOAD DUP2 MSTORE SWAP1 PUSH1 0x1 ADD SWAP1 PUSH1 0x20 ADD DUP1 DUP4 GT PUSH2 0x11B6 JUMPI DUP3 SWAP1 SUB PUSH1 0x1F AND DUP3 ADD SWAP2 JUMPDEST POP POP POP POP POP DUP2 MSTORE POP POP DUP3 DUP3 PUSH1 0x1 PUSH1 0x1 PUSH1 0x40 SHL SUB AND DUP2 MLOAD DUP2 LT PUSH2 0x11F7 JUMPI PUSH2 0x11F7 PUSH2 0x2E56 JUMP JUMPDEST PUSH1 0x20 MUL PUSH1 0x20 ADD ADD DUP2 SWAP1 MSTORE POP PUSH20 0xFE2BBC3D86C3E4666D3E352F68B2A224CAC28238 PUSH1 0x1 PUSH1 0x1 PUSH1 0xA0 SHL SUB AND PUSH4 0xBAC6DD6D DUP4 DUP4 PUSH1 0x1 PUSH1 0x1 PUSH1 0x40 SHL SUB AND DUP2 MLOAD DUP2 LT PUSH2 0x1240 JUMPI PUSH2 0x1240 PUSH2 0x2E56 JUMP JUMPDEST PUSH1 0x20 MUL PUSH1 0x20 ADD ADD MLOAD PUSH1 0xA0 ADD MLOAD PUSH2 0x1255 SWAP1 PUSH2 0x2E6C JUMP JUMPDEST PUSH1 0x40 MLOAD DUP3 PUSH4 0xFFFFFFFF AND PUSH1 0xE0 SHL DUP2 MSTORE PUSH1 0x4 ADD PUSH2 0x1273 SWAP2 DUP2 MSTORE PUSH1 0x20 ADD SWAP1 JUMP JUMPDEST PUSH1 0x0 PUSH1 0x40 MLOAD DUP1 DUP4 SUB DUP2 DUP7 GAS STATICCALL ISZERO DUP1 ISZERO PUSH2 0x1290 JUMPI RETURNDATASIZE PUSH1 0x0 DUP1 RETURNDATACOPY RETURNDATASIZE PUSH1 0x0 REVERT JUMPDEST POP POP POP POP PUSH1 0x40 MLOAD RETURNDATASIZE PUSH1 0x0 DUP3 RETURNDATACOPY PUSH1 0x1F RETURNDATASIZE SWAP1 DUP2 ADD PUSH1 0x1F NOT AND DUP3 ADD PUSH1 0x40 MSTORE PUSH2 0x12B8 SWAP2 SWAP1 DUP2 ADD SWAP1 PUSH2 0x2E90 JUMP JUMPDEST DUP3 DUP3 PUSH1 0x1 PUSH1 0x1 PUSH1 0x40 SHL SUB AND DUP2 MLOAD DUP2 LT PUSH2 0x12D3 JUMPI PUSH2 0x12D3 PUSH2 0x2E56 JUMP JUMPDEST PUSH1 0x20 SWAP1 DUP2 MUL SWAP2 SWAP1 SWAP2 ADD DUP2 ADD MLOAD PUSH1 0xA0 ADD SWAP2 SWAP1 SWAP2 MSTORE PUSH1 0x1 PUSH1 0x1 PUSH1 0x40 SHL SUB SWAP6 DUP7 AND PUSH1 0x0 SWAP1 DUP2 MSTORE PUSH1 0x2 SWAP1 SWAP2 MSTORE PUSH1 0x40 SWAP1 KECCAK256 SLOAD PUSH1 0x1 PUSH1 0x80 SHL SWAP1 DIV SWAP1 SWAP5 AND SWAP4 DUP1 PUSH2 0x1315 DUP2 PUSH2 0x2F13 JUMP JUMPDEST SWAP2 POP POP PUSH2 0x102B JUMP JUMPDEST POP SWAP1 POP JUMPDEST SWAP3 SWAP2 POP POP JUMP JUMPDEST PUSH1 0x0 SLOAD PUSH1 0x1 PUSH1 0x40 SHL SWAP1 DIV PUSH1 0x1 PUSH1 0x1 PUSH1 0xA0 SHL SUB AND CALLER EQ PUSH2 0x1358 JUMPI PUSH1 0x40 MLOAD PUSH3 0x461BCD PUSH1 0xE5 SHL DUP2 MSTORE PUSH1 0x4 ADD PUSH2 0x2E2 SWAP1 PUSH2 0x2CE2 JUMP JUMPDEST PUSH1 0x0 PUSH2 0x1363 DUP4 PUSH2 0x24D8 JUMP JUMPDEST SWAP1 POP PUSH1 0x0 PUSH2 0x1370 DUP4 PUSH2 0x24D8 JUMP JUMPDEST SWAP1 POP DUP1 PUSH1 0x1 PUSH1 0x1 PUSH1 0x40 SHL SUB AND DUP3 PUSH1 0x1 PUSH1 0x1 PUSH1 0x40 SHL SUB AND SUB PUSH2 0x1390 JUMPI PUSH1 0x0 DUP1 REVERT JUMPDEST PUSH1 0x1 PUSH1 0x1 PUSH1 0x40 SHL SUB DUP1 DUP4 AND PUSH1 0x0 SWAP1 DUP2 MSTORE PUSH1 0x2 PUSH1 0x20 MSTORE PUSH1 0x40 SWAP1 KECCAK256 SLOAD AND ISZERO DUP1 ISZERO SWAP1 PUSH2 0x13D2 JUMPI POP PUSH1 0x1 PUSH1 0x1 PUSH1 0x40 SHL SUB DUP1 DUP3 AND PUSH1 0x0 SWAP1 DUP2 MSTORE PUSH1 0x2 PUSH1 0x20 MSTORE PUSH1 0x40 SWAP1 KECCAK256 SLOAD AND ISZERO ISZERO JUMPDEST PUSH2 0x13DB JUMPI PUSH1 0x0 DUP1 REVERT JUMPDEST PUSH1 0x1 PUSH1 0x1 PUSH1 0x40 SHL SUB SWAP2 DUP3 AND PUSH1 0x0 DUP2 DUP2 MSTORE PUSH1 0x2 PUSH1 0x20 MSTORE PUSH1 0x40 DUP1 DUP3 KECCAK256 DUP1 SLOAD PUSH1 0x1 PUSH1 0xC0 SHL DUP1 DUP3 DIV DUP9 AND DUP6 MSTORE DUP4 DUP6 KECCAK256 DUP1 SLOAD PUSH8 0xFFFFFFFFFFFFFFFF PUSH1 0x80 SHL NOT SWAP1 DUP2 AND PUSH1 0x1 PUSH1 0x80 SHL SWAP5 DUP6 SWAP1 DIV DUP12 AND DUP6 MUL OR SWAP1 SWAP2 SSTORE DUP4 SLOAD DUP4 DUP2 DIV DUP11 AND DUP8 MSTORE DUP6 DUP8 KECCAK256 DUP1 SLOAD PUSH1 0x1 PUSH1 0x1 PUSH1 0xC0 SHL SUB SWAP1 DUP2 AND SWAP3 DUP6 SWAP1 DIV DUP13 AND DUP6 MUL SWAP3 SWAP1 SWAP3 OR SWAP1 SSTORE SWAP8 DUP10 AND DUP1 DUP8 MSTORE DUP6 DUP8 KECCAK256 DUP1 SLOAD DUP7 SLOAD PUSH1 0x1 PUSH1 0x1 PUSH1 0x80 SHL SUB AND SWAP1 DUP7 SWAP1 DIV DUP13 AND DUP7 MUL DUP12 AND OR SWAP2 DUP5 MUL SWAP2 SWAP1 SWAP2 OR DUP6 SSTORE DUP1 SLOAD SWAP1 SWAP2 AND DUP4 DUP9 MUL OR SWAP1 SSTORE SWAP2 SLOAD DIV SWAP1 SWAP6 AND DUP3 MSTORE SWAP1 KECCAK256 DUP1 SLOAD SWAP1 SWAP3 AND SWAP3 MUL SWAP2 SWAP1 SWAP2 OR SWAP1 SSTORE POP POP JUMP JUMPDEST PUSH1 0x0 SLOAD PUSH1 0x1 PUSH1 0x40 SHL SWAP1 DIV PUSH1 0x1 PUSH1 0x1 PUSH1 0xA0 SHL SUB AND CALLER EQ PUSH2 0x14D1 JUMPI PUSH1 0x40 MLOAD PUSH3 0x461BCD PUSH1 0xE5 SHL DUP2 MSTORE PUSH1 0x4 ADD PUSH2 0x2E2 SWAP1 PUSH2 0x2CE2 JUMP JUMPDEST DUP2 MLOAD PUSH1 0x0 SUB PUSH2 0x14DF JUMPI PUSH1 0x0 DUP1 REVERT JUMPDEST PUSH2 0x14E8 DUP3 PUSH2 0x24D8 JUMP JUMPDEST PUSH1 0x1 PUSH1 0x1 PUSH1 0x40 SHL SUB AND ISZERO PUSH2 0x14FB JUMPI PUSH1 0x0 DUP1 REVERT JUMPDEST PUSH1 0x0 DUP1 SLOAD PUSH1 0x1 PUSH1 0x1 PUSH1 0x40 SHL SUB AND SWAP1 DUP1 PUSH2 0x1513 DUP4 PUSH2 0x2F13 JUMP JUMPDEST SWAP2 SWAP1 PUSH2 0x100 EXP DUP2 SLOAD DUP2 PUSH1 0x1 PUSH1 0x1 PUSH1 0x40 SHL SUB MUL NOT AND SWAP1 DUP4 PUSH1 0x1 PUSH1 0x1 PUSH1 0x40 SHL SUB AND MUL OR SWAP1 SSTORE POP POP PUSH1 0x0 DUP1 SLOAD SWAP1 PUSH2 0x100 EXP SWAP1 DIV PUSH1 0x1 PUSH1 0x1 PUSH1 0x40 SHL SUB AND PUSH1 0x1 PUSH1 0x0 PUSH2 0x1559 DUP6 PUSH2 0x2507 JUMP JUMPDEST DUP2 MSTORE PUSH1 0x20 DUP1 DUP3 ADD SWAP3 SWAP1 SWAP3 MSTORE PUSH1 0x40 SWAP1 DUP2 ADD PUSH1 0x0 SWAP1 DUP2 KECCAK256 DUP1 SLOAD PUSH8 0xFFFFFFFFFFFFFFFF NOT AND PUSH1 0x1 PUSH1 0x1 PUSH1 0x40 SHL SUB SWAP6 DUP7 AND OR SWAP1 SSTORE DUP2 MLOAD PUSH1 0xC0 DUP2 ADD DUP4 MSTORE DUP2 SLOAD DUP6 AND DUP1 DUP3 MSTORE DUP2 DUP6 ADD DUP4 DUP2 MSTORE DUP3 DUP6 ADD DUP5 DUP2 MSTORE PUSH1 0x0 DUP1 MLOAD PUSH1 0x20 PUSH2 0x3064 DUP4 CODECOPY DUP2 MLOAD SWAP2 MSTORE SLOAD PUSH1 0x1 PUSH1 0xC0 SHL SWAP1 DUP2 SWAP1 DIV DUP10 AND PUSH1 0x60 DUP7 ADD SWAP1 DUP2 MSTORE PUSH1 0x80 DUP7 ADD DUP13 DUP2 MSTORE DUP9 MLOAD DUP1 DUP12 ADD DUP14 SWAP1 MSTORE DUP10 MLOAD DUP1 DUP3 SUB DUP13 ADD DUP2 MSTORE SWAP1 DUP11 ADD DUP11 MSTORE PUSH1 0xA0 DUP9 ADD MSTORE SWAP5 DUP8 MSTORE PUSH1 0x2 SWAP1 SWAP9 MSTORE SWAP6 SWAP1 SWAP5 KECCAK256 DUP4 MLOAD DUP2 SLOAD SWAP3 MLOAD SWAP6 MLOAD SWAP8 MLOAD DUP10 AND SWAP1 SWAP7 MUL PUSH1 0x1 PUSH1 0x1 PUSH1 0xC0 SHL SUB SWAP8 DUP10 AND PUSH1 0x1 PUSH1 0x80 SHL MUL SWAP8 SWAP1 SWAP8 AND PUSH1 0x1 PUSH1 0x1 PUSH1 0x80 SHL SUB SWAP6 DUP10 AND PUSH1 0x1 PUSH1 0x40 SHL MUL PUSH1 0x1 PUSH1 0x1 PUSH1 0x80 SHL SUB NOT SWAP1 SWAP4 AND SWAP7 SWAP1 SWAP9 AND SWAP6 SWAP1 SWAP6 OR OR SWAP3 SWAP1 SWAP3 AND SWAP5 SWAP1 SWAP5 OR SWAP3 SWAP1 SWAP3 OR DUP2 SSTORE SWAP1 MLOAD PUSH1 0x1 DUP3 ADD SWAP1 PUSH2 0x165D SWAP1 DUP3 PUSH2 0x2D97 JUMP JUMPDEST POP PUSH1 0xA0 DUP3 ADD MLOAD PUSH1 0x2 DUP3 ADD SWAP1 PUSH2 0x1672 SWAP1 DUP3 PUSH2 0x2D97 JUMP JUMPDEST POP POP PUSH1 0x0 DUP1 SLOAD PUSH1 0x2 PUSH1 0x20 MSTORE PUSH1 0x0 DUP1 MLOAD PUSH1 0x20 PUSH2 0x3064 DUP4 CODECOPY DUP2 MLOAD SWAP2 MSTORE DUP1 SLOAD PUSH1 0x1 PUSH1 0x1 PUSH1 0x40 SHL SUB PUSH1 0x1 PUSH1 0xC0 SHL SWAP2 DUP3 SWAP1 DIV DUP2 AND DUP6 MSTORE PUSH1 0x40 DUP6 KECCAK256 DUP1 SLOAD PUSH8 0xFFFFFFFFFFFFFFFF PUSH1 0x80 SHL NOT AND SWAP5 DUP3 AND PUSH1 0x1 PUSH1 0x80 SHL MUL SWAP5 SWAP1 SWAP5 OR SWAP1 SWAP4 SSTORE DUP4 SLOAD SWAP4 DUP1 MSTORE DUP2 SLOAD PUSH1 0x1 PUSH1 0x1 PUSH1 0xC0 SHL SUB AND SWAP4 DUP4 AND MUL SWAP3 SWAP1 SWAP3 OR DUP1 DUP4 SSTORE PUSH1 0x1 PUSH1 0x40 SHL SWAP1 DIV AND SWAP2 POP PUSH1 0x8 PUSH2 0x16F7 DUP4 PUSH2 0x2F13 JUMP JUMPDEST SWAP2 SWAP1 PUSH2 0x100 EXP DUP2 SLOAD DUP2 PUSH1 0x1 PUSH1 0x1 PUSH1 0x40 SHL SUB MUL NOT AND SWAP1 DUP4 PUSH1 0x1 PUSH1 0x1 PUSH1 0x40 SHL SUB AND MUL OR SWAP1 SSTORE POP POP POP POP JUMP JUMPDEST PUSH2 0x1728 PUSH2 0x2537 JUMP JUMPDEST PUSH1 0x0 PUSH1 0x3 PUSH1 0x0 PUSH2 0x1737 DUP7 PUSH2 0x24D8 JUMP JUMPDEST PUSH1 0x1 PUSH1 0x1 PUSH1 0x40 SHL SUB AND PUSH1 0x1 PUSH1 0x1 PUSH1 0x40 SHL SUB AND DUP2 MSTORE PUSH1 0x20 ADD SWAP1 DUP2 MSTORE PUSH1 0x20 ADD PUSH1 0x0 KECCAK256 PUSH1 0x0 PUSH2 0x1762 DUP6 PUSH2 0x24D8 JUMP JUMPDEST PUSH1 0x1 PUSH1 0x1 PUSH1 0x40 SHL SUB SWAP1 DUP2 AND DUP3 MSTORE PUSH1 0x20 DUP1 DUP4 ADD SWAP4 SWAP1 SWAP4 MSTORE PUSH1 0x40 SWAP2 DUP3 ADD PUSH1 0x0 KECCAK256 DUP3 MLOAD PUSH2 0x100 DUP2 ADD DUP5 MSTORE DUP2 SLOAD DUP1 DUP5 AND DUP3 MSTORE PUSH1 0x1 PUSH1 0x40 SHL DUP2 DIV DUP5 AND SWAP6 DUP3 ADD SWAP6 SWAP1 SWAP6 MSTORE PUSH1 0x1 PUSH1 0x80 SHL DUP6 DIV DUP4 AND SWAP4 DUP2 ADD SWAP4 SWAP1 SWAP4 MSTORE PUSH1 0x1 PUSH1 0xC0 SHL SWAP1 SWAP4 DIV AND PUSH1 0x60 DUP3 ADD MSTORE PUSH1 0x1 DUP3 ADD DUP1 SLOAD SWAP2 SWAP3 SWAP2 PUSH1 0x80 DUP5 ADD SWAP2 SWAP1 PUSH2 0x17D6 SWAP1 PUSH2 0x2D12 JUMP JUMPDEST DUP1 PUSH1 0x1F ADD PUSH1 0x20 DUP1 SWAP2 DIV MUL PUSH1 0x20 ADD PUSH1 0x40 MLOAD SWAP1 DUP2 ADD PUSH1 0x40 MSTORE DUP1 SWAP3 SWAP2 SWAP1 DUP2 DUP2 MSTORE PUSH1 0x20 ADD DUP3 DUP1 SLOAD PUSH2 0x1802 SWAP1 PUSH2 0x2D12 JUMP JUMPDEST DUP1 ISZERO PUSH2 0x184F JUMPI DUP1 PUSH1 0x1F LT PUSH2 0x1824 JUMPI PUSH2 0x100 DUP1 DUP4 SLOAD DIV MUL DUP4 MSTORE SWAP2 PUSH1 0x20 ADD SWAP2 PUSH2 0x184F JUMP JUMPDEST DUP3 ADD SWAP2 SWAP1 PUSH1 0x0 MSTORE PUSH1 0x20 PUSH1 0x0 KECCAK256 SWAP1 JUMPDEST DUP2 SLOAD DUP2 MSTORE SWAP1 PUSH1 0x1 ADD SWAP1 PUSH1 0x20 ADD DUP1 DUP4 GT PUSH2 0x1832 JUMPI DUP3 SWAP1 SUB PUSH1 0x1F AND DUP3 ADD SWAP2 JUMPDEST POP POP POP POP POP DUP2 MSTORE PUSH1 0x20 ADD PUSH1 0x2 DUP3 ADD DUP1 SLOAD PUSH2 0x1868 SWAP1 PUSH2 0x2D12 JUMP JUMPDEST DUP1 PUSH1 0x1F ADD PUSH1 0x20 DUP1 SWAP2 DIV MUL PUSH1 0x20 ADD PUSH1 0x40 MLOAD SWAP1 DUP2 ADD PUSH1 0x40 MSTORE DUP1 SWAP3 SWAP2 SWAP1 DUP2 DUP2 MSTORE PUSH1 0x20 ADD DUP3 DUP1 SLOAD PUSH2 0x1894 SWAP1 PUSH2 0x2D12 JUMP JUMPDEST DUP1 ISZERO PUSH2 0x18E1 JUMPI DUP1 PUSH1 0x1F LT PUSH2 0x18B6 JUMPI PUSH2 0x100 DUP1 DUP4 SLOAD DIV MUL DUP4 MSTORE SWAP2 PUSH1 0x20 ADD SWAP2 PUSH2 0x18E1 JUMP JUMPDEST DUP3 ADD SWAP2 SWAP1 PUSH1 0x0 MSTORE PUSH1 0x20 PUSH1 0x0 KECCAK256 SWAP1 JUMPDEST DUP2 SLOAD DUP2 MSTORE SWAP1 PUSH1 0x1 ADD SWAP1 PUSH1 0x20 ADD DUP1 DUP4 GT PUSH2 0x18C4 JUMPI DUP3 SWAP1 SUB PUSH1 0x1F AND DUP3 ADD SWAP2 JUMPDEST POP POP POP POP POP DUP2 MSTORE PUSH1 0x20 ADD PUSH1 0x3 DUP3 ADD DUP1 SLOAD PUSH2 0x18FA SWAP1 PUSH2 0x2D12 JUMP JUMPDEST DUP1 PUSH1 0x1F ADD PUSH1 0x20 DUP1 SWAP2 DIV MUL PUSH1 0x20 ADD PUSH1 0x40 MLOAD SWAP1 DUP2 ADD PUSH1 0x40 MSTORE DUP1 SWAP3 SWAP2 SWAP1 DUP2 DUP2 MSTORE PUSH1 0x20 ADD DUP3 DUP1 SLOAD PUSH2 0x1926 SWAP1 PUSH2 0x2D12 JUMP JUMPDEST DUP1 ISZERO PUSH2 0x1973 JUMPI DUP1 PUSH1 0x1F LT PUSH2 0x1948 JUMPI PUSH2 0x100 DUP1 DUP4 SLOAD DIV MUL DUP4 MSTORE SWAP2 PUSH1 0x20 ADD SWAP2 PUSH2 0x1973 JUMP JUMPDEST DUP3 ADD SWAP2 SWAP1 PUSH1 0x0 MSTORE PUSH1 0x20 PUSH1 0x0 KECCAK256 SWAP1 JUMPDEST DUP2 SLOAD DUP2 MSTORE SWAP1 PUSH1 0x1 ADD SWAP1 PUSH1 0x20 ADD DUP1 DUP4 GT PUSH2 0x1956 JUMPI DUP3 SWAP1 SUB PUSH1 0x1F AND DUP3 ADD SWAP2 JUMPDEST POP POP POP POP POP DUP2 MSTORE PUSH1 0x20 ADD PUSH1 0x4 DUP3 ADD DUP1 SLOAD PUSH2 0x198C SWAP1 PUSH2 0x2D12 JUMP JUMPDEST DUP1 PUSH1 0x1F ADD PUSH1 0x20 DUP1 SWAP2 DIV MUL PUSH1 0x20 ADD PUSH1 0x40 MLOAD SWAP1 DUP2 ADD PUSH1 0x40 MSTORE DUP1 SWAP3 SWAP2 SWAP1 DUP2 DUP2 MSTORE PUSH1 0x20 ADD DUP3 DUP1 SLOAD PUSH2 0x19B8 SWAP1 PUSH2 0x2D12 JUMP JUMPDEST DUP1 ISZERO PUSH2 0x1A05 JUMPI DUP1 PUSH1 0x1F LT PUSH2 0x19DA JUMPI PUSH2 0x100 DUP1 DUP4 SLOAD DIV MUL DUP4 MSTORE SWAP2 PUSH1 0x20 ADD SWAP2 PUSH2 0x1A05 JUMP JUMPDEST DUP3 ADD SWAP2 SWAP1 PUSH1 0x0 MSTORE PUSH1 0x20 PUSH1 0x0 KECCAK256 SWAP1 JUMPDEST DUP2 SLOAD DUP2 MSTORE SWAP1 PUSH1 0x1 ADD SWAP1 PUSH1 0x20 ADD DUP1 DUP4 GT PUSH2 0x19E8 JUMPI DUP3 SWAP1 SUB PUSH1 0x1F AND DUP3 ADD SWAP2 JUMPDEST POP POP POP POP POP DUP2 MSTORE POP POP SWAP1 POP PUSH20 0xFE2BBC3D86C3E4666D3E352F68B2A224CAC28238 PUSH1 0x1 PUSH1 0x1 PUSH1 0xA0 SHL SUB AND PUSH4 0xBAC6DD6D DUP3 PUSH1 0xE0 ADD MLOAD PUSH2 0x1A41 SWAP1 PUSH2 0x2E6C JUMP JUMPDEST PUSH1 0x40 MLOAD DUP3 PUSH4 0xFFFFFFFF AND PUSH1 0xE0 SHL DUP2 MSTORE PUSH1 0x4 ADD PUSH2 0x1A5F SWAP2 DUP2 MSTORE PUSH1 0x20 ADD SWAP1 JUMP JUMPDEST PUSH1 0x0 PUSH1 0x40 MLOAD DUP1 DUP4 SUB DUP2 DUP7 GAS STATICCALL ISZERO DUP1 ISZERO PUSH2 0x1A7C JUMPI RETURNDATASIZE PUSH1 0x0 DUP1 RETURNDATACOPY RETURNDATASIZE PUSH1 0x0 REVERT JUMPDEST POP POP POP POP PUSH1 0x40 MLOAD RETURNDATASIZE PUSH1 0x0 DUP3 RETURNDATACOPY PUSH1 0x1F RETURNDATASIZE SWAP1 DUP2 ADD PUSH1 0x1F NOT AND DUP3 ADD PUSH1 0x40 MSTORE PUSH2 0x1AA4 SWAP2 SWAP1 DUP2 ADD SWAP1 PUSH2 0x2E90 JUMP JUMPDEST PUSH1 0xE0 DUP3 ADD MSTORE SWAP4 SWAP3 POP POP POP JUMP JUMPDEST PUSH1 0x0 SLOAD PUSH1 0x1 PUSH1 0x40 SHL SWAP1 DIV PUSH1 0x1 PUSH1 0x1 PUSH1 0xA0 SHL SUB AND CALLER EQ PUSH2 0x1AE1 JUMPI PUSH1 0x40 MLOAD PUSH3 0x461BCD PUSH1 0xE5 SHL DUP2 MSTORE PUSH1 0x4 ADD PUSH2 0x2E2 SWAP1 PUSH2 0x2CE2 JUMP JUMPDEST PUSH1 0x0 PUSH2 0x1AEC DUP6 PUSH2 0x24D8 JUMP JUMPDEST SWAP1 POP PUSH1 0x0 PUSH2 0x1AF9 DUP6 PUSH2 0x24D8 JUMP JUMPDEST SWAP1 POP PUSH1 0x0 PUSH2 0x1B06 DUP6 PUSH2 0x24D8 JUMP JUMPDEST SWAP1 POP PUSH1 0x0 PUSH2 0x1B13 DUP6 PUSH2 0x24D8 JUMP JUMPDEST SWAP1 POP DUP1 PUSH1 0x1 PUSH1 0x1 PUSH1 0x40 SHL SUB AND DUP4 PUSH1 0x1 PUSH1 0x1 PUSH1 0x40 SHL SUB AND SUB PUSH2 0x1B33 JUMPI PUSH1 0x0 DUP1 REVERT JUMPDEST PUSH1 0x1 PUSH1 0x1 PUSH1 0x40 SHL SUB DUP1 DUP6 AND PUSH1 0x0 SWAP1 DUP2 MSTORE PUSH1 0x3 PUSH1 0x20 SWAP1 DUP2 MSTORE PUSH1 0x40 DUP1 DUP4 KECCAK256 DUP8 DUP6 AND DUP5 MSTORE SWAP1 SWAP2 MSTORE SWAP1 KECCAK256 SLOAD AND ISZERO DUP1 ISZERO SWAP1 PUSH2 0x1B8F JUMPI POP PUSH1 0x1 PUSH1 0x1 PUSH1 0x40 SHL SUB DUP1 DUP4 AND PUSH1 0x0 SWAP1 DUP2 MSTORE PUSH1 0x3 PUSH1 0x20 SWAP1 DUP2 MSTORE PUSH1 0x40 DUP1 DUP4 KECCAK256 DUP6 DUP6 AND DUP5 MSTORE SWAP1 SWAP2 MSTORE SWAP1 KECCAK256 SLOAD AND ISZERO ISZERO JUMPDEST PUSH2 0x1B98 JUMPI PUSH1 0x0 DUP1 REVERT JUMPDEST PUSH1 0x1 PUSH1 0x1 PUSH1 0x40 SHL SUB DUP5 DUP2 AND PUSH1 0x0 DUP2 DUP2 MSTORE PUSH1 0x3 PUSH1 0x20 SWAP1 DUP2 MSTORE PUSH1 0x40 DUP1 DUP4 KECCAK256 DUP9 DUP7 AND DUP5 MSTORE SWAP1 SWAP2 MSTORE DUP1 DUP3 KECCAK256 DUP1 SLOAD PUSH1 0x1 PUSH1 0xC0 SHL DUP1 DUP3 DIV DUP8 AND DUP6 MSTORE DUP4 DUP6 KECCAK256 DUP1 SLOAD PUSH8 0xFFFFFFFFFFFFFFFF PUSH1 0x80 SHL NOT AND PUSH1 0x1 PUSH1 0x80 SHL SWAP4 DUP5 SWAP1 DIV DUP10 AND DUP5 MUL OR SWAP1 SSTORE SWAP2 SLOAD SWAP1 DUP2 DIV DUP7 AND DUP5 MSTORE SWAP2 SWAP1 SWAP3 KECCAK256 DUP1 SLOAD PUSH1 0x1 PUSH1 0x1 PUSH1 0xC0 SHL SUB AND SWAP2 DUP4 SWAP1 DIV DUP6 AND SWAP1 SWAP3 MUL OR SWAP1 SSTORE SWAP1 DUP4 AND EQ PUSH2 0x1E5E JUMPI PUSH1 0x1 PUSH1 0x1 PUSH1 0x40 SHL SUB DUP1 DUP6 AND PUSH1 0x0 SWAP1 DUP2 MSTORE PUSH1 0x3 PUSH1 0x20 DUP2 DUP2 MSTORE PUSH1 0x40 DUP1 DUP5 KECCAK256 DUP9 DUP7 AND DUP1 DUP7 MSTORE SWAP1 DUP4 MSTORE DUP2 DUP6 KECCAK256 DUP9 DUP8 AND DUP7 MSTORE SWAP4 DUP4 MSTORE DUP2 DUP6 KECCAK256 SWAP1 DUP6 MSTORE SWAP1 SWAP2 MSTORE SWAP1 SWAP2 KECCAK256 DUP2 SLOAD DUP2 SLOAD PUSH8 0xFFFFFFFFFFFFFFFF NOT DUP2 AND SWAP2 DUP6 AND SWAP2 DUP3 OR DUP4 SSTORE DUP4 SLOAD PUSH1 0x1 PUSH1 0x40 SHL SWAP1 DUP2 SWAP1 DIV DUP7 AND MUL PUSH1 0x1 PUSH1 0x1 PUSH1 0x80 SHL SUB NOT SWAP1 SWAP2 AND SWAP1 SWAP2 OR OR DUP1 DUP3 SSTORE DUP3 SLOAD PUSH1 0x1 PUSH1 0x80 SHL SWAP1 DUP2 SWAP1 DIV DUP6 AND MUL PUSH8 0xFFFFFFFFFFFFFFFF PUSH1 0x80 SHL NOT DUP3 AND DUP2 OR DUP4 SSTORE DUP4 SLOAD PUSH1 0x1 PUSH1 0xC0 SHL SWAP1 DUP2 SWAP1 DIV SWAP1 SWAP6 AND SWAP1 SWAP5 MUL PUSH1 0x1 PUSH1 0x1 PUSH1 0xC0 SHL SUB SWAP1 SWAP5 AND PUSH1 0x1 PUSH1 0x1 PUSH1 0x80 SHL SUB SWAP1 SWAP2 AND OR SWAP3 SWAP1 SWAP3 OR DUP3 SSTORE SWAP1 PUSH1 0x1 DUP1 DUP3 ADD SWAP1 PUSH2 0x1CF3 SWAP1 DUP5 ADD DUP3 PUSH2 0x2F75 JUMP JUMPDEST POP PUSH1 0x2 DUP2 DUP2 ADD SWAP1 PUSH2 0x1D06 SWAP1 DUP5 ADD DUP3 PUSH2 0x2F75 JUMP JUMPDEST POP PUSH1 0x3 DUP2 DUP2 ADD SWAP1 PUSH2 0x1D19 SWAP1 DUP5 ADD DUP3 PUSH2 0x2F75 JUMP JUMPDEST POP PUSH1 0x4 DUP2 DUP2 ADD SWAP1 PUSH2 0x1D2C SWAP1 DUP5 ADD DUP3 PUSH2 0x2F75 JUMP JUMPDEST POP POP POP PUSH1 0x1 PUSH1 0x1 PUSH1 0x40 SHL SUB DUP3 DUP2 AND PUSH1 0x0 DUP2 DUP2 MSTORE PUSH1 0x3 PUSH1 0x20 SWAP1 DUP2 MSTORE PUSH1 0x40 DUP1 DUP4 KECCAK256 DUP9 DUP7 AND DUP5 MSTORE DUP3 MSTORE DUP1 DUP4 KECCAK256 DUP1 SLOAD PUSH16 0xFFFFFFFFFFFFFFFF0000000000000000 NOT AND PUSH1 0x1 PUSH1 0x40 SHL SWAP6 DUP7 MUL OR SWAP1 SSTORE DUP9 DUP6 AND DUP4 MSTORE PUSH1 0x2 SWAP1 SWAP2 MSTORE SWAP1 KECCAK256 DUP1 SLOAD SWAP2 SWAP1 SWAP2 DIV SWAP1 SWAP2 AND SWAP1 PUSH1 0x8 PUSH2 0x1D96 DUP4 PUSH2 0x2F39 JUMP JUMPDEST DUP3 SLOAD PUSH2 0x100 SWAP3 SWAP1 SWAP3 EXP PUSH1 0x1 PUSH1 0x1 PUSH1 0x40 SHL SUB DUP2 DUP2 MUL NOT SWAP1 SWAP4 AND SWAP2 DUP4 AND MUL OR SWAP1 SWAP2 SSTORE DUP4 DUP2 AND PUSH1 0x0 SWAP1 DUP2 MSTORE PUSH1 0x2 PUSH1 0x20 MSTORE PUSH1 0x40 SWAP1 KECCAK256 DUP1 SLOAD PUSH1 0x1 PUSH1 0x40 SHL SWAP1 DIV SWAP1 SWAP2 AND SWAP2 POP PUSH1 0x8 PUSH2 0x1DE0 DUP4 PUSH2 0x2F13 JUMP JUMPDEST DUP3 SLOAD PUSH2 0x100 SWAP3 SWAP1 SWAP3 EXP PUSH1 0x1 PUSH1 0x1 PUSH1 0x40 SHL SUB DUP2 DUP2 MUL NOT SWAP1 SWAP4 AND SWAP2 DUP4 AND MUL OR SWAP1 SWAP2 SSTORE DUP6 DUP2 AND PUSH1 0x0 SWAP1 DUP2 MSTORE PUSH1 0x3 PUSH1 0x20 SWAP1 DUP2 MSTORE PUSH1 0x40 DUP1 DUP4 KECCAK256 SWAP4 DUP9 AND DUP4 MSTORE SWAP3 SWAP1 MSTORE SWAP1 DUP2 KECCAK256 DUP2 DUP2 SSTORE SWAP2 POP PUSH2 0x1E31 PUSH1 0x1 DUP4 ADD DUP3 PUSH2 0x25A0 JUMP JUMPDEST PUSH2 0x1E3F PUSH1 0x2 DUP4 ADD PUSH1 0x0 PUSH2 0x25A0 JUMP JUMPDEST PUSH2 0x1E4D PUSH1 0x3 DUP4 ADD PUSH1 0x0 PUSH2 0x25A0 JUMP JUMPDEST PUSH2 0x1E5B PUSH1 0x4 DUP4 ADD PUSH1 0x0 PUSH2 0x25A0 JUMP JUMPDEST POP POP JUMPDEST PUSH1 0x1 PUSH1 0x1 PUSH1 0x40 SHL SUB SWAP2 DUP3 AND PUSH1 0x0 SWAP1 DUP2 MSTORE PUSH1 0x3 PUSH1 0x20 SWAP1 DUP2 MSTORE PUSH1 0x40 DUP1 DUP4 KECCAK256 SWAP4 DUP6 AND DUP1 DUP5 MSTORE SWAP4 SWAP1 SWAP2 MSTORE DUP1 DUP3 KECCAK256 DUP1 SLOAD SWAP6 DUP6 AND DUP1 DUP5 MSTORE DUP3 DUP5 KECCAK256 DUP1 SLOAD PUSH1 0x1 PUSH1 0x1 PUSH1 0x80 SHL SUB AND PUSH1 0x1 PUSH1 0x80 SHL SWAP9 DUP10 SWAP1 DIV DUP9 AND DUP10 MUL PUSH1 0x1 PUSH1 0x1 PUSH1 0xC0 SHL SUB SWAP1 DUP2 AND SWAP2 SWAP1 SWAP2 OR PUSH1 0x1 PUSH1 0xC0 SHL SWAP8 DUP9 MUL OR DUP3 SSTORE DUP4 SLOAD PUSH8 0xFFFFFFFFFFFFFFFF PUSH1 0x80 SHL NOT AND DUP10 DUP5 MUL OR SWAP1 SWAP4 SSTORE SLOAD SWAP7 SWAP1 SWAP7 DIV SWAP1 SWAP5 AND DUP3 MSTORE SWAP1 KECCAK256 DUP1 SLOAD SWAP1 SWAP3 AND SWAP3 MUL SWAP2 SWAP1 SWAP2 OR SWAP1 SSTORE POP POP POP POP POP JUMP JUMPDEST PUSH2 0x1F03 PUSH2 0x25DD JUMP JUMPDEST PUSH1 0x0 PUSH1 0x2 PUSH1 0x0 PUSH2 0x1F12 DUP6 PUSH2 0x24D8 JUMP JUMPDEST PUSH1 0x1 PUSH1 0x1 PUSH1 0x40 SHL SUB SWAP1 DUP2 AND DUP3 MSTORE PUSH1 0x20 DUP1 DUP4 ADD SWAP4 SWAP1 SWAP4 MSTORE PUSH1 0x40 SWAP2 DUP3 ADD PUSH1 0x0 KECCAK256 DUP3 MLOAD PUSH1 0xC0 DUP2 ADD DUP5 MSTORE DUP2 SLOAD DUP1 DUP5 AND DUP3 MSTORE PUSH1 0x1 PUSH1 0x40 SHL DUP2 DIV DUP5 AND SWAP6 DUP3 ADD SWAP6 SWAP1 SWAP6 MSTORE PUSH1 0x1 PUSH1 0x80 SHL DUP6 DIV DUP4 AND SWAP4 DUP2 ADD SWAP4 SWAP1 SWAP4 MSTORE PUSH1 0x1 PUSH1 0xC0 SHL SWAP1 SWAP4 DIV AND PUSH1 0x60 DUP3 ADD MSTORE PUSH1 0x1 DUP3 ADD DUP1 SLOAD SWAP2 SWAP3 SWAP2 PUSH1 0x80 DUP5 ADD SWAP2 SWAP1 PUSH2 0x1F85 SWAP1 PUSH2 0x2D12 JUMP JUMPDEST DUP1 PUSH1 0x1F ADD PUSH1 0x20 DUP1 SWAP2 DIV MUL PUSH1 0x20 ADD PUSH1 0x40 MLOAD SWAP1 DUP2 ADD PUSH1 0x40 MSTORE DUP1 SWAP3 SWAP2 SWAP1 DUP2 DUP2 MSTORE PUSH1 0x20 ADD DUP3 DUP1 SLOAD PUSH2 0x1FB1 SWAP1 PUSH2 0x2D12 JUMP JUMPDEST DUP1 ISZERO PUSH2 0x1FFE JUMPI DUP1 PUSH1 0x1F LT PUSH2 0x1FD3 JUMPI PUSH2 0x100 DUP1 DUP4 SLOAD DIV MUL DUP4 MSTORE SWAP2 PUSH1 0x20 ADD SWAP2 PUSH2 0x1FFE JUMP JUMPDEST DUP3 ADD SWAP2 SWAP1 PUSH1 0x0 MSTORE PUSH1 0x20 PUSH1 0x0 KECCAK256 SWAP1 JUMPDEST DUP2 SLOAD DUP2 MSTORE SWAP1 PUSH1 0x1 ADD SWAP1 PUSH1 0x20 ADD DUP1 DUP4 GT PUSH2 0x1FE1 JUMPI DUP3 SWAP1 SUB PUSH1 0x1F AND DUP3 ADD SWAP2 JUMPDEST POP POP POP POP POP DUP2 MSTORE PUSH1 0x20 ADD PUSH1 0x2 DUP3 ADD DUP1 SLOAD PUSH2 0x2017 SWAP1 PUSH2 0x2D12 JUMP JUMPDEST DUP1 PUSH1 0x1F ADD PUSH1 0x20 DUP1 SWAP2 DIV MUL PUSH1 0x20 ADD PUSH1 0x40 MLOAD SWAP1 DUP2 ADD PUSH1 0x40 MSTORE DUP1 SWAP3 SWAP2 SWAP1 DUP2 DUP2 MSTORE PUSH1 0x20 ADD DUP3 DUP1 SLOAD PUSH2 0x2043 SWAP1 PUSH2 0x2D12 JUMP JUMPDEST DUP1 ISZERO PUSH2 0x2090 JUMPI DUP1 PUSH1 0x1F LT PUSH2 0x2065 JUMPI PUSH2 0x100 DUP1 DUP4 SLOAD DIV MUL DUP4 MSTORE SWAP2 PUSH1 0x20 ADD SWAP2 PUSH2 0x2090 JUMP JUMPDEST DUP3 ADD SWAP2 SWAP1 PUSH1 0x0 MSTORE PUSH1 0x20 PUSH1 0x0 KECCAK256 SWAP1 JUMPDEST DUP2 SLOAD DUP2 MSTORE SWAP1 PUSH1 0x1 ADD SWAP1 PUSH1 0x20 ADD DUP1 DUP4 GT PUSH2 0x2073 JUMPI DUP3 SWAP1 SUB PUSH1 0x1F AND DUP3 ADD SWAP2 JUMPDEST POP POP POP POP POP DUP2 MSTORE POP POP SWAP1 POP PUSH20 0xFE2BBC3D86C3E4666D3E352F68B2A224CAC28238 PUSH1 0x1 PUSH1 0x1 PUSH1 0xA0 SHL SUB AND PUSH4 0xBAC6DD6D DUP3 PUSH1 0xA0 ADD MLOAD PUSH2 0x20CC SWAP1 PUSH2 0x2E6C JUMP JUMPDEST PUSH1 0x40 MLOAD DUP3 PUSH4 0xFFFFFFFF AND PUSH1 0xE0 SHL DUP2 MSTORE PUSH1 0x4 ADD PUSH2 0x20EA SWAP2 DUP2 MSTORE PUSH1 0x20 ADD SWAP1 JUMP JUMPDEST PUSH1 0x0 PUSH1 0x40 MLOAD DUP1 DUP4 SUB DUP2 DUP7 GAS STATICCALL ISZERO DUP1 ISZERO PUSH2 0x2107 JUMPI RETURNDATASIZE PUSH1 0x0 DUP1 RETURNDATACOPY RETURNDATASIZE PUSH1 0x0 REVERT JUMPDEST POP POP POP POP PUSH1 0x40 MLOAD RETURNDATASIZE PUSH1 0x0 DUP3 RETURNDATACOPY PUSH1 0x1F RETURNDATASIZE SWAP1 DUP2 ADD PUSH1 0x1F NOT AND DUP3 ADD PUSH1 0x40 MSTORE PUSH2 0x212F SWAP2 SWAP1 DUP2 ADD SWAP1 PUSH2 0x2E90 JUMP JUMPDEST PUSH1 0xA0 DUP3 ADD MSTORE SWAP3 SWAP2 POP POP JUMP JUMPDEST PUSH1 0x0 SLOAD PUSH1 0x1 PUSH1 0x40 SHL SWAP1 DIV PUSH1 0x1 PUSH1 0x1 PUSH1 0xA0 SHL SUB AND CALLER EQ PUSH2 0x216B JUMPI PUSH1 0x40 MLOAD PUSH3 0x461BCD PUSH1 0xE5 SHL DUP2 MSTORE PUSH1 0x4 ADD PUSH2 0x2E2 SWAP1 PUSH2 0x2CE2 JUMP JUMPDEST PUSH1 0x0 PUSH2 0x2176 DUP7 PUSH2 0x24D8 JUMP JUMPDEST PUSH1 0x1 PUSH1 0x1 PUSH1 0x40 SHL SUB DUP1 DUP3 AND PUSH1 0x0 SWAP1 DUP2 MSTORE PUSH1 0x2 PUSH1 0x20 MSTORE PUSH1 0x40 SWAP1 KECCAK256 SLOAD SWAP2 SWAP3 POP AND PUSH2 0x219D JUMPI PUSH1 0x0 DUP1 REVERT JUMPDEST DUP5 MLOAD PUSH1 0x0 SUB PUSH2 0x21AB JUMPI PUSH1 0x0 DUP1 REVERT JUMPDEST PUSH2 0x21B4 DUP6 PUSH2 0x24D8 JUMP JUMPDEST PUSH1 0x1 PUSH1 0x1 PUSH1 0x40 SHL SUB AND ISZERO PUSH2 0x21C7 JUMPI PUSH1 0x0 DUP1 REVERT JUMPDEST DUP4 MLOAD PUSH1 0x0 SUB PUSH2 0x21D5 JUMPI PUSH1 0x0 DUP1 REVERT JUMPDEST PUSH1 0x0 DUP1 SLOAD PUSH1 0x1 PUSH1 0x1 PUSH1 0x40 SHL SUB AND SWAP1 DUP1 PUSH2 0x21ED DUP4 PUSH2 0x2F13 JUMP JUMPDEST SWAP2 SWAP1 PUSH2 0x100 EXP DUP2 SLOAD DUP2 PUSH1 0x1 PUSH1 0x1 PUSH1 0x40 SHL SUB MUL NOT AND SWAP1 DUP4 PUSH1 0x1 PUSH1 0x1 PUSH1 0x40 SHL SUB AND MUL OR SWAP1 SSTORE POP POP PUSH1 0x0 DUP1 SLOAD SWAP1 PUSH2 0x100 EXP SWAP1 DIV PUSH1 0x1 PUSH1 0x1 PUSH1 0x40 SHL SUB AND PUSH1 0x1 PUSH1 0x0 PUSH2 0x2233 DUP9 PUSH2 0x2507 JUMP JUMPDEST DUP2 MSTORE PUSH1 0x20 DUP1 DUP3 ADD SWAP3 SWAP1 SWAP3 MSTORE PUSH1 0x40 SWAP1 DUP2 ADD PUSH1 0x0 SWAP1 DUP2 KECCAK256 DUP1 SLOAD PUSH8 0xFFFFFFFFFFFFFFFF NOT AND PUSH1 0x1 PUSH1 0x1 PUSH1 0x40 SHL SUB SWAP6 DUP7 AND OR SWAP1 SSTORE DUP2 MLOAD PUSH2 0x100 DUP2 ADD DUP4 MSTORE DUP2 SLOAD DUP6 AND DUP2 MSTORE DUP6 DUP6 AND DUP2 DUP6 ADD DUP2 SWAP1 MSTORE DUP2 DUP5 ADD DUP4 SWAP1 MSTORE DUP3 MSTORE PUSH1 0x3 DUP5 MSTORE DUP3 DUP3 KECCAK256 DUP3 DUP1 MSTORE DUP5 MSTORE SWAP1 DUP3 SWAP1 KECCAK256 SLOAD PUSH1 0x1 PUSH1 0xC0 SHL SWAP1 DIV SWAP1 SWAP4 AND PUSH1 0x60 DUP5 ADD MSTORE PUSH1 0x80 DUP4 ADD DUP9 SWAP1 MSTORE PUSH1 0xA0 DUP4 ADD DUP8 SWAP1 MSTORE PUSH1 0xC0 DUP4 ADD DUP7 SWAP1 MSTORE DUP1 MLOAD SWAP2 DUP3 ADD DUP6 SWAP1 MSTORE PUSH1 0xE0 DUP4 ADD SWAP2 ADD PUSH1 0x40 DUP1 MLOAD PUSH1 0x1F NOT DUP2 DUP5 SUB ADD DUP2 MSTORE SWAP2 DUP2 MSTORE SWAP2 MSTORE PUSH1 0x1 PUSH1 0x1 PUSH1 0x40 SHL SUB DUP1 DUP5 AND PUSH1 0x0 SWAP1 DUP2 MSTORE PUSH1 0x3 PUSH1 0x20 SWAP1 DUP2 MSTORE DUP4 DUP3 KECCAK256 DUP3 SLOAD DUP5 AND DUP4 MSTORE DUP2 MSTORE SWAP1 DUP4 SWAP1 KECCAK256 DUP5 MLOAD DUP2 SLOAD SWAP3 DUP7 ADD MLOAD SWAP5 DUP7 ADD MLOAD PUSH1 0x60 DUP8 ADD MLOAD DUP6 AND PUSH1 0x1 PUSH1 0xC0 SHL MUL PUSH1 0x1 PUSH1 0x1 PUSH1 0xC0 SHL SUB SWAP2 DUP7 AND PUSH1 0x1 PUSH1 0x80 SHL MUL SWAP2 SWAP1 SWAP2 AND PUSH1 0x1 PUSH1 0x1 PUSH1 0x80 SHL SUB SWAP7 DUP7 AND PUSH1 0x1 PUSH1 0x40 SHL MUL PUSH1 0x1 PUSH1 0x1 PUSH1 0x80 SHL SUB NOT SWAP1 SWAP6 AND SWAP3 SWAP1 SWAP6 AND SWAP2 SWAP1 SWAP2 OR SWAP3 SWAP1 SWAP3 OR SWAP4 SWAP1 SWAP4 AND SWAP2 SWAP1 SWAP2 OR OR DUP2 SSTORE PUSH1 0x80 DUP3 ADD MLOAD PUSH1 0x1 DUP3 ADD SWAP1 PUSH2 0x2374 SWAP1 DUP3 PUSH2 0x2D97 JUMP JUMPDEST POP PUSH1 0xA0 DUP3 ADD MLOAD PUSH1 0x2 DUP3 ADD SWAP1 PUSH2 0x2389 SWAP1 DUP3 PUSH2 0x2D97 JUMP JUMPDEST POP PUSH1 0xC0 DUP3 ADD MLOAD PUSH1 0x3 DUP3 ADD SWAP1 PUSH2 0x239E SWAP1 DUP3 PUSH2 0x2D97 JUMP JUMPDEST POP PUSH1 0xE0 DUP3 ADD MLOAD PUSH1 0x4 DUP3 ADD SWAP1 PUSH2 0x23B3 SWAP1 DUP3 PUSH2 0x2D97 JUMP JUMPDEST POP POP PUSH1 0x0 DUP1 SLOAD PUSH1 0x1 PUSH1 0x1 PUSH1 0x40 SHL SUB DUP5 DUP2 AND DUP1 DUP5 MSTORE PUSH1 0x3 PUSH1 0x20 SWAP1 DUP2 MSTORE PUSH1 0x40 DUP1 DUP7 KECCAK256 DUP7 DUP1 MSTORE DUP3 MSTORE DUP1 DUP7 KECCAK256 DUP1 SLOAD PUSH1 0x1 PUSH1 0xC0 SHL SWAP1 DUP2 SWAP1 DIV DUP7 AND DUP9 MSTORE DUP3 DUP9 KECCAK256 DUP1 SLOAD PUSH8 0xFFFFFFFFFFFFFFFF PUSH1 0x80 SHL NOT AND SWAP8 DUP8 AND PUSH1 0x1 PUSH1 0x80 SHL MUL SWAP8 SWAP1 SWAP8 OR SWAP1 SWAP7 SSTORE DUP7 SLOAD DUP2 SLOAD PUSH1 0x1 PUSH1 0x1 PUSH1 0xC0 SHL SUB AND SWAP1 DUP7 AND SWAP1 SWAP7 MUL SWAP6 SWAP1 SWAP6 OR SWAP1 SWAP5 SSTORE SWAP1 DUP5 MSTORE PUSH1 0x2 SWAP1 MSTORE SWAP2 KECCAK256 DUP1 SLOAD PUSH1 0x1 PUSH1 0x40 SHL SWAP1 DIV SWAP1 SWAP2 AND SWAP2 POP PUSH1 0x8 PUSH2 0x2449 DUP4 PUSH2 0x2F13 JUMP JUMPDEST SWAP2 SWAP1 PUSH2 0x100 EXP DUP2 SLOAD DUP2 PUSH1 0x1 PUSH1 0x1 PUSH1 0x40 SHL SUB MUL NOT AND SWAP1 DUP4 PUSH1 0x1 PUSH1 0x1 PUSH1 0x40 SHL SUB AND MUL OR SWAP1 SSTORE POP POP POP POP POP POP POP POP JUMP JUMPDEST PUSH1 0x0 SLOAD PUSH1 0x1 PUSH1 0x40 SHL SWAP1 DIV PUSH1 0x1 PUSH1 0x1 PUSH1 0xA0 SHL SUB AND CALLER EQ PUSH2 0x24A7 JUMPI PUSH1 0x40 MLOAD PUSH3 0x461BCD PUSH1 0xE5 SHL DUP2 MSTORE PUSH1 0x4 ADD PUSH2 0x2E2 SWAP1 PUSH2 0x2CE2 JUMP JUMPDEST PUSH1 0x0 DUP1 SLOAD PUSH1 0x1 PUSH1 0x1 PUSH1 0xA0 SHL SUB SWAP1 SWAP3 AND PUSH1 0x1 PUSH1 0x40 SHL MUL PUSH9 0x10000000000000000 PUSH1 0x1 PUSH1 0xE0 SHL SUB NOT SWAP1 SWAP3 AND SWAP2 SWAP1 SWAP2 OR SWAP1 SSTORE JUMP JUMPDEST PUSH1 0x0 PUSH1 0x1 PUSH1 0x0 PUSH2 0x24E7 DUP5 PUSH2 0x2507 JUMP JUMPDEST DUP2 MSTORE PUSH1 0x20 DUP2 ADD SWAP2 SWAP1 SWAP2 MSTORE PUSH1 0x40 ADD PUSH1 0x0 KECCAK256 SLOAD PUSH1 0x1 PUSH1 0x1 PUSH1 0x40 SHL SUB AND SWAP3 SWAP2 POP POP JUMP JUMPDEST PUSH1 0x0 DUP2 PUSH1 0x40 MLOAD PUSH1 0x20 ADD PUSH2 0x251A SWAP2 SWAP1 PUSH2 0x3047 JUMP JUMPDEST PUSH1 0x40 MLOAD PUSH1 0x20 DUP2 DUP4 SUB SUB DUP2 MSTORE SWAP1 PUSH1 0x40 MSTORE DUP1 MLOAD SWAP1 PUSH1 0x20 ADD KECCAK256 SWAP1 POP SWAP2 SWAP1 POP JUMP JUMPDEST PUSH1 0x40 MLOAD DUP1 PUSH2 0x100 ADD PUSH1 0x40 MSTORE DUP1 PUSH1 0x0 PUSH1 0x1 PUSH1 0x1 PUSH1 0x40 SHL SUB AND DUP2 MSTORE PUSH1 0x20 ADD PUSH1 0x0 PUSH1 0x1 PUSH1 0x1 PUSH1 0x40 SHL SUB AND DUP2 MSTORE PUSH1 0x20 ADD PUSH1 0x0 PUSH1 0x1 PUSH1 0x1 PUSH1 0x40 SHL SUB AND DUP2 MSTORE PUSH1 0x20 ADD PUSH1 0x0 PUSH1 0x1 PUSH1 0x1 PUSH1 0x40 SHL SUB AND DUP2 MSTORE PUSH1 0x20 ADD PUSH1 0x60 DUP2 MSTORE PUSH1 0x20 ADD PUSH1 0x60 DUP2 MSTORE PUSH1 0x20 ADD PUSH1 0x60 DUP2 MSTORE PUSH1 0x20 ADD PUSH1 0x60 DUP2 MSTORE POP SWAP1 JUMP JUMPDEST POP DUP1 SLOAD PUSH2 0x25AC SWAP1 PUSH2 0x2D12 JUMP JUMPDEST PUSH1 0x0 DUP3 SSTORE DUP1 PUSH1 0x1F LT PUSH2 0x25BC JUMPI POP POP JUMP JUMPDEST PUSH1 0x1F ADD PUSH1 0x20 SWAP1 DIV SWAP1 PUSH1 0x0 MSTORE PUSH1 0x20 PUSH1 0x0 KECCAK256 SWAP1 DUP2 ADD SWAP1 PUSH2 0x25DA SWAP2 SWAP1 PUSH2 0x2637 JUMP JUMPDEST POP JUMP JUMPDEST PUSH1 0x40 MLOAD DUP1 PUSH1 0xC0 ADD PUSH1 0x40 MSTORE DUP1 PUSH1 0x0 PUSH1 0x1 PUSH1 0x1 PUSH1 0x40 SHL SUB AND DUP2 MSTORE PUSH1 0x20 ADD PUSH1 0x0 PUSH1 0x1 PUSH1 0x1 PUSH1 0x40 SHL SUB AND DUP2 MSTORE PUSH1 0x20 ADD PUSH1 0x0 PUSH1 0x1 PUSH1 0x1 PUSH1 0x40 SHL SUB AND DUP2 MSTORE PUSH1 0x20 ADD PUSH1 0x0 PUSH1 0x1 PUSH1 0x1 PUSH1 0x40 SHL SUB AND DUP2 MSTORE PUSH1 0x20 ADD PUSH1 0x60 DUP2 MSTORE PUSH1 0x20 ADD PUSH1 0x60 DUP2 MSTORE POP SWAP1 JUMP JUMPDEST JUMPDEST DUP1 DUP3 GT ISZERO PUSH2 0x264C JUMPI PUSH1 0x0 DUP2 SSTORE PUSH1 0x1 ADD PUSH2 0x2638 JUMP JUMPDEST POP SWAP1 JUMP JUMPDEST PUSH4 0x4E487B71 PUSH1 0xE0 SHL PUSH1 0x0 MSTORE PUSH1 0x41 PUSH1 0x4 MSTORE PUSH1 0x24 PUSH1 0x0 REVERT JUMPDEST PUSH1 0x40 MLOAD PUSH1 0x1F DUP3 ADD PUSH1 0x1F NOT AND DUP2 ADD PUSH1 0x1 PUSH1 0x1 PUSH1 0x40 SHL SUB DUP2 GT DUP3 DUP3 LT OR ISZERO PUSH2 0x268E JUMPI PUSH2 0x268E PUSH2 0x2650 JUMP JUMPDEST PUSH1 0x40 MSTORE SWAP2 SWAP1 POP JUMP JUMPDEST PUSH1 0x0 PUSH1 0x1 PUSH1 0x1 PUSH1 0x40 SHL SUB DUP3 GT ISZERO PUSH2 0x26AF JUMPI PUSH2 0x26AF PUSH2 0x2650 JUMP JUMPDEST POP PUSH1 0x1F ADD PUSH1 0x1F NOT AND PUSH1 0x20 ADD SWAP1 JUMP JUMPDEST PUSH1 0x0 DUP3 PUSH1 0x1F DUP4 ADD SLT PUSH2 0x26CE JUMPI PUSH1 0x0 DUP1 REVERT JUMPDEST DUP2 CALLDATALOAD PUSH2 0x26E1 PUSH2 0x26DC DUP3 PUSH2 0x2696 JUMP JUMPDEST PUSH2 0x2666 JUMP JUMPDEST DUP2 DUP2 MSTORE DUP5 PUSH1 0x20 DUP4 DUP7 ADD ADD GT ISZERO PUSH2 0x26F6 JUMPI PUSH1 0x0 DUP1 REVERT JUMPDEST DUP2 PUSH1 0x20 DUP6 ADD PUSH1 0x20 DUP4 ADD CALLDATACOPY PUSH1 0x0 SWAP2 DUP2 ADD PUSH1 0x20 ADD SWAP2 SWAP1 SWAP2 MSTORE SWAP4 SWAP3 POP POP POP JUMP JUMPDEST PUSH1 0x0 DUP1 PUSH1 0x0 PUSH1 0x60 DUP5 DUP7 SUB SLT ISZERO PUSH2 0x2728 JUMPI PUSH1 0x0 DUP1 REVERT JUMPDEST DUP4 CALLDATALOAD PUSH1 0x1 PUSH1 0x1 PUSH1 0x40 SHL SUB DUP1 DUP3 GT ISZERO PUSH2 0x273F JUMPI PUSH1 0x0 DUP1 REVERT JUMPDEST PUSH2 0x274B DUP8 DUP4 DUP9 ADD PUSH2 0x26BD JUMP JUMPDEST SWAP5 POP PUSH1 0x20 DUP7 ADD CALLDATALOAD SWAP2 POP DUP1 DUP3 GT ISZERO PUSH2 0x2761 JUMPI PUSH1 0x0 DUP1 REVERT JUMPDEST POP PUSH2 0x276E DUP7 DUP3 DUP8 ADD PUSH2 0x26BD JUMP JUMPDEST SWAP3 POP POP PUSH1 0x40 DUP5 ADD CALLDATALOAD SWAP1 POP SWAP3 POP SWAP3 POP SWAP3 JUMP JUMPDEST DUP1 CALLDATALOAD PUSH1 0x1 PUSH1 0x1 PUSH1 0x40 SHL SUB DUP2 AND DUP2 EQ PUSH2 0x2796 JUMPI PUSH1 0x0 DUP1 REVERT JUMPDEST SWAP2 SWAP1 POP JUMP JUMPDEST PUSH1 0x0 DUP1 PUSH1 0x0 PUSH1 0x60 DUP5 DUP7 SUB SLT ISZERO PUSH2 0x27B0 JUMPI PUSH1 0x0 DUP1 REVERT JUMPDEST PUSH2 0x27B9 DUP5 PUSH2 0x277F JUMP JUMPDEST SWAP3 POP PUSH2 0x27C7 PUSH1 0x20 DUP6 ADD PUSH2 0x277F JUMP JUMPDEST SWAP2 POP PUSH2 0x27D5 PUSH1 0x40 DUP6 ADD PUSH2 0x277F JUMP JUMPDEST SWAP1 POP SWAP3 POP SWAP3 POP SWAP3 JUMP JUMPDEST PUSH1 0x0 JUMPDEST DUP4 DUP2 LT ISZERO PUSH2 0x27F9 JUMPI DUP2 DUP2 ADD MLOAD DUP4 DUP3 ADD MSTORE PUSH1 0x20 ADD PUSH2 0x27E1 JUMP JUMPDEST POP POP PUSH1 0x0 SWAP2 ADD MSTORE JUMP JUMPDEST PUSH1 0x0 DUP2 MLOAD DUP1 DUP5 MSTORE PUSH2 0x281A DUP2 PUSH1 0x20 DUP7 ADD PUSH1 0x20 DUP7 ADD PUSH2 0x27DE JUMP JUMPDEST PUSH1 0x1F ADD PUSH1 0x1F NOT AND SWAP3 SWAP1 SWAP3 ADD PUSH1 0x20 ADD SWAP3 SWAP2 POP POP JUMP JUMPDEST DUP1 MLOAD PUSH1 0x1 PUSH1 0x1 PUSH1 0x40 SHL SUB AND DUP3 MSTORE PUSH1 0x0 PUSH2 0x100 PUSH1 0x20 DUP4 ADD MLOAD PUSH2 0x285A PUSH1 0x20 DUP7 ADD DUP3 PUSH1 0x1 PUSH1 0x1 PUSH1 0x40 SHL SUB AND SWAP1 MSTORE JUMP JUMPDEST POP PUSH1 0x40 DUP4 ADD MLOAD PUSH2 0x2875 PUSH1 0x40 DUP7 ADD DUP3 PUSH1 0x1 PUSH1 0x1 PUSH1 0x40 SHL SUB AND SWAP1 MSTORE JUMP JUMPDEST POP PUSH1 0x60 DUP4 ADD MLOAD PUSH2 0x2890 PUSH1 0x60 DUP7 ADD DUP3 PUSH1 0x1 PUSH1 0x1 PUSH1 0x40 SHL SUB AND SWAP1 MSTORE JUMP JUMPDEST POP PUSH1 0x80 DUP4 ADD MLOAD DUP2 PUSH1 0x80 DUP7 ADD MSTORE PUSH2 0x28A8 DUP3 DUP7 ADD DUP3 PUSH2 0x2802 JUMP JUMPDEST SWAP2 POP POP PUSH1 0xA0 DUP4 ADD MLOAD DUP5 DUP3 SUB PUSH1 0xA0 DUP7 ADD MSTORE PUSH2 0x28C2 DUP3 DUP3 PUSH2 0x2802 JUMP JUMPDEST SWAP2 POP POP PUSH1 0xC0 DUP4 ADD MLOAD DUP5 DUP3 SUB PUSH1 0xC0 DUP7 ADD MSTORE PUSH2 0x28DC DUP3 DUP3 PUSH2 0x2802 JUMP JUMPDEST SWAP2 POP POP PUSH1 0xE0 DUP4 ADD MLOAD DUP5 DUP3 SUB PUSH1 0xE0 DUP7 ADD MSTORE PUSH2 0x28F6 DUP3 DUP3 PUSH2 0x2802 JUMP JUMPDEST SWAP6 SWAP5 POP POP POP POP POP JUMP JUMPDEST PUSH1 0x0 PUSH1 0x20 DUP1 DUP4 ADD DUP2 DUP5 MSTORE DUP1 DUP6 MLOAD DUP1 DUP4 MSTORE PUSH1 0x40 DUP7 ADD SWAP2 POP PUSH1 0x40 DUP2 PUSH1 0x5 SHL DUP8 ADD ADD SWAP3 POP DUP4 DUP8 ADD PUSH1 0x0 JUMPDEST DUP3 DUP2 LT ISZERO PUSH2 0x2954 JUMPI PUSH1 0x3F NOT DUP9 DUP7 SUB ADD DUP5 MSTORE PUSH2 0x2942 DUP6 DUP4 MLOAD PUSH2 0x282E JUMP JUMPDEST SWAP5 POP SWAP3 DUP6 ADD SWAP3 SWAP1 DUP6 ADD SWAP1 PUSH1 0x1 ADD PUSH2 0x2926 JUMP JUMPDEST POP SWAP3 SWAP8 SWAP7 POP POP POP POP POP POP POP JUMP JUMPDEST PUSH1 0x0 DUP1 PUSH1 0x40 DUP4 DUP6 SUB SLT ISZERO PUSH2 0x2974 JUMPI PUSH1 0x0 DUP1 REVERT JUMPDEST DUP3 CALLDATALOAD PUSH1 0x1 PUSH1 0x1 PUSH1 0x40 SHL SUB DUP1 DUP3 GT ISZERO PUSH2 0x298B JUMPI PUSH1 0x0 DUP1 REVERT JUMPDEST PUSH2 0x2997 DUP7 DUP4 DUP8 ADD PUSH2 0x26BD JUMP JUMPDEST SWAP4 POP PUSH1 0x20 DUP6 ADD CALLDATALOAD SWAP2 POP DUP1 DUP3 GT ISZERO PUSH2 0x29AD JUMPI PUSH1 0x0 DUP1 REVERT JUMPDEST POP PUSH2 0x29BA DUP6 DUP3 DUP7 ADD PUSH2 0x26BD JUMP JUMPDEST SWAP2 POP POP SWAP3 POP SWAP3 SWAP1 POP JUMP JUMPDEST PUSH1 0x0 PUSH1 0x20 DUP3 DUP5 SUB SLT ISZERO PUSH2 0x29D6 JUMPI PUSH1 0x0 DUP1 REVERT JUMPDEST DUP2 CALLDATALOAD PUSH1 0x1 PUSH1 0x1 PUSH1 0x40 SHL SUB DUP2 GT ISZERO PUSH2 0x29EC JUMPI PUSH1 0x0 DUP1 REVERT JUMPDEST PUSH2 0x29F8 DUP5 DUP3 DUP6 ADD PUSH2 0x26BD JUMP JUMPDEST SWAP5 SWAP4 POP POP POP POP JUMP JUMPDEST PUSH1 0x0 DUP1 PUSH1 0x40 DUP4 DUP6 SUB SLT ISZERO PUSH2 0x2A13 JUMPI PUSH1 0x0 DUP1 REVERT JUMPDEST PUSH2 0x2A1C DUP4 PUSH2 0x277F JUMP JUMPDEST SWAP2 POP PUSH2 0x2A2A PUSH1 0x20 DUP5 ADD PUSH2 0x277F JUMP JUMPDEST SWAP1 POP SWAP3 POP SWAP3 SWAP1 POP JUMP JUMPDEST PUSH1 0x0 PUSH1 0x1 PUSH1 0x1 PUSH1 0x40 SHL SUB DUP1 DUP4 MLOAD AND DUP5 MSTORE DUP1 PUSH1 0x20 DUP5 ADD MLOAD AND PUSH1 0x20 DUP6 ADD MSTORE DUP1 PUSH1 0x40 DUP5 ADD MLOAD AND PUSH1 0x40 DUP6 ADD MSTORE DUP1 PUSH1 0x60 DUP5 ADD MLOAD AND PUSH1 0x60 DUP6 ADD MSTORE POP PUSH1 0x80 DUP3 ADD MLOAD PUSH1 0xC0 PUSH1 0x80 DUP6 ADD MSTORE PUSH2 0x2A81 PUSH1 0xC0 DUP6 ADD DUP3 PUSH2 0x2802 JUMP JUMPDEST SWAP1 POP PUSH1 0xA0 DUP4 ADD MLOAD DUP5 DUP3 SUB PUSH1 0xA0 DUP7 ADD MSTORE PUSH2 0x28F6 DUP3 DUP3 PUSH2 0x2802 JUMP JUMPDEST PUSH1 0x0 PUSH1 0x20 DUP1 DUP4 ADD DUP2 DUP5 MSTORE DUP1 DUP6 MLOAD DUP1 DUP4 MSTORE PUSH1 0x40 DUP7 ADD SWAP2 POP PUSH1 0x40 DUP2 PUSH1 0x5 SHL DUP8 ADD ADD SWAP3 POP DUP4 DUP8 ADD PUSH1 0x0 JUMPDEST DUP3 DUP2 LT ISZERO PUSH2 0x2954 JUMPI PUSH1 0x3F NOT DUP9 DUP7 SUB ADD DUP5 MSTORE PUSH2 0x2ADD DUP6 DUP4 MLOAD PUSH2 0x2A33 JUMP JUMPDEST SWAP5 POP SWAP3 DUP6 ADD SWAP3 SWAP1 DUP6 ADD SWAP1 PUSH1 0x1 ADD PUSH2 0x2AC1 JUMP JUMPDEST PUSH1 0x0 DUP1 PUSH1 0x40 DUP4 DUP6 SUB SLT ISZERO PUSH2 0x2B02 JUMPI PUSH1 0x0 DUP1 REVERT JUMPDEST DUP3 CALLDATALOAD PUSH1 0x1 PUSH1 0x1 PUSH1 0x40 SHL SUB DUP2 GT ISZERO PUSH2 0x2B18 JUMPI PUSH1 0x0 DUP1 REVERT JUMPDEST PUSH2 0x2B24 DUP6 DUP3 DUP7 ADD PUSH2 0x26BD JUMP JUMPDEST SWAP6 PUSH1 0x20 SWAP5 SWAP1 SWAP5 ADD CALLDATALOAD SWAP5 POP POP POP POP JUMP JUMPDEST PUSH1 0x20 DUP2 MSTORE PUSH1 0x0 PUSH2 0xA12 PUSH1 0x20 DUP4 ADD DUP5 PUSH2 0x282E JUMP JUMPDEST PUSH1 0x0 DUP1 PUSH1 0x0 DUP1 PUSH1 0x80 DUP6 DUP8 SUB SLT ISZERO PUSH2 0x2B5C JUMPI PUSH1 0x0 DUP1 REVERT JUMPDEST DUP5 CALLDATALOAD PUSH1 0x1 PUSH1 0x1 PUSH1 0x40 SHL SUB DUP1 DUP3 GT ISZERO PUSH2 0x2B73 JUMPI PUSH1 0x0 DUP1 REVERT JUMPDEST PUSH2 0x2B7F DUP9 DUP4 DUP10 ADD PUSH2 0x26BD JUMP JUMPDEST SWAP6 POP PUSH1 0x20 DUP8 ADD CALLDATALOAD SWAP2 POP DUP1 DUP3 GT ISZERO PUSH2 0x2B95 JUMPI PUSH1 0x0 DUP1 REVERT JUMPDEST PUSH2 0x2BA1 DUP9 DUP4 DUP10 ADD PUSH2 0x26BD JUMP JUMPDEST SWAP5 POP PUSH1 0x40 DUP8 ADD CALLDATALOAD SWAP2 POP DUP1 DUP3 GT ISZERO PUSH2 0x2BB7 JUMPI PUSH1 0x0 DUP1 REVERT JUMPDEST PUSH2 0x2BC3 DUP9 DUP4 DUP10 ADD PUSH2 0x26BD JUMP JUMPDEST SWAP4 POP PUSH1 0x60 DUP8 ADD CALLDATALOAD SWAP2 POP DUP1 DUP3 GT ISZERO PUSH2 0x2BD9 JUMPI PUSH1 0x0 DUP1 REVERT JUMPDEST POP PUSH2 0x2BE6 DUP8 DUP3 DUP9 ADD PUSH2 0x26BD JUMP JUMPDEST SWAP2 POP POP SWAP3 SWAP6 SWAP2 SWAP5 POP SWAP3 POP JUMP JUMPDEST PUSH1 0x20 DUP2 MSTORE PUSH1 0x0 PUSH2 0xA12 PUSH1 0x20 DUP4 ADD DUP5 PUSH2 0x2A33 JUMP JUMPDEST PUSH1 0x0 DUP1 PUSH1 0x0 DUP1 PUSH1 0x0 PUSH1 0xA0 DUP7 DUP9 SUB SLT ISZERO PUSH2 0x2C1D JUMPI PUSH1 0x0 DUP1 REVERT JUMPDEST DUP6 CALLDATALOAD PUSH1 0x1 PUSH1 0x1 PUSH1 0x40 SHL SUB DUP1 DUP3 GT ISZERO PUSH2 0x2C34 JUMPI PUSH1 0x0 DUP1 REVERT JUMPDEST PUSH2 0x2C40 DUP10 DUP4 DUP11 ADD PUSH2 0x26BD JUMP JUMPDEST SWAP7 POP PUSH1 0x20 DUP9 ADD CALLDATALOAD SWAP2 POP DUP1 DUP3 GT ISZERO PUSH2 0x2C56 JUMPI PUSH1 0x0 DUP1 REVERT JUMPDEST PUSH2 0x2C62 DUP10 DUP4 DUP11 ADD PUSH2 0x26BD JUMP JUMPDEST SWAP6 POP PUSH1 0x40 DUP9 ADD CALLDATALOAD SWAP2 POP DUP1 DUP3 GT ISZERO PUSH2 0x2C78 JUMPI PUSH1 0x0 DUP1 REVERT JUMPDEST PUSH2 0x2C84 DUP10 DUP4 DUP11 ADD PUSH2 0x26BD JUMP JUMPDEST SWAP5 POP PUSH1 0x60 DUP9 ADD CALLDATALOAD SWAP2 POP DUP1 DUP3 GT ISZERO PUSH2 0x2C9A JUMPI PUSH1 0x0 DUP1 REVERT JUMPDEST POP PUSH2 0x2CA7 DUP9 DUP3 DUP10 ADD PUSH2 0x26BD JUMP JUMPDEST SWAP6 SWAP9 SWAP5 SWAP8 POP SWAP3 SWAP6 PUSH1 0x80 ADD CALLDATALOAD SWAP4 SWAP3 POP POP POP JUMP JUMPDEST PUSH1 0x0 PUSH1 0x20 DUP3 DUP5 SUB SLT ISZERO PUSH2 0x2CCB JUMPI PUSH1 0x0 DUP1 REVERT JUMPDEST DUP2 CALLDATALOAD PUSH1 0x1 PUSH1 0x1 PUSH1 0xA0 SHL SUB DUP2 AND DUP2 EQ PUSH2 0xA12 JUMPI PUSH1 0x0 DUP1 REVERT JUMPDEST PUSH1 0x20 DUP1 DUP3 MSTORE PUSH1 0x16 SWAP1 DUP3 ADD MSTORE PUSH22 0x4F6E6C792044414F2063616E2063616C6C2074686973 PUSH1 0x50 SHL PUSH1 0x40 DUP3 ADD MSTORE PUSH1 0x60 ADD SWAP1 JUMP JUMPDEST PUSH1 0x1 DUP2 DUP2 SHR SWAP1 DUP3 AND DUP1 PUSH2 0x2D26 JUMPI PUSH1 0x7F DUP3 AND SWAP2 POP JUMPDEST PUSH1 0x20 DUP3 LT DUP2 SUB PUSH2 0x2D46 JUMPI PUSH4 0x4E487B71 PUSH1 0xE0 SHL PUSH1 0x0 MSTORE PUSH1 0x22 PUSH1 0x4 MSTORE PUSH1 0x24 PUSH1 0x0 REVERT JUMPDEST POP SWAP2 SWAP1 POP JUMP JUMPDEST PUSH1 0x1F DUP3 GT ISZERO PUSH2 0x2D92 JUMPI PUSH1 0x0 DUP2 DUP2 MSTORE PUSH1 0x20 DUP2 KECCAK256 PUSH1 0x1F DUP6 ADD PUSH1 0x5 SHR DUP2 ADD PUSH1 0x20 DUP7 LT ISZERO PUSH2 0x2D73 JUMPI POP DUP1 JUMPDEST PUSH1 0x1F DUP6 ADD PUSH1 0x5 SHR DUP3 ADD SWAP2 POP JUMPDEST DUP2 DUP2 LT ISZERO PUSH2 0xBDC JUMPI DUP3 DUP2 SSTORE PUSH1 0x1 ADD PUSH2 0x2D7F JUMP JUMPDEST POP POP POP JUMP JUMPDEST DUP2 MLOAD PUSH1 0x1 PUSH1 0x1 PUSH1 0x40 SHL SUB DUP2 GT ISZERO PUSH2 0x2DB0 JUMPI PUSH2 0x2DB0 PUSH2 0x2650 JUMP JUMPDEST PUSH2 0x2DC4 DUP2 PUSH2 0x2DBE DUP5 SLOAD PUSH2 0x2D12 JUMP JUMPDEST DUP5 PUSH2 0x2D4C JUMP JUMPDEST PUSH1 0x20 DUP1 PUSH1 0x1F DUP4 GT PUSH1 0x1 DUP2 EQ PUSH2 0x2DF9 JUMPI PUSH1 0x0 DUP5 ISZERO PUSH2 0x2DE1 JUMPI POP DUP6 DUP4 ADD MLOAD JUMPDEST PUSH1 0x0 NOT PUSH1 0x3 DUP7 SWAP1 SHL SHR NOT AND PUSH1 0x1 DUP6 SWAP1 SHL OR DUP6 SSTORE PUSH2 0xBDC JUMP JUMPDEST PUSH1 0x0 DUP6 DUP2 MSTORE PUSH1 0x20 DUP2 KECCAK256 PUSH1 0x1F NOT DUP7 AND SWAP2 JUMPDEST DUP3 DUP2 LT ISZERO PUSH2 0x2E28 JUMPI DUP9 DUP7 ADD MLOAD DUP3 SSTORE SWAP5 DUP5 ADD SWAP5 PUSH1 0x1 SWAP1 SWAP2 ADD SWAP1 DUP5 ADD PUSH2 0x2E09 JUMP JUMPDEST POP DUP6 DUP3 LT ISZERO PUSH2 0x2E46 JUMPI DUP8 DUP6 ADD MLOAD PUSH1 0x0 NOT PUSH1 0x3 DUP9 SWAP1 SHL PUSH1 0xF8 AND SHR NOT AND DUP2 SSTORE JUMPDEST POP POP POP POP POP PUSH1 0x1 SWAP1 DUP2 SHL ADD SWAP1 SSTORE POP JUMP JUMPDEST PUSH4 0x4E487B71 PUSH1 0xE0 SHL PUSH1 0x0 MSTORE PUSH1 0x32 PUSH1 0x4 MSTORE PUSH1 0x24 PUSH1 0x0 REVERT JUMPDEST DUP1 MLOAD PUSH1 0x20 DUP1 DUP4 ADD MLOAD SWAP2 SWAP1 DUP2 LT ISZERO PUSH2 0x2D46 JUMPI PUSH1 0x0 NOT PUSH1 0x20 SWAP2 SWAP1 SWAP2 SUB PUSH1 0x3 SHL SHL AND SWAP2 SWAP1 POP JUMP JUMPDEST PUSH1 0x0 PUSH1 0x20 DUP3 DUP5 SUB SLT ISZERO PUSH2 0x2EA2 JUMPI PUSH1 0x0 DUP1 REVERT JUMPDEST DUP2 MLOAD PUSH1 0x1 PUSH1 0x1 PUSH1 0x40 SHL SUB DUP2 GT ISZERO PUSH2 0x2EB8 JUMPI PUSH1 0x0 DUP1 REVERT JUMPDEST DUP3 ADD PUSH1 0x1F DUP2 ADD DUP5 SGT PUSH2 0x2EC9 JUMPI PUSH1 0x0 DUP1 REVERT JUMPDEST DUP1 MLOAD PUSH2 0x2ED7 PUSH2 0x26DC DUP3 PUSH2 0x2696 JUMP JUMPDEST DUP2 DUP2 MSTORE DUP6 PUSH1 0x20 DUP4 DUP6 ADD ADD GT ISZERO PUSH2 0x2EEC JUMPI PUSH1 0x0 DUP1 REVERT JUMPDEST PUSH2 0x28F6 DUP3 PUSH1 0x20 DUP4 ADD PUSH1 0x20 DUP7 ADD PUSH2 0x27DE JUMP JUMPDEST PUSH4 0x4E487B71 PUSH1 0xE0 SHL PUSH1 0x0 MSTORE PUSH1 0x11 PUSH1 0x4 MSTORE PUSH1 0x24 PUSH1 0x0 REVERT JUMPDEST PUSH1 0x0 PUSH1 0x1 PUSH1 0x1 PUSH1 0x40 SHL SUB DUP1 DUP4 AND DUP2 DUP2 SUB PUSH2 0x2F2F JUMPI PUSH2 0x2F2F PUSH2 0x2EFD JUMP JUMPDEST PUSH1 0x1 ADD SWAP4 SWAP3 POP POP POP JUMP JUMPDEST PUSH1 0x0 PUSH1 0x1 PUSH1 0x1 PUSH1 0x40 SHL SUB DUP3 AND DUP1 PUSH2 0x2F52 JUMPI PUSH2 0x2F52 PUSH2 0x2EFD JUMP JUMPDEST PUSH1 0x0 NOT ADD SWAP3 SWAP2 POP POP JUMP JUMPDEST PUSH1 0x0 PUSH1 0x1 DUP3 ADD PUSH2 0x2F6E JUMPI PUSH2 0x2F6E PUSH2 0x2EFD JUMP JUMPDEST POP PUSH1 0x1 ADD SWAP1 JUMP JUMPDEST DUP2 DUP2 SUB PUSH2 0x2F80 JUMPI POP POP JUMP JUMPDEST PUSH2 0x2F8A DUP3 SLOAD PUSH2 0x2D12 JUMP JUMPDEST PUSH1 0x1 PUSH1 0x1 PUSH1 0x40 SHL SUB DUP2 GT ISZERO PUSH2 0x2FA1 JUMPI PUSH2 0x2FA1 PUSH2 0x2650 JUMP JUMPDEST PUSH2 0x2FAF DUP2 PUSH2 0x2DBE DUP5 SLOAD PUSH2 0x2D12 JUMP JUMPDEST PUSH1 0x0 PUSH1 0x1F DUP3 GT PUSH1 0x1 DUP2 EQ PUSH2 0x2FE3 JUMPI PUSH1 0x0 DUP4 ISZERO PUSH2 0x2FCB JUMPI POP DUP5 DUP3 ADD SLOAD JUMPDEST PUSH1 0x0 NOT PUSH1 0x3 DUP6 SWAP1 SHL SHR NOT AND PUSH1 0x1 DUP5 SWAP1 SHL OR DUP5 SSTORE PUSH2 0xF5C JUMP JUMPDEST PUSH1 0x0 DUP6 DUP2 MSTORE PUSH1 0x20 SWAP1 KECCAK256 PUSH1 0x1F NOT DUP5 AND SWAP1 PUSH1 0x0 DUP7 DUP2 MSTORE PUSH1 0x20 SWAP1 KECCAK256 DUP5 JUMPDEST DUP4 DUP2 LT ISZERO PUSH2 0x301D JUMPI DUP3 DUP7 ADD SLOAD DUP3 SSTORE PUSH1 0x1 SWAP6 DUP7 ADD SWAP6 SWAP1 SWAP2 ADD SWAP1 PUSH1 0x20 ADD PUSH2 0x2FFD JUMP JUMPDEST POP DUP6 DUP4 LT ISZERO PUSH2 0x2E46 JUMPI SWAP4 ADD SLOAD PUSH1 0x0 NOT PUSH1 0xF8 PUSH1 0x3 DUP8 SWAP1 SHL AND SHR NOT AND SWAP1 SWAP3 SSTORE POP POP PUSH1 0x1 SWAP1 DUP2 SHL ADD SWAP1 SSTORE POP JUMP JUMPDEST PUSH1 0x0 DUP3 MLOAD PUSH2 0x3059 DUP2 DUP5 PUSH1 0x20 DUP8 ADD PUSH2 0x27DE JUMP JUMPDEST SWAP2 SWAP1 SWAP2 ADD SWAP3 SWAP2 POP POP JUMP INVALID 0xAC CALLER SELFDESTRUCT PUSH22 0xC19E70FE83507DB0D683FD3465C996598DC972688B7A 0xCE PUSH8 0x6C89077BA2646970 PUSH7 0x7358221220B662 PC 0xC7 SGT 0xAC REVERT SWAP4 JUMP ADDRESS PUSH12 0x4166B908F26C70B4FE65872 0xB0 DUP3 DUP14 POP CHAINID 0xB2 SMOD 0xB2 SWAP4 PUSH5 0x736F6C6343 STOP ADDMOD GT STOP CALLER "},"methodIdentifiers":{"GovernanceDAO()":"9ca85bf0","contractGraphLib()":"c5b42c22","createGroup(string,bytes32)":"8651dd7a","createResource(string,string,string,string,bytes32)":"e08a3afd","deleteGroup(string)":"2e8b92a9","deleteResource(string,string)":"19d0cc84","getGroup(string)":"abef281e","getGroups(uint64,uint64)":"5140dcf3","getResource(string,string)":"894a823d","getResources(uint64,uint64,uint64)":"18885081","moveGroup(string,string)":"6158623e","moveResource(string,string,string,string)":"a046ae13","renameGroup(string,string,bytes32)":"034cbb22","setNewOwner(address)":"f5a1f5b4","totalGroups()":"c75f2893"}}}}}