{"contracts/Treasury.sol":{"Treasury":{"abi":[{"inputs":[],"stateMutability":"nonpayable","type":"constructor"},{"anonymous":false,"inputs":[{"indexed":true,"internalType":"address","name":"_old","type":"address"},{"indexed":true,"internalType":"address","name":"_new","type":"address"}],"name":"ChangeRecipient","type":"event"},{"anonymous":false,"inputs":[{"indexed":true,"internalType":"address","name":"_sender","type":"address"},{"indexed":true,"internalType":"address","name":"_recipient","type":"address"},{"indexed":false,"internalType":"uint256","name":"_value","type":"uint256"}],"name":"TransferCLO","type":"event"},{"anonymous":false,"inputs":[{"indexed":true,"internalType":"address","name":"_sender","type":"address"},{"indexed":false,"internalType":"uint256","name":"_percent","type":"uint256"}],"name":"TransferPercent","type":"event"},{"inputs":[],"name":"callistoCommunity","outputs":[{"internalType":"address","name":"","type":"address"}],"stateMutability":"view","type":"function"},{"inputs":[],"name":"callistoNetwork","outputs":[{"internalType":"address","name":"","type":"address"}],"stateMutability":"view","type":"function"},{"inputs":[{"internalType":"address","name":"_newRecepient","type":"address"}],"name":"changeRecepient","outputs":[],"stateMutability":"nonpayable","type":"function"},{"inputs":[{"internalType":"address","name":"_token","type":"address"}],"name":"getBalanceToken","outputs":[{"internalType":"uint256","name":"","type":"uint256"},{"internalType":"uint8","name":"","type":"uint8"},{"internalType":"string","name":"","type":"string"}],"stateMutability":"view","type":"function"},{"inputs":[{"internalType":"address","name":"_recipient","type":"address"}],"name":"getRecipientData","outputs":[{"components":[{"internalType":"uint256","name":"percent","type":"uint256"},{"internalType":"uint256","name":"balance","type":"uint256"}],"internalType":"struct Treasury.RecipientData","name":"","type":"tuple"}],"stateMutability":"view","type":"function"},{"inputs":[{"internalType":"address","name":"_from","type":"address"},{"internalType":"uint256","name":"_value","type":"uint256"},{"internalType":"bytes","name":"_data","type":"bytes"}],"name":"tokenReceived","outputs":[{"internalType":"bytes4","name":"","type":"bytes4"}],"stateMutability":"nonpayable","type":"function"},{"inputs":[{"internalType":"address","name":"_recipient","type":"address"},{"internalType":"uint256","name":"_value","type":"uint256"}],"name":"transferCLO","outputs":[],"stateMutability":"nonpayable","type":"function"},{"inputs":[{"internalType":"uint256","name":"_percent","type":"uint256"}],"name":"transferPercent","outputs":[],"stateMutability":"nonpayable","type":"function"},{"inputs":[{"internalType":"address","name":"_token","type":"address"},{"internalType":"address","name":"_recipient","type":"address"},{"internalType":"uint256","name":"_value","type":"uint256"}],"name":"transferToken","outputs":[],"stateMutability":"nonpayable","type":"function"},{"stateMutability":"payable","type":"receive"}],"evm":{"bytecode":{"linkReferences":{},"object":"6080604052600080546001600160a01b031990811673ebe894814554c8382ea6a24ccddf1527407a24f6179091556001805490911673fc8f3324b6d71d14bfd625ecdbd18f3bc29a993517905534801561005857600080fd5b50600080546001600160a01b039081168252600260205260408083206802b5e3af16b188000090819055600154909216835290912055610d778061009d6000396000f3fe6080604052600436106100895760003560e01c806348eca45c1161005957806348eca45c146101345780636c3fc445146101635780638943ec0214610183578063f5537ede146101c6578063fe37f7fe146101e657600080fd5b8062667f2914610095578063082455ce146100d25780630fb35fc6146100f45780632d5823711461011457600080fd5b3661009057005b600080fd5b3480156100a157600080fd5b506001546100b5906001600160a01b031681565b6040516001600160a01b0390911681526020015b60405180910390f35b3480156100de57600080fd5b506100f26100ed36600461099b565b610221565b005b34801561010057600080fd5b506100f261010f3660046109d0565b61036f565b34801561012057600080fd5b506000546100b5906001600160a01b031681565b34801561014057600080fd5b5061015461014f3660046109fa565b61049a565b6040516100c993929190610a40565b34801561016f57600080fd5b506100f261017e3660046109fa565b6105ea565b34801561018f57600080fd5b506101ad61019e366004610af3565b6344a1f60160e11b9392505050565b6040516001600160e01b031990911681526020016100c9565b3480156101d257600080fd5b506100f26101e1366004610b8d565b61070a565b3480156101f257600080fd5b506102066102013660046109fa565b6107c4565b604080518251815260209283015192810192909252016100c9565b6000546001600160a01b031633148061024457506001546001600160a01b031633145b6102695760405162461bcd60e51b815260040161026090610bc9565b60405180910390fd5b336000908152600260205260409020548082111561028657600080fd5b61028e6108bc565b6000546001600160a01b031633146102d357600080546001600160a01b03168152600260205260409020546102c4908390610c07565b6102ce8383610c20565b610303565b6102dd8282610c20565b6001546001600160a01b0316600090815260026020526040902054610303908490610c07565b600080546001600160a01b03908116825260026020526040808320600154909216835291829020929092559190555133907f700115a5a47daa46c4a0c7d6d282a2d45aa8aed28137136d59064f090a38a323906103639085815260200190565b60405180910390a25050565b6000546001600160a01b031633148061039257506001546001600160a01b031633145b6103ae5760405162461bcd60e51b815260040161026090610bc9565b6001600160a01b038216158015906103cf57506001600160a01b0382163014155b6103d857600080fd5b6103e06108bc565b336000908152600260205260409020600101548082111561040057600080fd5b61040a8282610c20565b336000908152600260205260408082206001019290925590516001600160a01b0385169184156108fc02918591818181858888f19350505050158015610454573d6000803e3d6000fd5b506040518281526001600160a01b0384169033907f4ddebed7447a12da95902559eac51ea2594f93265e70f2d11da210e33abdafcd9060200160405180910390a3505050565b6040516370a0823160e01b8152306004820152600090819060609082906001600160a01b038616906370a0823190602401602060405180830381865afa1580156104e8573d6000803e3d6000fd5b505050506040513d601f19601f8201168201806040525081019061050c9190610c33565b90506000856001600160a01b031663313ce5676040518163ffffffff1660e01b8152600401602060405180830381865afa15801561054e573d6000803e3d6000fd5b505050506040513d601f19601f820116820180604052508101906105729190610c4c565b90506000866001600160a01b03166395d89b416040518163ffffffff1660e01b8152600401600060405180830381865afa1580156105b4573d6000803e3d6000fd5b505050506040513d6000823e601f3d908101601f191682016040526105dc9190810190610c6f565b929791965091945092505050565b6000546001600160a01b031633148061060d57506001546001600160a01b031633145b6106295760405162461bcd60e51b815260040161026090610bc9565b33600081815260026020818152604080842080546001808301805493889055879055835180850185528281528086018481526001600160a01b038b81168a529790965293872093518455935192909301919091559254909391161461069a576000546001600160a01b0316836106a9565b60015483906001600160a01b03165b600180546001600160a01b03199081166001600160a01b0393841617909155600080549091169282169290921782556040519085169133917f68dd0f2c9ca18dce1e14e2e3f99123a6292bfde61698d10163545ee09a2bb7bb9190a3505050565b6001546001600160a01b0316331461072157600080fd5b6001600160a01b0382161580159061074257506001600160a01b0382163014155b61074b57600080fd5b60405163a9059cbb60e01b81526001600160a01b0383811660048301526024820183905284169063a9059cbb906044016020604051808303816000875af115801561079a573d6000803e3d6000fd5b505050506040513d601f19601f820116820180604052508101906107be9190610ce6565b50505050565b60408051808201909152600080825260208201526040805180820190915260008082526020820152600080546001600160a01b0390811682526002602052604080832060019081015481549093168452908320015490916108258284610c07565b61082f9047610c20565b6001600160a01b0387166000908152600260205260408120549192509068056bc75e2d6310000090610862908490610d08565b61086c9190610d1f565b6040805180820182526001600160a01b038a16600081815260026020818152948220805485529290915283526001015492935091908201906108af908490610c07565b9052979650505050505050565b600080546001600160a01b0390811682526002602052604080832060019081015481549093168452908320015490916108f58284610c07565b6108ff9047610c20565b600080546001600160a01b03168152600260205260408120549192509068056bc75e2d6310000090610932908490610d08565b61093c9190610d1f565b90506109488185610c07565b600080546001600160a01b031681526002602052604090206001015561096e8183610c20565b6109789084610c07565b600180546001600160a01b03166000908152600260205260409020015550505050565b6000602082840312156109ad57600080fd5b5035919050565b80356001600160a01b03811681146109cb57600080fd5b919050565b600080604083850312156109e357600080fd5b6109ec836109b4565b946020939093013593505050565b600060208284031215610a0c57600080fd5b610a15826109b4565b9392505050565b60005b83811015610a37578181015183820152602001610a1f565b50506000910152565b83815260ff831660208201526060604082015260008251806060840152610a6e816080850160208701610a1c565b601f01601f191691909101608001949350505050565b634e487b7160e01b600052604160045260246000fd5b604051601f8201601f1916810167ffffffffffffffff81118282101715610ac357610ac3610a84565b604052919050565b600067ffffffffffffffff821115610ae557610ae5610a84565b50601f01601f191660200190565b600080600060608486031215610b0857600080fd5b610b11846109b4565b925060208401359150604084013567ffffffffffffffff811115610b3457600080fd5b8401601f81018613610b4557600080fd5b8035610b58610b5382610acb565b610a9a565b818152876020838501011115610b6d57600080fd5b816020840160208301376000602083830101528093505050509250925092565b600080600060608486031215610ba257600080fd5b610bab846109b4565b9250610bb9602085016109b4565b9150604084013590509250925092565b6020808252600e908201526d13db9b1e481c9958da5c1a595b9d60921b604082015260600190565b634e487b7160e01b600052601160045260246000fd5b80820180821115610c1a57610c1a610bf1565b92915050565b81810381811115610c1a57610c1a610bf1565b600060208284031215610c4557600080fd5b5051919050565b600060208284031215610c5e57600080fd5b815160ff81168114610a1557600080fd5b600060208284031215610c8157600080fd5b815167ffffffffffffffff811115610c9857600080fd5b8201601f81018413610ca957600080fd5b8051610cb7610b5382610acb565b818152856020838501011115610ccc57600080fd5b610cdd826020830160208601610a1c565b95945050505050565b600060208284031215610cf857600080fd5b81518015158114610a1557600080fd5b8082028115828204841417610c1a57610c1a610bf1565b600082610d3c57634e487b7160e01b600052601260045260246000fd5b50049056fea2646970667358221220ea6d6c1003d44599585c9bf7440c9769c05eb8b375ad21fb0fe77364b1c9e59864736f6c63430008110033","opcodes":"PUSH1 0x80 PUSH1 0x40 MSTORE PUSH1 0x0 DUP1 SLOAD PUSH1 0x1 PUSH1 0x1 PUSH1 0xA0 SHL SUB NOT SWAP1 DUP2 AND PUSH20 0xEBE894814554C8382EA6A24CCDDF1527407A24F6 OR SWAP1 SWAP2 SSTORE PUSH1 0x1 DUP1 SLOAD SWAP1 SWAP2 AND PUSH20 0xFC8F3324B6D71D14BFD625ECDBD18F3BC29A9935 OR SWAP1 SSTORE CALLVALUE DUP1 ISZERO PUSH2 0x58 JUMPI PUSH1 0x0 DUP1 REVERT JUMPDEST POP PUSH1 0x0 DUP1 SLOAD PUSH1 0x1 PUSH1 0x1 PUSH1 0xA0 SHL SUB SWAP1 DUP2 AND DUP3 MSTORE PUSH1 0x2 PUSH1 0x20 MSTORE PUSH1 0x40 DUP1 DUP4 KECCAK256 PUSH9 0x2B5E3AF16B1880000 SWAP1 DUP2 SWAP1 SSTORE PUSH1 0x1 SLOAD SWAP1 SWAP3 AND DUP4 MSTORE SWAP1 SWAP2 KECCAK256 SSTORE PUSH2 0xD77 DUP1 PUSH2 0x9D PUSH1 0x0 CODECOPY PUSH1 0x0 RETURN INVALID PUSH1 0x80 PUSH1 0x40 MSTORE PUSH1 0x4 CALLDATASIZE LT PUSH2 0x89 JUMPI PUSH1 0x0 CALLDATALOAD PUSH1 0xE0 SHR DUP1 PUSH4 0x48ECA45C GT PUSH2 0x59 JUMPI DUP1 PUSH4 0x48ECA45C EQ PUSH2 0x134 JUMPI DUP1 PUSH4 0x6C3FC445 EQ PUSH2 0x163 JUMPI DUP1 PUSH4 0x8943EC02 EQ PUSH2 0x183 JUMPI DUP1 PUSH4 0xF5537EDE EQ PUSH2 0x1C6 JUMPI DUP1 PUSH4 0xFE37F7FE EQ PUSH2 0x1E6 JUMPI PUSH1 0x0 DUP1 REVERT JUMPDEST DUP1 PUSH3 0x667F29 EQ PUSH2 0x95 JUMPI DUP1 PUSH4 0x82455CE EQ PUSH2 0xD2 JUMPI DUP1 PUSH4 0xFB35FC6 EQ PUSH2 0xF4 JUMPI DUP1 PUSH4 0x2D582371 EQ PUSH2 0x114 JUMPI PUSH1 0x0 DUP1 REVERT JUMPDEST CALLDATASIZE PUSH2 0x90 JUMPI STOP JUMPDEST PUSH1 0x0 DUP1 REVERT JUMPDEST CALLVALUE DUP1 ISZERO PUSH2 0xA1 JUMPI PUSH1 0x0 DUP1 REVERT JUMPDEST POP PUSH1 0x1 SLOAD PUSH2 0xB5 SWAP1 PUSH1 0x1 PUSH1 0x1 PUSH1 0xA0 SHL SUB AND DUP2 JUMP JUMPDEST PUSH1 0x40 MLOAD PUSH1 0x1 PUSH1 0x1 PUSH1 0xA0 SHL SUB SWAP1 SWAP2 AND DUP2 MSTORE PUSH1 0x20 ADD JUMPDEST PUSH1 0x40 MLOAD DUP1 SWAP2 SUB SWAP1 RETURN JUMPDEST CALLVALUE DUP1 ISZERO PUSH2 0xDE JUMPI PUSH1 0x0 DUP1 REVERT JUMPDEST POP PUSH2 0xF2 PUSH2 0xED CALLDATASIZE PUSH1 0x4 PUSH2 0x99B JUMP JUMPDEST PUSH2 0x221 JUMP JUMPDEST STOP JUMPDEST CALLVALUE DUP1 ISZERO PUSH2 0x100 JUMPI PUSH1 0x0 DUP1 REVERT JUMPDEST POP PUSH2 0xF2 PUSH2 0x10F CALLDATASIZE PUSH1 0x4 PUSH2 0x9D0 JUMP JUMPDEST PUSH2 0x36F JUMP JUMPDEST CALLVALUE DUP1 ISZERO PUSH2 0x120 JUMPI PUSH1 0x0 DUP1 REVERT JUMPDEST POP PUSH1 0x0 SLOAD PUSH2 0xB5 SWAP1 PUSH1 0x1 PUSH1 0x1 PUSH1 0xA0 SHL SUB AND DUP2 JUMP JUMPDEST CALLVALUE DUP1 ISZERO PUSH2 0x140 JUMPI PUSH1 0x0 DUP1 REVERT JUMPDEST POP PUSH2 0x154 PUSH2 0x14F CALLDATASIZE PUSH1 0x4 PUSH2 0x9FA JUMP JUMPDEST PUSH2 0x49A JUMP JUMPDEST PUSH1 0x40 MLOAD PUSH2 0xC9 SWAP4 SWAP3 SWAP2 SWAP1 PUSH2 0xA40 JUMP JUMPDEST CALLVALUE DUP1 ISZERO PUSH2 0x16F JUMPI PUSH1 0x0 DUP1 REVERT JUMPDEST POP PUSH2 0xF2 PUSH2 0x17E CALLDATASIZE PUSH1 0x4 PUSH2 0x9FA JUMP JUMPDEST PUSH2 0x5EA JUMP JUMPDEST CALLVALUE DUP1 ISZERO PUSH2 0x18F JUMPI PUSH1 0x0 DUP1 REVERT JUMPDEST POP PUSH2 0x1AD PUSH2 0x19E CALLDATASIZE PUSH1 0x4 PUSH2 0xAF3 JUMP JUMPDEST PUSH4 0x44A1F601 PUSH1 0xE1 SHL SWAP4 SWAP3 POP POP POP JUMP JUMPDEST PUSH1 0x40 MLOAD PUSH1 0x1 PUSH1 0x1 PUSH1 0xE0 SHL SUB NOT SWAP1 SWAP2 AND DUP2 MSTORE PUSH1 0x20 ADD PUSH2 0xC9 JUMP JUMPDEST CALLVALUE DUP1 ISZERO PUSH2 0x1D2 JUMPI PUSH1 0x0 DUP1 REVERT JUMPDEST POP PUSH2 0xF2 PUSH2 0x1E1 CALLDATASIZE PUSH1 0x4 PUSH2 0xB8D JUMP JUMPDEST PUSH2 0x70A JUMP JUMPDEST CALLVALUE DUP1 ISZERO PUSH2 0x1F2 JUMPI PUSH1 0x0 DUP1 REVERT JUMPDEST POP PUSH2 0x206 PUSH2 0x201 CALLDATASIZE PUSH1 0x4 PUSH2 0x9FA JUMP JUMPDEST PUSH2 0x7C4 JUMP JUMPDEST PUSH1 0x40 DUP1 MLOAD DUP3 MLOAD DUP2 MSTORE PUSH1 0x20 SWAP3 DUP4 ADD MLOAD SWAP3 DUP2 ADD SWAP3 SWAP1 SWAP3 MSTORE ADD PUSH2 0xC9 JUMP JUMPDEST PUSH1 0x0 SLOAD PUSH1 0x1 PUSH1 0x1 PUSH1 0xA0 SHL SUB AND CALLER EQ DUP1 PUSH2 0x244 JUMPI POP PUSH1 0x1 SLOAD PUSH1 0x1 PUSH1 0x1 PUSH1 0xA0 SHL SUB AND CALLER EQ JUMPDEST PUSH2 0x269 JUMPI PUSH1 0x40 MLOAD PUSH3 0x461BCD PUSH1 0xE5 SHL DUP2 MSTORE PUSH1 0x4 ADD PUSH2 0x260 SWAP1 PUSH2 0xBC9 JUMP JUMPDEST PUSH1 0x40 MLOAD DUP1 SWAP2 SUB SWAP1 REVERT JUMPDEST CALLER PUSH1 0x0 SWAP1 DUP2 MSTORE PUSH1 0x2 PUSH1 0x20 MSTORE PUSH1 0x40 SWAP1 KECCAK256 SLOAD DUP1 DUP3 GT ISZERO PUSH2 0x286 JUMPI PUSH1 0x0 DUP1 REVERT JUMPDEST PUSH2 0x28E PUSH2 0x8BC JUMP JUMPDEST PUSH1 0x0 SLOAD PUSH1 0x1 PUSH1 0x1 PUSH1 0xA0 SHL SUB AND CALLER EQ PUSH2 0x2D3 JUMPI PUSH1 0x0 DUP1 SLOAD PUSH1 0x1 PUSH1 0x1 PUSH1 0xA0 SHL SUB AND DUP2 MSTORE PUSH1 0x2 PUSH1 0x20 MSTORE PUSH1 0x40 SWAP1 KECCAK256 SLOAD PUSH2 0x2C4 SWAP1 DUP4 SWAP1 PUSH2 0xC07 JUMP JUMPDEST PUSH2 0x2CE DUP4 DUP4 PUSH2 0xC20 JUMP JUMPDEST PUSH2 0x303 JUMP JUMPDEST PUSH2 0x2DD DUP3 DUP3 PUSH2 0xC20 JUMP JUMPDEST PUSH1 0x1 SLOAD PUSH1 0x1 PUSH1 0x1 PUSH1 0xA0 SHL SUB AND PUSH1 0x0 SWAP1 DUP2 MSTORE PUSH1 0x2 PUSH1 0x20 MSTORE PUSH1 0x40 SWAP1 KECCAK256 SLOAD PUSH2 0x303 SWAP1 DUP5 SWAP1 PUSH2 0xC07 JUMP JUMPDEST PUSH1 0x0 DUP1 SLOAD PUSH1 0x1 PUSH1 0x1 PUSH1 0xA0 SHL SUB SWAP1 DUP2 AND DUP3 MSTORE PUSH1 0x2 PUSH1 0x20 MSTORE PUSH1 0x40 DUP1 DUP4 KECCAK256 PUSH1 0x1 SLOAD SWAP1 SWAP3 AND DUP4 MSTORE SWAP2 DUP3 SWAP1 KECCAK256 SWAP3 SWAP1 SWAP3 SSTORE SWAP2 SWAP1 SSTORE MLOAD CALLER SWAP1 PUSH32 0x700115A5A47DAA46C4A0C7D6D282A2D45AA8AED28137136D59064F090A38A323 SWAP1 PUSH2 0x363 SWAP1 DUP6 DUP2 MSTORE PUSH1 0x20 ADD SWAP1 JUMP JUMPDEST PUSH1 0x40 MLOAD DUP1 SWAP2 SUB SWAP1 LOG2 POP POP JUMP JUMPDEST PUSH1 0x0 SLOAD PUSH1 0x1 PUSH1 0x1 PUSH1 0xA0 SHL SUB AND CALLER EQ DUP1 PUSH2 0x392 JUMPI POP PUSH1 0x1 SLOAD PUSH1 0x1 PUSH1 0x1 PUSH1 0xA0 SHL SUB AND CALLER EQ JUMPDEST PUSH2 0x3AE JUMPI PUSH1 0x40 MLOAD PUSH3 0x461BCD PUSH1 0xE5 SHL DUP2 MSTORE PUSH1 0x4 ADD PUSH2 0x260 SWAP1 PUSH2 0xBC9 JUMP JUMPDEST PUSH1 0x1 PUSH1 0x1 PUSH1 0xA0 SHL SUB DUP3 AND ISZERO DUP1 ISZERO SWAP1 PUSH2 0x3CF JUMPI POP PUSH1 0x1 PUSH1 0x1 PUSH1 0xA0 SHL SUB DUP3 AND ADDRESS EQ ISZERO JUMPDEST PUSH2 0x3D8 JUMPI PUSH1 0x0 DUP1 REVERT JUMPDEST PUSH2 0x3E0 PUSH2 0x8BC JUMP JUMPDEST CALLER PUSH1 0x0 SWAP1 DUP2 MSTORE PUSH1 0x2 PUSH1 0x20 MSTORE PUSH1 0x40 SWAP1 KECCAK256 PUSH1 0x1 ADD SLOAD DUP1 DUP3 GT ISZERO PUSH2 0x400 JUMPI PUSH1 0x0 DUP1 REVERT JUMPDEST PUSH2 0x40A DUP3 DUP3 PUSH2 0xC20 JUMP JUMPDEST CALLER PUSH1 0x0 SWAP1 DUP2 MSTORE PUSH1 0x2 PUSH1 0x20 MSTORE PUSH1 0x40 DUP1 DUP3 KECCAK256 PUSH1 0x1 ADD SWAP3 SWAP1 SWAP3 SSTORE SWAP1 MLOAD PUSH1 0x1 PUSH1 0x1 PUSH1 0xA0 SHL SUB DUP6 AND SWAP2 DUP5 ISZERO PUSH2 0x8FC MUL SWAP2 DUP6 SWAP2 DUP2 DUP2 DUP2 DUP6 DUP9 DUP9 CALL SWAP4 POP POP POP POP ISZERO DUP1 ISZERO PUSH2 0x454 JUMPI RETURNDATASIZE PUSH1 0x0 DUP1 RETURNDATACOPY RETURNDATASIZE PUSH1 0x0 REVERT JUMPDEST POP PUSH1 0x40 MLOAD DUP3 DUP2 MSTORE PUSH1 0x1 PUSH1 0x1 PUSH1 0xA0 SHL SUB DUP5 AND SWAP1 CALLER SWAP1 PUSH32 0x4DDEBED7447A12DA95902559EAC51EA2594F93265E70F2D11DA210E33ABDAFCD SWAP1 PUSH1 0x20 ADD PUSH1 0x40 MLOAD DUP1 SWAP2 SUB SWAP1 LOG3 POP POP POP JUMP JUMPDEST PUSH1 0x40 MLOAD PUSH4 0x70A08231 PUSH1 0xE0 SHL DUP2 MSTORE ADDRESS PUSH1 0x4 DUP3 ADD MSTORE PUSH1 0x0 SWAP1 DUP2 SWAP1 PUSH1 0x60 SWAP1 DUP3 SWAP1 PUSH1 0x1 PUSH1 0x1 PUSH1 0xA0 SHL SUB DUP7 AND SWAP1 PUSH4 0x70A08231 SWAP1 PUSH1 0x24 ADD PUSH1 0x20 PUSH1 0x40 MLOAD DUP1 DUP4 SUB DUP2 DUP7 GAS STATICCALL ISZERO DUP1 ISZERO PUSH2 0x4E8 JUMPI RETURNDATASIZE PUSH1 0x0 DUP1 RETURNDATACOPY RETURNDATASIZE PUSH1 0x0 REVERT JUMPDEST POP POP POP POP PUSH1 0x40 MLOAD RETURNDATASIZE PUSH1 0x1F NOT PUSH1 0x1F DUP3 ADD AND DUP3 ADD DUP1 PUSH1 0x40 MSTORE POP DUP2 ADD SWAP1 PUSH2 0x50C SWAP2 SWAP1 PUSH2 0xC33 JUMP JUMPDEST SWAP1 POP PUSH1 0x0 DUP6 PUSH1 0x1 PUSH1 0x1 PUSH1 0xA0 SHL SUB AND PUSH4 0x313CE567 PUSH1 0x40 MLOAD DUP2 PUSH4 0xFFFFFFFF AND PUSH1 0xE0 SHL DUP2 MSTORE PUSH1 0x4 ADD PUSH1 0x20 PUSH1 0x40 MLOAD DUP1 DUP4 SUB DUP2 DUP7 GAS STATICCALL ISZERO DUP1 ISZERO PUSH2 0x54E JUMPI RETURNDATASIZE PUSH1 0x0 DUP1 RETURNDATACOPY RETURNDATASIZE PUSH1 0x0 REVERT JUMPDEST POP POP POP POP PUSH1 0x40 MLOAD RETURNDATASIZE PUSH1 0x1F NOT PUSH1 0x1F DUP3 ADD AND DUP3 ADD DUP1 PUSH1 0x40 MSTORE POP DUP2 ADD SWAP1 PUSH2 0x572 SWAP2 SWAP1 PUSH2 0xC4C JUMP JUMPDEST SWAP1 POP PUSH1 0x0 DUP7 PUSH1 0x1 PUSH1 0x1 PUSH1 0xA0 SHL SUB AND PUSH4 0x95D89B41 PUSH1 0x40 MLOAD DUP2 PUSH4 0xFFFFFFFF AND PUSH1 0xE0 SHL DUP2 MSTORE PUSH1 0x4 ADD PUSH1 0x0 PUSH1 0x40 MLOAD DUP1 DUP4 SUB DUP2 DUP7 GAS STATICCALL ISZERO DUP1 ISZERO PUSH2 0x5B4 JUMPI RETURNDATASIZE PUSH1 0x0 DUP1 RETURNDATACOPY RETURNDATASIZE PUSH1 0x0 REVERT JUMPDEST POP POP POP POP PUSH1 0x40 MLOAD RETURNDATASIZE PUSH1 0x0 DUP3 RETURNDATACOPY PUSH1 0x1F RETURNDATASIZE SWAP1 DUP2 ADD PUSH1 0x1F NOT AND DUP3 ADD PUSH1 0x40 MSTORE PUSH2 0x5DC SWAP2 SWAP1 DUP2 ADD SWAP1 PUSH2 0xC6F JUMP JUMPDEST SWAP3 SWAP8 SWAP2 SWAP7 POP SWAP2 SWAP5 POP SWAP3 POP POP POP JUMP JUMPDEST PUSH1 0x0 SLOAD PUSH1 0x1 PUSH1 0x1 PUSH1 0xA0 SHL SUB AND CALLER EQ DUP1 PUSH2 0x60D JUMPI POP PUSH1 0x1 SLOAD PUSH1 0x1 PUSH1 0x1 PUSH1 0xA0 SHL SUB AND CALLER EQ JUMPDEST PUSH2 0x629 JUMPI PUSH1 0x40 MLOAD PUSH3 0x461BCD PUSH1 0xE5 SHL DUP2 MSTORE PUSH1 0x4 ADD PUSH2 0x260 SWAP1 PUSH2 0xBC9 JUMP JUMPDEST CALLER PUSH1 0x0 DUP2 DUP2 MSTORE PUSH1 0x2 PUSH1 0x20 DUP2 DUP2 MSTORE PUSH1 0x40 DUP1 DUP5 KECCAK256 DUP1 SLOAD PUSH1 0x1 DUP1 DUP4 ADD DUP1 SLOAD SWAP4 DUP9 SWAP1 SSTORE DUP8 SWAP1 SSTORE DUP4 MLOAD DUP1 DUP6 ADD DUP6 MSTORE DUP3 DUP2 MSTORE DUP1 DUP7 ADD DUP5 DUP2 MSTORE PUSH1 0x1 PUSH1 0x1 PUSH1 0xA0 SHL SUB DUP12 DUP2 AND DUP11 MSTORE SWAP8 SWAP1 SWAP7 MSTORE SWAP4 DUP8 KECCAK256 SWAP4 MLOAD DUP5 SSTORE SWAP4 MLOAD SWAP3 SWAP1 SWAP4 ADD SWAP2 SWAP1 SWAP2 SSTORE SWAP3 SLOAD SWAP1 SWAP4 SWAP2 AND EQ PUSH2 0x69A JUMPI PUSH1 0x0 SLOAD PUSH1 0x1 PUSH1 0x1 PUSH1 0xA0 SHL SUB AND DUP4 PUSH2 0x6A9 JUMP JUMPDEST PUSH1 0x1 SLOAD DUP4 SWAP1 PUSH1 0x1 PUSH1 0x1 PUSH1 0xA0 SHL SUB AND JUMPDEST PUSH1 0x1 DUP1 SLOAD PUSH1 0x1 PUSH1 0x1 PUSH1 0xA0 SHL SUB NOT SWAP1 DUP2 AND PUSH1 0x1 PUSH1 0x1 PUSH1 0xA0 SHL SUB SWAP4 DUP5 AND OR SWAP1 SWAP2 SSTORE PUSH1 0x0 DUP1 SLOAD SWAP1 SWAP2 AND SWAP3 DUP3 AND SWAP3 SWAP1 SWAP3 OR DUP3 SSTORE PUSH1 0x40 MLOAD SWAP1 DUP6 AND SWAP2 CALLER SWAP2 PUSH32 0x68DD0F2C9CA18DCE1E14E2E3F99123A6292BFDE61698D10163545EE09A2BB7BB SWAP2 SWAP1 LOG3 POP POP POP JUMP JUMPDEST PUSH1 0x1 SLOAD PUSH1 0x1 PUSH1 0x1 PUSH1 0xA0 SHL SUB AND CALLER EQ PUSH2 0x721 JUMPI PUSH1 0x0 DUP1 REVERT JUMPDEST PUSH1 0x1 PUSH1 0x1 PUSH1 0xA0 SHL SUB DUP3 AND ISZERO DUP1 ISZERO SWAP1 PUSH2 0x742 JUMPI POP PUSH1 0x1 PUSH1 0x1 PUSH1 0xA0 SHL SUB DUP3 AND ADDRESS EQ ISZERO JUMPDEST PUSH2 0x74B JUMPI PUSH1 0x0 DUP1 REVERT JUMPDEST PUSH1 0x40 MLOAD PUSH4 0xA9059CBB PUSH1 0xE0 SHL DUP2 MSTORE PUSH1 0x1 PUSH1 0x1 PUSH1 0xA0 SHL SUB DUP4 DUP2 AND PUSH1 0x4 DUP4 ADD MSTORE PUSH1 0x24 DUP3 ADD DUP4 SWAP1 MSTORE DUP5 AND SWAP1 PUSH4 0xA9059CBB SWAP1 PUSH1 0x44 ADD PUSH1 0x20 PUSH1 0x40 MLOAD DUP1 DUP4 SUB DUP2 PUSH1 0x0 DUP8 GAS CALL ISZERO DUP1 ISZERO PUSH2 0x79A JUMPI RETURNDATASIZE PUSH1 0x0 DUP1 RETURNDATACOPY RETURNDATASIZE PUSH1 0x0 REVERT JUMPDEST POP POP POP POP PUSH1 0x40 MLOAD RETURNDATASIZE PUSH1 0x1F NOT PUSH1 0x1F DUP3 ADD AND DUP3 ADD DUP1 PUSH1 0x40 MSTORE POP DUP2 ADD SWAP1 PUSH2 0x7BE SWAP2 SWAP1 PUSH2 0xCE6 JUMP JUMPDEST POP POP POP POP JUMP JUMPDEST PUSH1 0x40 DUP1 MLOAD DUP1 DUP3 ADD SWAP1 SWAP2 MSTORE PUSH1 0x0 DUP1 DUP3 MSTORE PUSH1 0x20 DUP3 ADD MSTORE PUSH1 0x40 DUP1 MLOAD DUP1 DUP3 ADD SWAP1 SWAP2 MSTORE PUSH1 0x0 DUP1 DUP3 MSTORE PUSH1 0x20 DUP3 ADD MSTORE PUSH1 0x0 DUP1 SLOAD PUSH1 0x1 PUSH1 0x1 PUSH1 0xA0 SHL SUB SWAP1 DUP2 AND DUP3 MSTORE PUSH1 0x2 PUSH1 0x20 MSTORE PUSH1 0x40 DUP1 DUP4 KECCAK256 PUSH1 0x1 SWAP1 DUP2 ADD SLOAD DUP2 SLOAD SWAP1 SWAP4 AND DUP5 MSTORE SWAP1 DUP4 KECCAK256 ADD SLOAD SWAP1 SWAP2 PUSH2 0x825 DUP3 DUP5 PUSH2 0xC07 JUMP JUMPDEST PUSH2 0x82F SWAP1 SELFBALANCE PUSH2 0xC20 JUMP JUMPDEST PUSH1 0x1 PUSH1 0x1 PUSH1 0xA0 SHL SUB DUP8 AND PUSH1 0x0 SWAP1 DUP2 MSTORE PUSH1 0x2 PUSH1 0x20 MSTORE PUSH1 0x40 DUP2 KECCAK256 SLOAD SWAP2 SWAP3 POP SWAP1 PUSH9 0x56BC75E2D63100000 SWAP1 PUSH2 0x862 SWAP1 DUP5 SWAP1 PUSH2 0xD08 JUMP JUMPDEST PUSH2 0x86C SWAP2 SWAP1 PUSH2 0xD1F JUMP JUMPDEST PUSH1 0x40 DUP1 MLOAD DUP1 DUP3 ADD DUP3 MSTORE PUSH1 0x1 PUSH1 0x1 PUSH1 0xA0 SHL SUB DUP11 AND PUSH1 0x0 DUP2 DUP2 MSTORE PUSH1 0x2 PUSH1 0x20 DUP2 DUP2 MSTORE SWAP5 DUP3 KECCAK256 DUP1 SLOAD DUP6 MSTORE SWAP3 SWAP1 SWAP2 MSTORE DUP4 MSTORE PUSH1 0x1 ADD SLOAD SWAP3 SWAP4 POP SWAP2 SWAP1 DUP3 ADD SWAP1 PUSH2 0x8AF SWAP1 DUP5 SWAP1 PUSH2 0xC07 JUMP JUMPDEST SWAP1 MSTORE SWAP8 SWAP7 POP POP POP POP POP POP POP JUMP JUMPDEST PUSH1 0x0 DUP1 SLOAD PUSH1 0x1 PUSH1 0x1 PUSH1 0xA0 SHL SUB SWAP1 DUP2 AND DUP3 MSTORE PUSH1 0x2 PUSH1 0x20 MSTORE PUSH1 0x40 DUP1 DUP4 KECCAK256 PUSH1 0x1 SWAP1 DUP2 ADD SLOAD DUP2 SLOAD SWAP1 SWAP4 AND DUP5 MSTORE SWAP1 DUP4 KECCAK256 ADD SLOAD SWAP1 SWAP2 PUSH2 0x8F5 DUP3 DUP5 PUSH2 0xC07 JUMP JUMPDEST PUSH2 0x8FF SWAP1 SELFBALANCE PUSH2 0xC20 JUMP JUMPDEST PUSH1 0x0 DUP1 SLOAD PUSH1 0x1 PUSH1 0x1 PUSH1 0xA0 SHL SUB AND DUP2 MSTORE PUSH1 0x2 PUSH1 0x20 MSTORE PUSH1 0x40 DUP2 KECCAK256 SLOAD SWAP2 SWAP3 POP SWAP1 PUSH9 0x56BC75E2D63100000 SWAP1 PUSH2 0x932 SWAP1 DUP5 SWAP1 PUSH2 0xD08 JUMP JUMPDEST PUSH2 0x93C SWAP2 SWAP1 PUSH2 0xD1F JUMP JUMPDEST SWAP1 POP PUSH2 0x948 DUP2 DUP6 PUSH2 0xC07 JUMP JUMPDEST PUSH1 0x0 DUP1 SLOAD PUSH1 0x1 PUSH1 0x1 PUSH1 0xA0 SHL SUB AND DUP2 MSTORE PUSH1 0x2 PUSH1 0x20 MSTORE PUSH1 0x40 SWAP1 KECCAK256 PUSH1 0x1 ADD SSTORE PUSH2 0x96E DUP2 DUP4 PUSH2 0xC20 JUMP JUMPDEST PUSH2 0x978 SWAP1 DUP5 PUSH2 0xC07 JUMP JUMPDEST PUSH1 0x1 DUP1 SLOAD PUSH1 0x1 PUSH1 0x1 PUSH1 0xA0 SHL SUB AND PUSH1 0x0 SWAP1 DUP2 MSTORE PUSH1 0x2 PUSH1 0x20 MSTORE PUSH1 0x40 SWAP1 KECCAK256 ADD SSTORE POP POP POP POP JUMP JUMPDEST PUSH1 0x0 PUSH1 0x20 DUP3 DUP5 SUB SLT ISZERO PUSH2 0x9AD JUMPI PUSH1 0x0 DUP1 REVERT JUMPDEST POP CALLDATALOAD SWAP2 SWAP1 POP JUMP JUMPDEST DUP1 CALLDATALOAD PUSH1 0x1 PUSH1 0x1 PUSH1 0xA0 SHL SUB DUP2 AND DUP2 EQ PUSH2 0x9CB JUMPI PUSH1 0x0 DUP1 REVERT JUMPDEST SWAP2 SWAP1 POP JUMP JUMPDEST PUSH1 0x0 DUP1 PUSH1 0x40 DUP4 DUP6 SUB SLT ISZERO PUSH2 0x9E3 JUMPI PUSH1 0x0 DUP1 REVERT JUMPDEST PUSH2 0x9EC DUP4 PUSH2 0x9B4 JUMP JUMPDEST SWAP5 PUSH1 0x20 SWAP4 SWAP1 SWAP4 ADD CALLDATALOAD SWAP4 POP POP POP JUMP JUMPDEST PUSH1 0x0 PUSH1 0x20 DUP3 DUP5 SUB SLT ISZERO PUSH2 0xA0C JUMPI PUSH1 0x0 DUP1 REVERT JUMPDEST PUSH2 0xA15 DUP3 PUSH2 0x9B4 JUMP JUMPDEST SWAP4 SWAP3 POP POP POP JUMP JUMPDEST PUSH1 0x0 JUMPDEST DUP4 DUP2 LT ISZERO PUSH2 0xA37 JUMPI DUP2 DUP2 ADD MLOAD DUP4 DUP3 ADD MSTORE PUSH1 0x20 ADD PUSH2 0xA1F JUMP JUMPDEST POP POP PUSH1 0x0 SWAP2 ADD MSTORE JUMP JUMPDEST DUP4 DUP2 MSTORE PUSH1 0xFF DUP4 AND PUSH1 0x20 DUP3 ADD MSTORE PUSH1 0x60 PUSH1 0x40 DUP3 ADD MSTORE PUSH1 0x0 DUP3 MLOAD DUP1 PUSH1 0x60 DUP5 ADD MSTORE PUSH2 0xA6E DUP2 PUSH1 0x80 DUP6 ADD PUSH1 0x20 DUP8 ADD PUSH2 0xA1C JUMP JUMPDEST PUSH1 0x1F ADD PUSH1 0x1F NOT AND SWAP2 SWAP1 SWAP2 ADD PUSH1 0x80 ADD SWAP5 SWAP4 POP POP POP POP JUMP JUMPDEST PUSH4 0x4E487B71 PUSH1 0xE0 SHL PUSH1 0x0 MSTORE PUSH1 0x41 PUSH1 0x4 MSTORE PUSH1 0x24 PUSH1 0x0 REVERT JUMPDEST PUSH1 0x40 MLOAD PUSH1 0x1F DUP3 ADD PUSH1 0x1F NOT AND DUP2 ADD PUSH8 0xFFFFFFFFFFFFFFFF DUP2 GT DUP3 DUP3 LT OR ISZERO PUSH2 0xAC3 JUMPI PUSH2 0xAC3 PUSH2 0xA84 JUMP JUMPDEST PUSH1 0x40 MSTORE SWAP2 SWAP1 POP JUMP JUMPDEST PUSH1 0x0 PUSH8 0xFFFFFFFFFFFFFFFF DUP3 GT ISZERO PUSH2 0xAE5 JUMPI PUSH2 0xAE5 PUSH2 0xA84 JUMP JUMPDEST POP PUSH1 0x1F ADD PUSH1 0x1F NOT AND PUSH1 0x20 ADD SWAP1 JUMP JUMPDEST PUSH1 0x0 DUP1 PUSH1 0x0 PUSH1 0x60 DUP5 DUP7 SUB SLT ISZERO PUSH2 0xB08 JUMPI PUSH1 0x0 DUP1 REVERT JUMPDEST PUSH2 0xB11 DUP5 PUSH2 0x9B4 JUMP JUMPDEST SWAP3 POP PUSH1 0x20 DUP5 ADD CALLDATALOAD SWAP2 POP PUSH1 0x40 DUP5 ADD CALLDATALOAD PUSH8 0xFFFFFFFFFFFFFFFF DUP2 GT ISZERO PUSH2 0xB34 JUMPI PUSH1 0x0 DUP1 REVERT JUMPDEST DUP5 ADD PUSH1 0x1F DUP2 ADD DUP7 SGT PUSH2 0xB45 JUMPI PUSH1 0x0 DUP1 REVERT JUMPDEST DUP1 CALLDATALOAD PUSH2 0xB58 PUSH2 0xB53 DUP3 PUSH2 0xACB JUMP JUMPDEST PUSH2 0xA9A JUMP JUMPDEST DUP2 DUP2 MSTORE DUP8 PUSH1 0x20 DUP4 DUP6 ADD ADD GT ISZERO PUSH2 0xB6D JUMPI PUSH1 0x0 DUP1 REVERT JUMPDEST DUP2 PUSH1 0x20 DUP5 ADD PUSH1 0x20 DUP4 ADD CALLDATACOPY PUSH1 0x0 PUSH1 0x20 DUP4 DUP4 ADD ADD MSTORE DUP1 SWAP4 POP POP POP POP SWAP3 POP SWAP3 POP SWAP3 JUMP JUMPDEST PUSH1 0x0 DUP1 PUSH1 0x0 PUSH1 0x60 DUP5 DUP7 SUB SLT ISZERO PUSH2 0xBA2 JUMPI PUSH1 0x0 DUP1 REVERT JUMPDEST PUSH2 0xBAB DUP5 PUSH2 0x9B4 JUMP JUMPDEST SWAP3 POP PUSH2 0xBB9 PUSH1 0x20 DUP6 ADD PUSH2 0x9B4 JUMP JUMPDEST SWAP2 POP PUSH1 0x40 DUP5 ADD CALLDATALOAD SWAP1 POP SWAP3 POP SWAP3 POP SWAP3 JUMP JUMPDEST PUSH1 0x20 DUP1 DUP3 MSTORE PUSH1 0xE SWAP1 DUP3 ADD MSTORE PUSH14 0x13DB9B1E481C9958DA5C1A595B9D PUSH1 0x92 SHL PUSH1 0x40 DUP3 ADD MSTORE PUSH1 0x60 ADD SWAP1 JUMP JUMPDEST PUSH4 0x4E487B71 PUSH1 0xE0 SHL PUSH1 0x0 MSTORE PUSH1 0x11 PUSH1 0x4 MSTORE PUSH1 0x24 PUSH1 0x0 REVERT JUMPDEST DUP1 DUP3 ADD DUP1 DUP3 GT ISZERO PUSH2 0xC1A JUMPI PUSH2 0xC1A PUSH2 0xBF1 JUMP JUMPDEST SWAP3 SWAP2 POP POP JUMP JUMPDEST DUP2 DUP2 SUB DUP2 DUP2 GT ISZERO PUSH2 0xC1A JUMPI PUSH2 0xC1A PUSH2 0xBF1 JUMP JUMPDEST PUSH1 0x0 PUSH1 0x20 DUP3 DUP5 SUB SLT ISZERO PUSH2 0xC45 JUMPI PUSH1 0x0 DUP1 REVERT JUMPDEST POP MLOAD SWAP2 SWAP1 POP JUMP JUMPDEST PUSH1 0x0 PUSH1 0x20 DUP3 DUP5 SUB SLT ISZERO PUSH2 0xC5E JUMPI PUSH1 0x0 DUP1 REVERT JUMPDEST DUP2 MLOAD PUSH1 0xFF DUP2 AND DUP2 EQ PUSH2 0xA15 JUMPI PUSH1 0x0 DUP1 REVERT JUMPDEST PUSH1 0x0 PUSH1 0x20 DUP3 DUP5 SUB SLT ISZERO PUSH2 0xC81 JUMPI PUSH1 0x0 DUP1 REVERT JUMPDEST DUP2 MLOAD PUSH8 0xFFFFFFFFFFFFFFFF DUP2 GT ISZERO PUSH2 0xC98 JUMPI PUSH1 0x0 DUP1 REVERT JUMPDEST DUP3 ADD PUSH1 0x1F DUP2 ADD DUP5 SGT PUSH2 0xCA9 JUMPI PUSH1 0x0 DUP1 REVERT JUMPDEST DUP1 MLOAD PUSH2 0xCB7 PUSH2 0xB53 DUP3 PUSH2 0xACB JUMP JUMPDEST DUP2 DUP2 MSTORE DUP6 PUSH1 0x20 DUP4 DUP6 ADD ADD GT ISZERO PUSH2 0xCCC JUMPI PUSH1 0x0 DUP1 REVERT JUMPDEST PUSH2 0xCDD DUP3 PUSH1 0x20 DUP4 ADD PUSH1 0x20 DUP7 ADD PUSH2 0xA1C JUMP JUMPDEST SWAP6 SWAP5 POP POP POP POP POP JUMP JUMPDEST PUSH1 0x0 PUSH1 0x20 DUP3 DUP5 SUB SLT ISZERO PUSH2 0xCF8 JUMPI PUSH1 0x0 DUP1 REVERT JUMPDEST DUP2 MLOAD DUP1 ISZERO ISZERO DUP2 EQ PUSH2 0xA15 JUMPI PUSH1 0x0 DUP1 REVERT JUMPDEST DUP1 DUP3 MUL DUP2 ISZERO DUP3 DUP3 DIV DUP5 EQ OR PUSH2 0xC1A JUMPI PUSH2 0xC1A PUSH2 0xBF1 JUMP JUMPDEST PUSH1 0x0 DUP3 PUSH2 0xD3C JUMPI PUSH4 0x4E487B71 PUSH1 0xE0 SHL PUSH1 0x0 MSTORE PUSH1 0x12 PUSH1 0x4 MSTORE PUSH1 0x24 PUSH1 0x0 REVERT JUMPDEST POP DIV SWAP1 JUMP INVALID LOG2 PUSH5 0x6970667358 0x22 SLT KECCAK256 0xEA PUSH14 0x6C1003D44599585C9BF7440C9769 0xC0 0x5E 0xB8 0xB3 PUSH22 0xAD21FB0FE77364B1C9E59864736F6C63430008110033 "},"methodIdentifiers":{"callistoCommunity()":"00667f29","callistoNetwork()":"2d582371","changeRecepient(address)":"6c3fc445","getBalanceToken(address)":"48eca45c","getRecipientData(address)":"fe37f7fe","tokenReceived(address,uint256,bytes)":"8943ec02","transferCLO(address,uint256)":"0fb35fc6","transferPercent(uint256)":"082455ce","transferToken(address,address,uint256)":"f5537ede"}}}}}