{"contracts/MonetaryPolicy.sol":{"MonetaryPolicy":{"abi":[{"anonymous":false,"inputs":[{"indexed":true,"internalType":"address","name":"owner","type":"address"},{"indexed":true,"internalType":"bytes32","name":"hash","type":"bytes32"},{"indexed":true,"internalType":"bool","name":"voice","type":"bool"}],"name":"Proposal","type":"event"},{"inputs":[],"name":"CallistoNetwork","outputs":[{"internalType":"address","name":"","type":"address"}],"stateMutability":"view","type":"function"},{"inputs":[],"name":"GovernanceDAO","outputs":[{"internalType":"address","name":"","type":"address"}],"stateMutability":"view","type":"function"},{"inputs":[],"name":"MinerReward","outputs":[{"internalType":"uint256","name":"","type":"uint256"}],"stateMutability":"view","type":"function"},{"inputs":[],"name":"ReserveAddress","outputs":[{"internalType":"address","name":"","type":"address"}],"stateMutability":"view","type":"function"},{"inputs":[],"name":"ReserveReward","outputs":[{"internalType":"uint256","name":"","type":"uint256"}],"stateMutability":"view","type":"function"},{"inputs":[],"name":"StakeAddress","outputs":[{"internalType":"address","name":"","type":"address"}],"stateMutability":"view","type":"function"},{"inputs":[],"name":"StakeReward","outputs":[{"internalType":"uint256","name":"","type":"uint256"}],"stateMutability":"view","type":"function"},{"inputs":[],"name":"TimeEnd","outputs":[{"internalType":"uint256","name":"","type":"uint256"}],"stateMutability":"view","type":"function"},{"inputs":[],"name":"TimeVoice","outputs":[{"internalType":"uint256","name":"","type":"uint256"}],"stateMutability":"view","type":"function"},{"inputs":[],"name":"TreasuryAddress","outputs":[{"internalType":"address","name":"","type":"address"}],"stateMutability":"view","type":"function"},{"inputs":[],"name":"TreasuryReward","outputs":[{"internalType":"uint256","name":"","type":"uint256"}],"stateMutability":"view","type":"function"},{"inputs":[{"internalType":"bytes32","name":"","type":"bytes32"}],"name":"proposals","outputs":[{"internalType":"uint256","name":"timeVoice","type":"uint256"},{"internalType":"uint256","name":"timeEnd","type":"uint256"},{"internalType":"bool","name":"governanceDAO","type":"bool"},{"internalType":"bool","name":"callistoNetwork","type":"bool"}],"stateMutability":"view","type":"function"},{"inputs":[{"internalType":"address","name":"_owner","type":"address"},{"internalType":"address","name":"_newOwner","type":"address"},{"internalType":"bool","name":"_voice","type":"bool"}],"name":"resetOwner","outputs":[],"stateMutability":"nonpayable","type":"function"},{"inputs":[{"internalType":"address","name":"_newOwner","type":"address"}],"name":"setNewOwners","outputs":[],"stateMutability":"nonpayable","type":"function"},{"inputs":[{"internalType":"uint256","name":"_timeVoice","type":"uint256"},{"internalType":"uint256","name":"_timeEnd","type":"uint256"},{"internalType":"bool","name":"_voice","type":"bool"}],"name":"setPeriods","outputs":[],"stateMutability":"nonpayable","type":"function"},{"inputs":[{"internalType":"address","name":"_reserveAddress","type":"address"}],"name":"setReserveAddress","outputs":[],"stateMutability":"nonpayable","type":"function"},{"inputs":[{"internalType":"uint256","name":"_minerReward","type":"uint256"},{"internalType":"uint256","name":"_treasuryReward","type":"uint256"},{"internalType":"uint256","name":"_stakeReward","type":"uint256"},{"internalType":"uint256","name":"_reserveReward","type":"uint256"},{"internalType":"bool","name":"_voice","type":"bool"}],"name":"setRewards","outputs":[],"stateMutability":"nonpayable","type":"function"},{"inputs":[{"internalType":"address","name":"_stakeAddress","type":"address"}],"name":"setStakeAddress","outputs":[],"stateMutability":"nonpayable","type":"function"},{"inputs":[{"internalType":"address","name":"_treasuryAddress","type":"address"},{"internalType":"bool","name":"_voice","type":"bool"}],"name":"setTreasuryAddress","outputs":[],"stateMutability":"nonpayable","type":"function"}],"evm":{"bytecode":{"linkReferences":{},"object":"6080604052600480546001600160a01b03199081167374682fc32007af0b6118f259cbe7bccc21641600179091556005805482167308a7c8be47773546dc5e173d67b0c38afffa4b84179055600680548216905560078054821673810059e1406dedafd1bdca4e0137cba306c0ce361790556008805490911673a9389db4610175cac4fad32670a5189a89f874b5179055623b5380600955624f1a00600a553480156100aa57600080fd5b50610cd9806100ba6000396000f3fe608060405234801561001057600080fd5b50600436106101215760003560e01c80639aacfc75116100ad578063ad5caa6211610071578063ad5caa621461028f578063ad91d540146102a2578063c4e986b2146102b5578063d8716ad9146102be578063f6c5a2f7146102c757600080fd5b80639aacfc751461023a5780639ca85bf0146102435780639d4346b314610256578063a043fda314610269578063a5a2286b1461027c57600080fd5b80633411f778116100f45780633411f778146101cd5780633d3f915f146101e057806345ce7db9146101f357806352bd99141461021e5780635b5c251f1461022757600080fd5b806314673d311461012657806323471d181461013b578063267e1bb51461014e57806332ed5b121461016a575b600080fd5b610139610134366004610af5565b6102d0565b005b610139610149366004610af5565b610346565b61015760005481565b6040519081526020015b60405180910390f35b6101a5610178366004610b17565b600b6020526000908152604090208054600182015460029092015490919060ff8082169161010090041684565b6040805194855260208501939093529015159183019190915215156060820152608001610161565b6101396101db366004610b40565b6103b7565b6101396101ee366004610b75565b61048d565b600554610206906001600160a01b031681565b6040516001600160a01b039091168152602001610161565b610157600a5481565b600454610206906001600160a01b031681565b61015760025481565b600754610206906001600160a01b031681565b610139610264366004610baf565b610621565b610139610277366004610bf8565b6106f9565b600654610206906001600160a01b031681565b600854610206906001600160a01b031681565b6101396102b0366004610af5565b6107d2565b61015760095481565b61015760015481565b61015760035481565b6007546001600160a01b031633146103245760405162461bcd60e51b81526020600482015260126024820152714f6e6c7920476f7665726e616e636544414f60701b60448201526064015b60405180910390fd5b600680546001600160a01b0319166001600160a01b0392909216919091179055565b6007546001600160a01b031633146103955760405162461bcd60e51b81526020600482015260126024820152714f6e6c7920476f7665726e616e636544414f60701b604482015260640161031b565b600580546001600160a01b0319166001600160a01b0392909216919091179055565b6008546001600160a01b03163314806103da57506007546001600160a01b031633145b6103f65760405162461bcd60e51b815260040161031b90610c2b565b60008311801561040557508282115b61040e57600080fd5b6040516306823eef60e31b6020820181905260248201859052604482018490529060009060640160405160208183030381529060405280519060200120905061045781846108ab565b15610467576009859055600a8490555b6040518315159082903390600080516020610c8483398151915290600090a45050505050565b6008546001600160a01b03163314806104b057506007546001600160a01b031633145b6104cc5760405162461bcd60e51b815260040161031b90610c2b565b6007546001600160a01b03848116911614806104f557506008546001600160a01b038481169116145b6104fe57600080fd5b6007546001600160a01b0383811691161480159061052a57506008546001600160a01b03838116911614155b61053357600080fd5b604051633d3f915f60e01b602082018190526bffffffffffffffffffffffff19606086811b8216602485015285901b16603883015290600090604c0160405160208183030381529060405280519060200120905061059181846108ab565b15610467576007546001600160a01b038681169116146105bd576007546001600160a01b0316846105cc565b60085484906001600160a01b03165b600880546001600160a01b039283166001600160a01b031991821617909155600780549390921692169190911790556040518315159082903390600080516020610c8483398151915290600090a45050505050565b6008546001600160a01b031633148061064457506007546001600160a01b031633145b6106605760405162461bcd60e51b815260040161031b90610c2b565b604051639d4346b360e01b60208201819052602482018790526044820186905260648201859052608482018490529060009060a4016040516020818303038152906040528051906020012090506106b781846108ab565b156106d15760008790556001869055600285905560038490555b6040518315159082903390600080516020610c8483398151915290600090a450505050505050565b6008546001600160a01b031633148061071c57506007546001600160a01b031633145b6107385760405162461bcd60e51b815260040161031b90610c2b565b60405163a043fda360e01b602082018190526bffffffffffffffffffffffff19606085901b1660248301529060009060380160405160208183030381529060405280519060200120905061078c81846108ab565b156107ad57600480546001600160a01b0319166001600160a01b0386161790555b6040518315159082903390600080516020610c8483398151915290600090a450505050565b6008546001600160a01b03163314806107f557506007546001600160a01b031633145b6108115760405162461bcd60e51b815260040161031b90610c2b565b6007546001600160a01b0382811691161480159061083d57506008546001600160a01b03828116911614155b61084657600080fd5b6007546001600160a01b0316331461086a576007546001600160a01b031681610879565b60085481906001600160a01b03165b600880546001600160a01b039283166001600160a01b0319918216179091556007805493909216921691909117905550565b6000828152600b6020526040812060010154421115610988576000838152600b602052604081208181556001810191909155600201805461ffff19169055816108f657506000610ad3565b6009546109039042610c62565b6000848152600b6020526040902055600a5461091f9042610c62565b6000848152600b60205260409020600101556007546001600160a01b0316331461094c5760006001610951565b600160005b6000858152600b60205260409020600201805492151560ff19921515610100029290921661ffff1990931692909217179055610acf565b6000838152600b60205260409020544211156109ca57506000828152600b60205260408120818155600180820192909255600201805461ffff19169055610ad3565b816109f9576000838152600b602052604081208181556001810191909155600201805461ffff19169055610acf565b6007546001600160a01b03163314610a27576000838152600b602052604090206002015460ff166001610a45565b6000838152600b6020526040902060020154600190610100900460ff165b6000858152600b60205260409020600201805492151560ff19921515610100029290921661ffff1990931692909217179081905560ff168015610a9e57506000838152600b6020526040902060020154610100900460ff165b15610acf57506000828152600b60205260408120818155600180820192909255600201805461ffff19169055610ad3565b5060005b92915050565b80356001600160a01b0381168114610af057600080fd5b919050565b600060208284031215610b0757600080fd5b610b1082610ad9565b9392505050565b600060208284031215610b2957600080fd5b5035919050565b80358015158114610af057600080fd5b600080600060608486031215610b5557600080fd5b8335925060208401359150610b6c60408501610b30565b90509250925092565b600080600060608486031215610b8a57600080fd5b610b9384610ad9565b9250610ba160208501610ad9565b9150610b6c60408501610b30565b600080600080600060a08688031215610bc757600080fd5b85359450602086013593506040860135925060608601359150610bec60808701610b30565b90509295509295909350565b60008060408385031215610c0b57600080fd5b610c1483610ad9565b9150610c2260208401610b30565b90509250929050565b60208082526017908201527f4f6e6c7920747265617375727920726563697069656e74000000000000000000604082015260600190565b80820180821115610ad357634e487b7160e01b600052601160045260246000fdfe159d2efd57404307b21eeffce76b42a2ac064dc31abfcf5390cb511ef9d0c1b2a2646970667358221220f4b5b00e7fa91145b1e1d5327c9684475559e8accc5cfd7edee4ea202ceb113464736f6c63430008110033","opcodes":"PUSH1 0x80 PUSH1 0x40 MSTORE PUSH1 0x4 DUP1 SLOAD PUSH1 0x1 PUSH1 0x1 PUSH1 0xA0 SHL SUB NOT SWAP1 DUP2 AND PUSH20 0x74682FC32007AF0B6118F259CBE7BCCC21641600 OR SWAP1 SWAP2 SSTORE PUSH1 0x5 DUP1 SLOAD DUP3 AND PUSH20 0x8A7C8BE47773546DC5E173D67B0C38AFFFA4B84 OR SWAP1 SSTORE PUSH1 0x6 DUP1 SLOAD DUP3 AND SWAP1 SSTORE PUSH1 0x7 DUP1 SLOAD DUP3 AND PUSH20 0x810059E1406DEDAFD1BDCA4E0137CBA306C0CE36 OR SWAP1 SSTORE PUSH1 0x8 DUP1 SLOAD SWAP1 SWAP2 AND PUSH20 0xA9389DB4610175CAC4FAD32670A5189A89F874B5 OR SWAP1 SSTORE PUSH3 0x3B5380 PUSH1 0x9 SSTORE PUSH3 0x4F1A00 PUSH1 0xA SSTORE CALLVALUE DUP1 ISZERO PUSH2 0xAA JUMPI PUSH1 0x0 DUP1 REVERT JUMPDEST POP PUSH2 0xCD9 DUP1 PUSH2 0xBA PUSH1 0x0 CODECOPY PUSH1 0x0 RETURN INVALID PUSH1 0x80 PUSH1 0x40 MSTORE CALLVALUE DUP1 ISZERO PUSH2 0x10 JUMPI PUSH1 0x0 DUP1 REVERT JUMPDEST POP PUSH1 0x4 CALLDATASIZE LT PUSH2 0x121 JUMPI PUSH1 0x0 CALLDATALOAD PUSH1 0xE0 SHR DUP1 PUSH4 0x9AACFC75 GT PUSH2 0xAD JUMPI DUP1 PUSH4 0xAD5CAA62 GT PUSH2 0x71 JUMPI DUP1 PUSH4 0xAD5CAA62 EQ PUSH2 0x28F JUMPI DUP1 PUSH4 0xAD91D540 EQ PUSH2 0x2A2 JUMPI DUP1 PUSH4 0xC4E986B2 EQ PUSH2 0x2B5 JUMPI DUP1 PUSH4 0xD8716AD9 EQ PUSH2 0x2BE JUMPI DUP1 PUSH4 0xF6C5A2F7 EQ PUSH2 0x2C7 JUMPI PUSH1 0x0 DUP1 REVERT JUMPDEST DUP1 PUSH4 0x9AACFC75 EQ PUSH2 0x23A JUMPI DUP1 PUSH4 0x9CA85BF0 EQ PUSH2 0x243 JUMPI DUP1 PUSH4 0x9D4346B3 EQ PUSH2 0x256 JUMPI DUP1 PUSH4 0xA043FDA3 EQ PUSH2 0x269 JUMPI DUP1 PUSH4 0xA5A2286B EQ PUSH2 0x27C JUMPI PUSH1 0x0 DUP1 REVERT JUMPDEST DUP1 PUSH4 0x3411F778 GT PUSH2 0xF4 JUMPI DUP1 PUSH4 0x3411F778 EQ PUSH2 0x1CD JUMPI DUP1 PUSH4 0x3D3F915F EQ PUSH2 0x1E0 JUMPI DUP1 PUSH4 0x45CE7DB9 EQ PUSH2 0x1F3 JUMPI DUP1 PUSH4 0x52BD9914 EQ PUSH2 0x21E JUMPI DUP1 PUSH4 0x5B5C251F EQ PUSH2 0x227 JUMPI PUSH1 0x0 DUP1 REVERT JUMPDEST DUP1 PUSH4 0x14673D31 EQ PUSH2 0x126 JUMPI DUP1 PUSH4 0x23471D18 EQ PUSH2 0x13B JUMPI DUP1 PUSH4 0x267E1BB5 EQ PUSH2 0x14E JUMPI DUP1 PUSH4 0x32ED5B12 EQ PUSH2 0x16A JUMPI JUMPDEST PUSH1 0x0 DUP1 REVERT JUMPDEST PUSH2 0x139 PUSH2 0x134 CALLDATASIZE PUSH1 0x4 PUSH2 0xAF5 JUMP JUMPDEST PUSH2 0x2D0 JUMP JUMPDEST STOP JUMPDEST PUSH2 0x139 PUSH2 0x149 CALLDATASIZE PUSH1 0x4 PUSH2 0xAF5 JUMP JUMPDEST PUSH2 0x346 JUMP JUMPDEST PUSH2 0x157 PUSH1 0x0 SLOAD DUP2 JUMP JUMPDEST PUSH1 0x40 MLOAD SWAP1 DUP2 MSTORE PUSH1 0x20 ADD JUMPDEST PUSH1 0x40 MLOAD DUP1 SWAP2 SUB SWAP1 RETURN JUMPDEST PUSH2 0x1A5 PUSH2 0x178 CALLDATASIZE PUSH1 0x4 PUSH2 0xB17 JUMP JUMPDEST PUSH1 0xB PUSH1 0x20 MSTORE PUSH1 0x0 SWAP1 DUP2 MSTORE PUSH1 0x40 SWAP1 KECCAK256 DUP1 SLOAD PUSH1 0x1 DUP3 ADD SLOAD PUSH1 0x2 SWAP1 SWAP3 ADD SLOAD SWAP1 SWAP2 SWAP1 PUSH1 0xFF DUP1 DUP3 AND SWAP2 PUSH2 0x100 SWAP1 DIV AND DUP5 JUMP JUMPDEST PUSH1 0x40 DUP1 MLOAD SWAP5 DUP6 MSTORE PUSH1 0x20 DUP6 ADD SWAP4 SWAP1 SWAP4 MSTORE SWAP1 ISZERO ISZERO SWAP2 DUP4 ADD SWAP2 SWAP1 SWAP2 MSTORE ISZERO ISZERO PUSH1 0x60 DUP3 ADD MSTORE PUSH1 0x80 ADD PUSH2 0x161 JUMP JUMPDEST PUSH2 0x139 PUSH2 0x1DB CALLDATASIZE PUSH1 0x4 PUSH2 0xB40 JUMP JUMPDEST PUSH2 0x3B7 JUMP JUMPDEST PUSH2 0x139 PUSH2 0x1EE CALLDATASIZE PUSH1 0x4 PUSH2 0xB75 JUMP JUMPDEST PUSH2 0x48D JUMP JUMPDEST PUSH1 0x5 SLOAD PUSH2 0x206 SWAP1 PUSH1 0x1 PUSH1 0x1 PUSH1 0xA0 SHL SUB AND DUP2 JUMP JUMPDEST PUSH1 0x40 MLOAD PUSH1 0x1 PUSH1 0x1 PUSH1 0xA0 SHL SUB SWAP1 SWAP2 AND DUP2 MSTORE PUSH1 0x20 ADD PUSH2 0x161 JUMP JUMPDEST PUSH2 0x157 PUSH1 0xA SLOAD DUP2 JUMP JUMPDEST PUSH1 0x4 SLOAD PUSH2 0x206 SWAP1 PUSH1 0x1 PUSH1 0x1 PUSH1 0xA0 SHL SUB AND DUP2 JUMP JUMPDEST PUSH2 0x157 PUSH1 0x2 SLOAD DUP2 JUMP JUMPDEST PUSH1 0x7 SLOAD PUSH2 0x206 SWAP1 PUSH1 0x1 PUSH1 0x1 PUSH1 0xA0 SHL SUB AND DUP2 JUMP JUMPDEST PUSH2 0x139 PUSH2 0x264 CALLDATASIZE PUSH1 0x4 PUSH2 0xBAF JUMP JUMPDEST PUSH2 0x621 JUMP JUMPDEST PUSH2 0x139 PUSH2 0x277 CALLDATASIZE PUSH1 0x4 PUSH2 0xBF8 JUMP JUMPDEST PUSH2 0x6F9 JUMP JUMPDEST PUSH1 0x6 SLOAD PUSH2 0x206 SWAP1 PUSH1 0x1 PUSH1 0x1 PUSH1 0xA0 SHL SUB AND DUP2 JUMP JUMPDEST PUSH1 0x8 SLOAD PUSH2 0x206 SWAP1 PUSH1 0x1 PUSH1 0x1 PUSH1 0xA0 SHL SUB AND DUP2 JUMP JUMPDEST PUSH2 0x139 PUSH2 0x2B0 CALLDATASIZE PUSH1 0x4 PUSH2 0xAF5 JUMP JUMPDEST PUSH2 0x7D2 JUMP JUMPDEST PUSH2 0x157 PUSH1 0x9 SLOAD DUP2 JUMP JUMPDEST PUSH2 0x157 PUSH1 0x1 SLOAD DUP2 JUMP JUMPDEST PUSH2 0x157 PUSH1 0x3 SLOAD DUP2 JUMP JUMPDEST PUSH1 0x7 SLOAD PUSH1 0x1 PUSH1 0x1 PUSH1 0xA0 SHL SUB AND CALLER EQ PUSH2 0x324 JUMPI PUSH1 0x40 MLOAD PUSH3 0x461BCD PUSH1 0xE5 SHL DUP2 MSTORE PUSH1 0x20 PUSH1 0x4 DUP3 ADD MSTORE PUSH1 0x12 PUSH1 0x24 DUP3 ADD MSTORE PUSH18 0x4F6E6C7920476F7665726E616E636544414F PUSH1 0x70 SHL PUSH1 0x44 DUP3 ADD MSTORE PUSH1 0x64 ADD JUMPDEST PUSH1 0x40 MLOAD DUP1 SWAP2 SUB SWAP1 REVERT JUMPDEST PUSH1 0x6 DUP1 SLOAD PUSH1 0x1 PUSH1 0x1 PUSH1 0xA0 SHL SUB NOT AND PUSH1 0x1 PUSH1 0x1 PUSH1 0xA0 SHL SUB SWAP3 SWAP1 SWAP3 AND SWAP2 SWAP1 SWAP2 OR SWAP1 SSTORE JUMP JUMPDEST PUSH1 0x7 SLOAD PUSH1 0x1 PUSH1 0x1 PUSH1 0xA0 SHL SUB AND CALLER EQ PUSH2 0x395 JUMPI PUSH1 0x40 MLOAD PUSH3 0x461BCD PUSH1 0xE5 SHL DUP2 MSTORE PUSH1 0x20 PUSH1 0x4 DUP3 ADD MSTORE PUSH1 0x12 PUSH1 0x24 DUP3 ADD MSTORE PUSH18 0x4F6E6C7920476F7665726E616E636544414F PUSH1 0x70 SHL PUSH1 0x44 DUP3 ADD MSTORE PUSH1 0x64 ADD PUSH2 0x31B JUMP JUMPDEST PUSH1 0x5 DUP1 SLOAD PUSH1 0x1 PUSH1 0x1 PUSH1 0xA0 SHL SUB NOT AND PUSH1 0x1 PUSH1 0x1 PUSH1 0xA0 SHL SUB SWAP3 SWAP1 SWAP3 AND SWAP2 SWAP1 SWAP2 OR SWAP1 SSTORE JUMP JUMPDEST PUSH1 0x8 SLOAD PUSH1 0x1 PUSH1 0x1 PUSH1 0xA0 SHL SUB AND CALLER EQ DUP1 PUSH2 0x3DA JUMPI POP PUSH1 0x7 SLOAD PUSH1 0x1 PUSH1 0x1 PUSH1 0xA0 SHL SUB AND CALLER EQ JUMPDEST PUSH2 0x3F6 JUMPI PUSH1 0x40 MLOAD PUSH3 0x461BCD PUSH1 0xE5 SHL DUP2 MSTORE PUSH1 0x4 ADD PUSH2 0x31B SWAP1 PUSH2 0xC2B JUMP JUMPDEST PUSH1 0x0 DUP4 GT DUP1 ISZERO PUSH2 0x405 JUMPI POP DUP3 DUP3 GT JUMPDEST PUSH2 0x40E JUMPI PUSH1 0x0 DUP1 REVERT JUMPDEST PUSH1 0x40 MLOAD PUSH4 0x6823EEF PUSH1 0xE3 SHL PUSH1 0x20 DUP3 ADD DUP2 SWAP1 MSTORE PUSH1 0x24 DUP3 ADD DUP6 SWAP1 MSTORE PUSH1 0x44 DUP3 ADD DUP5 SWAP1 MSTORE SWAP1 PUSH1 0x0 SWAP1 PUSH1 0x64 ADD PUSH1 0x40 MLOAD PUSH1 0x20 DUP2 DUP4 SUB SUB DUP2 MSTORE SWAP1 PUSH1 0x40 MSTORE DUP1 MLOAD SWAP1 PUSH1 0x20 ADD KECCAK256 SWAP1 POP PUSH2 0x457 DUP2 DUP5 PUSH2 0x8AB JUMP JUMPDEST ISZERO PUSH2 0x467 JUMPI PUSH1 0x9 DUP6 SWAP1 SSTORE PUSH1 0xA DUP5 SWAP1 SSTORE JUMPDEST PUSH1 0x40 MLOAD DUP4 ISZERO ISZERO SWAP1 DUP3 SWAP1 CALLER SWAP1 PUSH1 0x0 DUP1 MLOAD PUSH1 0x20 PUSH2 0xC84 DUP4 CODECOPY DUP2 MLOAD SWAP2 MSTORE SWAP1 PUSH1 0x0 SWAP1 LOG4 POP POP POP POP POP JUMP JUMPDEST PUSH1 0x8 SLOAD PUSH1 0x1 PUSH1 0x1 PUSH1 0xA0 SHL SUB AND CALLER EQ DUP1 PUSH2 0x4B0 JUMPI POP PUSH1 0x7 SLOAD PUSH1 0x1 PUSH1 0x1 PUSH1 0xA0 SHL SUB AND CALLER EQ JUMPDEST PUSH2 0x4CC JUMPI PUSH1 0x40 MLOAD PUSH3 0x461BCD PUSH1 0xE5 SHL DUP2 MSTORE PUSH1 0x4 ADD PUSH2 0x31B SWAP1 PUSH2 0xC2B JUMP JUMPDEST PUSH1 0x7 SLOAD PUSH1 0x1 PUSH1 0x1 PUSH1 0xA0 SHL SUB DUP5 DUP2 AND SWAP2 AND EQ DUP1 PUSH2 0x4F5 JUMPI POP PUSH1 0x8 SLOAD PUSH1 0x1 PUSH1 0x1 PUSH1 0xA0 SHL SUB DUP5 DUP2 AND SWAP2 AND EQ JUMPDEST PUSH2 0x4FE JUMPI PUSH1 0x0 DUP1 REVERT JUMPDEST PUSH1 0x7 SLOAD PUSH1 0x1 PUSH1 0x1 PUSH1 0xA0 SHL SUB DUP4 DUP2 AND SWAP2 AND EQ DUP1 ISZERO SWAP1 PUSH2 0x52A JUMPI POP PUSH1 0x8 SLOAD PUSH1 0x1 PUSH1 0x1 PUSH1 0xA0 SHL SUB DUP4 DUP2 AND SWAP2 AND EQ ISZERO JUMPDEST PUSH2 0x533 JUMPI PUSH1 0x0 DUP1 REVERT JUMPDEST PUSH1 0x40 MLOAD PUSH4 0x3D3F915F PUSH1 0xE0 SHL PUSH1 0x20 DUP3 ADD DUP2 SWAP1 MSTORE PUSH12 0xFFFFFFFFFFFFFFFFFFFFFFFF NOT PUSH1 0x60 DUP7 DUP2 SHL DUP3 AND PUSH1 0x24 DUP6 ADD MSTORE DUP6 SWAP1 SHL AND PUSH1 0x38 DUP4 ADD MSTORE SWAP1 PUSH1 0x0 SWAP1 PUSH1 0x4C ADD PUSH1 0x40 MLOAD PUSH1 0x20 DUP2 DUP4 SUB SUB DUP2 MSTORE SWAP1 PUSH1 0x40 MSTORE DUP1 MLOAD SWAP1 PUSH1 0x20 ADD KECCAK256 SWAP1 POP PUSH2 0x591 DUP2 DUP5 PUSH2 0x8AB JUMP JUMPDEST ISZERO PUSH2 0x467 JUMPI PUSH1 0x7 SLOAD PUSH1 0x1 PUSH1 0x1 PUSH1 0xA0 SHL SUB DUP7 DUP2 AND SWAP2 AND EQ PUSH2 0x5BD JUMPI PUSH1 0x7 SLOAD PUSH1 0x1 PUSH1 0x1 PUSH1 0xA0 SHL SUB AND DUP5 PUSH2 0x5CC JUMP JUMPDEST PUSH1 0x8 SLOAD DUP5 SWAP1 PUSH1 0x1 PUSH1 0x1 PUSH1 0xA0 SHL SUB AND JUMPDEST PUSH1 0x8 DUP1 SLOAD PUSH1 0x1 PUSH1 0x1 PUSH1 0xA0 SHL SUB SWAP3 DUP4 AND PUSH1 0x1 PUSH1 0x1 PUSH1 0xA0 SHL SUB NOT SWAP2 DUP3 AND OR SWAP1 SWAP2 SSTORE PUSH1 0x7 DUP1 SLOAD SWAP4 SWAP1 SWAP3 AND SWAP3 AND SWAP2 SWAP1 SWAP2 OR SWAP1 SSTORE PUSH1 0x40 MLOAD DUP4 ISZERO ISZERO SWAP1 DUP3 SWAP1 CALLER SWAP1 PUSH1 0x0 DUP1 MLOAD PUSH1 0x20 PUSH2 0xC84 DUP4 CODECOPY DUP2 MLOAD SWAP2 MSTORE SWAP1 PUSH1 0x0 SWAP1 LOG4 POP POP POP POP POP JUMP JUMPDEST PUSH1 0x8 SLOAD PUSH1 0x1 PUSH1 0x1 PUSH1 0xA0 SHL SUB AND CALLER EQ DUP1 PUSH2 0x644 JUMPI POP PUSH1 0x7 SLOAD PUSH1 0x1 PUSH1 0x1 PUSH1 0xA0 SHL SUB AND CALLER EQ JUMPDEST PUSH2 0x660 JUMPI PUSH1 0x40 MLOAD PUSH3 0x461BCD PUSH1 0xE5 SHL DUP2 MSTORE PUSH1 0x4 ADD PUSH2 0x31B SWAP1 PUSH2 0xC2B JUMP JUMPDEST PUSH1 0x40 MLOAD PUSH4 0x9D4346B3 PUSH1 0xE0 SHL PUSH1 0x20 DUP3 ADD DUP2 SWAP1 MSTORE PUSH1 0x24 DUP3 ADD DUP8 SWAP1 MSTORE PUSH1 0x44 DUP3 ADD DUP7 SWAP1 MSTORE PUSH1 0x64 DUP3 ADD DUP6 SWAP1 MSTORE PUSH1 0x84 DUP3 ADD DUP5 SWAP1 MSTORE SWAP1 PUSH1 0x0 SWAP1 PUSH1 0xA4 ADD PUSH1 0x40 MLOAD PUSH1 0x20 DUP2 DUP4 SUB SUB DUP2 MSTORE SWAP1 PUSH1 0x40 MSTORE DUP1 MLOAD SWAP1 PUSH1 0x20 ADD KECCAK256 SWAP1 POP PUSH2 0x6B7 DUP2 DUP5 PUSH2 0x8AB JUMP JUMPDEST ISZERO PUSH2 0x6D1 JUMPI PUSH1 0x0 DUP8 SWAP1 SSTORE PUSH1 0x1 DUP7 SWAP1 SSTORE PUSH1 0x2 DUP6 SWAP1 SSTORE PUSH1 0x3 DUP5 SWAP1 SSTORE JUMPDEST PUSH1 0x40 MLOAD DUP4 ISZERO ISZERO SWAP1 DUP3 SWAP1 CALLER SWAP1 PUSH1 0x0 DUP1 MLOAD PUSH1 0x20 PUSH2 0xC84 DUP4 CODECOPY DUP2 MLOAD SWAP2 MSTORE SWAP1 PUSH1 0x0 SWAP1 LOG4 POP POP POP POP POP POP POP JUMP JUMPDEST PUSH1 0x8 SLOAD PUSH1 0x1 PUSH1 0x1 PUSH1 0xA0 SHL SUB AND CALLER EQ DUP1 PUSH2 0x71C JUMPI POP PUSH1 0x7 SLOAD PUSH1 0x1 PUSH1 0x1 PUSH1 0xA0 SHL SUB AND CALLER EQ JUMPDEST PUSH2 0x738 JUMPI PUSH1 0x40 MLOAD PUSH3 0x461BCD PUSH1 0xE5 SHL DUP2 MSTORE PUSH1 0x4 ADD PUSH2 0x31B SWAP1 PUSH2 0xC2B JUMP JUMPDEST PUSH1 0x40 MLOAD PUSH4 0xA043FDA3 PUSH1 0xE0 SHL PUSH1 0x20 DUP3 ADD DUP2 SWAP1 MSTORE PUSH12 0xFFFFFFFFFFFFFFFFFFFFFFFF NOT PUSH1 0x60 DUP6 SWAP1 SHL AND PUSH1 0x24 DUP4 ADD MSTORE SWAP1 PUSH1 0x0 SWAP1 PUSH1 0x38 ADD PUSH1 0x40 MLOAD PUSH1 0x20 DUP2 DUP4 SUB SUB DUP2 MSTORE SWAP1 PUSH1 0x40 MSTORE DUP1 MLOAD SWAP1 PUSH1 0x20 ADD KECCAK256 SWAP1 POP PUSH2 0x78C DUP2 DUP5 PUSH2 0x8AB JUMP JUMPDEST ISZERO PUSH2 0x7AD JUMPI PUSH1 0x4 DUP1 SLOAD PUSH1 0x1 PUSH1 0x1 PUSH1 0xA0 SHL SUB NOT AND PUSH1 0x1 PUSH1 0x1 PUSH1 0xA0 SHL SUB DUP7 AND OR SWAP1 SSTORE JUMPDEST PUSH1 0x40 MLOAD DUP4 ISZERO ISZERO SWAP1 DUP3 SWAP1 CALLER SWAP1 PUSH1 0x0 DUP1 MLOAD PUSH1 0x20 PUSH2 0xC84 DUP4 CODECOPY DUP2 MLOAD SWAP2 MSTORE SWAP1 PUSH1 0x0 SWAP1 LOG4 POP POP POP POP JUMP JUMPDEST PUSH1 0x8 SLOAD PUSH1 0x1 PUSH1 0x1 PUSH1 0xA0 SHL SUB AND CALLER EQ DUP1 PUSH2 0x7F5 JUMPI POP PUSH1 0x7 SLOAD PUSH1 0x1 PUSH1 0x1 PUSH1 0xA0 SHL SUB AND CALLER EQ JUMPDEST PUSH2 0x811 JUMPI PUSH1 0x40 MLOAD PUSH3 0x461BCD PUSH1 0xE5 SHL DUP2 MSTORE PUSH1 0x4 ADD PUSH2 0x31B SWAP1 PUSH2 0xC2B JUMP JUMPDEST PUSH1 0x7 SLOAD PUSH1 0x1 PUSH1 0x1 PUSH1 0xA0 SHL SUB DUP3 DUP2 AND SWAP2 AND EQ DUP1 ISZERO SWAP1 PUSH2 0x83D JUMPI POP PUSH1 0x8 SLOAD PUSH1 0x1 PUSH1 0x1 PUSH1 0xA0 SHL SUB DUP3 DUP2 AND SWAP2 AND EQ ISZERO JUMPDEST PUSH2 0x846 JUMPI PUSH1 0x0 DUP1 REVERT JUMPDEST PUSH1 0x7 SLOAD PUSH1 0x1 PUSH1 0x1 PUSH1 0xA0 SHL SUB AND CALLER EQ PUSH2 0x86A JUMPI PUSH1 0x7 SLOAD PUSH1 0x1 PUSH1 0x1 PUSH1 0xA0 SHL SUB AND DUP2 PUSH2 0x879 JUMP JUMPDEST PUSH1 0x8 SLOAD DUP2 SWAP1 PUSH1 0x1 PUSH1 0x1 PUSH1 0xA0 SHL SUB AND JUMPDEST PUSH1 0x8 DUP1 SLOAD PUSH1 0x1 PUSH1 0x1 PUSH1 0xA0 SHL SUB SWAP3 DUP4 AND PUSH1 0x1 PUSH1 0x1 PUSH1 0xA0 SHL SUB NOT SWAP2 DUP3 AND OR SWAP1 SWAP2 SSTORE PUSH1 0x7 DUP1 SLOAD SWAP4 SWAP1 SWAP3 AND SWAP3 AND SWAP2 SWAP1 SWAP2 OR SWAP1 SSTORE POP JUMP JUMPDEST PUSH1 0x0 DUP3 DUP2 MSTORE PUSH1 0xB PUSH1 0x20 MSTORE PUSH1 0x40 DUP2 KECCAK256 PUSH1 0x1 ADD SLOAD TIMESTAMP GT ISZERO PUSH2 0x988 JUMPI PUSH1 0x0 DUP4 DUP2 MSTORE PUSH1 0xB PUSH1 0x20 MSTORE PUSH1 0x40 DUP2 KECCAK256 DUP2 DUP2 SSTORE PUSH1 0x1 DUP2 ADD SWAP2 SWAP1 SWAP2 SSTORE PUSH1 0x2 ADD DUP1 SLOAD PUSH2 0xFFFF NOT AND SWAP1 SSTORE DUP2 PUSH2 0x8F6 JUMPI POP PUSH1 0x0 PUSH2 0xAD3 JUMP JUMPDEST PUSH1 0x9 SLOAD PUSH2 0x903 SWAP1 TIMESTAMP PUSH2 0xC62 JUMP JUMPDEST PUSH1 0x0 DUP5 DUP2 MSTORE PUSH1 0xB PUSH1 0x20 MSTORE PUSH1 0x40 SWAP1 KECCAK256 SSTORE PUSH1 0xA SLOAD PUSH2 0x91F SWAP1 TIMESTAMP PUSH2 0xC62 JUMP JUMPDEST PUSH1 0x0 DUP5 DUP2 MSTORE PUSH1 0xB PUSH1 0x20 MSTORE PUSH1 0x40 SWAP1 KECCAK256 PUSH1 0x1 ADD SSTORE PUSH1 0x7 SLOAD PUSH1 0x1 PUSH1 0x1 PUSH1 0xA0 SHL SUB AND CALLER EQ PUSH2 0x94C JUMPI PUSH1 0x0 PUSH1 0x1 PUSH2 0x951 JUMP JUMPDEST PUSH1 0x1 PUSH1 0x0 JUMPDEST PUSH1 0x0 DUP6 DUP2 MSTORE PUSH1 0xB PUSH1 0x20 MSTORE PUSH1 0x40 SWAP1 KECCAK256 PUSH1 0x2 ADD DUP1 SLOAD SWAP3 ISZERO ISZERO PUSH1 0xFF NOT SWAP3 ISZERO ISZERO PUSH2 0x100 MUL SWAP3 SWAP1 SWAP3 AND PUSH2 0xFFFF NOT SWAP1 SWAP4 AND SWAP3 SWAP1 SWAP3 OR OR SWAP1 SSTORE PUSH2 0xACF JUMP JUMPDEST PUSH1 0x0 DUP4 DUP2 MSTORE PUSH1 0xB PUSH1 0x20 MSTORE PUSH1 0x40 SWAP1 KECCAK256 SLOAD TIMESTAMP GT ISZERO PUSH2 0x9CA JUMPI POP PUSH1 0x0 DUP3 DUP2 MSTORE PUSH1 0xB PUSH1 0x20 MSTORE PUSH1 0x40 DUP2 KECCAK256 DUP2 DUP2 SSTORE PUSH1 0x1 DUP1 DUP3 ADD SWAP3 SWAP1 SWAP3 SSTORE PUSH1 0x2 ADD DUP1 SLOAD PUSH2 0xFFFF NOT AND SWAP1 SSTORE PUSH2 0xAD3 JUMP JUMPDEST DUP2 PUSH2 0x9F9 JUMPI PUSH1 0x0 DUP4 DUP2 MSTORE PUSH1 0xB PUSH1 0x20 MSTORE PUSH1 0x40 DUP2 KECCAK256 DUP2 DUP2 SSTORE PUSH1 0x1 DUP2 ADD SWAP2 SWAP1 SWAP2 SSTORE PUSH1 0x2 ADD DUP1 SLOAD PUSH2 0xFFFF NOT AND SWAP1 SSTORE PUSH2 0xACF JUMP JUMPDEST PUSH1 0x7 SLOAD PUSH1 0x1 PUSH1 0x1 PUSH1 0xA0 SHL SUB AND CALLER EQ PUSH2 0xA27 JUMPI PUSH1 0x0 DUP4 DUP2 MSTORE PUSH1 0xB PUSH1 0x20 MSTORE PUSH1 0x40 SWAP1 KECCAK256 PUSH1 0x2 ADD SLOAD PUSH1 0xFF AND PUSH1 0x1 PUSH2 0xA45 JUMP JUMPDEST PUSH1 0x0 DUP4 DUP2 MSTORE PUSH1 0xB PUSH1 0x20 MSTORE PUSH1 0x40 SWAP1 KECCAK256 PUSH1 0x2 ADD SLOAD PUSH1 0x1 SWAP1 PUSH2 0x100 SWAP1 DIV PUSH1 0xFF AND JUMPDEST PUSH1 0x0 DUP6 DUP2 MSTORE PUSH1 0xB PUSH1 0x20 MSTORE PUSH1 0x40 SWAP1 KECCAK256 PUSH1 0x2 ADD DUP1 SLOAD SWAP3 ISZERO ISZERO PUSH1 0xFF NOT SWAP3 ISZERO ISZERO PUSH2 0x100 MUL SWAP3 SWAP1 SWAP3 AND PUSH2 0xFFFF NOT SWAP1 SWAP4 AND SWAP3 SWAP1 SWAP3 OR OR SWAP1 DUP2 SWAP1 SSTORE PUSH1 0xFF AND DUP1 ISZERO PUSH2 0xA9E JUMPI POP PUSH1 0x0 DUP4 DUP2 MSTORE PUSH1 0xB PUSH1 0x20 MSTORE PUSH1 0x40 SWAP1 KECCAK256 PUSH1 0x2 ADD SLOAD PUSH2 0x100 SWAP1 DIV PUSH1 0xFF AND JUMPDEST ISZERO PUSH2 0xACF JUMPI POP PUSH1 0x0 DUP3 DUP2 MSTORE PUSH1 0xB PUSH1 0x20 MSTORE PUSH1 0x40 DUP2 KECCAK256 DUP2 DUP2 SSTORE PUSH1 0x1 DUP1 DUP3 ADD SWAP3 SWAP1 SWAP3 SSTORE PUSH1 0x2 ADD DUP1 SLOAD PUSH2 0xFFFF NOT AND SWAP1 SSTORE PUSH2 0xAD3 JUMP JUMPDEST POP PUSH1 0x0 JUMPDEST SWAP3 SWAP2 POP POP JUMP JUMPDEST DUP1 CALLDATALOAD PUSH1 0x1 PUSH1 0x1 PUSH1 0xA0 SHL SUB DUP2 AND DUP2 EQ PUSH2 0xAF0 JUMPI PUSH1 0x0 DUP1 REVERT JUMPDEST SWAP2 SWAP1 POP JUMP JUMPDEST PUSH1 0x0 PUSH1 0x20 DUP3 DUP5 SUB SLT ISZERO PUSH2 0xB07 JUMPI PUSH1 0x0 DUP1 REVERT JUMPDEST PUSH2 0xB10 DUP3 PUSH2 0xAD9 JUMP JUMPDEST SWAP4 SWAP3 POP POP POP JUMP JUMPDEST PUSH1 0x0 PUSH1 0x20 DUP3 DUP5 SUB SLT ISZERO PUSH2 0xB29 JUMPI PUSH1 0x0 DUP1 REVERT JUMPDEST POP CALLDATALOAD SWAP2 SWAP1 POP JUMP JUMPDEST DUP1 CALLDATALOAD DUP1 ISZERO ISZERO DUP2 EQ PUSH2 0xAF0 JUMPI PUSH1 0x0 DUP1 REVERT JUMPDEST PUSH1 0x0 DUP1 PUSH1 0x0 PUSH1 0x60 DUP5 DUP7 SUB SLT ISZERO PUSH2 0xB55 JUMPI PUSH1 0x0 DUP1 REVERT JUMPDEST DUP4 CALLDATALOAD SWAP3 POP PUSH1 0x20 DUP5 ADD CALLDATALOAD SWAP2 POP PUSH2 0xB6C PUSH1 0x40 DUP6 ADD PUSH2 0xB30 JUMP JUMPDEST SWAP1 POP SWAP3 POP SWAP3 POP SWAP3 JUMP JUMPDEST PUSH1 0x0 DUP1 PUSH1 0x0 PUSH1 0x60 DUP5 DUP7 SUB SLT ISZERO PUSH2 0xB8A JUMPI PUSH1 0x0 DUP1 REVERT JUMPDEST PUSH2 0xB93 DUP5 PUSH2 0xAD9 JUMP JUMPDEST SWAP3 POP PUSH2 0xBA1 PUSH1 0x20 DUP6 ADD PUSH2 0xAD9 JUMP JUMPDEST SWAP2 POP PUSH2 0xB6C PUSH1 0x40 DUP6 ADD PUSH2 0xB30 JUMP JUMPDEST PUSH1 0x0 DUP1 PUSH1 0x0 DUP1 PUSH1 0x0 PUSH1 0xA0 DUP7 DUP9 SUB SLT ISZERO PUSH2 0xBC7 JUMPI PUSH1 0x0 DUP1 REVERT JUMPDEST DUP6 CALLDATALOAD SWAP5 POP PUSH1 0x20 DUP7 ADD CALLDATALOAD SWAP4 POP PUSH1 0x40 DUP7 ADD CALLDATALOAD SWAP3 POP PUSH1 0x60 DUP7 ADD CALLDATALOAD SWAP2 POP PUSH2 0xBEC PUSH1 0x80 DUP8 ADD PUSH2 0xB30 JUMP JUMPDEST SWAP1 POP SWAP3 SWAP6 POP SWAP3 SWAP6 SWAP1 SWAP4 POP JUMP JUMPDEST PUSH1 0x0 DUP1 PUSH1 0x40 DUP4 DUP6 SUB SLT ISZERO PUSH2 0xC0B JUMPI PUSH1 0x0 DUP1 REVERT JUMPDEST PUSH2 0xC14 DUP4 PUSH2 0xAD9 JUMP JUMPDEST SWAP2 POP PUSH2 0xC22 PUSH1 0x20 DUP5 ADD PUSH2 0xB30 JUMP JUMPDEST SWAP1 POP SWAP3 POP SWAP3 SWAP1 POP JUMP JUMPDEST PUSH1 0x20 DUP1 DUP3 MSTORE PUSH1 0x17 SWAP1 DUP3 ADD MSTORE PUSH32 0x4F6E6C7920747265617375727920726563697069656E74000000000000000000 PUSH1 0x40 DUP3 ADD MSTORE PUSH1 0x60 ADD SWAP1 JUMP JUMPDEST DUP1 DUP3 ADD DUP1 DUP3 GT ISZERO PUSH2 0xAD3 JUMPI PUSH4 0x4E487B71 PUSH1 0xE0 SHL PUSH1 0x0 MSTORE PUSH1 0x11 PUSH1 0x4 MSTORE PUSH1 0x24 PUSH1 0x0 REVERT INVALID ISZERO SWAP14 0x2E REVERT JUMPI BLOCKHASH NUMBER SMOD 0xB2 0x1E 0xEF 0xFC 0xE7 PUSH12 0x42A2AC064DC31ABFCF5390CB MLOAD 0x1E 0xF9 0xD0 0xC1 0xB2 LOG2 PUSH5 0x6970667358 0x22 SLT KECCAK256 DELEGATECALL 0xB5 0xB0 0xE PUSH32 0xA91145B1E1D5327C9684475559E8ACCC5CFD7EDEE4EA202CEB113464736F6C63 NUMBER STOP ADDMOD GT STOP CALLER "},"methodIdentifiers":{"CallistoNetwork()":"ad5caa62","GovernanceDAO()":"9ca85bf0","MinerReward()":"267e1bb5","ReserveAddress()":"a5a2286b","ReserveReward()":"f6c5a2f7","StakeAddress()":"45ce7db9","StakeReward()":"9aacfc75","TimeEnd()":"52bd9914","TimeVoice()":"c4e986b2","TreasuryAddress()":"5b5c251f","TreasuryReward()":"d8716ad9","proposals(bytes32)":"32ed5b12","resetOwner(address,address,bool)":"3d3f915f","setNewOwners(address)":"ad91d540","setPeriods(uint256,uint256,bool)":"3411f778","setReserveAddress(address)":"14673d31","setRewards(uint256,uint256,uint256,uint256,bool)":"9d4346b3","setStakeAddress(address)":"23471d18","setTreasuryAddress(address,bool)":"a043fda3"}}}}}