{"contracts/GovernanceDAO.sol":{"GovernanceDAO":{"abi":[{"inputs":[{"internalType":"address","name":"_firstUser","type":"address"},{"internalType":"string","name":"_name","type":"string"}],"stateMutability":"nonpayable","type":"constructor"},{"anonymous":false,"inputs":[{"indexed":true,"internalType":"uint256","name":"_id","type":"uint256"},{"indexed":false,"internalType":"uint8","name":"_status","type":"uint8"}],"name":"ChangeStatus","type":"event"},{"anonymous":false,"inputs":[{"indexed":true,"internalType":"address","name":"_sender","type":"address"},{"indexed":true,"internalType":"uint256","name":"_id","type":"uint256"},{"indexed":false,"internalType":"uint256","name":"_pay","type":"uint256"}],"name":"Claim","type":"event"},{"anonymous":false,"inputs":[{"indexed":true,"internalType":"uint256","name":"_id","type":"uint256"},{"indexed":false,"internalType":"uint256","name":"_reward","type":"uint256"}],"name":"CreateProposal","type":"event"},{"anonymous":false,"inputs":[{"indexed":true,"internalType":"address","name":"_sender","type":"address"},{"indexed":true,"internalType":"uint256","name":"_id","type":"uint256"},{"indexed":false,"internalType":"bool","name":"_answer","type":"bool"}],"name":"Vote","type":"event"},{"inputs":[{"internalType":"address","name":"_user","type":"address"},{"internalType":"string","name":"_name","type":"string"}],"name":"addUserInDAO","outputs":[],"stateMutability":"nonpayable","type":"function"},{"inputs":[{"internalType":"uint256","name":"_id","type":"uint256"},{"internalType":"address","name":"_user","type":"address"}],"name":"checkClaim","outputs":[{"internalType":"bool","name":"","type":"bool"}],"stateMutability":"view","type":"function"},{"inputs":[{"internalType":"uint256","name":"_id","type":"uint256"}],"name":"claim","outputs":[],"stateMutability":"nonpayable","type":"function"},{"inputs":[{"internalType":"address","name":"_contract","type":"address"},{"internalType":"bytes","name":"_data","type":"bytes"},{"internalType":"string","name":"_comment","type":"string"}],"name":"createProposal","outputs":[],"stateMutability":"payable","type":"function"},{"inputs":[{"internalType":"address","name":"_user","type":"address"}],"name":"delUserInDAO","outputs":[],"stateMutability":"nonpayable","type":"function"},{"inputs":[{"internalType":"uint256","name":"_id","type":"uint256"}],"name":"execute","outputs":[],"stateMutability":"nonpayable","type":"function"},{"inputs":[],"name":"expire_period","outputs":[{"internalType":"uint256","name":"","type":"uint256"}],"stateMutability":"view","type":"function"},{"inputs":[{"internalType":"address","name":"_user","type":"address"},{"internalType":"uint256","name":"_start_ID","type":"uint256"},{"internalType":"uint256","name":"_amount","type":"uint256"}],"name":"getClaimList","outputs":[{"internalType":"uint256[]","name":"","type":"uint256[]"},{"internalType":"bool[]","name":"","type":"bool[]"}],"stateMutability":"view","type":"function"},{"inputs":[{"internalType":"uint256","name":"_id","type":"uint256"}],"name":"getProposal","outputs":[{"components":[{"internalType":"uint256","name":"id","type":"uint256"},{"internalType":"uint256","name":"time","type":"uint256"},{"internalType":"uint256","name":"reward","type":"uint256"},{"internalType":"uint256","name":"deadLine","type":"uint256"},{"internalType":"address","name":"owner","type":"address"},{"internalType":"uint8","name":"status","type":"uint8"},{"internalType":"string","name":"comment","type":"string"},{"internalType":"address[]","name":"vocesYes","type":"address[]"},{"internalType":"address[]","name":"vocesNo","type":"address[]"},{"internalType":"address","name":"to","type":"address"},{"internalType":"bytes","name":"data","type":"bytes"}],"internalType":"struct GovernanceDAO.ProposalData","name":"","type":"tuple"}],"stateMutability":"view","type":"function"},{"inputs":[{"internalType":"uint256","name":"_start_ID","type":"uint256"},{"internalType":"uint256","name":"_amount","type":"uint256"}],"name":"getProposalsList","outputs":[{"components":[{"internalType":"uint256","name":"id","type":"uint256"},{"internalType":"uint256","name":"time","type":"uint256"},{"internalType":"uint256","name":"reward","type":"uint256"},{"internalType":"uint256","name":"deadLine","type":"uint256"},{"internalType":"address","name":"owner","type":"address"},{"internalType":"uint8","name":"status","type":"uint8"},{"internalType":"string","name":"comment","type":"string"},{"internalType":"address[]","name":"vocesYes","type":"address[]"},{"internalType":"address[]","name":"vocesNo","type":"address[]"},{"internalType":"address","name":"to","type":"address"},{"internalType":"bytes","name":"data","type":"bytes"}],"internalType":"struct GovernanceDAO.ProposalData[]","name":"","type":"tuple[]"}],"stateMutability":"view","type":"function"},{"inputs":[{"internalType":"address","name":"_user","type":"address"}],"name":"getUser","outputs":[{"components":[{"internalType":"uint256","name":"index","type":"uint256"},{"internalType":"uint256","name":"votes","type":"uint256"},{"internalType":"uint256","name":"entered","type":"uint256"},{"internalType":"address","name":"userAddr","type":"address"},{"internalType":"string","name":"name","type":"string"}],"internalType":"struct GovernanceDAO.UserData","name":"","type":"tuple"}],"stateMutability":"view","type":"function"},{"inputs":[{"internalType":"uint256","name":"_start_index","type":"uint256"},{"internalType":"uint256","name":"_amount","type":"uint256"}],"name":"getUsersList","outputs":[{"components":[{"internalType":"uint256","name":"index","type":"uint256"},{"internalType":"uint256","name":"votes","type":"uint256"},{"internalType":"uint256","name":"entered","type":"uint256"},{"internalType":"address","name":"userAddr","type":"address"},{"internalType":"string","name":"name","type":"string"}],"internalType":"struct GovernanceDAO.UserData[]","name":"","type":"tuple[]"}],"stateMutability":"view","type":"function"},{"inputs":[],"name":"min_payment_DAO","outputs":[{"internalType":"uint256","name":"","type":"uint256"}],"stateMutability":"view","type":"function"},{"inputs":[],"name":"min_payment_other","outputs":[{"internalType":"uint256","name":"","type":"uint256"}],"stateMutability":"view","type":"function"},{"inputs":[{"internalType":"uint256","name":"_period","type":"uint256"}],"name":"setExpirePeriod","outputs":[],"stateMutability":"nonpayable","type":"function"},{"inputs":[{"internalType":"uint256","name":"_min_payment_DAO","type":"uint256"},{"internalType":"uint256","name":"_min_payment_other","type":"uint256"}],"name":"setMinPayments","outputs":[],"stateMutability":"nonpayable","type":"function"},{"inputs":[],"name":"total_close_voting","outputs":[{"internalType":"uint256","name":"","type":"uint256"}],"stateMutability":"view","type":"function"},{"inputs":[],"name":"total_user","outputs":[{"internalType":"uint256","name":"","type":"uint256"}],"stateMutability":"view","type":"function"},{"inputs":[],"name":"total_voting","outputs":[{"internalType":"uint256","name":"","type":"uint256"}],"stateMutability":"view","type":"function"},{"inputs":[{"internalType":"uint256","name":"_id","type":"uint256"},{"internalType":"bool","name":"_answer","type":"bool"}],"name":"vote","outputs":[],"stateMutability":"nonpayable","type":"function"}],"evm":{"bytecode":{"linkReferences":{},"object":"60806040526203f48060035568056bc75e2d6310000060045569021e19e0c9bab24000006005553480156200003357600080fd5b50604051620022803803806200228083398101604081905262000056916200012b565b600260008154620000679062000221565b9091555060028054600090815260066020908152604080832080546001600160a01b03199081166001600160a01b03898116918217909355835160a0810185528754815280860187815281860188815260608301848152608084018c8152948a526007909852959097208151815596516001880155935196860196909655925160038501805490941691161790915591516004820190620001099082620002d8565b509050505050620003a4565b634e487b7160e01b600052604160045260246000fd5b600080604083850312156200013f57600080fd5b82516001600160a01b03811681146200015757600080fd5b602084810151919350906001600160401b03808211156200017757600080fd5b818601915086601f8301126200018c57600080fd5b815181811115620001a157620001a162000115565b604051601f8201601f19908116603f01168101908382118183101715620001cc57620001cc62000115565b816040528281528986848701011115620001e557600080fd5b600093505b82841015620002095784840186015181850187015292850192620001ea565b60008684830101528096505050505050509250929050565b6000600182016200024257634e487b7160e01b600052601160045260246000fd5b5060010190565b600181811c908216806200025e57607f821691505b6020821081036200027f57634e487b7160e01b600052602260045260246000fd5b50919050565b601f821115620002d357600081815260208120601f850160051c81016020861015620002ae5750805b601f850160051c820191505b81811015620002cf57828155600101620002ba565b5050505b505050565b81516001600160401b03811115620002f457620002f462000115565b6200030c8162000305845462000249565b8462000285565b602080601f8311600181146200034457600084156200032b5750858301515b600019600386901b1c1916600185901b178555620002cf565b600085815260208120601f198616915b82811015620003755788860151825594840194600190910190840162000354565b5085821015620003945787850151600019600388901b60f8161c191681555b5050505050600190811b01905550565b611ecc80620003b46000396000f3fe60806040526004361061011f5760003560e01c80636f77926b116100a0578063ce83ad9611610064578063ce83ad9614610315578063d7a52fa914610335578063eb72d0c814610355578063ef81bf1b14610382578063fe0d94c1146103a257600080fd5b80636f77926b1461026f578063b02909141461029c578063be8e4d19146102b2578063c7f758a8146102c8578063c9d27afe146102f557600080fd5b8063396e75cc116100e7578063396e75cc146101d557806340912990146102025780634dee3534146102185780635d0033321461024657806364bd0cb21461025c57600080fd5b806301081fc31461012457806310a4a2dc1461014657806323ddd0711461016f5780633121895414610185578063379607f5146101b5575b600080fd5b34801561013057600080fd5b5061014461013f366004611677565b6103c2565b005b34801561015257600080fd5b5061015c60035481565b6040519081526020015b60405180910390f35b34801561017b57600080fd5b5061015c60015481565b34801561019157600080fd5b506101a56101a0366004611699565b6104d1565b6040519015158152602001610166565b3480156101c157600080fd5b506101446101d03660046116c5565b6104fe565b3480156101e157600080fd5b506101f56101f03660046116de565b61068a565b604051610166919061187a565b34801561020e57600080fd5b5061015c60025481565b34801561022457600080fd5b506102386102333660046118dc565b61075e565b60405161016692919061190f565b34801561025257600080fd5b5061015c60045481565b61014461026a3660046119d5565b6108b3565b34801561027b57600080fd5b5061028f61028a366004611677565b610a7a565b6040516101669190611aa3565b3480156102a857600080fd5b5061015c60055481565b3480156102be57600080fd5b5061015c60005481565b3480156102d457600080fd5b506102e86102e33660046116c5565b610b6e565b6040516101669190611ab6565b34801561030157600080fd5b50610144610310366004611ac9565b610d5f565b34801561032157600080fd5b50610144610330366004611afe565b6110ae565b34801561034157600080fd5b506101446103503660046116c5565b611204565b34801561036157600080fd5b506103756103703660046116de565b611247565b6040516101669190611b51565b34801561038e57600080fd5b5061014461039d3660046116de565b61130f565b3480156103ae57600080fd5b506101446103bd3660046116c5565b611339565b3033146103ea5760405162461bcd60e51b81526004016103e190611ba6565b60405180910390fd5b6001600160a01b03811660009081526007602052604090205480156104cd5760025481146104565760025460009081526006602090815260408083205484845281842080546001600160a01b0319166001600160a01b0390921691821790558352600790915290208190555b60028054600090815260066020908152604080832080546001600160a01b03199081169091556001600160a01b0387168452600790925282208281556001810183905592830182905560038301805490911690556104b76004830182611561565b50506002600081546104c890611be8565b909155505b5050565b60008281526009602090815260408083206001600160a01b038516845290915290205460ff165b92915050565b6000818152600860205260409020600401546001600160a01b90910460ff16116105665760405162461bcd60e51b81526020600482015260196024820152781c1c9bdc1bdcd85b081a5cc81b9bdd0818dbdb5c1b195d1959603a1b60448201526064016103e1565b600081815260096020908152604080832033845290915290205460ff166105bc5760405162461bcd60e51b815260206004820152600a6024820152691b9bc81c185e5b595b9d60b21b60448201526064016103e1565b60008181526009602090815260408083203384528252808320805460ff191690558383526008909152812060078101546006909101546105fc9190611bff565b6000838152600860205260408120600201549192509061061d908390611c12565b604051909150339082156108fc029083906000818181858888f1935050505015801561064d573d6000803e3d6000fd5b50604051818152839033907f34fcbac0073d7c3d388e51312faf357774904998eeb8fca628b9e6f65ee1cbf79060200160405180910390a3505050565b606082158061069a575060005483115b6106a457826106a8565b6000545b925060008267ffffffffffffffff8111156106c5576106c5611c34565b6040519080825280602002602001820160405280156106fe57816020015b6106eb61159b565b8152602001906001900390816106e35790505b50905060005b83811015610756578415610756576107268561071f81611be8565b9650610b6e565b82828151811061073857610738611c4a565b6020026020010181905250808061074e90611c60565b915050610704565b509392505050565b60608083158061076f575060005484115b610779578361077d565b6000545b935060008367ffffffffffffffff81111561079a5761079a611c34565b6040519080825280602002602001820160405280156107c3578160200160208202803683370190505b50905060008467ffffffffffffffff8111156107e1576107e1611c34565b60405190808252806020026020018201604052801561080a578160200160208202803683370190505b50905060005b858110156108a65786156108a6578683828151811061083157610831611c4a565b60209081029190910181019190915260008881526009825260408082206001600160a01b038c1683529092522054825160ff9091169083908390811061087957610879611c4a565b9115156020928302919091019091015261089287611be8565b96508061089e81611c60565b915050610810565b5090969095509350505050565b336000908152600760205260409020541561090f5760045434101561090a5760405162461bcd60e51b815260206004820152600d60248201526c1cdb585b1b081c185e5b595b9d609a1b60448201526064016103e1565b610951565b6005543410156109515760405162461bcd60e51b815260206004820152600d60248201526c1cdb585b1b081c185e5b595b9d609a1b60448201526064016103e1565b600080815461095f90611c60565b909155506000805480825260086020526040808320918255426001909201829055825483529091203460029091015560035461099a91611bff565b600080548152600860205260408082206003019290925580548152818120600490810180546001600160a01b031916331790558154825282822001805460ff60a01b1916600160a01b17905580548152206005016109f9828483611cf9565b5060008054815260086020819052604080832090910180546001600160a01b0319166001600160a01b038916179055815482529020600901610a3c848683611cf9565b506000546040513481527f6638d63c6abdbf0a059e322e8c8b9401488d94b95731a935ca9f76cde49fa4839060200160405180910390a25050505050565b610a8261160a565b6001600160a01b03808316600090815260076020908152604091829020825160a0810184528154815260018201549281019290925260028101549282019290925260038201549092166060830152600481018054608084019190610ae590611c79565b80601f0160208091040260200160405190810160405280929190818152602001828054610b1190611c79565b8015610b5e5780601f10610b3357610100808354040283529160200191610b5e565b820191906000526020600020905b815481529060010190602001808311610b4157829003601f168201915b5050505050815250509050919050565b610b7661159b565b600082815260086020908152604091829020825161016081018452815481526001820154928101929092526002810154928201929092526003820154606082015260048201546001600160a01b0381166080830152600160a01b900460ff1660a082015260058201805491929160c084019190610bf290611c79565b80601f0160208091040260200160405190810160405280929190818152602001828054610c1e90611c79565b8015610c6b5780601f10610c4057610100808354040283529160200191610c6b565b820191906000526020600020905b815481529060010190602001808311610c4e57829003601f168201915b5050505050815260200160068201805480602002602001604051908101604052809291908181526020018280548015610ccd57602002820191906000526020600020905b81546001600160a01b03168152600190910190602001808311610caf575b5050505050815260200160078201805480602002602001604051908101604052809291908181526020018280548015610d2f57602002820191906000526020600020905b81546001600160a01b03168152600190910190602001808311610d11575b505050918352505060088201546001600160a01b03166020820152600982018054604090920191610ae590611c79565b600082815260086020526040902060010154610dbd5760405162461bcd60e51b815260206004820152601760248201527f70726f706f73616c20646f6573206e6f7420657869737400000000000000000060448201526064016103e1565b6000828152600860205260409020600401546001600160a01b90910460ff161115610de6575050565b600082815260086020526040902060030154421115610e6f576000828152600860205260408120600401805460ff60a01b1916600160a11b17905560018054909190610e3190611c60565b909155506040516002815282907f199c49764c24c272ab05711f746ea69945084e537b524515f05902c3c9a7e9e89060200160405180910390a25050565b3360009081526007602052604090205480610ec35760405162461bcd60e51b81526020600482015260146024820152733cb7ba9030b932903737ba10309036b2b6b132b960611b60448201526064016103e1565b600083815260096020908152604080832033845290915290205460ff1615610f265760405162461bcd60e51b81526020600482015260166024820152751e5bdd481a185d9948185b1c9958591e481d9bdd195960521b60448201526064016103e1565b60008381526009602090815260408083203384528252808320805460ff191660019081179091556007909252822001805491610f6183611c60565b90915550506040518215158152839033907f8d85a70fd2c5d140a4a01143492d27ff82cfad4cead313e66c53f39b0feb5e0f9060200160405180910390a38115610fdb5760008381526008602090815260408220600601805460018101825590835291200180546001600160a01b0319163317905561100d565b60008381526008602090815260408220600701805460018101825590835291200180546001600160a01b031916331790555b600083815260086020526040812060078101546006909101546110309190611bff565b905060025481106110a8576000848152600860205260408120600401805460ff60a01b1916600160a11b1790556001805490919061106d90611c60565b909155506040516002815284907f199c49764c24c272ab05711f746ea69945084e537b524515f05902c3c9a7e9e89060200160405180910390a25b50505050565b3033146110cd5760405162461bcd60e51b81526004016103e190611ba6565b6001600160a01b038316156111ff576001600160a01b03831660009081526007602052604081205490036111ff5760026000815461110a90611c60565b9091555060028054600090815260066020908152604080832080546001600160a01b0319166001600160a01b038916908117909155815160a08101835294548552848301939093526001548482015260608401929092528151601f8501829004820281018201909252838252608083019190859085908190840183828082843760009201829052509390945250506001600160a01b038681168252600760209081526040928390208551815590850151600182015591840151600283015560608401516003830180546001600160a01b03191691909216179055608083015190915060048201906111fb9082611dba565b5050505b505050565b3033146112235760405162461bcd60e51b81526004016103e190611ba6565b6203f48081101580156112395750621275008111155b156112445760038190555b50565b606060008267ffffffffffffffff81111561126457611264611c34565b60405190808252806020026020018201604052801561129d57816020015b61128a61160a565b8152602001906001900390816112825790505b50905060005b83811015610756576112df60066000876112bc81611c60565b9082526020820192909252604001600020549096506001600160a01b0316610a7a565b8282815181106112f1576112f1611c4a565b6020026020010181905250808061130790611c60565b9150506112a3565b30331461132e5760405162461bcd60e51b81526004016103e190611ba6565b600491909155600555565b600081815260086020526040902060040154600160a01b900460ff166002146113a05760405162461bcd60e51b81526020600482015260196024820152781c1c9bdc1bdcd85b081a5cc81b9bdd0818dbdb5c1b195d1959603a1b60448201526064016103e1565b600081815260086020526040902060048101805460ff60a01b1916600360a01b1790556007810154600690910154111561148b576000818152600860208190526040909120908101546009909101805461148b926001600160a01b0316919061140890611c79565b80601f016020809104026020016040519081016040528092919081815260200182805461143490611c79565b80156114815780601f1061145657610100808354040283529160200191611481565b820191906000526020600020905b81548152906001019060200180831161146457829003601f168201915b50505050506114c4565b6040516003815281907f199c49764c24c272ab05711f746ea69945084e537b524515f05902c3c9a7e9e89060200160405180910390a250565b6000826001600160a01b0316826040516114de9190611e7a565b6000604051808303816000865af19150503d806000811461151b576040519150601f19603f3d011682016040523d82523d6000602084013e611520565b606091505b50509050806111ff5760405162461bcd60e51b815260206004820152600d60248201526c22bc32b1baba329032b93937b960991b60448201526064016103e1565b50805461156d90611c79565b6000825580601f1061157d575050565b601f0160209004906000526020600020908101906112449190611642565b6040518061016001604052806000815260200160008152602001600081526020016000815260200160006001600160a01b03168152602001600060ff16815260200160608152602001606081526020016060815260200160006001600160a01b03168152602001606081525090565b6040518060a0016040528060008152602001600081526020016000815260200160006001600160a01b03168152602001606081525090565b5b808211156116575760008155600101611643565b5090565b80356001600160a01b038116811461167257600080fd5b919050565b60006020828403121561168957600080fd5b6116928261165b565b9392505050565b600080604083850312156116ac57600080fd5b823591506116bc6020840161165b565b90509250929050565b6000602082840312156116d757600080fd5b5035919050565b600080604083850312156116f157600080fd5b50508035926020909101359150565b60005b8381101561171b578181015183820152602001611703565b50506000910152565b6000815180845261173c816020860160208601611700565b601f01601f19169290920160200192915050565b600081518084526020808501945080840160005b838110156117895781516001600160a01b031687529582019590820190600101611764565b509495945050505050565b60006101608251845260208301516020850152604083015160408501526060830151606085015260808301516117d560808601826001600160a01b03169052565b5060a08301516117ea60a086018260ff169052565b5060c08301518160c086015261180282860182611724565b91505060e083015184820360e086015261181c8282611750565b91505061010080840151858303828701526118378382611750565b9250505061012080840151611856828701826001600160a01b03169052565b505061014080840151858303828701526118708382611724565b9695505050505050565b6000602080830181845280855180835260408601915060408160051b870101925083870160005b828110156118cf57603f198886030184526118bd858351611794565b945092850192908501906001016118a1565b5092979650505050505050565b6000806000606084860312156118f157600080fd5b6118fa8461165b565b95602085013595506040909401359392505050565b604080825283519082018190526000906020906060840190828701845b828110156119485781518452928401929084019060010161192c565b5050508381038285015284518082528583019183019060005b8181101561197f578351151583529284019291840191600101611961565b5090979650505050505050565b60008083601f84011261199e57600080fd5b50813567ffffffffffffffff8111156119b657600080fd5b6020830191508360208285010111156119ce57600080fd5b9250929050565b6000806000806000606086880312156119ed57600080fd5b6119f68661165b565b9450602086013567ffffffffffffffff80821115611a1357600080fd5b611a1f89838a0161198c565b90965094506040880135915080821115611a3857600080fd5b50611a458882890161198c565b969995985093965092949392505050565b80518252602081015160208301526040810151604083015260018060a01b0360608201511660608301526000608082015160a06080850152611a9b60a0850182611724565b949350505050565b6020815260006116926020830184611a56565b6020815260006116926020830184611794565b60008060408385031215611adc57600080fd5b8235915060208301358015158114611af357600080fd5b809150509250929050565b600080600060408486031215611b1357600080fd5b611b1c8461165b565b9250602084013567ffffffffffffffff811115611b3857600080fd5b611b448682870161198c565b9497909650939450505050565b6000602080830181845280855180835260408601915060408160051b870101925083870160005b828110156118cf57603f19888603018452611b94858351611a56565b94509285019290850190600101611b78565b6020808252601290820152714f6e6c7920476f7665726e616e636544414f60701b604082015260600190565b634e487b7160e01b600052601160045260246000fd5b600081611bf757611bf7611bd2565b506000190190565b808201808211156104f8576104f8611bd2565b600082611c2f57634e487b7160e01b600052601260045260246000fd5b500490565b634e487b7160e01b600052604160045260246000fd5b634e487b7160e01b600052603260045260246000fd5b600060018201611c7257611c72611bd2565b5060010190565b600181811c90821680611c8d57607f821691505b602082108103611cad57634e487b7160e01b600052602260045260246000fd5b50919050565b601f8211156111ff57600081815260208120601f850160051c81016020861015611cda5750805b601f850160051c820191505b818110156111fb57828155600101611ce6565b67ffffffffffffffff831115611d1157611d11611c34565b611d2583611d1f8354611c79565b83611cb3565b6000601f841160018114611d595760008515611d415750838201355b600019600387901b1c1916600186901b178355611db3565b600083815260209020601f19861690835b82811015611d8a5786850135825560209485019460019092019101611d6a565b5086821015611da75760001960f88860031b161c19848701351681555b505060018560011b0183555b5050505050565b815167ffffffffffffffff811115611dd457611dd4611c34565b611de881611de28454611c79565b84611cb3565b602080601f831160018114611e1d5760008415611e055750858301515b600019600386901b1c1916600185901b1785556111fb565b600085815260208120601f198616915b82811015611e4c57888601518255948401946001909101908401611e2d565b5085821015611e6a5787850151600019600388901b60f8161c191681555b5050505050600190811b01905550565b60008251611e8c818460208701611700565b919091019291505056fea264697066735822122061da1592952f226eb547a4d253ee5d28d6b8fe79409044e442500634d32a2c4864736f6c63430008110033","opcodes":"PUSH1 0x80 PUSH1 0x40 MSTORE PUSH3 0x3F480 PUSH1 0x3 SSTORE PUSH9 0x56BC75E2D63100000 PUSH1 0x4 SSTORE PUSH10 0x21E19E0C9BAB2400000 PUSH1 0x5 SSTORE CALLVALUE DUP1 ISZERO PUSH3 0x33 JUMPI PUSH1 0x0 DUP1 REVERT JUMPDEST POP PUSH1 0x40 MLOAD PUSH3 0x2280 CODESIZE SUB DUP1 PUSH3 0x2280 DUP4 CODECOPY DUP2 ADD PUSH1 0x40 DUP2 SWAP1 MSTORE PUSH3 0x56 SWAP2 PUSH3 0x12B JUMP JUMPDEST PUSH1 0x2 PUSH1 0x0 DUP2 SLOAD PUSH3 0x67 SWAP1 PUSH3 0x221 JUMP JUMPDEST SWAP1 SWAP2 SSTORE POP PUSH1 0x2 DUP1 SLOAD PUSH1 0x0 SWAP1 DUP2 MSTORE PUSH1 0x6 PUSH1 0x20 SWAP1 DUP2 MSTORE PUSH1 0x40 DUP1 DUP4 KECCAK256 DUP1 SLOAD PUSH1 0x1 PUSH1 0x1 PUSH1 0xA0 SHL SUB NOT SWAP1 DUP2 AND PUSH1 0x1 PUSH1 0x1 PUSH1 0xA0 SHL SUB DUP10 DUP2 AND SWAP2 DUP3 OR SWAP1 SWAP4 SSTORE DUP4 MLOAD PUSH1 0xA0 DUP2 ADD DUP6 MSTORE DUP8 SLOAD DUP2 MSTORE DUP1 DUP7 ADD DUP8 DUP2 MSTORE DUP2 DUP7 ADD DUP9 DUP2 MSTORE PUSH1 0x60 DUP4 ADD DUP5 DUP2 MSTORE PUSH1 0x80 DUP5 ADD DUP13 DUP2 MSTORE SWAP5 DUP11 MSTORE PUSH1 0x7 SWAP1 SWAP9 MSTORE SWAP6 SWAP1 SWAP8 KECCAK256 DUP2 MLOAD DUP2 SSTORE SWAP7 MLOAD PUSH1 0x1 DUP9 ADD SSTORE SWAP4 MLOAD SWAP7 DUP7 ADD SWAP7 SWAP1 SWAP7 SSTORE SWAP3 MLOAD PUSH1 0x3 DUP6 ADD DUP1 SLOAD SWAP1 SWAP5 AND SWAP2 AND OR SWAP1 SWAP2 SSTORE SWAP2 MLOAD PUSH1 0x4 DUP3 ADD SWAP1 PUSH3 0x109 SWAP1 DUP3 PUSH3 0x2D8 JUMP JUMPDEST POP SWAP1 POP POP POP POP PUSH3 0x3A4 JUMP JUMPDEST PUSH4 0x4E487B71 PUSH1 0xE0 SHL PUSH1 0x0 MSTORE PUSH1 0x41 PUSH1 0x4 MSTORE PUSH1 0x24 PUSH1 0x0 REVERT JUMPDEST PUSH1 0x0 DUP1 PUSH1 0x40 DUP4 DUP6 SUB SLT ISZERO PUSH3 0x13F JUMPI PUSH1 0x0 DUP1 REVERT JUMPDEST DUP3 MLOAD PUSH1 0x1 PUSH1 0x1 PUSH1 0xA0 SHL SUB DUP2 AND DUP2 EQ PUSH3 0x157 JUMPI PUSH1 0x0 DUP1 REVERT JUMPDEST PUSH1 0x20 DUP5 DUP2 ADD MLOAD SWAP2 SWAP4 POP SWAP1 PUSH1 0x1 PUSH1 0x1 PUSH1 0x40 SHL SUB DUP1 DUP3 GT ISZERO PUSH3 0x177 JUMPI PUSH1 0x0 DUP1 REVERT JUMPDEST DUP2 DUP7 ADD SWAP2 POP DUP7 PUSH1 0x1F DUP4 ADD SLT PUSH3 0x18C JUMPI PUSH1 0x0 DUP1 REVERT JUMPDEST DUP2 MLOAD DUP2 DUP2 GT ISZERO PUSH3 0x1A1 JUMPI PUSH3 0x1A1 PUSH3 0x115 JUMP JUMPDEST PUSH1 0x40 MLOAD PUSH1 0x1F DUP3 ADD PUSH1 0x1F NOT SWAP1 DUP2 AND PUSH1 0x3F ADD AND DUP2 ADD SWAP1 DUP4 DUP3 GT DUP2 DUP4 LT OR ISZERO PUSH3 0x1CC JUMPI PUSH3 0x1CC PUSH3 0x115 JUMP JUMPDEST DUP2 PUSH1 0x40 MSTORE DUP3 DUP2 MSTORE DUP10 DUP7 DUP5 DUP8 ADD ADD GT ISZERO PUSH3 0x1E5 JUMPI PUSH1 0x0 DUP1 REVERT JUMPDEST PUSH1 0x0 SWAP4 POP JUMPDEST DUP3 DUP5 LT ISZERO PUSH3 0x209 JUMPI DUP5 DUP5 ADD DUP7 ADD MLOAD DUP2 DUP6 ADD DUP8 ADD MSTORE SWAP3 DUP6 ADD SWAP3 PUSH3 0x1EA JUMP JUMPDEST PUSH1 0x0 DUP7 DUP5 DUP4 ADD ADD MSTORE DUP1 SWAP7 POP POP POP POP POP POP POP SWAP3 POP SWAP3 SWAP1 POP JUMP JUMPDEST PUSH1 0x0 PUSH1 0x1 DUP3 ADD PUSH3 0x242 JUMPI PUSH4 0x4E487B71 PUSH1 0xE0 SHL PUSH1 0x0 MSTORE PUSH1 0x11 PUSH1 0x4 MSTORE PUSH1 0x24 PUSH1 0x0 REVERT JUMPDEST POP PUSH1 0x1 ADD SWAP1 JUMP JUMPDEST PUSH1 0x1 DUP2 DUP2 SHR SWAP1 DUP3 AND DUP1 PUSH3 0x25E JUMPI PUSH1 0x7F DUP3 AND SWAP2 POP JUMPDEST PUSH1 0x20 DUP3 LT DUP2 SUB PUSH3 0x27F JUMPI PUSH4 0x4E487B71 PUSH1 0xE0 SHL PUSH1 0x0 MSTORE PUSH1 0x22 PUSH1 0x4 MSTORE PUSH1 0x24 PUSH1 0x0 REVERT JUMPDEST POP SWAP2 SWAP1 POP JUMP JUMPDEST PUSH1 0x1F DUP3 GT ISZERO PUSH3 0x2D3 JUMPI PUSH1 0x0 DUP2 DUP2 MSTORE PUSH1 0x20 DUP2 KECCAK256 PUSH1 0x1F DUP6 ADD PUSH1 0x5 SHR DUP2 ADD PUSH1 0x20 DUP7 LT ISZERO PUSH3 0x2AE JUMPI POP DUP1 JUMPDEST PUSH1 0x1F DUP6 ADD PUSH1 0x5 SHR DUP3 ADD SWAP2 POP JUMPDEST DUP2 DUP2 LT ISZERO PUSH3 0x2CF JUMPI DUP3 DUP2 SSTORE PUSH1 0x1 ADD PUSH3 0x2BA JUMP JUMPDEST POP POP POP JUMPDEST POP POP POP JUMP JUMPDEST DUP2 MLOAD PUSH1 0x1 PUSH1 0x1 PUSH1 0x40 SHL SUB DUP2 GT ISZERO PUSH3 0x2F4 JUMPI PUSH3 0x2F4 PUSH3 0x115 JUMP JUMPDEST PUSH3 0x30C DUP2 PUSH3 0x305 DUP5 SLOAD PUSH3 0x249 JUMP JUMPDEST DUP5 PUSH3 0x285 JUMP JUMPDEST PUSH1 0x20 DUP1 PUSH1 0x1F DUP4 GT PUSH1 0x1 DUP2 EQ PUSH3 0x344 JUMPI PUSH1 0x0 DUP5 ISZERO PUSH3 0x32B JUMPI POP DUP6 DUP4 ADD MLOAD JUMPDEST PUSH1 0x0 NOT PUSH1 0x3 DUP7 SWAP1 SHL SHR NOT AND PUSH1 0x1 DUP6 SWAP1 SHL OR DUP6 SSTORE PUSH3 0x2CF JUMP JUMPDEST PUSH1 0x0 DUP6 DUP2 MSTORE PUSH1 0x20 DUP2 KECCAK256 PUSH1 0x1F NOT DUP7 AND SWAP2 JUMPDEST DUP3 DUP2 LT ISZERO PUSH3 0x375 JUMPI DUP9 DUP7 ADD MLOAD DUP3 SSTORE SWAP5 DUP5 ADD SWAP5 PUSH1 0x1 SWAP1 SWAP2 ADD SWAP1 DUP5 ADD PUSH3 0x354 JUMP JUMPDEST POP DUP6 DUP3 LT ISZERO PUSH3 0x394 JUMPI DUP8 DUP6 ADD MLOAD PUSH1 0x0 NOT PUSH1 0x3 DUP9 SWAP1 SHL PUSH1 0xF8 AND SHR NOT AND DUP2 SSTORE JUMPDEST POP POP POP POP POP PUSH1 0x1 SWAP1 DUP2 SHL ADD SWAP1 SSTORE POP JUMP JUMPDEST PUSH2 0x1ECC DUP1 PUSH3 0x3B4 PUSH1 0x0 CODECOPY PUSH1 0x0 RETURN INVALID PUSH1 0x80 PUSH1 0x40 MSTORE PUSH1 0x4 CALLDATASIZE LT PUSH2 0x11F JUMPI PUSH1 0x0 CALLDATALOAD PUSH1 0xE0 SHR DUP1 PUSH4 0x6F77926B GT PUSH2 0xA0 JUMPI DUP1 PUSH4 0xCE83AD96 GT PUSH2 0x64 JUMPI DUP1 PUSH4 0xCE83AD96 EQ PUSH2 0x315 JUMPI DUP1 PUSH4 0xD7A52FA9 EQ PUSH2 0x335 JUMPI DUP1 PUSH4 0xEB72D0C8 EQ PUSH2 0x355 JUMPI DUP1 PUSH4 0xEF81BF1B EQ PUSH2 0x382 JUMPI DUP1 PUSH4 0xFE0D94C1 EQ PUSH2 0x3A2 JUMPI PUSH1 0x0 DUP1 REVERT JUMPDEST DUP1 PUSH4 0x6F77926B EQ PUSH2 0x26F JUMPI DUP1 PUSH4 0xB0290914 EQ PUSH2 0x29C JUMPI DUP1 PUSH4 0xBE8E4D19 EQ PUSH2 0x2B2 JUMPI DUP1 PUSH4 0xC7F758A8 EQ PUSH2 0x2C8 JUMPI DUP1 PUSH4 0xC9D27AFE EQ PUSH2 0x2F5 JUMPI PUSH1 0x0 DUP1 REVERT JUMPDEST DUP1 PUSH4 0x396E75CC GT PUSH2 0xE7 JUMPI DUP1 PUSH4 0x396E75CC EQ PUSH2 0x1D5 JUMPI DUP1 PUSH4 0x40912990 EQ PUSH2 0x202 JUMPI DUP1 PUSH4 0x4DEE3534 EQ PUSH2 0x218 JUMPI DUP1 PUSH4 0x5D003332 EQ PUSH2 0x246 JUMPI DUP1 PUSH4 0x64BD0CB2 EQ PUSH2 0x25C JUMPI PUSH1 0x0 DUP1 REVERT JUMPDEST DUP1 PUSH4 0x1081FC3 EQ PUSH2 0x124 JUMPI DUP1 PUSH4 0x10A4A2DC EQ PUSH2 0x146 JUMPI DUP1 PUSH4 0x23DDD071 EQ PUSH2 0x16F JUMPI DUP1 PUSH4 0x31218954 EQ PUSH2 0x185 JUMPI DUP1 PUSH4 0x379607F5 EQ PUSH2 0x1B5 JUMPI JUMPDEST PUSH1 0x0 DUP1 REVERT JUMPDEST CALLVALUE DUP1 ISZERO PUSH2 0x130 JUMPI PUSH1 0x0 DUP1 REVERT JUMPDEST POP PUSH2 0x144 PUSH2 0x13F CALLDATASIZE PUSH1 0x4 PUSH2 0x1677 JUMP JUMPDEST PUSH2 0x3C2 JUMP JUMPDEST STOP JUMPDEST CALLVALUE DUP1 ISZERO PUSH2 0x152 JUMPI PUSH1 0x0 DUP1 REVERT JUMPDEST POP PUSH2 0x15C PUSH1 0x3 SLOAD DUP2 JUMP JUMPDEST PUSH1 0x40 MLOAD SWAP1 DUP2 MSTORE PUSH1 0x20 ADD JUMPDEST PUSH1 0x40 MLOAD DUP1 SWAP2 SUB SWAP1 RETURN JUMPDEST CALLVALUE DUP1 ISZERO PUSH2 0x17B JUMPI PUSH1 0x0 DUP1 REVERT JUMPDEST POP PUSH2 0x15C PUSH1 0x1 SLOAD DUP2 JUMP JUMPDEST CALLVALUE DUP1 ISZERO PUSH2 0x191 JUMPI PUSH1 0x0 DUP1 REVERT JUMPDEST POP PUSH2 0x1A5 PUSH2 0x1A0 CALLDATASIZE PUSH1 0x4 PUSH2 0x1699 JUMP JUMPDEST PUSH2 0x4D1 JUMP JUMPDEST PUSH1 0x40 MLOAD SWAP1 ISZERO ISZERO DUP2 MSTORE PUSH1 0x20 ADD PUSH2 0x166 JUMP JUMPDEST CALLVALUE DUP1 ISZERO PUSH2 0x1C1 JUMPI PUSH1 0x0 DUP1 REVERT JUMPDEST POP PUSH2 0x144 PUSH2 0x1D0 CALLDATASIZE PUSH1 0x4 PUSH2 0x16C5 JUMP JUMPDEST PUSH2 0x4FE JUMP JUMPDEST CALLVALUE DUP1 ISZERO PUSH2 0x1E1 JUMPI PUSH1 0x0 DUP1 REVERT JUMPDEST POP PUSH2 0x1F5 PUSH2 0x1F0 CALLDATASIZE PUSH1 0x4 PUSH2 0x16DE JUMP JUMPDEST PUSH2 0x68A JUMP JUMPDEST PUSH1 0x40 MLOAD PUSH2 0x166 SWAP2 SWAP1 PUSH2 0x187A JUMP JUMPDEST CALLVALUE DUP1 ISZERO PUSH2 0x20E JUMPI PUSH1 0x0 DUP1 REVERT JUMPDEST POP PUSH2 0x15C PUSH1 0x2 SLOAD DUP2 JUMP JUMPDEST CALLVALUE DUP1 ISZERO PUSH2 0x224 JUMPI PUSH1 0x0 DUP1 REVERT JUMPDEST POP PUSH2 0x238 PUSH2 0x233 CALLDATASIZE PUSH1 0x4 PUSH2 0x18DC JUMP JUMPDEST PUSH2 0x75E JUMP JUMPDEST PUSH1 0x40 MLOAD PUSH2 0x166 SWAP3 SWAP2 SWAP1 PUSH2 0x190F JUMP JUMPDEST CALLVALUE DUP1 ISZERO PUSH2 0x252 JUMPI PUSH1 0x0 DUP1 REVERT JUMPDEST POP PUSH2 0x15C PUSH1 0x4 SLOAD DUP2 JUMP JUMPDEST PUSH2 0x144 PUSH2 0x26A CALLDATASIZE PUSH1 0x4 PUSH2 0x19D5 JUMP JUMPDEST PUSH2 0x8B3 JUMP JUMPDEST CALLVALUE DUP1 ISZERO PUSH2 0x27B JUMPI PUSH1 0x0 DUP1 REVERT JUMPDEST POP PUSH2 0x28F PUSH2 0x28A CALLDATASIZE PUSH1 0x4 PUSH2 0x1677 JUMP JUMPDEST PUSH2 0xA7A JUMP JUMPDEST PUSH1 0x40 MLOAD PUSH2 0x166 SWAP2 SWAP1 PUSH2 0x1AA3 JUMP JUMPDEST CALLVALUE DUP1 ISZERO PUSH2 0x2A8 JUMPI PUSH1 0x0 DUP1 REVERT JUMPDEST POP PUSH2 0x15C PUSH1 0x5 SLOAD DUP2 JUMP JUMPDEST CALLVALUE DUP1 ISZERO PUSH2 0x2BE JUMPI PUSH1 0x0 DUP1 REVERT JUMPDEST POP PUSH2 0x15C PUSH1 0x0 SLOAD DUP2 JUMP JUMPDEST CALLVALUE DUP1 ISZERO PUSH2 0x2D4 JUMPI PUSH1 0x0 DUP1 REVERT JUMPDEST POP PUSH2 0x2E8 PUSH2 0x2E3 CALLDATASIZE PUSH1 0x4 PUSH2 0x16C5 JUMP JUMPDEST PUSH2 0xB6E JUMP JUMPDEST PUSH1 0x40 MLOAD PUSH2 0x166 SWAP2 SWAP1 PUSH2 0x1AB6 JUMP JUMPDEST CALLVALUE DUP1 ISZERO PUSH2 0x301 JUMPI PUSH1 0x0 DUP1 REVERT JUMPDEST POP PUSH2 0x144 PUSH2 0x310 CALLDATASIZE PUSH1 0x4 PUSH2 0x1AC9 JUMP JUMPDEST PUSH2 0xD5F JUMP JUMPDEST CALLVALUE DUP1 ISZERO PUSH2 0x321 JUMPI PUSH1 0x0 DUP1 REVERT JUMPDEST POP PUSH2 0x144 PUSH2 0x330 CALLDATASIZE PUSH1 0x4 PUSH2 0x1AFE JUMP JUMPDEST PUSH2 0x10AE JUMP JUMPDEST CALLVALUE DUP1 ISZERO PUSH2 0x341 JUMPI PUSH1 0x0 DUP1 REVERT JUMPDEST POP PUSH2 0x144 PUSH2 0x350 CALLDATASIZE PUSH1 0x4 PUSH2 0x16C5 JUMP JUMPDEST PUSH2 0x1204 JUMP JUMPDEST CALLVALUE DUP1 ISZERO PUSH2 0x361 JUMPI PUSH1 0x0 DUP1 REVERT JUMPDEST POP PUSH2 0x375 PUSH2 0x370 CALLDATASIZE PUSH1 0x4 PUSH2 0x16DE JUMP JUMPDEST PUSH2 0x1247 JUMP JUMPDEST PUSH1 0x40 MLOAD PUSH2 0x166 SWAP2 SWAP1 PUSH2 0x1B51 JUMP JUMPDEST CALLVALUE DUP1 ISZERO PUSH2 0x38E JUMPI PUSH1 0x0 DUP1 REVERT JUMPDEST POP PUSH2 0x144 PUSH2 0x39D CALLDATASIZE PUSH1 0x4 PUSH2 0x16DE JUMP JUMPDEST PUSH2 0x130F JUMP JUMPDEST CALLVALUE DUP1 ISZERO PUSH2 0x3AE JUMPI PUSH1 0x0 DUP1 REVERT JUMPDEST POP PUSH2 0x144 PUSH2 0x3BD CALLDATASIZE PUSH1 0x4 PUSH2 0x16C5 JUMP JUMPDEST PUSH2 0x1339 JUMP JUMPDEST ADDRESS CALLER EQ PUSH2 0x3EA JUMPI PUSH1 0x40 MLOAD PUSH3 0x461BCD PUSH1 0xE5 SHL DUP2 MSTORE PUSH1 0x4 ADD PUSH2 0x3E1 SWAP1 PUSH2 0x1BA6 JUMP JUMPDEST PUSH1 0x40 MLOAD DUP1 SWAP2 SUB SWAP1 REVERT JUMPDEST PUSH1 0x1 PUSH1 0x1 PUSH1 0xA0 SHL SUB DUP2 AND PUSH1 0x0 SWAP1 DUP2 MSTORE PUSH1 0x7 PUSH1 0x20 MSTORE PUSH1 0x40 SWAP1 KECCAK256 SLOAD DUP1 ISZERO PUSH2 0x4CD JUMPI PUSH1 0x2 SLOAD DUP2 EQ PUSH2 0x456 JUMPI PUSH1 0x2 SLOAD PUSH1 0x0 SWAP1 DUP2 MSTORE PUSH1 0x6 PUSH1 0x20 SWAP1 DUP2 MSTORE PUSH1 0x40 DUP1 DUP4 KECCAK256 SLOAD DUP5 DUP5 MSTORE DUP2 DUP5 KECCAK256 DUP1 SLOAD PUSH1 0x1 PUSH1 0x1 PUSH1 0xA0 SHL SUB NOT AND PUSH1 0x1 PUSH1 0x1 PUSH1 0xA0 SHL SUB SWAP1 SWAP3 AND SWAP2 DUP3 OR SWAP1 SSTORE DUP4 MSTORE PUSH1 0x7 SWAP1 SWAP2 MSTORE SWAP1 KECCAK256 DUP2 SWAP1 SSTORE JUMPDEST PUSH1 0x2 DUP1 SLOAD PUSH1 0x0 SWAP1 DUP2 MSTORE PUSH1 0x6 PUSH1 0x20 SWAP1 DUP2 MSTORE PUSH1 0x40 DUP1 DUP4 KECCAK256 DUP1 SLOAD PUSH1 0x1 PUSH1 0x1 PUSH1 0xA0 SHL SUB NOT SWAP1 DUP2 AND SWAP1 SWAP2 SSTORE PUSH1 0x1 PUSH1 0x1 PUSH1 0xA0 SHL SUB DUP8 AND DUP5 MSTORE PUSH1 0x7 SWAP1 SWAP3 MSTORE DUP3 KECCAK256 DUP3 DUP2 SSTORE PUSH1 0x1 DUP2 ADD DUP4 SWAP1 SSTORE SWAP3 DUP4 ADD DUP3 SWAP1 SSTORE PUSH1 0x3 DUP4 ADD DUP1 SLOAD SWAP1 SWAP2 AND SWAP1 SSTORE PUSH2 0x4B7 PUSH1 0x4 DUP4 ADD DUP3 PUSH2 0x1561 JUMP JUMPDEST POP POP PUSH1 0x2 PUSH1 0x0 DUP2 SLOAD PUSH2 0x4C8 SWAP1 PUSH2 0x1BE8 JUMP JUMPDEST SWAP1 SWAP2 SSTORE POP JUMPDEST POP POP JUMP JUMPDEST PUSH1 0x0 DUP3 DUP2 MSTORE PUSH1 0x9 PUSH1 0x20 SWAP1 DUP2 MSTORE PUSH1 0x40 DUP1 DUP4 KECCAK256 PUSH1 0x1 PUSH1 0x1 PUSH1 0xA0 SHL SUB DUP6 AND DUP5 MSTORE SWAP1 SWAP2 MSTORE SWAP1 KECCAK256 SLOAD PUSH1 0xFF AND JUMPDEST SWAP3 SWAP2 POP POP JUMP JUMPDEST PUSH1 0x0 DUP2 DUP2 MSTORE PUSH1 0x8 PUSH1 0x20 MSTORE PUSH1 0x40 SWAP1 KECCAK256 PUSH1 0x4 ADD SLOAD PUSH1 0x1 PUSH1 0x1 PUSH1 0xA0 SHL SWAP1 SWAP2 DIV PUSH1 0xFF AND GT PUSH2 0x566 JUMPI PUSH1 0x40 MLOAD PUSH3 0x461BCD PUSH1 0xE5 SHL DUP2 MSTORE PUSH1 0x20 PUSH1 0x4 DUP3 ADD MSTORE PUSH1 0x19 PUSH1 0x24 DUP3 ADD MSTORE PUSH25 0x1C1C9BDC1BDCD85B081A5CC81B9BDD0818DBDB5C1B195D1959 PUSH1 0x3A SHL PUSH1 0x44 DUP3 ADD MSTORE PUSH1 0x64 ADD PUSH2 0x3E1 JUMP JUMPDEST PUSH1 0x0 DUP2 DUP2 MSTORE PUSH1 0x9 PUSH1 0x20 SWAP1 DUP2 MSTORE PUSH1 0x40 DUP1 DUP4 KECCAK256 CALLER DUP5 MSTORE SWAP1 SWAP2 MSTORE SWAP1 KECCAK256 SLOAD PUSH1 0xFF AND PUSH2 0x5BC JUMPI PUSH1 0x40 MLOAD PUSH3 0x461BCD PUSH1 0xE5 SHL DUP2 MSTORE PUSH1 0x20 PUSH1 0x4 DUP3 ADD MSTORE PUSH1 0xA PUSH1 0x24 DUP3 ADD MSTORE PUSH10 0x1B9BC81C185E5B595B9D PUSH1 0xB2 SHL PUSH1 0x44 DUP3 ADD MSTORE PUSH1 0x64 ADD PUSH2 0x3E1 JUMP JUMPDEST PUSH1 0x0 DUP2 DUP2 MSTORE PUSH1 0x9 PUSH1 0x20 SWAP1 DUP2 MSTORE PUSH1 0x40 DUP1 DUP4 KECCAK256 CALLER DUP5 MSTORE DUP3 MSTORE DUP1 DUP4 KECCAK256 DUP1 SLOAD PUSH1 0xFF NOT AND SWAP1 SSTORE DUP4 DUP4 MSTORE PUSH1 0x8 SWAP1 SWAP2 MSTORE DUP2 KECCAK256 PUSH1 0x7 DUP2 ADD SLOAD PUSH1 0x6 SWAP1 SWAP2 ADD SLOAD PUSH2 0x5FC SWAP2 SWAP1 PUSH2 0x1BFF JUMP JUMPDEST PUSH1 0x0 DUP4 DUP2 MSTORE PUSH1 0x8 PUSH1 0x20 MSTORE PUSH1 0x40 DUP2 KECCAK256 PUSH1 0x2 ADD SLOAD SWAP2 SWAP3 POP SWAP1 PUSH2 0x61D SWAP1 DUP4 SWAP1 PUSH2 0x1C12 JUMP JUMPDEST PUSH1 0x40 MLOAD SWAP1 SWAP2 POP CALLER SWAP1 DUP3 ISZERO PUSH2 0x8FC MUL SWAP1 DUP4 SWAP1 PUSH1 0x0 DUP2 DUP2 DUP2 DUP6 DUP9 DUP9 CALL SWAP4 POP POP POP POP ISZERO DUP1 ISZERO PUSH2 0x64D JUMPI RETURNDATASIZE PUSH1 0x0 DUP1 RETURNDATACOPY RETURNDATASIZE PUSH1 0x0 REVERT JUMPDEST POP PUSH1 0x40 MLOAD DUP2 DUP2 MSTORE DUP4 SWAP1 CALLER SWAP1 PUSH32 0x34FCBAC0073D7C3D388E51312FAF357774904998EEB8FCA628B9E6F65EE1CBF7 SWAP1 PUSH1 0x20 ADD PUSH1 0x40 MLOAD DUP1 SWAP2 SUB SWAP1 LOG3 POP POP POP JUMP JUMPDEST PUSH1 0x60 DUP3 ISZERO DUP1 PUSH2 0x69A JUMPI POP PUSH1 0x0 SLOAD DUP4 GT JUMPDEST PUSH2 0x6A4 JUMPI DUP3 PUSH2 0x6A8 JUMP JUMPDEST PUSH1 0x0 SLOAD JUMPDEST SWAP3 POP PUSH1 0x0 DUP3 PUSH8 0xFFFFFFFFFFFFFFFF DUP2 GT ISZERO PUSH2 0x6C5 JUMPI PUSH2 0x6C5 PUSH2 0x1C34 JUMP JUMPDEST PUSH1 0x40 MLOAD SWAP1 DUP1 DUP3 MSTORE DUP1 PUSH1 0x20 MUL PUSH1 0x20 ADD DUP3 ADD PUSH1 0x40 MSTORE DUP1 ISZERO PUSH2 0x6FE JUMPI DUP2 PUSH1 0x20 ADD JUMPDEST PUSH2 0x6EB PUSH2 0x159B JUMP JUMPDEST DUP2 MSTORE PUSH1 0x20 ADD SWAP1 PUSH1 0x1 SWAP1 SUB SWAP1 DUP2 PUSH2 0x6E3 JUMPI SWAP1 POP JUMPDEST POP SWAP1 POP PUSH1 0x0 JUMPDEST DUP4 DUP2 LT ISZERO PUSH2 0x756 JUMPI DUP5 ISZERO PUSH2 0x756 JUMPI PUSH2 0x726 DUP6 PUSH2 0x71F DUP2 PUSH2 0x1BE8 JUMP JUMPDEST SWAP7 POP PUSH2 0xB6E JUMP JUMPDEST DUP3 DUP3 DUP2 MLOAD DUP2 LT PUSH2 0x738 JUMPI PUSH2 0x738 PUSH2 0x1C4A JUMP JUMPDEST PUSH1 0x20 MUL PUSH1 0x20 ADD ADD DUP2 SWAP1 MSTORE POP DUP1 DUP1 PUSH2 0x74E SWAP1 PUSH2 0x1C60 JUMP JUMPDEST SWAP2 POP POP PUSH2 0x704 JUMP JUMPDEST POP SWAP4 SWAP3 POP POP POP JUMP JUMPDEST PUSH1 0x60 DUP1 DUP4 ISZERO DUP1 PUSH2 0x76F JUMPI POP PUSH1 0x0 SLOAD DUP5 GT JUMPDEST PUSH2 0x779 JUMPI DUP4 PUSH2 0x77D JUMP JUMPDEST PUSH1 0x0 SLOAD JUMPDEST SWAP4 POP PUSH1 0x0 DUP4 PUSH8 0xFFFFFFFFFFFFFFFF DUP2 GT ISZERO PUSH2 0x79A JUMPI PUSH2 0x79A PUSH2 0x1C34 JUMP JUMPDEST PUSH1 0x40 MLOAD SWAP1 DUP1 DUP3 MSTORE DUP1 PUSH1 0x20 MUL PUSH1 0x20 ADD DUP3 ADD PUSH1 0x40 MSTORE DUP1 ISZERO PUSH2 0x7C3 JUMPI DUP2 PUSH1 0x20 ADD PUSH1 0x20 DUP3 MUL DUP1 CALLDATASIZE DUP4 CALLDATACOPY ADD SWAP1 POP JUMPDEST POP SWAP1 POP PUSH1 0x0 DUP5 PUSH8 0xFFFFFFFFFFFFFFFF DUP2 GT ISZERO PUSH2 0x7E1 JUMPI PUSH2 0x7E1 PUSH2 0x1C34 JUMP JUMPDEST PUSH1 0x40 MLOAD SWAP1 DUP1 DUP3 MSTORE DUP1 PUSH1 0x20 MUL PUSH1 0x20 ADD DUP3 ADD PUSH1 0x40 MSTORE DUP1 ISZERO PUSH2 0x80A JUMPI DUP2 PUSH1 0x20 ADD PUSH1 0x20 DUP3 MUL DUP1 CALLDATASIZE DUP4 CALLDATACOPY ADD SWAP1 POP JUMPDEST POP SWAP1 POP PUSH1 0x0 JUMPDEST DUP6 DUP2 LT ISZERO PUSH2 0x8A6 JUMPI DUP7 ISZERO PUSH2 0x8A6 JUMPI DUP7 DUP4 DUP3 DUP2 MLOAD DUP2 LT PUSH2 0x831 JUMPI PUSH2 0x831 PUSH2 0x1C4A JUMP JUMPDEST PUSH1 0x20 SWAP1 DUP2 MUL SWAP2 SWAP1 SWAP2 ADD DUP2 ADD SWAP2 SWAP1 SWAP2 MSTORE PUSH1 0x0 DUP9 DUP2 MSTORE PUSH1 0x9 DUP3 MSTORE PUSH1 0x40 DUP1 DUP3 KECCAK256 PUSH1 0x1 PUSH1 0x1 PUSH1 0xA0 SHL SUB DUP13 AND DUP4 MSTORE SWAP1 SWAP3 MSTORE KECCAK256 SLOAD DUP3 MLOAD PUSH1 0xFF SWAP1 SWAP2 AND SWAP1 DUP4 SWAP1 DUP4 SWAP1 DUP2 LT PUSH2 0x879 JUMPI PUSH2 0x879 PUSH2 0x1C4A JUMP JUMPDEST SWAP2 ISZERO ISZERO PUSH1 0x20 SWAP3 DUP4 MUL SWAP2 SWAP1 SWAP2 ADD SWAP1 SWAP2 ADD MSTORE PUSH2 0x892 DUP8 PUSH2 0x1BE8 JUMP JUMPDEST SWAP7 POP DUP1 PUSH2 0x89E DUP2 PUSH2 0x1C60 JUMP JUMPDEST SWAP2 POP POP PUSH2 0x810 JUMP JUMPDEST POP SWAP1 SWAP7 SWAP1 SWAP6 POP SWAP4 POP POP POP POP JUMP JUMPDEST CALLER PUSH1 0x0 SWAP1 DUP2 MSTORE PUSH1 0x7 PUSH1 0x20 MSTORE PUSH1 0x40 SWAP1 KECCAK256 SLOAD ISZERO PUSH2 0x90F JUMPI PUSH1 0x4 SLOAD CALLVALUE LT ISZERO PUSH2 0x90A JUMPI PUSH1 0x40 MLOAD PUSH3 0x461BCD PUSH1 0xE5 SHL DUP2 MSTORE PUSH1 0x20 PUSH1 0x4 DUP3 ADD MSTORE PUSH1 0xD PUSH1 0x24 DUP3 ADD MSTORE PUSH13 0x1CDB585B1B081C185E5B595B9D PUSH1 0x9A SHL PUSH1 0x44 DUP3 ADD MSTORE PUSH1 0x64 ADD PUSH2 0x3E1 JUMP JUMPDEST PUSH2 0x951 JUMP JUMPDEST PUSH1 0x5 SLOAD CALLVALUE LT ISZERO PUSH2 0x951 JUMPI PUSH1 0x40 MLOAD PUSH3 0x461BCD PUSH1 0xE5 SHL DUP2 MSTORE PUSH1 0x20 PUSH1 0x4 DUP3 ADD MSTORE PUSH1 0xD PUSH1 0x24 DUP3 ADD MSTORE PUSH13 0x1CDB585B1B081C185E5B595B9D PUSH1 0x9A SHL PUSH1 0x44 DUP3 ADD MSTORE PUSH1 0x64 ADD PUSH2 0x3E1 JUMP JUMPDEST PUSH1 0x0 DUP1 DUP2 SLOAD PUSH2 0x95F SWAP1 PUSH2 0x1C60 JUMP JUMPDEST SWAP1 SWAP2 SSTORE POP PUSH1 0x0 DUP1 SLOAD DUP1 DUP3 MSTORE PUSH1 0x8 PUSH1 0x20 MSTORE PUSH1 0x40 DUP1 DUP4 KECCAK256 SWAP2 DUP3 SSTORE TIMESTAMP PUSH1 0x1 SWAP1 SWAP3 ADD DUP3 SWAP1 SSTORE DUP3 SLOAD DUP4 MSTORE SWAP1 SWAP2 KECCAK256 CALLVALUE PUSH1 0x2 SWAP1 SWAP2 ADD SSTORE PUSH1 0x3 SLOAD PUSH2 0x99A SWAP2 PUSH2 0x1BFF JUMP JUMPDEST PUSH1 0x0 DUP1 SLOAD DUP2 MSTORE PUSH1 0x8 PUSH1 0x20 MSTORE PUSH1 0x40 DUP1 DUP3 KECCAK256 PUSH1 0x3 ADD SWAP3 SWAP1 SWAP3 SSTORE DUP1 SLOAD DUP2 MSTORE DUP2 DUP2 KECCAK256 PUSH1 0x4 SWAP1 DUP2 ADD DUP1 SLOAD PUSH1 0x1 PUSH1 0x1 PUSH1 0xA0 SHL SUB NOT AND CALLER OR SWAP1 SSTORE DUP2 SLOAD DUP3 MSTORE DUP3 DUP3 KECCAK256 ADD DUP1 SLOAD PUSH1 0xFF PUSH1 0xA0 SHL NOT AND PUSH1 0x1 PUSH1 0xA0 SHL OR SWAP1 SSTORE DUP1 SLOAD DUP2 MSTORE KECCAK256 PUSH1 0x5 ADD PUSH2 0x9F9 DUP3 DUP5 DUP4 PUSH2 0x1CF9 JUMP JUMPDEST POP PUSH1 0x0 DUP1 SLOAD DUP2 MSTORE PUSH1 0x8 PUSH1 0x20 DUP2 SWAP1 MSTORE PUSH1 0x40 DUP1 DUP4 KECCAK256 SWAP1 SWAP2 ADD DUP1 SLOAD PUSH1 0x1 PUSH1 0x1 PUSH1 0xA0 SHL SUB NOT AND PUSH1 0x1 PUSH1 0x1 PUSH1 0xA0 SHL SUB DUP10 AND OR SWAP1 SSTORE DUP2 SLOAD DUP3 MSTORE SWAP1 KECCAK256 PUSH1 0x9 ADD PUSH2 0xA3C DUP5 DUP7 DUP4 PUSH2 0x1CF9 JUMP JUMPDEST POP PUSH1 0x0 SLOAD PUSH1 0x40 MLOAD CALLVALUE DUP2 MSTORE PUSH32 0x6638D63C6ABDBF0A059E322E8C8B9401488D94B95731A935CA9F76CDE49FA483 SWAP1 PUSH1 0x20 ADD PUSH1 0x40 MLOAD DUP1 SWAP2 SUB SWAP1 LOG2 POP POP POP POP POP JUMP JUMPDEST PUSH2 0xA82 PUSH2 0x160A JUMP JUMPDEST PUSH1 0x1 PUSH1 0x1 PUSH1 0xA0 SHL SUB DUP1 DUP4 AND PUSH1 0x0 SWAP1 DUP2 MSTORE PUSH1 0x7 PUSH1 0x20 SWAP1 DUP2 MSTORE PUSH1 0x40 SWAP2 DUP3 SWAP1 KECCAK256 DUP3 MLOAD PUSH1 0xA0 DUP2 ADD DUP5 MSTORE DUP2 SLOAD DUP2 MSTORE PUSH1 0x1 DUP3 ADD SLOAD SWAP3 DUP2 ADD SWAP3 SWAP1 SWAP3 MSTORE PUSH1 0x2 DUP2 ADD SLOAD SWAP3 DUP3 ADD SWAP3 SWAP1 SWAP3 MSTORE PUSH1 0x3 DUP3 ADD SLOAD SWAP1 SWAP3 AND PUSH1 0x60 DUP4 ADD MSTORE PUSH1 0x4 DUP2 ADD DUP1 SLOAD PUSH1 0x80 DUP5 ADD SWAP2 SWAP1 PUSH2 0xAE5 SWAP1 PUSH2 0x1C79 JUMP JUMPDEST DUP1 PUSH1 0x1F ADD PUSH1 0x20 DUP1 SWAP2 DIV MUL PUSH1 0x20 ADD PUSH1 0x40 MLOAD SWAP1 DUP2 ADD PUSH1 0x40 MSTORE DUP1 SWAP3 SWAP2 SWAP1 DUP2 DUP2 MSTORE PUSH1 0x20 ADD DUP3 DUP1 SLOAD PUSH2 0xB11 SWAP1 PUSH2 0x1C79 JUMP JUMPDEST DUP1 ISZERO PUSH2 0xB5E JUMPI DUP1 PUSH1 0x1F LT PUSH2 0xB33 JUMPI PUSH2 0x100 DUP1 DUP4 SLOAD DIV MUL DUP4 MSTORE SWAP2 PUSH1 0x20 ADD SWAP2 PUSH2 0xB5E JUMP JUMPDEST DUP3 ADD SWAP2 SWAP1 PUSH1 0x0 MSTORE PUSH1 0x20 PUSH1 0x0 KECCAK256 SWAP1 JUMPDEST DUP2 SLOAD DUP2 MSTORE SWAP1 PUSH1 0x1 ADD SWAP1 PUSH1 0x20 ADD DUP1 DUP4 GT PUSH2 0xB41 JUMPI DUP3 SWAP1 SUB PUSH1 0x1F AND DUP3 ADD SWAP2 JUMPDEST POP POP POP POP POP DUP2 MSTORE POP POP SWAP1 POP SWAP2 SWAP1 POP JUMP JUMPDEST PUSH2 0xB76 PUSH2 0x159B JUMP JUMPDEST PUSH1 0x0 DUP3 DUP2 MSTORE PUSH1 0x8 PUSH1 0x20 SWAP1 DUP2 MSTORE PUSH1 0x40 SWAP2 DUP3 SWAP1 KECCAK256 DUP3 MLOAD PUSH2 0x160 DUP2 ADD DUP5 MSTORE DUP2 SLOAD DUP2 MSTORE PUSH1 0x1 DUP3 ADD SLOAD SWAP3 DUP2 ADD SWAP3 SWAP1 SWAP3 MSTORE PUSH1 0x2 DUP2 ADD SLOAD SWAP3 DUP3 ADD SWAP3 SWAP1 SWAP3 MSTORE PUSH1 0x3 DUP3 ADD SLOAD PUSH1 0x60 DUP3 ADD MSTORE PUSH1 0x4 DUP3 ADD SLOAD PUSH1 0x1 PUSH1 0x1 PUSH1 0xA0 SHL SUB DUP2 AND PUSH1 0x80 DUP4 ADD MSTORE PUSH1 0x1 PUSH1 0xA0 SHL SWAP1 DIV PUSH1 0xFF AND PUSH1 0xA0 DUP3 ADD MSTORE PUSH1 0x5 DUP3 ADD DUP1 SLOAD SWAP2 SWAP3 SWAP2 PUSH1 0xC0 DUP5 ADD SWAP2 SWAP1 PUSH2 0xBF2 SWAP1 PUSH2 0x1C79 JUMP JUMPDEST DUP1 PUSH1 0x1F ADD PUSH1 0x20 DUP1 SWAP2 DIV MUL PUSH1 0x20 ADD PUSH1 0x40 MLOAD SWAP1 DUP2 ADD PUSH1 0x40 MSTORE DUP1 SWAP3 SWAP2 SWAP1 DUP2 DUP2 MSTORE PUSH1 0x20 ADD DUP3 DUP1 SLOAD PUSH2 0xC1E SWAP1 PUSH2 0x1C79 JUMP JUMPDEST DUP1 ISZERO PUSH2 0xC6B JUMPI DUP1 PUSH1 0x1F LT PUSH2 0xC40 JUMPI PUSH2 0x100 DUP1 DUP4 SLOAD DIV MUL DUP4 MSTORE SWAP2 PUSH1 0x20 ADD SWAP2 PUSH2 0xC6B JUMP JUMPDEST DUP3 ADD SWAP2 SWAP1 PUSH1 0x0 MSTORE PUSH1 0x20 PUSH1 0x0 KECCAK256 SWAP1 JUMPDEST DUP2 SLOAD DUP2 MSTORE SWAP1 PUSH1 0x1 ADD SWAP1 PUSH1 0x20 ADD DUP1 DUP4 GT PUSH2 0xC4E JUMPI DUP3 SWAP1 SUB PUSH1 0x1F AND DUP3 ADD SWAP2 JUMPDEST POP POP POP POP POP DUP2 MSTORE PUSH1 0x20 ADD PUSH1 0x6 DUP3 ADD DUP1 SLOAD DUP1 PUSH1 0x20 MUL PUSH1 0x20 ADD PUSH1 0x40 MLOAD SWAP1 DUP2 ADD PUSH1 0x40 MSTORE DUP1 SWAP3 SWAP2 SWAP1 DUP2 DUP2 MSTORE PUSH1 0x20 ADD DUP3 DUP1 SLOAD DUP1 ISZERO PUSH2 0xCCD JUMPI PUSH1 0x20 MUL DUP3 ADD SWAP2 SWAP1 PUSH1 0x0 MSTORE PUSH1 0x20 PUSH1 0x0 KECCAK256 SWAP1 JUMPDEST DUP2 SLOAD PUSH1 0x1 PUSH1 0x1 PUSH1 0xA0 SHL SUB AND DUP2 MSTORE PUSH1 0x1 SWAP1 SWAP2 ADD SWAP1 PUSH1 0x20 ADD DUP1 DUP4 GT PUSH2 0xCAF JUMPI JUMPDEST POP POP POP POP POP DUP2 MSTORE PUSH1 0x20 ADD PUSH1 0x7 DUP3 ADD DUP1 SLOAD DUP1 PUSH1 0x20 MUL PUSH1 0x20 ADD PUSH1 0x40 MLOAD SWAP1 DUP2 ADD PUSH1 0x40 MSTORE DUP1 SWAP3 SWAP2 SWAP1 DUP2 DUP2 MSTORE PUSH1 0x20 ADD DUP3 DUP1 SLOAD DUP1 ISZERO PUSH2 0xD2F JUMPI PUSH1 0x20 MUL DUP3 ADD SWAP2 SWAP1 PUSH1 0x0 MSTORE PUSH1 0x20 PUSH1 0x0 KECCAK256 SWAP1 JUMPDEST DUP2 SLOAD PUSH1 0x1 PUSH1 0x1 PUSH1 0xA0 SHL SUB AND DUP2 MSTORE PUSH1 0x1 SWAP1 SWAP2 ADD SWAP1 PUSH1 0x20 ADD DUP1 DUP4 GT PUSH2 0xD11 JUMPI JUMPDEST POP POP POP SWAP2 DUP4 MSTORE POP POP PUSH1 0x8 DUP3 ADD SLOAD PUSH1 0x1 PUSH1 0x1 PUSH1 0xA0 SHL SUB AND PUSH1 0x20 DUP3 ADD MSTORE PUSH1 0x9 DUP3 ADD DUP1 SLOAD PUSH1 0x40 SWAP1 SWAP3 ADD SWAP2 PUSH2 0xAE5 SWAP1 PUSH2 0x1C79 JUMP JUMPDEST PUSH1 0x0 DUP3 DUP2 MSTORE PUSH1 0x8 PUSH1 0x20 MSTORE PUSH1 0x40 SWAP1 KECCAK256 PUSH1 0x1 ADD SLOAD PUSH2 0xDBD JUMPI PUSH1 0x40 MLOAD PUSH3 0x461BCD PUSH1 0xE5 SHL DUP2 MSTORE PUSH1 0x20 PUSH1 0x4 DUP3 ADD MSTORE PUSH1 0x17 PUSH1 0x24 DUP3 ADD MSTORE PUSH32 0x70726F706F73616C20646F6573206E6F74206578697374000000000000000000 PUSH1 0x44 DUP3 ADD MSTORE PUSH1 0x64 ADD PUSH2 0x3E1 JUMP JUMPDEST PUSH1 0x0 DUP3 DUP2 MSTORE PUSH1 0x8 PUSH1 0x20 MSTORE PUSH1 0x40 SWAP1 KECCAK256 PUSH1 0x4 ADD SLOAD PUSH1 0x1 PUSH1 0x1 PUSH1 0xA0 SHL SWAP1 SWAP2 DIV PUSH1 0xFF AND GT ISZERO PUSH2 0xDE6 JUMPI POP POP JUMP JUMPDEST PUSH1 0x0 DUP3 DUP2 MSTORE PUSH1 0x8 PUSH1 0x20 MSTORE PUSH1 0x40 SWAP1 KECCAK256 PUSH1 0x3 ADD SLOAD TIMESTAMP GT ISZERO PUSH2 0xE6F JUMPI PUSH1 0x0 DUP3 DUP2 MSTORE PUSH1 0x8 PUSH1 0x20 MSTORE PUSH1 0x40 DUP2 KECCAK256 PUSH1 0x4 ADD DUP1 SLOAD PUSH1 0xFF PUSH1 0xA0 SHL NOT AND PUSH1 0x1 PUSH1 0xA1 SHL OR SWAP1 SSTORE PUSH1 0x1 DUP1 SLOAD SWAP1 SWAP2 SWAP1 PUSH2 0xE31 SWAP1 PUSH2 0x1C60 JUMP JUMPDEST SWAP1 SWAP2 SSTORE POP PUSH1 0x40 MLOAD PUSH1 0x2 DUP2 MSTORE DUP3 SWAP1 PUSH32 0x199C49764C24C272AB05711F746EA69945084E537B524515F05902C3C9A7E9E8 SWAP1 PUSH1 0x20 ADD PUSH1 0x40 MLOAD DUP1 SWAP2 SUB SWAP1 LOG2 POP POP JUMP JUMPDEST CALLER PUSH1 0x0 SWAP1 DUP2 MSTORE PUSH1 0x7 PUSH1 0x20 MSTORE PUSH1 0x40 SWAP1 KECCAK256 SLOAD DUP1 PUSH2 0xEC3 JUMPI PUSH1 0x40 MLOAD PUSH3 0x461BCD PUSH1 0xE5 SHL DUP2 MSTORE PUSH1 0x20 PUSH1 0x4 DUP3 ADD MSTORE PUSH1 0x14 PUSH1 0x24 DUP3 ADD MSTORE PUSH20 0x3CB7BA9030B932903737BA10309036B2B6B132B9 PUSH1 0x61 SHL PUSH1 0x44 DUP3 ADD MSTORE PUSH1 0x64 ADD PUSH2 0x3E1 JUMP JUMPDEST PUSH1 0x0 DUP4 DUP2 MSTORE PUSH1 0x9 PUSH1 0x20 SWAP1 DUP2 MSTORE PUSH1 0x40 DUP1 DUP4 KECCAK256 CALLER DUP5 MSTORE SWAP1 SWAP2 MSTORE SWAP1 KECCAK256 SLOAD PUSH1 0xFF AND ISZERO PUSH2 0xF26 JUMPI PUSH1 0x40 MLOAD PUSH3 0x461BCD PUSH1 0xE5 SHL DUP2 MSTORE PUSH1 0x20 PUSH1 0x4 DUP3 ADD MSTORE PUSH1 0x16 PUSH1 0x24 DUP3 ADD MSTORE PUSH22 0x1E5BDD481A185D9948185B1C9958591E481D9BDD1959 PUSH1 0x52 SHL PUSH1 0x44 DUP3 ADD MSTORE PUSH1 0x64 ADD PUSH2 0x3E1 JUMP JUMPDEST PUSH1 0x0 DUP4 DUP2 MSTORE PUSH1 0x9 PUSH1 0x20 SWAP1 DUP2 MSTORE PUSH1 0x40 DUP1 DUP4 KECCAK256 CALLER DUP5 MSTORE DUP3 MSTORE DUP1 DUP4 KECCAK256 DUP1 SLOAD PUSH1 0xFF NOT AND PUSH1 0x1 SWAP1 DUP2 OR SWAP1 SWAP2 SSTORE PUSH1 0x7 SWAP1 SWAP3 MSTORE DUP3 KECCAK256 ADD DUP1 SLOAD SWAP2 PUSH2 0xF61 DUP4 PUSH2 0x1C60 JUMP JUMPDEST SWAP1 SWAP2 SSTORE POP POP PUSH1 0x40 MLOAD DUP3 ISZERO ISZERO DUP2 MSTORE DUP4 SWAP1 CALLER SWAP1 PUSH32 0x8D85A70FD2C5D140A4A01143492D27FF82CFAD4CEAD313E66C53F39B0FEB5E0F SWAP1 PUSH1 0x20 ADD PUSH1 0x40 MLOAD DUP1 SWAP2 SUB SWAP1 LOG3 DUP2 ISZERO PUSH2 0xFDB JUMPI PUSH1 0x0 DUP4 DUP2 MSTORE PUSH1 0x8 PUSH1 0x20 SWAP1 DUP2 MSTORE PUSH1 0x40 DUP3 KECCAK256 PUSH1 0x6 ADD DUP1 SLOAD PUSH1 0x1 DUP2 ADD DUP3 SSTORE SWAP1 DUP4 MSTORE SWAP2 KECCAK256 ADD DUP1 SLOAD PUSH1 0x1 PUSH1 0x1 PUSH1 0xA0 SHL SUB NOT AND CALLER OR SWAP1 SSTORE PUSH2 0x100D JUMP JUMPDEST PUSH1 0x0 DUP4 DUP2 MSTORE PUSH1 0x8 PUSH1 0x20 SWAP1 DUP2 MSTORE PUSH1 0x40 DUP3 KECCAK256 PUSH1 0x7 ADD DUP1 SLOAD PUSH1 0x1 DUP2 ADD DUP3 SSTORE SWAP1 DUP4 MSTORE SWAP2 KECCAK256 ADD DUP1 SLOAD PUSH1 0x1 PUSH1 0x1 PUSH1 0xA0 SHL SUB NOT AND CALLER OR SWAP1 SSTORE JUMPDEST PUSH1 0x0 DUP4 DUP2 MSTORE PUSH1 0x8 PUSH1 0x20 MSTORE PUSH1 0x40 DUP2 KECCAK256 PUSH1 0x7 DUP2 ADD SLOAD PUSH1 0x6 SWAP1 SWAP2 ADD SLOAD PUSH2 0x1030 SWAP2 SWAP1 PUSH2 0x1BFF JUMP JUMPDEST SWAP1 POP PUSH1 0x2 SLOAD DUP2 LT PUSH2 0x10A8 JUMPI PUSH1 0x0 DUP5 DUP2 MSTORE PUSH1 0x8 PUSH1 0x20 MSTORE PUSH1 0x40 DUP2 KECCAK256 PUSH1 0x4 ADD DUP1 SLOAD PUSH1 0xFF PUSH1 0xA0 SHL NOT AND PUSH1 0x1 PUSH1 0xA1 SHL OR SWAP1 SSTORE PUSH1 0x1 DUP1 SLOAD SWAP1 SWAP2 SWAP1 PUSH2 0x106D SWAP1 PUSH2 0x1C60 JUMP JUMPDEST SWAP1 SWAP2 SSTORE POP PUSH1 0x40 MLOAD PUSH1 0x2 DUP2 MSTORE DUP5 SWAP1 PUSH32 0x199C49764C24C272AB05711F746EA69945084E537B524515F05902C3C9A7E9E8 SWAP1 PUSH1 0x20 ADD PUSH1 0x40 MLOAD DUP1 SWAP2 SUB SWAP1 LOG2 JUMPDEST POP POP POP POP JUMP JUMPDEST ADDRESS CALLER EQ PUSH2 0x10CD JUMPI PUSH1 0x40 MLOAD PUSH3 0x461BCD PUSH1 0xE5 SHL DUP2 MSTORE PUSH1 0x4 ADD PUSH2 0x3E1 SWAP1 PUSH2 0x1BA6 JUMP JUMPDEST PUSH1 0x1 PUSH1 0x1 PUSH1 0xA0 SHL SUB DUP4 AND ISZERO PUSH2 0x11FF JUMPI PUSH1 0x1 PUSH1 0x1 PUSH1 0xA0 SHL SUB DUP4 AND PUSH1 0x0 SWAP1 DUP2 MSTORE PUSH1 0x7 PUSH1 0x20 MSTORE PUSH1 0x40 DUP2 KECCAK256 SLOAD SWAP1 SUB PUSH2 0x11FF JUMPI PUSH1 0x2 PUSH1 0x0 DUP2 SLOAD PUSH2 0x110A SWAP1 PUSH2 0x1C60 JUMP JUMPDEST SWAP1 SWAP2 SSTORE POP PUSH1 0x2 DUP1 SLOAD PUSH1 0x0 SWAP1 DUP2 MSTORE PUSH1 0x6 PUSH1 0x20 SWAP1 DUP2 MSTORE PUSH1 0x40 DUP1 DUP4 KECCAK256 DUP1 SLOAD PUSH1 0x1 PUSH1 0x1 PUSH1 0xA0 SHL SUB NOT AND PUSH1 0x1 PUSH1 0x1 PUSH1 0xA0 SHL SUB DUP10 AND SWAP1 DUP2 OR SWAP1 SWAP2 SSTORE DUP2 MLOAD PUSH1 0xA0 DUP2 ADD DUP4 MSTORE SWAP5 SLOAD DUP6 MSTORE DUP5 DUP4 ADD SWAP4 SWAP1 SWAP4 MSTORE PUSH1 0x1 SLOAD DUP5 DUP3 ADD MSTORE PUSH1 0x60 DUP5 ADD SWAP3 SWAP1 SWAP3 MSTORE DUP2 MLOAD PUSH1 0x1F DUP6 ADD DUP3 SWAP1 DIV DUP3 MUL DUP2 ADD DUP3 ADD SWAP1 SWAP3 MSTORE DUP4 DUP3 MSTORE PUSH1 0x80 DUP4 ADD SWAP2 SWAP1 DUP6 SWAP1 DUP6 SWAP1 DUP2 SWAP1 DUP5 ADD DUP4 DUP3 DUP1 DUP3 DUP5 CALLDATACOPY PUSH1 0x0 SWAP3 ADD DUP3 SWAP1 MSTORE POP SWAP4 SWAP1 SWAP5 MSTORE POP POP PUSH1 0x1 PUSH1 0x1 PUSH1 0xA0 SHL SUB DUP7 DUP2 AND DUP3 MSTORE PUSH1 0x7 PUSH1 0x20 SWAP1 DUP2 MSTORE PUSH1 0x40 SWAP3 DUP4 SWAP1 KECCAK256 DUP6 MLOAD DUP2 SSTORE SWAP1 DUP6 ADD MLOAD PUSH1 0x1 DUP3 ADD SSTORE SWAP2 DUP5 ADD MLOAD PUSH1 0x2 DUP4 ADD SSTORE PUSH1 0x60 DUP5 ADD MLOAD PUSH1 0x3 DUP4 ADD DUP1 SLOAD PUSH1 0x1 PUSH1 0x1 PUSH1 0xA0 SHL SUB NOT AND SWAP2 SWAP1 SWAP3 AND OR SWAP1 SSTORE PUSH1 0x80 DUP4 ADD MLOAD SWAP1 SWAP2 POP PUSH1 0x4 DUP3 ADD SWAP1 PUSH2 0x11FB SWAP1 DUP3 PUSH2 0x1DBA JUMP JUMPDEST POP POP POP JUMPDEST POP POP POP JUMP JUMPDEST ADDRESS CALLER EQ PUSH2 0x1223 JUMPI PUSH1 0x40 MLOAD PUSH3 0x461BCD PUSH1 0xE5 SHL DUP2 MSTORE PUSH1 0x4 ADD PUSH2 0x3E1 SWAP1 PUSH2 0x1BA6 JUMP JUMPDEST PUSH3 0x3F480 DUP2 LT ISZERO DUP1 ISZERO PUSH2 0x1239 JUMPI POP PUSH3 0x127500 DUP2 GT ISZERO JUMPDEST ISZERO PUSH2 0x1244 JUMPI PUSH1 0x3 DUP2 SWAP1 SSTORE JUMPDEST POP JUMP JUMPDEST PUSH1 0x60 PUSH1 0x0 DUP3 PUSH8 0xFFFFFFFFFFFFFFFF DUP2 GT ISZERO PUSH2 0x1264 JUMPI PUSH2 0x1264 PUSH2 0x1C34 JUMP JUMPDEST PUSH1 0x40 MLOAD SWAP1 DUP1 DUP3 MSTORE DUP1 PUSH1 0x20 MUL PUSH1 0x20 ADD DUP3 ADD PUSH1 0x40 MSTORE DUP1 ISZERO PUSH2 0x129D JUMPI DUP2 PUSH1 0x20 ADD JUMPDEST PUSH2 0x128A PUSH2 0x160A JUMP JUMPDEST DUP2 MSTORE PUSH1 0x20 ADD SWAP1 PUSH1 0x1 SWAP1 SUB SWAP1 DUP2 PUSH2 0x1282 JUMPI SWAP1 POP JUMPDEST POP SWAP1 POP PUSH1 0x0 JUMPDEST DUP4 DUP2 LT ISZERO PUSH2 0x756 JUMPI PUSH2 0x12DF PUSH1 0x6 PUSH1 0x0 DUP8 PUSH2 0x12BC DUP2 PUSH2 0x1C60 JUMP JUMPDEST SWAP1 DUP3 MSTORE PUSH1 0x20 DUP3 ADD SWAP3 SWAP1 SWAP3 MSTORE PUSH1 0x40 ADD PUSH1 0x0 KECCAK256 SLOAD SWAP1 SWAP7 POP PUSH1 0x1 PUSH1 0x1 PUSH1 0xA0 SHL SUB AND PUSH2 0xA7A JUMP JUMPDEST DUP3 DUP3 DUP2 MLOAD DUP2 LT PUSH2 0x12F1 JUMPI PUSH2 0x12F1 PUSH2 0x1C4A JUMP JUMPDEST PUSH1 0x20 MUL PUSH1 0x20 ADD ADD DUP2 SWAP1 MSTORE POP DUP1 DUP1 PUSH2 0x1307 SWAP1 PUSH2 0x1C60 JUMP JUMPDEST SWAP2 POP POP PUSH2 0x12A3 JUMP JUMPDEST ADDRESS CALLER EQ PUSH2 0x132E JUMPI PUSH1 0x40 MLOAD PUSH3 0x461BCD PUSH1 0xE5 SHL DUP2 MSTORE PUSH1 0x4 ADD PUSH2 0x3E1 SWAP1 PUSH2 0x1BA6 JUMP JUMPDEST PUSH1 0x4 SWAP2 SWAP1 SWAP2 SSTORE PUSH1 0x5 SSTORE JUMP JUMPDEST PUSH1 0x0 DUP2 DUP2 MSTORE PUSH1 0x8 PUSH1 0x20 MSTORE PUSH1 0x40 SWAP1 KECCAK256 PUSH1 0x4 ADD SLOAD PUSH1 0x1 PUSH1 0xA0 SHL SWAP1 DIV PUSH1 0xFF AND PUSH1 0x2 EQ PUSH2 0x13A0 JUMPI PUSH1 0x40 MLOAD PUSH3 0x461BCD PUSH1 0xE5 SHL DUP2 MSTORE PUSH1 0x20 PUSH1 0x4 DUP3 ADD MSTORE PUSH1 0x19 PUSH1 0x24 DUP3 ADD MSTORE PUSH25 0x1C1C9BDC1BDCD85B081A5CC81B9BDD0818DBDB5C1B195D1959 PUSH1 0x3A SHL PUSH1 0x44 DUP3 ADD MSTORE PUSH1 0x64 ADD PUSH2 0x3E1 JUMP JUMPDEST PUSH1 0x0 DUP2 DUP2 MSTORE PUSH1 0x8 PUSH1 0x20 MSTORE PUSH1 0x40 SWAP1 KECCAK256 PUSH1 0x4 DUP2 ADD DUP1 SLOAD PUSH1 0xFF PUSH1 0xA0 SHL NOT AND PUSH1 0x3 PUSH1 0xA0 SHL OR SWAP1 SSTORE PUSH1 0x7 DUP2 ADD SLOAD PUSH1 0x6 SWAP1 SWAP2 ADD SLOAD GT ISZERO PUSH2 0x148B JUMPI PUSH1 0x0 DUP2 DUP2 MSTORE PUSH1 0x8 PUSH1 0x20 DUP2 SWAP1 MSTORE PUSH1 0x40 SWAP1 SWAP2 KECCAK256 SWAP1 DUP2 ADD SLOAD PUSH1 0x9 SWAP1 SWAP2 ADD DUP1 SLOAD PUSH2 0x148B SWAP3 PUSH1 0x1 PUSH1 0x1 PUSH1 0xA0 SHL SUB AND SWAP2 SWAP1 PUSH2 0x1408 SWAP1 PUSH2 0x1C79 JUMP JUMPDEST DUP1 PUSH1 0x1F ADD PUSH1 0x20 DUP1 SWAP2 DIV MUL PUSH1 0x20 ADD PUSH1 0x40 MLOAD SWAP1 DUP2 ADD PUSH1 0x40 MSTORE DUP1 SWAP3 SWAP2 SWAP1 DUP2 DUP2 MSTORE PUSH1 0x20 ADD DUP3 DUP1 SLOAD PUSH2 0x1434 SWAP1 PUSH2 0x1C79 JUMP JUMPDEST DUP1 ISZERO PUSH2 0x1481 JUMPI DUP1 PUSH1 0x1F LT PUSH2 0x1456 JUMPI PUSH2 0x100 DUP1 DUP4 SLOAD DIV MUL DUP4 MSTORE SWAP2 PUSH1 0x20 ADD SWAP2 PUSH2 0x1481 JUMP JUMPDEST DUP3 ADD SWAP2 SWAP1 PUSH1 0x0 MSTORE PUSH1 0x20 PUSH1 0x0 KECCAK256 SWAP1 JUMPDEST DUP2 SLOAD DUP2 MSTORE SWAP1 PUSH1 0x1 ADD SWAP1 PUSH1 0x20 ADD DUP1 DUP4 GT PUSH2 0x1464 JUMPI DUP3 SWAP1 SUB PUSH1 0x1F AND DUP3 ADD SWAP2 JUMPDEST POP POP POP POP POP PUSH2 0x14C4 JUMP JUMPDEST PUSH1 0x40 MLOAD PUSH1 0x3 DUP2 MSTORE DUP2 SWAP1 PUSH32 0x199C49764C24C272AB05711F746EA69945084E537B524515F05902C3C9A7E9E8 SWAP1 PUSH1 0x20 ADD PUSH1 0x40 MLOAD DUP1 SWAP2 SUB SWAP1 LOG2 POP JUMP JUMPDEST PUSH1 0x0 DUP3 PUSH1 0x1 PUSH1 0x1 PUSH1 0xA0 SHL SUB AND DUP3 PUSH1 0x40 MLOAD PUSH2 0x14DE SWAP2 SWAP1 PUSH2 0x1E7A JUMP JUMPDEST PUSH1 0x0 PUSH1 0x40 MLOAD DUP1 DUP4 SUB DUP2 PUSH1 0x0 DUP7 GAS CALL SWAP2 POP POP RETURNDATASIZE DUP1 PUSH1 0x0 DUP2 EQ PUSH2 0x151B JUMPI PUSH1 0x40 MLOAD SWAP2 POP PUSH1 0x1F NOT PUSH1 0x3F RETURNDATASIZE ADD AND DUP3 ADD PUSH1 0x40 MSTORE RETURNDATASIZE DUP3 MSTORE RETURNDATASIZE PUSH1 0x0 PUSH1 0x20 DUP5 ADD RETURNDATACOPY PUSH2 0x1520 JUMP JUMPDEST PUSH1 0x60 SWAP2 POP JUMPDEST POP POP SWAP1 POP DUP1 PUSH2 0x11FF JUMPI PUSH1 0x40 MLOAD PUSH3 0x461BCD PUSH1 0xE5 SHL DUP2 MSTORE PUSH1 0x20 PUSH1 0x4 DUP3 ADD MSTORE PUSH1 0xD PUSH1 0x24 DUP3 ADD MSTORE PUSH13 0x22BC32B1BABA329032B93937B9 PUSH1 0x99 SHL PUSH1 0x44 DUP3 ADD MSTORE PUSH1 0x64 ADD PUSH2 0x3E1 JUMP JUMPDEST POP DUP1 SLOAD PUSH2 0x156D SWAP1 PUSH2 0x1C79 JUMP JUMPDEST PUSH1 0x0 DUP3 SSTORE DUP1 PUSH1 0x1F LT PUSH2 0x157D JUMPI POP POP JUMP JUMPDEST PUSH1 0x1F ADD PUSH1 0x20 SWAP1 DIV SWAP1 PUSH1 0x0 MSTORE PUSH1 0x20 PUSH1 0x0 KECCAK256 SWAP1 DUP2 ADD SWAP1 PUSH2 0x1244 SWAP2 SWAP1 PUSH2 0x1642 JUMP JUMPDEST PUSH1 0x40 MLOAD DUP1 PUSH2 0x160 ADD PUSH1 0x40 MSTORE DUP1 PUSH1 0x0 DUP2 MSTORE PUSH1 0x20 ADD PUSH1 0x0 DUP2 MSTORE PUSH1 0x20 ADD PUSH1 0x0 DUP2 MSTORE PUSH1 0x20 ADD PUSH1 0x0 DUP2 MSTORE PUSH1 0x20 ADD PUSH1 0x0 PUSH1 0x1 PUSH1 0x1 PUSH1 0xA0 SHL SUB AND DUP2 MSTORE PUSH1 0x20 ADD PUSH1 0x0 PUSH1 0xFF AND DUP2 MSTORE PUSH1 0x20 ADD PUSH1 0x60 DUP2 MSTORE PUSH1 0x20 ADD PUSH1 0x60 DUP2 MSTORE PUSH1 0x20 ADD PUSH1 0x60 DUP2 MSTORE PUSH1 0x20 ADD PUSH1 0x0 PUSH1 0x1 PUSH1 0x1 PUSH1 0xA0 SHL SUB AND DUP2 MSTORE PUSH1 0x20 ADD PUSH1 0x60 DUP2 MSTORE POP SWAP1 JUMP JUMPDEST PUSH1 0x40 MLOAD DUP1 PUSH1 0xA0 ADD PUSH1 0x40 MSTORE DUP1 PUSH1 0x0 DUP2 MSTORE PUSH1 0x20 ADD PUSH1 0x0 DUP2 MSTORE PUSH1 0x20 ADD PUSH1 0x0 DUP2 MSTORE PUSH1 0x20 ADD PUSH1 0x0 PUSH1 0x1 PUSH1 0x1 PUSH1 0xA0 SHL SUB AND DUP2 MSTORE PUSH1 0x20 ADD PUSH1 0x60 DUP2 MSTORE POP SWAP1 JUMP JUMPDEST JUMPDEST DUP1 DUP3 GT ISZERO PUSH2 0x1657 JUMPI PUSH1 0x0 DUP2 SSTORE PUSH1 0x1 ADD PUSH2 0x1643 JUMP JUMPDEST POP SWAP1 JUMP JUMPDEST DUP1 CALLDATALOAD PUSH1 0x1 PUSH1 0x1 PUSH1 0xA0 SHL SUB DUP2 AND DUP2 EQ PUSH2 0x1672 JUMPI PUSH1 0x0 DUP1 REVERT JUMPDEST SWAP2 SWAP1 POP JUMP JUMPDEST PUSH1 0x0 PUSH1 0x20 DUP3 DUP5 SUB SLT ISZERO PUSH2 0x1689 JUMPI PUSH1 0x0 DUP1 REVERT JUMPDEST PUSH2 0x1692 DUP3 PUSH2 0x165B JUMP JUMPDEST SWAP4 SWAP3 POP POP POP JUMP JUMPDEST PUSH1 0x0 DUP1 PUSH1 0x40 DUP4 DUP6 SUB SLT ISZERO PUSH2 0x16AC JUMPI PUSH1 0x0 DUP1 REVERT JUMPDEST DUP3 CALLDATALOAD SWAP2 POP PUSH2 0x16BC PUSH1 0x20 DUP5 ADD PUSH2 0x165B JUMP JUMPDEST SWAP1 POP SWAP3 POP SWAP3 SWAP1 POP JUMP JUMPDEST PUSH1 0x0 PUSH1 0x20 DUP3 DUP5 SUB SLT ISZERO PUSH2 0x16D7 JUMPI PUSH1 0x0 DUP1 REVERT JUMPDEST POP CALLDATALOAD SWAP2 SWAP1 POP JUMP JUMPDEST PUSH1 0x0 DUP1 PUSH1 0x40 DUP4 DUP6 SUB SLT ISZERO PUSH2 0x16F1 JUMPI PUSH1 0x0 DUP1 REVERT JUMPDEST POP POP DUP1 CALLDATALOAD SWAP3 PUSH1 0x20 SWAP1 SWAP2 ADD CALLDATALOAD SWAP2 POP JUMP JUMPDEST PUSH1 0x0 JUMPDEST DUP4 DUP2 LT ISZERO PUSH2 0x171B JUMPI DUP2 DUP2 ADD MLOAD DUP4 DUP3 ADD MSTORE PUSH1 0x20 ADD PUSH2 0x1703 JUMP JUMPDEST POP POP PUSH1 0x0 SWAP2 ADD MSTORE JUMP JUMPDEST PUSH1 0x0 DUP2 MLOAD DUP1 DUP5 MSTORE PUSH2 0x173C DUP2 PUSH1 0x20 DUP7 ADD PUSH1 0x20 DUP7 ADD PUSH2 0x1700 JUMP JUMPDEST PUSH1 0x1F ADD PUSH1 0x1F NOT AND SWAP3 SWAP1 SWAP3 ADD PUSH1 0x20 ADD SWAP3 SWAP2 POP POP JUMP JUMPDEST PUSH1 0x0 DUP2 MLOAD DUP1 DUP5 MSTORE PUSH1 0x20 DUP1 DUP6 ADD SWAP5 POP DUP1 DUP5 ADD PUSH1 0x0 JUMPDEST DUP4 DUP2 LT ISZERO PUSH2 0x1789 JUMPI DUP2 MLOAD PUSH1 0x1 PUSH1 0x1 PUSH1 0xA0 SHL SUB AND DUP8 MSTORE SWAP6 DUP3 ADD SWAP6 SWAP1 DUP3 ADD SWAP1 PUSH1 0x1 ADD PUSH2 0x1764 JUMP JUMPDEST POP SWAP5 SWAP6 SWAP5 POP POP POP POP POP JUMP JUMPDEST PUSH1 0x0 PUSH2 0x160 DUP3 MLOAD DUP5 MSTORE PUSH1 0x20 DUP4 ADD MLOAD PUSH1 0x20 DUP6 ADD MSTORE PUSH1 0x40 DUP4 ADD MLOAD PUSH1 0x40 DUP6 ADD MSTORE PUSH1 0x60 DUP4 ADD MLOAD PUSH1 0x60 DUP6 ADD MSTORE PUSH1 0x80 DUP4 ADD MLOAD PUSH2 0x17D5 PUSH1 0x80 DUP7 ADD DUP3 PUSH1 0x1 PUSH1 0x1 PUSH1 0xA0 SHL SUB AND SWAP1 MSTORE JUMP JUMPDEST POP PUSH1 0xA0 DUP4 ADD MLOAD PUSH2 0x17EA PUSH1 0xA0 DUP7 ADD DUP3 PUSH1 0xFF AND SWAP1 MSTORE JUMP JUMPDEST POP PUSH1 0xC0 DUP4 ADD MLOAD DUP2 PUSH1 0xC0 DUP7 ADD MSTORE PUSH2 0x1802 DUP3 DUP7 ADD DUP3 PUSH2 0x1724 JUMP JUMPDEST SWAP2 POP POP PUSH1 0xE0 DUP4 ADD MLOAD DUP5 DUP3 SUB PUSH1 0xE0 DUP7 ADD MSTORE PUSH2 0x181C DUP3 DUP3 PUSH2 0x1750 JUMP JUMPDEST SWAP2 POP POP PUSH2 0x100 DUP1 DUP5 ADD MLOAD DUP6 DUP4 SUB DUP3 DUP8 ADD MSTORE PUSH2 0x1837 DUP4 DUP3 PUSH2 0x1750 JUMP JUMPDEST SWAP3 POP POP POP PUSH2 0x120 DUP1 DUP5 ADD MLOAD PUSH2 0x1856 DUP3 DUP8 ADD DUP3 PUSH1 0x1 PUSH1 0x1 PUSH1 0xA0 SHL SUB AND SWAP1 MSTORE JUMP JUMPDEST POP POP PUSH2 0x140 DUP1 DUP5 ADD MLOAD DUP6 DUP4 SUB DUP3 DUP8 ADD MSTORE PUSH2 0x1870 DUP4 DUP3 PUSH2 0x1724 JUMP JUMPDEST SWAP7 SWAP6 POP POP POP POP POP POP JUMP JUMPDEST PUSH1 0x0 PUSH1 0x20 DUP1 DUP4 ADD DUP2 DUP5 MSTORE DUP1 DUP6 MLOAD DUP1 DUP4 MSTORE PUSH1 0x40 DUP7 ADD SWAP2 POP PUSH1 0x40 DUP2 PUSH1 0x5 SHL DUP8 ADD ADD SWAP3 POP DUP4 DUP8 ADD PUSH1 0x0 JUMPDEST DUP3 DUP2 LT ISZERO PUSH2 0x18CF JUMPI PUSH1 0x3F NOT DUP9 DUP7 SUB ADD DUP5 MSTORE PUSH2 0x18BD DUP6 DUP4 MLOAD PUSH2 0x1794 JUMP JUMPDEST SWAP5 POP SWAP3 DUP6 ADD SWAP3 SWAP1 DUP6 ADD SWAP1 PUSH1 0x1 ADD PUSH2 0x18A1 JUMP JUMPDEST POP SWAP3 SWAP8 SWAP7 POP POP POP POP POP POP POP JUMP JUMPDEST PUSH1 0x0 DUP1 PUSH1 0x0 PUSH1 0x60 DUP5 DUP7 SUB SLT ISZERO PUSH2 0x18F1 JUMPI PUSH1 0x0 DUP1 REVERT JUMPDEST PUSH2 0x18FA DUP5 PUSH2 0x165B JUMP JUMPDEST SWAP6 PUSH1 0x20 DUP6 ADD CALLDATALOAD SWAP6 POP PUSH1 0x40 SWAP1 SWAP5 ADD CALLDATALOAD SWAP4 SWAP3 POP POP POP JUMP JUMPDEST PUSH1 0x40 DUP1 DUP3 MSTORE DUP4 MLOAD SWAP1 DUP3 ADD DUP2 SWAP1 MSTORE PUSH1 0x0 SWAP1 PUSH1 0x20 SWAP1 PUSH1 0x60 DUP5 ADD SWAP1 DUP3 DUP8 ADD DUP5 JUMPDEST DUP3 DUP2 LT ISZERO PUSH2 0x1948 JUMPI DUP2 MLOAD DUP5 MSTORE SWAP3 DUP5 ADD SWAP3 SWAP1 DUP5 ADD SWAP1 PUSH1 0x1 ADD PUSH2 0x192C JUMP JUMPDEST POP POP POP DUP4 DUP2 SUB DUP3 DUP6 ADD MSTORE DUP5 MLOAD DUP1 DUP3 MSTORE DUP6 DUP4 ADD SWAP2 DUP4 ADD SWAP1 PUSH1 0x0 JUMPDEST DUP2 DUP2 LT ISZERO PUSH2 0x197F JUMPI DUP4 MLOAD ISZERO ISZERO DUP4 MSTORE SWAP3 DUP5 ADD SWAP3 SWAP2 DUP5 ADD SWAP2 PUSH1 0x1 ADD PUSH2 0x1961 JUMP JUMPDEST POP SWAP1 SWAP8 SWAP7 POP POP POP POP POP POP POP JUMP JUMPDEST PUSH1 0x0 DUP1 DUP4 PUSH1 0x1F DUP5 ADD SLT PUSH2 0x199E JUMPI PUSH1 0x0 DUP1 REVERT JUMPDEST POP DUP2 CALLDATALOAD PUSH8 0xFFFFFFFFFFFFFFFF DUP2 GT ISZERO PUSH2 0x19B6 JUMPI PUSH1 0x0 DUP1 REVERT JUMPDEST PUSH1 0x20 DUP4 ADD SWAP2 POP DUP4 PUSH1 0x20 DUP3 DUP6 ADD ADD GT ISZERO PUSH2 0x19CE JUMPI PUSH1 0x0 DUP1 REVERT JUMPDEST SWAP3 POP SWAP3 SWAP1 POP JUMP JUMPDEST PUSH1 0x0 DUP1 PUSH1 0x0 DUP1 PUSH1 0x0 PUSH1 0x60 DUP7 DUP9 SUB SLT ISZERO PUSH2 0x19ED JUMPI PUSH1 0x0 DUP1 REVERT JUMPDEST PUSH2 0x19F6 DUP7 PUSH2 0x165B JUMP JUMPDEST SWAP5 POP PUSH1 0x20 DUP7 ADD CALLDATALOAD PUSH8 0xFFFFFFFFFFFFFFFF DUP1 DUP3 GT ISZERO PUSH2 0x1A13 JUMPI PUSH1 0x0 DUP1 REVERT JUMPDEST PUSH2 0x1A1F DUP10 DUP4 DUP11 ADD PUSH2 0x198C JUMP JUMPDEST SWAP1 SWAP7 POP SWAP5 POP PUSH1 0x40 DUP9 ADD CALLDATALOAD SWAP2 POP DUP1 DUP3 GT ISZERO PUSH2 0x1A38 JUMPI PUSH1 0x0 DUP1 REVERT JUMPDEST POP PUSH2 0x1A45 DUP9 DUP3 DUP10 ADD PUSH2 0x198C JUMP JUMPDEST SWAP7 SWAP10 SWAP6 SWAP9 POP SWAP4 SWAP7 POP SWAP3 SWAP5 SWAP4 SWAP3 POP POP POP JUMP JUMPDEST DUP1 MLOAD DUP3 MSTORE PUSH1 0x20 DUP2 ADD MLOAD PUSH1 0x20 DUP4 ADD MSTORE PUSH1 0x40 DUP2 ADD MLOAD PUSH1 0x40 DUP4 ADD MSTORE PUSH1 0x1 DUP1 PUSH1 0xA0 SHL SUB PUSH1 0x60 DUP3 ADD MLOAD AND PUSH1 0x60 DUP4 ADD MSTORE PUSH1 0x0 PUSH1 0x80 DUP3 ADD MLOAD PUSH1 0xA0 PUSH1 0x80 DUP6 ADD MSTORE PUSH2 0x1A9B PUSH1 0xA0 DUP6 ADD DUP3 PUSH2 0x1724 JUMP JUMPDEST SWAP5 SWAP4 POP POP POP POP JUMP JUMPDEST PUSH1 0x20 DUP2 MSTORE PUSH1 0x0 PUSH2 0x1692 PUSH1 0x20 DUP4 ADD DUP5 PUSH2 0x1A56 JUMP JUMPDEST PUSH1 0x20 DUP2 MSTORE PUSH1 0x0 PUSH2 0x1692 PUSH1 0x20 DUP4 ADD DUP5 PUSH2 0x1794 JUMP JUMPDEST PUSH1 0x0 DUP1 PUSH1 0x40 DUP4 DUP6 SUB SLT ISZERO PUSH2 0x1ADC JUMPI PUSH1 0x0 DUP1 REVERT JUMPDEST DUP3 CALLDATALOAD SWAP2 POP PUSH1 0x20 DUP4 ADD CALLDATALOAD DUP1 ISZERO ISZERO DUP2 EQ PUSH2 0x1AF3 JUMPI PUSH1 0x0 DUP1 REVERT JUMPDEST DUP1 SWAP2 POP POP SWAP3 POP SWAP3 SWAP1 POP JUMP JUMPDEST PUSH1 0x0 DUP1 PUSH1 0x0 PUSH1 0x40 DUP5 DUP7 SUB SLT ISZERO PUSH2 0x1B13 JUMPI PUSH1 0x0 DUP1 REVERT JUMPDEST PUSH2 0x1B1C DUP5 PUSH2 0x165B JUMP JUMPDEST SWAP3 POP PUSH1 0x20 DUP5 ADD CALLDATALOAD PUSH8 0xFFFFFFFFFFFFFFFF DUP2 GT ISZERO PUSH2 0x1B38 JUMPI PUSH1 0x0 DUP1 REVERT JUMPDEST PUSH2 0x1B44 DUP7 DUP3 DUP8 ADD PUSH2 0x198C JUMP JUMPDEST SWAP5 SWAP8 SWAP1 SWAP7 POP SWAP4 SWAP5 POP POP POP POP JUMP JUMPDEST PUSH1 0x0 PUSH1 0x20 DUP1 DUP4 ADD DUP2 DUP5 MSTORE DUP1 DUP6 MLOAD DUP1 DUP4 MSTORE PUSH1 0x40 DUP7 ADD SWAP2 POP PUSH1 0x40 DUP2 PUSH1 0x5 SHL DUP8 ADD ADD SWAP3 POP DUP4 DUP8 ADD PUSH1 0x0 JUMPDEST DUP3 DUP2 LT ISZERO PUSH2 0x18CF JUMPI PUSH1 0x3F NOT DUP9 DUP7 SUB ADD DUP5 MSTORE PUSH2 0x1B94 DUP6 DUP4 MLOAD PUSH2 0x1A56 JUMP JUMPDEST SWAP5 POP SWAP3 DUP6 ADD SWAP3 SWAP1 DUP6 ADD SWAP1 PUSH1 0x1 ADD PUSH2 0x1B78 JUMP JUMPDEST PUSH1 0x20 DUP1 DUP3 MSTORE PUSH1 0x12 SWAP1 DUP3 ADD MSTORE PUSH18 0x4F6E6C7920476F7665726E616E636544414F PUSH1 0x70 SHL PUSH1 0x40 DUP3 ADD MSTORE PUSH1 0x60 ADD SWAP1 JUMP JUMPDEST PUSH4 0x4E487B71 PUSH1 0xE0 SHL PUSH1 0x0 MSTORE PUSH1 0x11 PUSH1 0x4 MSTORE PUSH1 0x24 PUSH1 0x0 REVERT JUMPDEST PUSH1 0x0 DUP2 PUSH2 0x1BF7 JUMPI PUSH2 0x1BF7 PUSH2 0x1BD2 JUMP JUMPDEST POP PUSH1 0x0 NOT ADD SWAP1 JUMP JUMPDEST DUP1 DUP3 ADD DUP1 DUP3 GT ISZERO PUSH2 0x4F8 JUMPI PUSH2 0x4F8 PUSH2 0x1BD2 JUMP JUMPDEST PUSH1 0x0 DUP3 PUSH2 0x1C2F JUMPI PUSH4 0x4E487B71 PUSH1 0xE0 SHL PUSH1 0x0 MSTORE PUSH1 0x12 PUSH1 0x4 MSTORE PUSH1 0x24 PUSH1 0x0 REVERT JUMPDEST POP DIV SWAP1 JUMP JUMPDEST PUSH4 0x4E487B71 PUSH1 0xE0 SHL PUSH1 0x0 MSTORE PUSH1 0x41 PUSH1 0x4 MSTORE PUSH1 0x24 PUSH1 0x0 REVERT JUMPDEST PUSH4 0x4E487B71 PUSH1 0xE0 SHL PUSH1 0x0 MSTORE PUSH1 0x32 PUSH1 0x4 MSTORE PUSH1 0x24 PUSH1 0x0 REVERT JUMPDEST PUSH1 0x0 PUSH1 0x1 DUP3 ADD PUSH2 0x1C72 JUMPI PUSH2 0x1C72 PUSH2 0x1BD2 JUMP JUMPDEST POP PUSH1 0x1 ADD SWAP1 JUMP JUMPDEST PUSH1 0x1 DUP2 DUP2 SHR SWAP1 DUP3 AND DUP1 PUSH2 0x1C8D JUMPI PUSH1 0x7F DUP3 AND SWAP2 POP JUMPDEST PUSH1 0x20 DUP3 LT DUP2 SUB PUSH2 0x1CAD JUMPI PUSH4 0x4E487B71 PUSH1 0xE0 SHL PUSH1 0x0 MSTORE PUSH1 0x22 PUSH1 0x4 MSTORE PUSH1 0x24 PUSH1 0x0 REVERT JUMPDEST POP SWAP2 SWAP1 POP JUMP JUMPDEST PUSH1 0x1F DUP3 GT ISZERO PUSH2 0x11FF JUMPI PUSH1 0x0 DUP2 DUP2 MSTORE PUSH1 0x20 DUP2 KECCAK256 PUSH1 0x1F DUP6 ADD PUSH1 0x5 SHR DUP2 ADD PUSH1 0x20 DUP7 LT ISZERO PUSH2 0x1CDA JUMPI POP DUP1 JUMPDEST PUSH1 0x1F DUP6 ADD PUSH1 0x5 SHR DUP3 ADD SWAP2 POP JUMPDEST DUP2 DUP2 LT ISZERO PUSH2 0x11FB JUMPI DUP3 DUP2 SSTORE PUSH1 0x1 ADD PUSH2 0x1CE6 JUMP JUMPDEST PUSH8 0xFFFFFFFFFFFFFFFF DUP4 GT ISZERO PUSH2 0x1D11 JUMPI PUSH2 0x1D11 PUSH2 0x1C34 JUMP JUMPDEST PUSH2 0x1D25 DUP4 PUSH2 0x1D1F DUP4 SLOAD PUSH2 0x1C79 JUMP JUMPDEST DUP4 PUSH2 0x1CB3 JUMP JUMPDEST PUSH1 0x0 PUSH1 0x1F DUP5 GT PUSH1 0x1 DUP2 EQ PUSH2 0x1D59 JUMPI PUSH1 0x0 DUP6 ISZERO PUSH2 0x1D41 JUMPI POP DUP4 DUP3 ADD CALLDATALOAD JUMPDEST PUSH1 0x0 NOT PUSH1 0x3 DUP8 SWAP1 SHL SHR NOT AND PUSH1 0x1 DUP7 SWAP1 SHL OR DUP4 SSTORE PUSH2 0x1DB3 JUMP JUMPDEST PUSH1 0x0 DUP4 DUP2 MSTORE PUSH1 0x20 SWAP1 KECCAK256 PUSH1 0x1F NOT DUP7 AND SWAP1 DUP4 JUMPDEST DUP3 DUP2 LT ISZERO PUSH2 0x1D8A JUMPI DUP7 DUP6 ADD CALLDATALOAD DUP3 SSTORE PUSH1 0x20 SWAP5 DUP6 ADD SWAP5 PUSH1 0x1 SWAP1 SWAP3 ADD SWAP2 ADD PUSH2 0x1D6A JUMP JUMPDEST POP DUP7 DUP3 LT ISZERO PUSH2 0x1DA7 JUMPI PUSH1 0x0 NOT PUSH1 0xF8 DUP9 PUSH1 0x3 SHL AND SHR NOT DUP5 DUP8 ADD CALLDATALOAD AND DUP2 SSTORE JUMPDEST POP POP PUSH1 0x1 DUP6 PUSH1 0x1 SHL ADD DUP4 SSTORE JUMPDEST POP POP POP POP POP JUMP JUMPDEST DUP2 MLOAD PUSH8 0xFFFFFFFFFFFFFFFF DUP2 GT ISZERO PUSH2 0x1DD4 JUMPI PUSH2 0x1DD4 PUSH2 0x1C34 JUMP JUMPDEST PUSH2 0x1DE8 DUP2 PUSH2 0x1DE2 DUP5 SLOAD PUSH2 0x1C79 JUMP JUMPDEST DUP5 PUSH2 0x1CB3 JUMP JUMPDEST PUSH1 0x20 DUP1 PUSH1 0x1F DUP4 GT PUSH1 0x1 DUP2 EQ PUSH2 0x1E1D JUMPI PUSH1 0x0 DUP5 ISZERO PUSH2 0x1E05 JUMPI POP DUP6 DUP4 ADD MLOAD JUMPDEST PUSH1 0x0 NOT PUSH1 0x3 DUP7 SWAP1 SHL SHR NOT AND PUSH1 0x1 DUP6 SWAP1 SHL OR DUP6 SSTORE PUSH2 0x11FB JUMP JUMPDEST PUSH1 0x0 DUP6 DUP2 MSTORE PUSH1 0x20 DUP2 KECCAK256 PUSH1 0x1F NOT DUP7 AND SWAP2 JUMPDEST DUP3 DUP2 LT ISZERO PUSH2 0x1E4C JUMPI DUP9 DUP7 ADD MLOAD DUP3 SSTORE SWAP5 DUP5 ADD SWAP5 PUSH1 0x1 SWAP1 SWAP2 ADD SWAP1 DUP5 ADD PUSH2 0x1E2D JUMP JUMPDEST POP DUP6 DUP3 LT ISZERO PUSH2 0x1E6A JUMPI DUP8 DUP6 ADD MLOAD PUSH1 0x0 NOT PUSH1 0x3 DUP9 SWAP1 SHL PUSH1 0xF8 AND SHR NOT AND DUP2 SSTORE JUMPDEST POP POP POP POP POP PUSH1 0x1 SWAP1 DUP2 SHL ADD SWAP1 SSTORE POP JUMP JUMPDEST PUSH1 0x0 DUP3 MLOAD PUSH2 0x1E8C DUP2 DUP5 PUSH1 0x20 DUP8 ADD PUSH2 0x1700 JUMP JUMPDEST SWAP2 SWAP1 SWAP2 ADD SWAP3 SWAP2 POP POP JUMP INVALID LOG2 PUSH5 0x6970667358 0x22 SLT KECCAK256 PUSH2 0xDA15 SWAP3 SWAP6 0x2F 0x22 PUSH15 0xB547A4D253EE5D28D6B8FE79409044 0xE4 TIMESTAMP POP MOD CALLVALUE 0xD3 0x2A 0x2C BASEFEE PUSH5 0x736F6C6343 STOP ADDMOD GT STOP CALLER "},"methodIdentifiers":{"addUserInDAO(address,string)":"ce83ad96","checkClaim(uint256,address)":"31218954","claim(uint256)":"379607f5","createProposal(address,bytes,string)":"64bd0cb2","delUserInDAO(address)":"01081fc3","execute(uint256)":"fe0d94c1","expire_period()":"10a4a2dc","getClaimList(address,uint256,uint256)":"4dee3534","getProposal(uint256)":"c7f758a8","getProposalsList(uint256,uint256)":"396e75cc","getUser(address)":"6f77926b","getUsersList(uint256,uint256)":"eb72d0c8","min_payment_DAO()":"5d003332","min_payment_other()":"b0290914","setExpirePeriod(uint256)":"d7a52fa9","setMinPayments(uint256,uint256)":"ef81bf1b","total_close_voting()":"23ddd071","total_user()":"40912990","total_voting()":"be8e4d19","vote(uint256,bool)":"c9d27afe"}}}}}