{"contracts/WalletDAO.sol":{"WalletDAO":{"abi":[{"anonymous":false,"inputs":[{"indexed":true,"internalType":"address","name":"_sender","type":"address"},{"indexed":true,"internalType":"address","name":"_recipient","type":"address"},{"indexed":false,"internalType":"uint256","name":"_value","type":"uint256"}],"name":"TransferCLO","type":"event"},{"inputs":[],"name":"ColdStaking","outputs":[{"internalType":"address","name":"","type":"address"}],"stateMutability":"view","type":"function"},{"inputs":[],"name":"DAO","outputs":[{"internalType":"address","name":"","type":"address"}],"stateMutability":"view","type":"function"},{"inputs":[],"name":"TwoBearsBalances","outputs":[{"internalType":"address","name":"","type":"address"}],"stateMutability":"view","type":"function"},{"inputs":[],"name":"TwoBearsBots","outputs":[{"internalType":"address","name":"","type":"address"}],"stateMutability":"view","type":"function"},{"inputs":[],"name":"WCLO","outputs":[{"internalType":"address","name":"","type":"address"}],"stateMutability":"view","type":"function"},{"inputs":[],"name":"coldStaking_Claim","outputs":[],"stateMutability":"nonpayable","type":"function"},{"inputs":[{"internalType":"uint256","name":"_value","type":"uint256"},{"internalType":"uint256","name":"_rounds","type":"uint256"}],"name":"coldStaking_Start","outputs":[],"stateMutability":"nonpayable","type":"function"},{"inputs":[],"name":"coldStaking_Withdraw","outputs":[],"stateMutability":"nonpayable","type":"function"},{"inputs":[{"internalType":"address","name":"_from","type":"address"},{"internalType":"uint256","name":"_value","type":"uint256"},{"internalType":"bytes","name":"_data","type":"bytes"}],"name":"tokenReceived","outputs":[{"internalType":"bytes4","name":"","type":"bytes4"}],"stateMutability":"nonpayable","type":"function"},{"inputs":[{"internalType":"address","name":"_token","type":"address"},{"internalType":"bool","name":"_permission","type":"bool"}],"name":"twoBears_Approve","outputs":[],"stateMutability":"nonpayable","type":"function"},{"inputs":[{"internalType":"address","name":"_token_in","type":"address"},{"internalType":"address","name":"_token_out","type":"address"},{"internalType":"uint256","name":"_value_sell","type":"uint256"},{"internalType":"uint256","name":"_value_buy","type":"uint256"},{"internalType":"uint256","name":"_price","type":"uint256"},{"internalType":"uint256","name":"_price_step","type":"uint256"},{"internalType":"uint256","name":"_price_up_limit","type":"uint256"},{"internalType":"uint256","name":"_price_down_limit","type":"uint256"}],"name":"twoBears_BotNetTrade","outputs":[],"stateMutability":"nonpayable","type":"function"},{"inputs":[{"internalType":"address","name":"_token_in","type":"address"},{"internalType":"address","name":"_token_out","type":"address"},{"internalType":"uint256","name":"_value","type":"uint256"},{"internalType":"uint256","name":"_value_inc","type":"uint256"},{"internalType":"uint256","name":"_price","type":"uint256"},{"internalType":"uint256","name":"_price_step","type":"uint256"},{"internalType":"uint256","name":"_price_limit","type":"uint256"}],"name":"twoBears_BotSellBuy","outputs":[],"stateMutability":"nonpayable","type":"function"},{"inputs":[{"internalType":"uint256","name":"_id_bot","type":"uint256"}],"name":"twoBears_DeleteBot","outputs":[],"stateMutability":"nonpayable","type":"function"},{"inputs":[{"internalType":"uint256","name":"_id_bot","type":"uint256"}],"name":"twoBears_RestoreBot","outputs":[],"stateMutability":"nonpayable","type":"function"},{"inputs":[],"name":"twoBears_ViewListBots","outputs":[{"internalType":"uint256[]","name":"","type":"uint256[]"}],"stateMutability":"view","type":"function"},{"inputs":[{"internalType":"address","name":"_token","type":"address"}],"name":"walletDAO_AddTokenTracking","outputs":[],"stateMutability":"nonpayable","type":"function"},{"inputs":[{"internalType":"address","name":"_token","type":"address"}],"name":"walletDAO_DelTokenTracking","outputs":[],"stateMutability":"nonpayable","type":"function"},{"inputs":[{"internalType":"address","name":"_recipient","type":"address"},{"internalType":"uint256","name":"_value","type":"uint256"}],"name":"walletDAO_TransferCLO","outputs":[],"stateMutability":"nonpayable","type":"function"},{"inputs":[{"internalType":"address","name":"_token","type":"address"},{"internalType":"address","name":"_recipient","type":"address"},{"internalType":"uint256","name":"_value","type":"uint256"}],"name":"walletDAO_TransferToken","outputs":[],"stateMutability":"nonpayable","type":"function"},{"inputs":[{"internalType":"uint256","name":"_value","type":"uint256"}],"name":"walletDAO_UnwrapWCLO","outputs":[],"stateMutability":"nonpayable","type":"function"},{"inputs":[],"name":"walletDAO_ViewBalances","outputs":[{"components":[{"internalType":"uint256","name":"balance","type":"uint256"},{"internalType":"uint8","name":"decimal","type":"uint8"},{"internalType":"address","name":"token","type":"address"},{"internalType":"string","name":"symbol","type":"string"}],"internalType":"struct WalletDAO.TokenData[]","name":"","type":"tuple[]"}],"stateMutability":"view","type":"function"},{"inputs":[{"internalType":"uint256","name":"_value","type":"uint256"}],"name":"walletDAO_WrapCLO","outputs":[],"stateMutability":"nonpayable","type":"function"},{"stateMutability":"payable","type":"receive"}],"evm":{"bytecode":{"linkReferences":{},"object":"608060405234801561001057600080fd5b506118fc806100206000396000f3fe6080604052600436106101395760003560e01c80636e3adf8d116100ab57806398fabd3a1161006f57806398fabd3a14610391578063b53a7052146103b3578063be66ca92146103d3578063e1375801146103f3578063f800490314610413578063ff5cf4b11461043357600080fd5b80636e3adf8d146102c957806379cce4f5146102f15780638726968d1461031957806387a7c32a1461032e5780638943ec021461034e57600080fd5b8063232fc349116100fd578063232fc349146101f457806329581b3e146102095780632e5a318d1461022957806344b6d9c41461024957806365fac6dc146102695780636d85e6091461028957600080fd5b806307ac32d81461014557806311a92416146101675780631558c67c1461018757806320357b8c146101b257806322c380e4146101d457600080fd5b3661014057005b600080fd5b34801561015157600080fd5b50610165610160366004611319565b61045b565b005b34801561017357600080fd5b5061016561018236600461134e565b6104fc565b34801561019357600080fd5b5061019c6105a3565b6040516101a9919061138a565b60405180910390f35b3480156101be57600080fd5b506101c76105fb565b6040516101a991906113f2565b3480156101e057600080fd5b506101656101ef366004611319565b6108ad565b34801561020057600080fd5b50610165610943565b34801561021557600080fd5b50610165610224366004611319565b6109d3565b34801561023557600080fd5b506101656102443660046114a3565b610a71565b34801561025557600080fd5b5061016561026436600461150a565b610c09565b34801561027557600080fd5b50610165610284366004611534565b610cb1565b34801561029557600080fd5b506102b173820b5c3835b731ddeb1155ac0b37009e37524a5381565b6040516001600160a01b0390911681526020016101a9565b3480156102d557600080fd5b506102b173c113ed199ef9380e3f93b0a6e25fa86b7298fb1681565b3480156102fd57600080fd5b506102b173f5ad6f6edec824c7fd54a66d241a227f6503ad3a81565b34801561032557600080fd5b50610165610e38565b34801561033a57600080fd5b50610165610349366004611592565b610eb4565b34801561035a57600080fd5b50610378610369366004611623565b6344a1f60160e11b9392505050565b6040516001600160e01b031990911681526020016101a9565b34801561039d57600080fd5b506102b16000805160206118a783398151915281565b3480156103bf57600080fd5b506101656103ce366004611319565b610feb565b3480156103df57600080fd5b506101656103ee366004611592565b611050565b3480156103ff57600080fd5b5061016561040e3660046116cb565b611139565b34801561041f57600080fd5b5061016561042e366004611702565b6111c7565b34801561043f57600080fd5b506102b17308a7c8be47773546dc5e173d67b0c38afffa4b8481565b336000805160206118a7833981519152146104915760405162461bcd60e51b815260040161048890611724565b60405180910390fd5b73f5ad6f6edec824c7fd54a66d241a227f6503ad3a6001600160a01b031663d0e30db0826040518263ffffffff1660e01b81526004016000604051808303818588803b1580156104e057600080fd5b505af11580156104f4573d6000803e3d6000fd5b505050505050565b336000805160206118a7833981519152146105295760405162461bcd60e51b815260040161048890611724565b60405163a9059cbb60e01b81526001600160a01b0383811660048301526024820183905284169063a9059cbb906044015b6020604051808303816000875af1158015610579573d6000803e3d6000fd5b505050506040513d601f19601f8201168201806040525081019061059d919061174f565b50505050565b606060008054806020026020016040519081016040528092919081815260200182805480156105f157602002820191906000526020600020905b8154815260200190600101908083116105dd575b5050505050905090565b6001805460609160009161060e91611782565b67ffffffffffffffff811115610626576106266115b4565b60405190808252806020026020018201604052801561067757816020015b60408051608081018252600080825260208083018290529282015260608082015282526000199092019101816106445790505b5090506040518060800160405280478152602001601260ff16815260200160006001600160a01b0316815260200160405180604001604052806003815260200162434c4f60e81b815250815250816000815181106106d7576106d761179b565b602002602001018190525060005b6001548110156108a7576000600182815481106107045761070461179b565b6000918252602090912001546040805160808101918290526370a0823160e01b9091523060848201526001600160a01b03909116915080826370a0823160a48301602060405180830381865afa158015610762573d6000803e3d6000fd5b505050506040513d601f19601f8201168201806040525081019061078691906117b1565b8152602001826001600160a01b031663313ce5676040518163ffffffff1660e01b8152600401602060405180830381865afa1580156107c9573d6000803e3d6000fd5b505050506040513d601f19601f820116820180604052508101906107ed91906117ca565b60ff168152602001826001600160a01b03168152602001826001600160a01b03166395d89b416040518163ffffffff1660e01b8152600401600060405180830381865afa158015610842573d6000803e3d6000fd5b505050506040513d6000823e601f3d908101601f1916820160405261086a91908101906117ed565b905283610878846001611782565b815181106108885761088861179b565b602002602001018190525050808061089f90611864565b9150506106e5565b50919050565b336000805160206118a7833981519152146108da5760405162461bcd60e51b815260040161048890611724565b604051632e1a7d4d60e01b81526004810182905273f5ad6f6edec824c7fd54a66d241a227f6503ad3a90632e1a7d4d906024015b600060405180830381600087803b15801561092857600080fd5b505af115801561093c573d6000803e3d6000fd5b5050505050565b336000805160206118a7833981519152146109705760405162461bcd60e51b815260040161048890611724565b7308a7c8be47773546dc5e173d67b0c38afffa4b846001600160a01b031663cd9488556040518163ffffffff1660e01b8152600401600060405180830381600087803b1580156109bf57600080fd5b505af115801561059d573d6000803e3d6000fd5b336000805160206118a783398151915214610a005760405162461bcd60e51b815260040161048890611724565b60405163c78f936f60e01b81526004810182905273c113ed199ef9380e3f93b0a6e25fa86b7298fb169063c78f936f90602401600060405180830381600087803b158015610a4d57600080fd5b505af1158015610a61573d6000803e3d6000fd5b50505050610a6e8161125f565b50565b336000805160206118a783398151915214610a9e5760405162461bcd60e51b815260040161048890611724565b604051630185f08b60e51b81526001600160a01b03808a1660048301528816602482015260448101879052606481018690526084810185905260a4810184905260c4810183905260e481018290526000610104820181905261012482015273c113ed199ef9380e3f93b0a6e25fa86b7298fb16906330be11609061014401600060405180830381600087803b158015610b3657600080fd5b505af1158015610b4a573d6000803e3d6000fd5b50505050600073c113ed199ef9380e3f93b0a6e25fa86b7298fb166001600160a01b031663af640d0f6040518163ffffffff1660e01b8152600401602060405180830381865afa158015610ba2573d6000803e3d6000fd5b505050506040513d601f19601f82011682018060405250810190610bc691906117b1565b9050610bfe81600080546001810182559080527f290decd9548b62a8d60345a988386fc84ba6bc95484008f6362f93160ef3e5630155565b505050505050505050565b336000805160206118a783398151915214610c365760405162461bcd60e51b815260040161048890611724565b6040516001600160a01b0383169082156108fc029083906000818181858888f19350505050158015610c6c573d6000803e3d6000fd5b506040518181526001600160a01b0383169030907f4ddebed7447a12da95902559eac51ea2594f93265e70f2d11da210e33abdafcd9060200160405180910390a35050565b336000805160206118a783398151915214610cde5760405162461bcd60e51b815260040161048890611724565b604051632fd96ca960e01b81526001600160a01b0380891660048301528716602482015260448101869052606481018590526084810184905260a4810183905260c48101829052600060e482015273c113ed199ef9380e3f93b0a6e25fa86b7298fb1690632fd96ca99061010401600060405180830381600087803b158015610d6657600080fd5b505af1158015610d7a573d6000803e3d6000fd5b50505050600073c113ed199ef9380e3f93b0a6e25fa86b7298fb166001600160a01b031663af640d0f6040518163ffffffff1660e01b8152600401602060405180830381865afa158015610dd2573d6000803e3d6000fd5b505050506040513d601f19601f82011682018060405250810190610df691906117b1565b9050610e2e81600080546001810182559080527f290decd9548b62a8d60345a988386fc84ba6bc95484008f6362f93160ef3e5630155565b5050505050505050565b336000805160206118a783398151915214610e655760405162461bcd60e51b815260040161048890611724565b7308a7c8be47773546dc5e173d67b0c38afffa4b846001600160a01b0316634e71d92d6040518163ffffffff1660e01b8152600401600060405180830381600087803b1580156109bf57600080fd5b336000805160206118a783398151915214610ee15760405162461bcd60e51b815260040161048890611724565b60005b600154811015610fe757816001600160a01b031660018281548110610f0b57610f0b61179b565b6000918252602090912001546001600160a01b031603610fd55760018054610f3490829061187d565b81548110610f4457610f4461179b565b600091825260209091200154600180546001600160a01b039092169183908110610f7057610f7061179b565b9060005260206000200160006101000a8154816001600160a01b0302191690836001600160a01b031602179055506001805480610faf57610faf611890565b600082815260209020810160001990810180546001600160a01b03191690550190555050565b80610fdf81611864565b915050610ee4565b5050565b336000805160206118a7833981519152146110185760405162461bcd60e51b815260040161048890611724565b60405163038e346960e61b81526004810182905273c113ed199ef9380e3f93b0a6e25fa86b7298fb169063e38d1a409060240161090e565b336000805160206118a78339815191521461107d5760405162461bcd60e51b815260040161048890611724565b6000816001600160a01b031663313ce5676040518163ffffffff1660e01b8152600401602060405180830381865afa1580156110bd573d6000803e3d6000fd5b505050506040513d601f19601f820116820180604052508101906110e191906117ca565b60ff161115610a6e576001805480820182556000919091527fb10e2d527612073b26eecdfd717e6a320cf44b4afac2b0732d9fcbe2b7fa0cf60180546001600160a01b0383166001600160a01b031990911617905550565b336000805160206118a7833981519152146111665760405162461bcd60e51b815260040161048890611724565b600060018215151461117957600061117d565b6000195b60405163095ea7b360e01b815273820b5c3835b731ddeb1155ac0b37009e37524a536004820152602481018290529091506001600160a01b0384169063095ea7b39060440161055a565b336000805160206118a7833981519152146111f45760405162461bcd60e51b815260040161048890611724565b604051635d8c85ef60e01b8152600481018290527308a7c8be47773546dc5e173d67b0c38afffa4b8490635d8c85ef9084906024016000604051808303818588803b15801561124257600080fd5b505af1158015611256573d6000803e3d6000fd5b50505050505050565b60005b600054811015610fe75781600082815481106112805761128061179b565b90600052602060002001540361130757600080546112a09060019061187d565b815481106112b0576112b061179b565b9060005260206000200154600082815481106112ce576112ce61179b565b906000526020600020018190555060008054806112ed576112ed611890565b600190038181906000526020600020016000905590555050565b8061131181611864565b915050611262565b60006020828403121561132b57600080fd5b5035919050565b80356001600160a01b038116811461134957600080fd5b919050565b60008060006060848603121561136357600080fd5b61136c84611332565b925061137a60208501611332565b9150604084013590509250925092565b6020808252825182820181905260009190848201906040850190845b818110156113c2578351835292840192918401916001016113a6565b50909695505050505050565b60005b838110156113e95781810151838201526020016113d1565b50506000910152565b60006020808301818452808551808352604092508286019150828160051b87010184880160005b8381101561149557888303603f190185528151805184528781015160ff1688850152868101516001600160a01b031687850152606090810151608091850182905280519185018290529060a09061147581838801858d016113ce565b96890196601f01601f191694909401909301925090860190600101611419565b509098975050505050505050565b600080600080600080600080610100898b0312156114c057600080fd5b6114c989611332565b97506114d760208a01611332565b979a9799505050506040860135956060810135956080820135955060a0820135945060c0820135935060e0909101359150565b6000806040838503121561151d57600080fd5b61152683611332565b946020939093013593505050565b600080600080600080600060e0888a03121561154f57600080fd5b61155888611332565b965061156660208901611332565b96999698505050506040850135946060810135946080820135945060a0820135935060c0909101359150565b6000602082840312156115a457600080fd5b6115ad82611332565b9392505050565b634e487b7160e01b600052604160045260246000fd5b604051601f8201601f1916810167ffffffffffffffff811182821017156115f3576115f36115b4565b604052919050565b600067ffffffffffffffff821115611615576116156115b4565b50601f01601f191660200190565b60008060006060848603121561163857600080fd5b61164184611332565b925060208401359150604084013567ffffffffffffffff81111561166457600080fd5b8401601f8101861361167557600080fd5b8035611688611683826115fb565b6115ca565b81815287602083850101111561169d57600080fd5b816020840160208301376000602083830101528093505050509250925092565b8015158114610a6e57600080fd5b600080604083850312156116de57600080fd5b6116e783611332565b915060208301356116f7816116bd565b809150509250929050565b6000806040838503121561171557600080fd5b50508035926020909101359150565b6020808252601190820152704f6e6c7920636f6e74726163742044414f60781b604082015260600190565b60006020828403121561176157600080fd5b81516115ad816116bd565b634e487b7160e01b600052601160045260246000fd5b808201808211156117955761179561176c565b92915050565b634e487b7160e01b600052603260045260246000fd5b6000602082840312156117c357600080fd5b5051919050565b6000602082840312156117dc57600080fd5b815160ff811681146115ad57600080fd5b6000602082840312156117ff57600080fd5b815167ffffffffffffffff81111561181657600080fd5b8201601f8101841361182757600080fd5b8051611835611683826115fb565b81815285602083850101111561184a57600080fd5b61185b8260208301602086016113ce565b95945050505050565b6000600182016118765761187661176c565b5060010190565b818103818111156117955761179561176c565b634e487b7160e01b600052603160045260246000fdfe000000000000000000000000810059e1406dedafd1bdca4e0137cba306c0ce36a264697066735822122091e177e220213f7ddb5ba0ee5ab1f38fdaeab5becb8f5aa2935934aaa93fb31e64736f6c63430008110033","opcodes":"PUSH1 0x80 PUSH1 0x40 MSTORE CALLVALUE DUP1 ISZERO PUSH2 0x10 JUMPI PUSH1 0x0 DUP1 REVERT JUMPDEST POP PUSH2 0x18FC DUP1 PUSH2 0x20 PUSH1 0x0 CODECOPY PUSH1 0x0 RETURN INVALID PUSH1 0x80 PUSH1 0x40 MSTORE PUSH1 0x4 CALLDATASIZE LT PUSH2 0x139 JUMPI PUSH1 0x0 CALLDATALOAD PUSH1 0xE0 SHR DUP1 PUSH4 0x6E3ADF8D GT PUSH2 0xAB JUMPI DUP1 PUSH4 0x98FABD3A GT PUSH2 0x6F JUMPI DUP1 PUSH4 0x98FABD3A EQ PUSH2 0x391 JUMPI DUP1 PUSH4 0xB53A7052 EQ PUSH2 0x3B3 JUMPI DUP1 PUSH4 0xBE66CA92 EQ PUSH2 0x3D3 JUMPI DUP1 PUSH4 0xE1375801 EQ PUSH2 0x3F3 JUMPI DUP1 PUSH4 0xF8004903 EQ PUSH2 0x413 JUMPI DUP1 PUSH4 0xFF5CF4B1 EQ PUSH2 0x433 JUMPI PUSH1 0x0 DUP1 REVERT JUMPDEST DUP1 PUSH4 0x6E3ADF8D EQ PUSH2 0x2C9 JUMPI DUP1 PUSH4 0x79CCE4F5 EQ PUSH2 0x2F1 JUMPI DUP1 PUSH4 0x8726968D EQ PUSH2 0x319 JUMPI DUP1 PUSH4 0x87A7C32A EQ PUSH2 0x32E JUMPI DUP1 PUSH4 0x8943EC02 EQ PUSH2 0x34E JUMPI PUSH1 0x0 DUP1 REVERT JUMPDEST DUP1 PUSH4 0x232FC349 GT PUSH2 0xFD JUMPI DUP1 PUSH4 0x232FC349 EQ PUSH2 0x1F4 JUMPI DUP1 PUSH4 0x29581B3E EQ PUSH2 0x209 JUMPI DUP1 PUSH4 0x2E5A318D EQ PUSH2 0x229 JUMPI DUP1 PUSH4 0x44B6D9C4 EQ PUSH2 0x249 JUMPI DUP1 PUSH4 0x65FAC6DC EQ PUSH2 0x269 JUMPI DUP1 PUSH4 0x6D85E609 EQ PUSH2 0x289 JUMPI PUSH1 0x0 DUP1 REVERT JUMPDEST DUP1 PUSH4 0x7AC32D8 EQ PUSH2 0x145 JUMPI DUP1 PUSH4 0x11A92416 EQ PUSH2 0x167 JUMPI DUP1 PUSH4 0x1558C67C EQ PUSH2 0x187 JUMPI DUP1 PUSH4 0x20357B8C EQ PUSH2 0x1B2 JUMPI DUP1 PUSH4 0x22C380E4 EQ PUSH2 0x1D4 JUMPI PUSH1 0x0 DUP1 REVERT JUMPDEST CALLDATASIZE PUSH2 0x140 JUMPI STOP JUMPDEST PUSH1 0x0 DUP1 REVERT JUMPDEST CALLVALUE DUP1 ISZERO PUSH2 0x151 JUMPI PUSH1 0x0 DUP1 REVERT JUMPDEST POP PUSH2 0x165 PUSH2 0x160 CALLDATASIZE PUSH1 0x4 PUSH2 0x1319 JUMP JUMPDEST PUSH2 0x45B JUMP JUMPDEST STOP JUMPDEST CALLVALUE DUP1 ISZERO PUSH2 0x173 JUMPI PUSH1 0x0 DUP1 REVERT JUMPDEST POP PUSH2 0x165 PUSH2 0x182 CALLDATASIZE PUSH1 0x4 PUSH2 0x134E JUMP JUMPDEST PUSH2 0x4FC JUMP JUMPDEST CALLVALUE DUP1 ISZERO PUSH2 0x193 JUMPI PUSH1 0x0 DUP1 REVERT JUMPDEST POP PUSH2 0x19C PUSH2 0x5A3 JUMP JUMPDEST PUSH1 0x40 MLOAD PUSH2 0x1A9 SWAP2 SWAP1 PUSH2 0x138A JUMP JUMPDEST PUSH1 0x40 MLOAD DUP1 SWAP2 SUB SWAP1 RETURN JUMPDEST CALLVALUE DUP1 ISZERO PUSH2 0x1BE JUMPI PUSH1 0x0 DUP1 REVERT JUMPDEST POP PUSH2 0x1C7 PUSH2 0x5FB JUMP JUMPDEST PUSH1 0x40 MLOAD PUSH2 0x1A9 SWAP2 SWAP1 PUSH2 0x13F2 JUMP JUMPDEST CALLVALUE DUP1 ISZERO PUSH2 0x1E0 JUMPI PUSH1 0x0 DUP1 REVERT JUMPDEST POP PUSH2 0x165 PUSH2 0x1EF CALLDATASIZE PUSH1 0x4 PUSH2 0x1319 JUMP JUMPDEST PUSH2 0x8AD JUMP JUMPDEST CALLVALUE DUP1 ISZERO PUSH2 0x200 JUMPI PUSH1 0x0 DUP1 REVERT JUMPDEST POP PUSH2 0x165 PUSH2 0x943 JUMP JUMPDEST CALLVALUE DUP1 ISZERO PUSH2 0x215 JUMPI PUSH1 0x0 DUP1 REVERT JUMPDEST POP PUSH2 0x165 PUSH2 0x224 CALLDATASIZE PUSH1 0x4 PUSH2 0x1319 JUMP JUMPDEST PUSH2 0x9D3 JUMP JUMPDEST CALLVALUE DUP1 ISZERO PUSH2 0x235 JUMPI PUSH1 0x0 DUP1 REVERT JUMPDEST POP PUSH2 0x165 PUSH2 0x244 CALLDATASIZE PUSH1 0x4 PUSH2 0x14A3 JUMP JUMPDEST PUSH2 0xA71 JUMP JUMPDEST CALLVALUE DUP1 ISZERO PUSH2 0x255 JUMPI PUSH1 0x0 DUP1 REVERT JUMPDEST POP PUSH2 0x165 PUSH2 0x264 CALLDATASIZE PUSH1 0x4 PUSH2 0x150A JUMP JUMPDEST PUSH2 0xC09 JUMP JUMPDEST CALLVALUE DUP1 ISZERO PUSH2 0x275 JUMPI PUSH1 0x0 DUP1 REVERT JUMPDEST POP PUSH2 0x165 PUSH2 0x284 CALLDATASIZE PUSH1 0x4 PUSH2 0x1534 JUMP JUMPDEST PUSH2 0xCB1 JUMP JUMPDEST CALLVALUE DUP1 ISZERO PUSH2 0x295 JUMPI PUSH1 0x0 DUP1 REVERT JUMPDEST POP PUSH2 0x2B1 PUSH20 0x820B5C3835B731DDEB1155AC0B37009E37524A53 DUP2 JUMP JUMPDEST PUSH1 0x40 MLOAD PUSH1 0x1 PUSH1 0x1 PUSH1 0xA0 SHL SUB SWAP1 SWAP2 AND DUP2 MSTORE PUSH1 0x20 ADD PUSH2 0x1A9 JUMP JUMPDEST CALLVALUE DUP1 ISZERO PUSH2 0x2D5 JUMPI PUSH1 0x0 DUP1 REVERT JUMPDEST POP PUSH2 0x2B1 PUSH20 0xC113ED199EF9380E3F93B0A6E25FA86B7298FB16 DUP2 JUMP JUMPDEST CALLVALUE DUP1 ISZERO PUSH2 0x2FD JUMPI PUSH1 0x0 DUP1 REVERT JUMPDEST POP PUSH2 0x2B1 PUSH20 0xF5AD6F6EDEC824C7FD54A66D241A227F6503AD3A DUP2 JUMP JUMPDEST CALLVALUE DUP1 ISZERO PUSH2 0x325 JUMPI PUSH1 0x0 DUP1 REVERT JUMPDEST POP PUSH2 0x165 PUSH2 0xE38 JUMP JUMPDEST CALLVALUE DUP1 ISZERO PUSH2 0x33A JUMPI PUSH1 0x0 DUP1 REVERT JUMPDEST POP PUSH2 0x165 PUSH2 0x349 CALLDATASIZE PUSH1 0x4 PUSH2 0x1592 JUMP JUMPDEST PUSH2 0xEB4 JUMP JUMPDEST CALLVALUE DUP1 ISZERO PUSH2 0x35A JUMPI PUSH1 0x0 DUP1 REVERT JUMPDEST POP PUSH2 0x378 PUSH2 0x369 CALLDATASIZE PUSH1 0x4 PUSH2 0x1623 JUMP JUMPDEST PUSH4 0x44A1F601 PUSH1 0xE1 SHL SWAP4 SWAP3 POP POP POP JUMP JUMPDEST PUSH1 0x40 MLOAD PUSH1 0x1 PUSH1 0x1 PUSH1 0xE0 SHL SUB NOT SWAP1 SWAP2 AND DUP2 MSTORE PUSH1 0x20 ADD PUSH2 0x1A9 JUMP JUMPDEST CALLVALUE DUP1 ISZERO PUSH2 0x39D JUMPI PUSH1 0x0 DUP1 REVERT JUMPDEST POP PUSH2 0x2B1 PUSH1 0x0 DUP1 MLOAD PUSH1 0x20 PUSH2 0x18A7 DUP4 CODECOPY DUP2 MLOAD SWAP2 MSTORE DUP2 JUMP JUMPDEST CALLVALUE DUP1 ISZERO PUSH2 0x3BF JUMPI PUSH1 0x0 DUP1 REVERT JUMPDEST POP PUSH2 0x165 PUSH2 0x3CE CALLDATASIZE PUSH1 0x4 PUSH2 0x1319 JUMP JUMPDEST PUSH2 0xFEB JUMP JUMPDEST CALLVALUE DUP1 ISZERO PUSH2 0x3DF JUMPI PUSH1 0x0 DUP1 REVERT JUMPDEST POP PUSH2 0x165 PUSH2 0x3EE CALLDATASIZE PUSH1 0x4 PUSH2 0x1592 JUMP JUMPDEST PUSH2 0x1050 JUMP JUMPDEST CALLVALUE DUP1 ISZERO PUSH2 0x3FF JUMPI PUSH1 0x0 DUP1 REVERT JUMPDEST POP PUSH2 0x165 PUSH2 0x40E CALLDATASIZE PUSH1 0x4 PUSH2 0x16CB JUMP JUMPDEST PUSH2 0x1139 JUMP JUMPDEST CALLVALUE DUP1 ISZERO PUSH2 0x41F JUMPI PUSH1 0x0 DUP1 REVERT JUMPDEST POP PUSH2 0x165 PUSH2 0x42E CALLDATASIZE PUSH1 0x4 PUSH2 0x1702 JUMP JUMPDEST PUSH2 0x11C7 JUMP JUMPDEST CALLVALUE DUP1 ISZERO PUSH2 0x43F JUMPI PUSH1 0x0 DUP1 REVERT JUMPDEST POP PUSH2 0x2B1 PUSH20 0x8A7C8BE47773546DC5E173D67B0C38AFFFA4B84 DUP2 JUMP JUMPDEST CALLER PUSH1 0x0 DUP1 MLOAD PUSH1 0x20 PUSH2 0x18A7 DUP4 CODECOPY DUP2 MLOAD SWAP2 MSTORE EQ PUSH2 0x491 JUMPI PUSH1 0x40 MLOAD PUSH3 0x461BCD PUSH1 0xE5 SHL DUP2 MSTORE PUSH1 0x4 ADD PUSH2 0x488 SWAP1 PUSH2 0x1724 JUMP JUMPDEST PUSH1 0x40 MLOAD DUP1 SWAP2 SUB SWAP1 REVERT JUMPDEST PUSH20 0xF5AD6F6EDEC824C7FD54A66D241A227F6503AD3A PUSH1 0x1 PUSH1 0x1 PUSH1 0xA0 SHL SUB AND PUSH4 0xD0E30DB0 DUP3 PUSH1 0x40 MLOAD DUP3 PUSH4 0xFFFFFFFF AND PUSH1 0xE0 SHL DUP2 MSTORE PUSH1 0x4 ADD PUSH1 0x0 PUSH1 0x40 MLOAD DUP1 DUP4 SUB DUP2 DUP6 DUP9 DUP1 EXTCODESIZE ISZERO DUP1 ISZERO PUSH2 0x4E0 JUMPI PUSH1 0x0 DUP1 REVERT JUMPDEST POP GAS CALL ISZERO DUP1 ISZERO PUSH2 0x4F4 JUMPI RETURNDATASIZE PUSH1 0x0 DUP1 RETURNDATACOPY RETURNDATASIZE PUSH1 0x0 REVERT JUMPDEST POP POP POP POP POP POP JUMP JUMPDEST CALLER PUSH1 0x0 DUP1 MLOAD PUSH1 0x20 PUSH2 0x18A7 DUP4 CODECOPY DUP2 MLOAD SWAP2 MSTORE EQ PUSH2 0x529 JUMPI PUSH1 0x40 MLOAD PUSH3 0x461BCD PUSH1 0xE5 SHL DUP2 MSTORE PUSH1 0x4 ADD PUSH2 0x488 SWAP1 PUSH2 0x1724 JUMP JUMPDEST PUSH1 0x40 MLOAD PUSH4 0xA9059CBB PUSH1 0xE0 SHL DUP2 MSTORE PUSH1 0x1 PUSH1 0x1 PUSH1 0xA0 SHL SUB DUP4 DUP2 AND PUSH1 0x4 DUP4 ADD MSTORE PUSH1 0x24 DUP3 ADD DUP4 SWAP1 MSTORE DUP5 AND SWAP1 PUSH4 0xA9059CBB SWAP1 PUSH1 0x44 ADD JUMPDEST PUSH1 0x20 PUSH1 0x40 MLOAD DUP1 DUP4 SUB DUP2 PUSH1 0x0 DUP8 GAS CALL ISZERO DUP1 ISZERO PUSH2 0x579 JUMPI RETURNDATASIZE PUSH1 0x0 DUP1 RETURNDATACOPY RETURNDATASIZE PUSH1 0x0 REVERT JUMPDEST POP POP POP POP PUSH1 0x40 MLOAD RETURNDATASIZE PUSH1 0x1F NOT PUSH1 0x1F DUP3 ADD AND DUP3 ADD DUP1 PUSH1 0x40 MSTORE POP DUP2 ADD SWAP1 PUSH2 0x59D SWAP2 SWAP1 PUSH2 0x174F JUMP JUMPDEST POP POP POP POP JUMP JUMPDEST PUSH1 0x60 PUSH1 0x0 DUP1 SLOAD DUP1 PUSH1 0x20 MUL PUSH1 0x20 ADD PUSH1 0x40 MLOAD SWAP1 DUP2 ADD PUSH1 0x40 MSTORE DUP1 SWAP3 SWAP2 SWAP1 DUP2 DUP2 MSTORE PUSH1 0x20 ADD DUP3 DUP1 SLOAD DUP1 ISZERO PUSH2 0x5F1 JUMPI PUSH1 0x20 MUL DUP3 ADD SWAP2 SWAP1 PUSH1 0x0 MSTORE PUSH1 0x20 PUSH1 0x0 KECCAK256 SWAP1 JUMPDEST DUP2 SLOAD DUP2 MSTORE PUSH1 0x20 ADD SWAP1 PUSH1 0x1 ADD SWAP1 DUP1 DUP4 GT PUSH2 0x5DD JUMPI JUMPDEST POP POP POP POP POP SWAP1 POP SWAP1 JUMP JUMPDEST PUSH1 0x1 DUP1 SLOAD PUSH1 0x60 SWAP2 PUSH1 0x0 SWAP2 PUSH2 0x60E SWAP2 PUSH2 0x1782 JUMP JUMPDEST PUSH8 0xFFFFFFFFFFFFFFFF DUP2 GT ISZERO PUSH2 0x626 JUMPI PUSH2 0x626 PUSH2 0x15B4 JUMP JUMPDEST PUSH1 0x40 MLOAD SWAP1 DUP1 DUP3 MSTORE DUP1 PUSH1 0x20 MUL PUSH1 0x20 ADD DUP3 ADD PUSH1 0x40 MSTORE DUP1 ISZERO PUSH2 0x677 JUMPI DUP2 PUSH1 0x20 ADD JUMPDEST PUSH1 0x40 DUP1 MLOAD PUSH1 0x80 DUP2 ADD DUP3 MSTORE PUSH1 0x0 DUP1 DUP3 MSTORE PUSH1 0x20 DUP1 DUP4 ADD DUP3 SWAP1 MSTORE SWAP3 DUP3 ADD MSTORE PUSH1 0x60 DUP1 DUP3 ADD MSTORE DUP3 MSTORE PUSH1 0x0 NOT SWAP1 SWAP3 ADD SWAP2 ADD DUP2 PUSH2 0x644 JUMPI SWAP1 POP JUMPDEST POP SWAP1 POP PUSH1 0x40 MLOAD DUP1 PUSH1 0x80 ADD PUSH1 0x40 MSTORE DUP1 SELFBALANCE DUP2 MSTORE PUSH1 0x20 ADD PUSH1 0x12 PUSH1 0xFF AND DUP2 MSTORE PUSH1 0x20 ADD PUSH1 0x0 PUSH1 0x1 PUSH1 0x1 PUSH1 0xA0 SHL SUB AND DUP2 MSTORE PUSH1 0x20 ADD PUSH1 0x40 MLOAD DUP1 PUSH1 0x40 ADD PUSH1 0x40 MSTORE DUP1 PUSH1 0x3 DUP2 MSTORE PUSH1 0x20 ADD PUSH3 0x434C4F PUSH1 0xE8 SHL DUP2 MSTORE POP DUP2 MSTORE POP DUP2 PUSH1 0x0 DUP2 MLOAD DUP2 LT PUSH2 0x6D7 JUMPI PUSH2 0x6D7 PUSH2 0x179B JUMP JUMPDEST PUSH1 0x20 MUL PUSH1 0x20 ADD ADD DUP2 SWAP1 MSTORE POP PUSH1 0x0 JUMPDEST PUSH1 0x1 SLOAD DUP2 LT ISZERO PUSH2 0x8A7 JUMPI PUSH1 0x0 PUSH1 0x1 DUP3 DUP2 SLOAD DUP2 LT PUSH2 0x704 JUMPI PUSH2 0x704 PUSH2 0x179B JUMP JUMPDEST PUSH1 0x0 SWAP2 DUP3 MSTORE PUSH1 0x20 SWAP1 SWAP2 KECCAK256 ADD SLOAD PUSH1 0x40 DUP1 MLOAD PUSH1 0x80 DUP2 ADD SWAP2 DUP3 SWAP1 MSTORE PUSH4 0x70A08231 PUSH1 0xE0 SHL SWAP1 SWAP2 MSTORE ADDRESS PUSH1 0x84 DUP3 ADD MSTORE PUSH1 0x1 PUSH1 0x1 PUSH1 0xA0 SHL SUB SWAP1 SWAP2 AND SWAP2 POP DUP1 DUP3 PUSH4 0x70A08231 PUSH1 0xA4 DUP4 ADD PUSH1 0x20 PUSH1 0x40 MLOAD DUP1 DUP4 SUB DUP2 DUP7 GAS STATICCALL ISZERO DUP1 ISZERO PUSH2 0x762 JUMPI RETURNDATASIZE PUSH1 0x0 DUP1 RETURNDATACOPY RETURNDATASIZE PUSH1 0x0 REVERT JUMPDEST POP POP POP POP PUSH1 0x40 MLOAD RETURNDATASIZE PUSH1 0x1F NOT PUSH1 0x1F DUP3 ADD AND DUP3 ADD DUP1 PUSH1 0x40 MSTORE POP DUP2 ADD SWAP1 PUSH2 0x786 SWAP2 SWAP1 PUSH2 0x17B1 JUMP JUMPDEST DUP2 MSTORE PUSH1 0x20 ADD DUP3 PUSH1 0x1 PUSH1 0x1 PUSH1 0xA0 SHL SUB AND PUSH4 0x313CE567 PUSH1 0x40 MLOAD DUP2 PUSH4 0xFFFFFFFF AND PUSH1 0xE0 SHL DUP2 MSTORE PUSH1 0x4 ADD PUSH1 0x20 PUSH1 0x40 MLOAD DUP1 DUP4 SUB DUP2 DUP7 GAS STATICCALL ISZERO DUP1 ISZERO PUSH2 0x7C9 JUMPI RETURNDATASIZE PUSH1 0x0 DUP1 RETURNDATACOPY RETURNDATASIZE PUSH1 0x0 REVERT JUMPDEST POP POP POP POP PUSH1 0x40 MLOAD RETURNDATASIZE PUSH1 0x1F NOT PUSH1 0x1F DUP3 ADD AND DUP3 ADD DUP1 PUSH1 0x40 MSTORE POP DUP2 ADD SWAP1 PUSH2 0x7ED SWAP2 SWAP1 PUSH2 0x17CA JUMP JUMPDEST PUSH1 0xFF AND DUP2 MSTORE PUSH1 0x20 ADD DUP3 PUSH1 0x1 PUSH1 0x1 PUSH1 0xA0 SHL SUB AND DUP2 MSTORE PUSH1 0x20 ADD DUP3 PUSH1 0x1 PUSH1 0x1 PUSH1 0xA0 SHL SUB AND PUSH4 0x95D89B41 PUSH1 0x40 MLOAD DUP2 PUSH4 0xFFFFFFFF AND PUSH1 0xE0 SHL DUP2 MSTORE PUSH1 0x4 ADD PUSH1 0x0 PUSH1 0x40 MLOAD DUP1 DUP4 SUB DUP2 DUP7 GAS STATICCALL ISZERO DUP1 ISZERO PUSH2 0x842 JUMPI RETURNDATASIZE PUSH1 0x0 DUP1 RETURNDATACOPY RETURNDATASIZE PUSH1 0x0 REVERT JUMPDEST POP POP POP POP PUSH1 0x40 MLOAD RETURNDATASIZE PUSH1 0x0 DUP3 RETURNDATACOPY PUSH1 0x1F RETURNDATASIZE SWAP1 DUP2 ADD PUSH1 0x1F NOT AND DUP3 ADD PUSH1 0x40 MSTORE PUSH2 0x86A SWAP2 SWAP1 DUP2 ADD SWAP1 PUSH2 0x17ED JUMP JUMPDEST SWAP1 MSTORE DUP4 PUSH2 0x878 DUP5 PUSH1 0x1 PUSH2 0x1782 JUMP JUMPDEST DUP2 MLOAD DUP2 LT PUSH2 0x888 JUMPI PUSH2 0x888 PUSH2 0x179B JUMP JUMPDEST PUSH1 0x20 MUL PUSH1 0x20 ADD ADD DUP2 SWAP1 MSTORE POP POP DUP1 DUP1 PUSH2 0x89F SWAP1 PUSH2 0x1864 JUMP JUMPDEST SWAP2 POP POP PUSH2 0x6E5 JUMP JUMPDEST POP SWAP2 SWAP1 POP JUMP JUMPDEST CALLER PUSH1 0x0 DUP1 MLOAD PUSH1 0x20 PUSH2 0x18A7 DUP4 CODECOPY DUP2 MLOAD SWAP2 MSTORE EQ PUSH2 0x8DA JUMPI PUSH1 0x40 MLOAD PUSH3 0x461BCD PUSH1 0xE5 SHL DUP2 MSTORE PUSH1 0x4 ADD PUSH2 0x488 SWAP1 PUSH2 0x1724 JUMP JUMPDEST PUSH1 0x40 MLOAD PUSH4 0x2E1A7D4D PUSH1 0xE0 SHL DUP2 MSTORE PUSH1 0x4 DUP2 ADD DUP3 SWAP1 MSTORE PUSH20 0xF5AD6F6EDEC824C7FD54A66D241A227F6503AD3A SWAP1 PUSH4 0x2E1A7D4D SWAP1 PUSH1 0x24 ADD JUMPDEST PUSH1 0x0 PUSH1 0x40 MLOAD DUP1 DUP4 SUB DUP2 PUSH1 0x0 DUP8 DUP1 EXTCODESIZE ISZERO DUP1 ISZERO PUSH2 0x928 JUMPI PUSH1 0x0 DUP1 REVERT JUMPDEST POP GAS CALL ISZERO DUP1 ISZERO PUSH2 0x93C JUMPI RETURNDATASIZE PUSH1 0x0 DUP1 RETURNDATACOPY RETURNDATASIZE PUSH1 0x0 REVERT JUMPDEST POP POP POP POP POP JUMP JUMPDEST CALLER PUSH1 0x0 DUP1 MLOAD PUSH1 0x20 PUSH2 0x18A7 DUP4 CODECOPY DUP2 MLOAD SWAP2 MSTORE EQ PUSH2 0x970 JUMPI PUSH1 0x40 MLOAD PUSH3 0x461BCD PUSH1 0xE5 SHL DUP2 MSTORE PUSH1 0x4 ADD PUSH2 0x488 SWAP1 PUSH2 0x1724 JUMP JUMPDEST PUSH20 0x8A7C8BE47773546DC5E173D67B0C38AFFFA4B84 PUSH1 0x1 PUSH1 0x1 PUSH1 0xA0 SHL SUB AND PUSH4 0xCD948855 PUSH1 0x40 MLOAD DUP2 PUSH4 0xFFFFFFFF AND PUSH1 0xE0 SHL DUP2 MSTORE PUSH1 0x4 ADD PUSH1 0x0 PUSH1 0x40 MLOAD DUP1 DUP4 SUB DUP2 PUSH1 0x0 DUP8 DUP1 EXTCODESIZE ISZERO DUP1 ISZERO PUSH2 0x9BF JUMPI PUSH1 0x0 DUP1 REVERT JUMPDEST POP GAS CALL ISZERO DUP1 ISZERO PUSH2 0x59D JUMPI RETURNDATASIZE PUSH1 0x0 DUP1 RETURNDATACOPY RETURNDATASIZE PUSH1 0x0 REVERT JUMPDEST CALLER PUSH1 0x0 DUP1 MLOAD PUSH1 0x20 PUSH2 0x18A7 DUP4 CODECOPY DUP2 MLOAD SWAP2 MSTORE EQ PUSH2 0xA00 JUMPI PUSH1 0x40 MLOAD PUSH3 0x461BCD PUSH1 0xE5 SHL DUP2 MSTORE PUSH1 0x4 ADD PUSH2 0x488 SWAP1 PUSH2 0x1724 JUMP JUMPDEST PUSH1 0x40 MLOAD PUSH4 0xC78F936F PUSH1 0xE0 SHL DUP2 MSTORE PUSH1 0x4 DUP2 ADD DUP3 SWAP1 MSTORE PUSH20 0xC113ED199EF9380E3F93B0A6E25FA86B7298FB16 SWAP1 PUSH4 0xC78F936F SWAP1 PUSH1 0x24 ADD PUSH1 0x0 PUSH1 0x40 MLOAD DUP1 DUP4 SUB DUP2 PUSH1 0x0 DUP8 DUP1 EXTCODESIZE ISZERO DUP1 ISZERO PUSH2 0xA4D JUMPI PUSH1 0x0 DUP1 REVERT JUMPDEST POP GAS CALL ISZERO DUP1 ISZERO PUSH2 0xA61 JUMPI RETURNDATASIZE PUSH1 0x0 DUP1 RETURNDATACOPY RETURNDATASIZE PUSH1 0x0 REVERT JUMPDEST POP POP POP POP PUSH2 0xA6E DUP2 PUSH2 0x125F JUMP JUMPDEST POP JUMP JUMPDEST CALLER PUSH1 0x0 DUP1 MLOAD PUSH1 0x20 PUSH2 0x18A7 DUP4 CODECOPY DUP2 MLOAD SWAP2 MSTORE EQ PUSH2 0xA9E JUMPI PUSH1 0x40 MLOAD PUSH3 0x461BCD PUSH1 0xE5 SHL DUP2 MSTORE PUSH1 0x4 ADD PUSH2 0x488 SWAP1 PUSH2 0x1724 JUMP JUMPDEST PUSH1 0x40 MLOAD PUSH4 0x185F08B PUSH1 0xE5 SHL DUP2 MSTORE PUSH1 0x1 PUSH1 0x1 PUSH1 0xA0 SHL SUB DUP1 DUP11 AND PUSH1 0x4 DUP4 ADD MSTORE DUP9 AND PUSH1 0x24 DUP3 ADD MSTORE PUSH1 0x44 DUP2 ADD DUP8 SWAP1 MSTORE PUSH1 0x64 DUP2 ADD DUP7 SWAP1 MSTORE PUSH1 0x84 DUP2 ADD DUP6 SWAP1 MSTORE PUSH1 0xA4 DUP2 ADD DUP5 SWAP1 MSTORE PUSH1 0xC4 DUP2 ADD DUP4 SWAP1 MSTORE PUSH1 0xE4 DUP2 ADD DUP3 SWAP1 MSTORE PUSH1 0x0 PUSH2 0x104 DUP3 ADD DUP2 SWAP1 MSTORE PUSH2 0x124 DUP3 ADD MSTORE PUSH20 0xC113ED199EF9380E3F93B0A6E25FA86B7298FB16 SWAP1 PUSH4 0x30BE1160 SWAP1 PUSH2 0x144 ADD PUSH1 0x0 PUSH1 0x40 MLOAD DUP1 DUP4 SUB DUP2 PUSH1 0x0 DUP8 DUP1 EXTCODESIZE ISZERO DUP1 ISZERO PUSH2 0xB36 JUMPI PUSH1 0x0 DUP1 REVERT JUMPDEST POP GAS CALL ISZERO DUP1 ISZERO PUSH2 0xB4A JUMPI RETURNDATASIZE PUSH1 0x0 DUP1 RETURNDATACOPY RETURNDATASIZE PUSH1 0x0 REVERT JUMPDEST POP POP POP POP PUSH1 0x0 PUSH20 0xC113ED199EF9380E3F93B0A6E25FA86B7298FB16 PUSH1 0x1 PUSH1 0x1 PUSH1 0xA0 SHL SUB AND PUSH4 0xAF640D0F PUSH1 0x40 MLOAD DUP2 PUSH4 0xFFFFFFFF AND PUSH1 0xE0 SHL DUP2 MSTORE PUSH1 0x4 ADD PUSH1 0x20 PUSH1 0x40 MLOAD DUP1 DUP4 SUB DUP2 DUP7 GAS STATICCALL ISZERO DUP1 ISZERO PUSH2 0xBA2 JUMPI RETURNDATASIZE PUSH1 0x0 DUP1 RETURNDATACOPY RETURNDATASIZE PUSH1 0x0 REVERT JUMPDEST POP POP POP POP PUSH1 0x40 MLOAD RETURNDATASIZE PUSH1 0x1F NOT PUSH1 0x1F DUP3 ADD AND DUP3 ADD DUP1 PUSH1 0x40 MSTORE POP DUP2 ADD SWAP1 PUSH2 0xBC6 SWAP2 SWAP1 PUSH2 0x17B1 JUMP JUMPDEST SWAP1 POP PUSH2 0xBFE DUP2 PUSH1 0x0 DUP1 SLOAD PUSH1 0x1 DUP2 ADD DUP3 SSTORE SWAP1 DUP1 MSTORE PUSH32 0x290DECD9548B62A8D60345A988386FC84BA6BC95484008F6362F93160EF3E563 ADD SSTORE JUMP JUMPDEST POP POP POP POP POP POP POP POP POP JUMP JUMPDEST CALLER PUSH1 0x0 DUP1 MLOAD PUSH1 0x20 PUSH2 0x18A7 DUP4 CODECOPY DUP2 MLOAD SWAP2 MSTORE EQ PUSH2 0xC36 JUMPI PUSH1 0x40 MLOAD PUSH3 0x461BCD PUSH1 0xE5 SHL DUP2 MSTORE PUSH1 0x4 ADD PUSH2 0x488 SWAP1 PUSH2 0x1724 JUMP JUMPDEST PUSH1 0x40 MLOAD PUSH1 0x1 PUSH1 0x1 PUSH1 0xA0 SHL SUB DUP4 AND SWAP1 DUP3 ISZERO PUSH2 0x8FC MUL SWAP1 DUP4 SWAP1 PUSH1 0x0 DUP2 DUP2 DUP2 DUP6 DUP9 DUP9 CALL SWAP4 POP POP POP POP ISZERO DUP1 ISZERO PUSH2 0xC6C JUMPI RETURNDATASIZE PUSH1 0x0 DUP1 RETURNDATACOPY RETURNDATASIZE PUSH1 0x0 REVERT JUMPDEST POP PUSH1 0x40 MLOAD DUP2 DUP2 MSTORE PUSH1 0x1 PUSH1 0x1 PUSH1 0xA0 SHL SUB DUP4 AND SWAP1 ADDRESS SWAP1 PUSH32 0x4DDEBED7447A12DA95902559EAC51EA2594F93265E70F2D11DA210E33ABDAFCD SWAP1 PUSH1 0x20 ADD PUSH1 0x40 MLOAD DUP1 SWAP2 SUB SWAP1 LOG3 POP POP JUMP JUMPDEST CALLER PUSH1 0x0 DUP1 MLOAD PUSH1 0x20 PUSH2 0x18A7 DUP4 CODECOPY DUP2 MLOAD SWAP2 MSTORE EQ PUSH2 0xCDE JUMPI PUSH1 0x40 MLOAD PUSH3 0x461BCD PUSH1 0xE5 SHL DUP2 MSTORE PUSH1 0x4 ADD PUSH2 0x488 SWAP1 PUSH2 0x1724 JUMP JUMPDEST PUSH1 0x40 MLOAD PUSH4 0x2FD96CA9 PUSH1 0xE0 SHL DUP2 MSTORE PUSH1 0x1 PUSH1 0x1 PUSH1 0xA0 SHL SUB DUP1 DUP10 AND PUSH1 0x4 DUP4 ADD MSTORE DUP8 AND PUSH1 0x24 DUP3 ADD MSTORE PUSH1 0x44 DUP2 ADD DUP7 SWAP1 MSTORE PUSH1 0x64 DUP2 ADD DUP6 SWAP1 MSTORE PUSH1 0x84 DUP2 ADD DUP5 SWAP1 MSTORE PUSH1 0xA4 DUP2 ADD DUP4 SWAP1 MSTORE PUSH1 0xC4 DUP2 ADD DUP3 SWAP1 MSTORE PUSH1 0x0 PUSH1 0xE4 DUP3 ADD MSTORE PUSH20 0xC113ED199EF9380E3F93B0A6E25FA86B7298FB16 SWAP1 PUSH4 0x2FD96CA9 SWAP1 PUSH2 0x104 ADD PUSH1 0x0 PUSH1 0x40 MLOAD DUP1 DUP4 SUB DUP2 PUSH1 0x0 DUP8 DUP1 EXTCODESIZE ISZERO DUP1 ISZERO PUSH2 0xD66 JUMPI PUSH1 0x0 DUP1 REVERT JUMPDEST POP GAS CALL ISZERO DUP1 ISZERO PUSH2 0xD7A JUMPI RETURNDATASIZE PUSH1 0x0 DUP1 RETURNDATACOPY RETURNDATASIZE PUSH1 0x0 REVERT JUMPDEST POP POP POP POP PUSH1 0x0 PUSH20 0xC113ED199EF9380E3F93B0A6E25FA86B7298FB16 PUSH1 0x1 PUSH1 0x1 PUSH1 0xA0 SHL SUB AND PUSH4 0xAF640D0F PUSH1 0x40 MLOAD DUP2 PUSH4 0xFFFFFFFF AND PUSH1 0xE0 SHL DUP2 MSTORE PUSH1 0x4 ADD PUSH1 0x20 PUSH1 0x40 MLOAD DUP1 DUP4 SUB DUP2 DUP7 GAS STATICCALL ISZERO DUP1 ISZERO PUSH2 0xDD2 JUMPI RETURNDATASIZE PUSH1 0x0 DUP1 RETURNDATACOPY RETURNDATASIZE PUSH1 0x0 REVERT JUMPDEST POP POP POP POP PUSH1 0x40 MLOAD RETURNDATASIZE PUSH1 0x1F NOT PUSH1 0x1F DUP3 ADD AND DUP3 ADD DUP1 PUSH1 0x40 MSTORE POP DUP2 ADD SWAP1 PUSH2 0xDF6 SWAP2 SWAP1 PUSH2 0x17B1 JUMP JUMPDEST SWAP1 POP PUSH2 0xE2E DUP2 PUSH1 0x0 DUP1 SLOAD PUSH1 0x1 DUP2 ADD DUP3 SSTORE SWAP1 DUP1 MSTORE PUSH32 0x290DECD9548B62A8D60345A988386FC84BA6BC95484008F6362F93160EF3E563 ADD SSTORE JUMP JUMPDEST POP POP POP POP POP POP POP POP JUMP JUMPDEST CALLER PUSH1 0x0 DUP1 MLOAD PUSH1 0x20 PUSH2 0x18A7 DUP4 CODECOPY DUP2 MLOAD SWAP2 MSTORE EQ PUSH2 0xE65 JUMPI PUSH1 0x40 MLOAD PUSH3 0x461BCD PUSH1 0xE5 SHL DUP2 MSTORE PUSH1 0x4 ADD PUSH2 0x488 SWAP1 PUSH2 0x1724 JUMP JUMPDEST PUSH20 0x8A7C8BE47773546DC5E173D67B0C38AFFFA4B84 PUSH1 0x1 PUSH1 0x1 PUSH1 0xA0 SHL SUB AND PUSH4 0x4E71D92D PUSH1 0x40 MLOAD DUP2 PUSH4 0xFFFFFFFF AND PUSH1 0xE0 SHL DUP2 MSTORE PUSH1 0x4 ADD PUSH1 0x0 PUSH1 0x40 MLOAD DUP1 DUP4 SUB DUP2 PUSH1 0x0 DUP8 DUP1 EXTCODESIZE ISZERO DUP1 ISZERO PUSH2 0x9BF JUMPI PUSH1 0x0 DUP1 REVERT JUMPDEST CALLER PUSH1 0x0 DUP1 MLOAD PUSH1 0x20 PUSH2 0x18A7 DUP4 CODECOPY DUP2 MLOAD SWAP2 MSTORE EQ PUSH2 0xEE1 JUMPI PUSH1 0x40 MLOAD PUSH3 0x461BCD PUSH1 0xE5 SHL DUP2 MSTORE PUSH1 0x4 ADD PUSH2 0x488 SWAP1 PUSH2 0x1724 JUMP JUMPDEST PUSH1 0x0 JUMPDEST PUSH1 0x1 SLOAD DUP2 LT ISZERO PUSH2 0xFE7 JUMPI DUP2 PUSH1 0x1 PUSH1 0x1 PUSH1 0xA0 SHL SUB AND PUSH1 0x1 DUP3 DUP2 SLOAD DUP2 LT PUSH2 0xF0B JUMPI PUSH2 0xF0B PUSH2 0x179B JUMP JUMPDEST PUSH1 0x0 SWAP2 DUP3 MSTORE PUSH1 0x20 SWAP1 SWAP2 KECCAK256 ADD SLOAD PUSH1 0x1 PUSH1 0x1 PUSH1 0xA0 SHL SUB AND SUB PUSH2 0xFD5 JUMPI PUSH1 0x1 DUP1 SLOAD PUSH2 0xF34 SWAP1 DUP3 SWAP1 PUSH2 0x187D JUMP JUMPDEST DUP2 SLOAD DUP2 LT PUSH2 0xF44 JUMPI PUSH2 0xF44 PUSH2 0x179B JUMP JUMPDEST PUSH1 0x0 SWAP2 DUP3 MSTORE PUSH1 0x20 SWAP1 SWAP2 KECCAK256 ADD SLOAD PUSH1 0x1 DUP1 SLOAD PUSH1 0x1 PUSH1 0x1 PUSH1 0xA0 SHL SUB SWAP1 SWAP3 AND SWAP2 DUP4 SWAP1 DUP2 LT PUSH2 0xF70 JUMPI PUSH2 0xF70 PUSH2 0x179B JUMP JUMPDEST SWAP1 PUSH1 0x0 MSTORE PUSH1 0x20 PUSH1 0x0 KECCAK256 ADD PUSH1 0x0 PUSH2 0x100 EXP DUP2 SLOAD DUP2 PUSH1 0x1 PUSH1 0x1 PUSH1 0xA0 SHL SUB MUL NOT AND SWAP1 DUP4 PUSH1 0x1 PUSH1 0x1 PUSH1 0xA0 SHL SUB AND MUL OR SWAP1 SSTORE POP PUSH1 0x1 DUP1 SLOAD DUP1 PUSH2 0xFAF JUMPI PUSH2 0xFAF PUSH2 0x1890 JUMP JUMPDEST PUSH1 0x0 DUP3 DUP2 MSTORE PUSH1 0x20 SWAP1 KECCAK256 DUP2 ADD PUSH1 0x0 NOT SWAP1 DUP2 ADD DUP1 SLOAD PUSH1 0x1 PUSH1 0x1 PUSH1 0xA0 SHL SUB NOT AND SWAP1 SSTORE ADD SWAP1 SSTORE POP POP JUMP JUMPDEST DUP1 PUSH2 0xFDF DUP2 PUSH2 0x1864 JUMP JUMPDEST SWAP2 POP POP PUSH2 0xEE4 JUMP JUMPDEST POP POP JUMP JUMPDEST CALLER PUSH1 0x0 DUP1 MLOAD PUSH1 0x20 PUSH2 0x18A7 DUP4 CODECOPY DUP2 MLOAD SWAP2 MSTORE EQ PUSH2 0x1018 JUMPI PUSH1 0x40 MLOAD PUSH3 0x461BCD PUSH1 0xE5 SHL DUP2 MSTORE PUSH1 0x4 ADD PUSH2 0x488 SWAP1 PUSH2 0x1724 JUMP JUMPDEST PUSH1 0x40 MLOAD PUSH4 0x38E3469 PUSH1 0xE6 SHL DUP2 MSTORE PUSH1 0x4 DUP2 ADD DUP3 SWAP1 MSTORE PUSH20 0xC113ED199EF9380E3F93B0A6E25FA86B7298FB16 SWAP1 PUSH4 0xE38D1A40 SWAP1 PUSH1 0x24 ADD PUSH2 0x90E JUMP JUMPDEST CALLER PUSH1 0x0 DUP1 MLOAD PUSH1 0x20 PUSH2 0x18A7 DUP4 CODECOPY DUP2 MLOAD SWAP2 MSTORE EQ PUSH2 0x107D JUMPI PUSH1 0x40 MLOAD PUSH3 0x461BCD PUSH1 0xE5 SHL DUP2 MSTORE PUSH1 0x4 ADD PUSH2 0x488 SWAP1 PUSH2 0x1724 JUMP JUMPDEST PUSH1 0x0 DUP2 PUSH1 0x1 PUSH1 0x1 PUSH1 0xA0 SHL SUB AND PUSH4 0x313CE567 PUSH1 0x40 MLOAD DUP2 PUSH4 0xFFFFFFFF AND PUSH1 0xE0 SHL DUP2 MSTORE PUSH1 0x4 ADD PUSH1 0x20 PUSH1 0x40 MLOAD DUP1 DUP4 SUB DUP2 DUP7 GAS STATICCALL ISZERO DUP1 ISZERO PUSH2 0x10BD JUMPI RETURNDATASIZE PUSH1 0x0 DUP1 RETURNDATACOPY RETURNDATASIZE PUSH1 0x0 REVERT JUMPDEST POP POP POP POP PUSH1 0x40 MLOAD RETURNDATASIZE PUSH1 0x1F NOT PUSH1 0x1F DUP3 ADD AND DUP3 ADD DUP1 PUSH1 0x40 MSTORE POP DUP2 ADD SWAP1 PUSH2 0x10E1 SWAP2 SWAP1 PUSH2 0x17CA JUMP JUMPDEST PUSH1 0xFF AND GT ISZERO PUSH2 0xA6E JUMPI PUSH1 0x1 DUP1 SLOAD DUP1 DUP3 ADD DUP3 SSTORE PUSH1 0x0 SWAP2 SWAP1 SWAP2 MSTORE PUSH32 0xB10E2D527612073B26EECDFD717E6A320CF44B4AFAC2B0732D9FCBE2B7FA0CF6 ADD DUP1 SLOAD PUSH1 0x1 PUSH1 0x1 PUSH1 0xA0 SHL SUB DUP4 AND PUSH1 0x1 PUSH1 0x1 PUSH1 0xA0 SHL SUB NOT SWAP1 SWAP2 AND OR SWAP1 SSTORE POP JUMP JUMPDEST CALLER PUSH1 0x0 DUP1 MLOAD PUSH1 0x20 PUSH2 0x18A7 DUP4 CODECOPY DUP2 MLOAD SWAP2 MSTORE EQ PUSH2 0x1166 JUMPI PUSH1 0x40 MLOAD PUSH3 0x461BCD PUSH1 0xE5 SHL DUP2 MSTORE PUSH1 0x4 ADD PUSH2 0x488 SWAP1 PUSH2 0x1724 JUMP JUMPDEST PUSH1 0x0 PUSH1 0x1 DUP3 ISZERO ISZERO EQ PUSH2 0x1179 JUMPI PUSH1 0x0 PUSH2 0x117D JUMP JUMPDEST PUSH1 0x0 NOT JUMPDEST PUSH1 0x40 MLOAD PUSH4 0x95EA7B3 PUSH1 0xE0 SHL DUP2 MSTORE PUSH20 0x820B5C3835B731DDEB1155AC0B37009E37524A53 PUSH1 0x4 DUP3 ADD MSTORE PUSH1 0x24 DUP2 ADD DUP3 SWAP1 MSTORE SWAP1 SWAP2 POP PUSH1 0x1 PUSH1 0x1 PUSH1 0xA0 SHL SUB DUP5 AND SWAP1 PUSH4 0x95EA7B3 SWAP1 PUSH1 0x44 ADD PUSH2 0x55A JUMP JUMPDEST CALLER PUSH1 0x0 DUP1 MLOAD PUSH1 0x20 PUSH2 0x18A7 DUP4 CODECOPY DUP2 MLOAD SWAP2 MSTORE EQ PUSH2 0x11F4 JUMPI PUSH1 0x40 MLOAD PUSH3 0x461BCD PUSH1 0xE5 SHL DUP2 MSTORE PUSH1 0x4 ADD PUSH2 0x488 SWAP1 PUSH2 0x1724 JUMP JUMPDEST PUSH1 0x40 MLOAD PUSH4 0x5D8C85EF PUSH1 0xE0 SHL DUP2 MSTORE PUSH1 0x4 DUP2 ADD DUP3 SWAP1 MSTORE PUSH20 0x8A7C8BE47773546DC5E173D67B0C38AFFFA4B84 SWAP1 PUSH4 0x5D8C85EF SWAP1 DUP5 SWAP1 PUSH1 0x24 ADD PUSH1 0x0 PUSH1 0x40 MLOAD DUP1 DUP4 SUB DUP2 DUP6 DUP9 DUP1 EXTCODESIZE ISZERO DUP1 ISZERO PUSH2 0x1242 JUMPI PUSH1 0x0 DUP1 REVERT JUMPDEST POP GAS CALL ISZERO DUP1 ISZERO PUSH2 0x1256 JUMPI RETURNDATASIZE PUSH1 0x0 DUP1 RETURNDATACOPY RETURNDATASIZE PUSH1 0x0 REVERT JUMPDEST POP POP POP POP POP POP POP JUMP JUMPDEST PUSH1 0x0 JUMPDEST PUSH1 0x0 SLOAD DUP2 LT ISZERO PUSH2 0xFE7 JUMPI DUP2 PUSH1 0x0 DUP3 DUP2 SLOAD DUP2 LT PUSH2 0x1280 JUMPI PUSH2 0x1280 PUSH2 0x179B JUMP JUMPDEST SWAP1 PUSH1 0x0 MSTORE PUSH1 0x20 PUSH1 0x0 KECCAK256 ADD SLOAD SUB PUSH2 0x1307 JUMPI PUSH1 0x0 DUP1 SLOAD PUSH2 0x12A0 SWAP1 PUSH1 0x1 SWAP1 PUSH2 0x187D JUMP JUMPDEST DUP2 SLOAD DUP2 LT PUSH2 0x12B0 JUMPI PUSH2 0x12B0 PUSH2 0x179B JUMP JUMPDEST SWAP1 PUSH1 0x0 MSTORE PUSH1 0x20 PUSH1 0x0 KECCAK256 ADD SLOAD PUSH1 0x0 DUP3 DUP2 SLOAD DUP2 LT PUSH2 0x12CE JUMPI PUSH2 0x12CE PUSH2 0x179B JUMP JUMPDEST SWAP1 PUSH1 0x0 MSTORE PUSH1 0x20 PUSH1 0x0 KECCAK256 ADD DUP2 SWAP1 SSTORE POP PUSH1 0x0 DUP1 SLOAD DUP1 PUSH2 0x12ED JUMPI PUSH2 0x12ED PUSH2 0x1890 JUMP JUMPDEST PUSH1 0x1 SWAP1 SUB DUP2 DUP2 SWAP1 PUSH1 0x0 MSTORE PUSH1 0x20 PUSH1 0x0 KECCAK256 ADD PUSH1 0x0 SWAP1 SSTORE SWAP1 SSTORE POP POP JUMP JUMPDEST DUP1 PUSH2 0x1311 DUP2 PUSH2 0x1864 JUMP JUMPDEST SWAP2 POP POP PUSH2 0x1262 JUMP JUMPDEST PUSH1 0x0 PUSH1 0x20 DUP3 DUP5 SUB SLT ISZERO PUSH2 0x132B JUMPI PUSH1 0x0 DUP1 REVERT JUMPDEST POP CALLDATALOAD SWAP2 SWAP1 POP JUMP JUMPDEST DUP1 CALLDATALOAD PUSH1 0x1 PUSH1 0x1 PUSH1 0xA0 SHL SUB DUP2 AND DUP2 EQ PUSH2 0x1349 JUMPI PUSH1 0x0 DUP1 REVERT JUMPDEST SWAP2 SWAP1 POP JUMP JUMPDEST PUSH1 0x0 DUP1 PUSH1 0x0 PUSH1 0x60 DUP5 DUP7 SUB SLT ISZERO PUSH2 0x1363 JUMPI PUSH1 0x0 DUP1 REVERT JUMPDEST PUSH2 0x136C DUP5 PUSH2 0x1332 JUMP JUMPDEST SWAP3 POP PUSH2 0x137A PUSH1 0x20 DUP6 ADD PUSH2 0x1332 JUMP JUMPDEST SWAP2 POP PUSH1 0x40 DUP5 ADD CALLDATALOAD SWAP1 POP SWAP3 POP SWAP3 POP SWAP3 JUMP JUMPDEST PUSH1 0x20 DUP1 DUP3 MSTORE DUP3 MLOAD DUP3 DUP3 ADD DUP2 SWAP1 MSTORE PUSH1 0x0 SWAP2 SWAP1 DUP5 DUP3 ADD SWAP1 PUSH1 0x40 DUP6 ADD SWAP1 DUP5 JUMPDEST DUP2 DUP2 LT ISZERO PUSH2 0x13C2 JUMPI DUP4 MLOAD DUP4 MSTORE SWAP3 DUP5 ADD SWAP3 SWAP2 DUP5 ADD SWAP2 PUSH1 0x1 ADD PUSH2 0x13A6 JUMP JUMPDEST POP SWAP1 SWAP7 SWAP6 POP POP POP POP POP POP JUMP JUMPDEST PUSH1 0x0 JUMPDEST DUP4 DUP2 LT ISZERO PUSH2 0x13E9 JUMPI DUP2 DUP2 ADD MLOAD DUP4 DUP3 ADD MSTORE PUSH1 0x20 ADD PUSH2 0x13D1 JUMP JUMPDEST POP POP PUSH1 0x0 SWAP2 ADD MSTORE JUMP JUMPDEST PUSH1 0x0 PUSH1 0x20 DUP1 DUP4 ADD DUP2 DUP5 MSTORE DUP1 DUP6 MLOAD DUP1 DUP4 MSTORE PUSH1 0x40 SWAP3 POP DUP3 DUP7 ADD SWAP2 POP DUP3 DUP2 PUSH1 0x5 SHL DUP8 ADD ADD DUP5 DUP9 ADD PUSH1 0x0 JUMPDEST DUP4 DUP2 LT ISZERO PUSH2 0x1495 JUMPI DUP9 DUP4 SUB PUSH1 0x3F NOT ADD DUP6 MSTORE DUP2 MLOAD DUP1 MLOAD DUP5 MSTORE DUP8 DUP2 ADD MLOAD PUSH1 0xFF AND DUP9 DUP6 ADD MSTORE DUP7 DUP2 ADD MLOAD PUSH1 0x1 PUSH1 0x1 PUSH1 0xA0 SHL SUB AND DUP8 DUP6 ADD MSTORE PUSH1 0x60 SWAP1 DUP2 ADD MLOAD PUSH1 0x80 SWAP2 DUP6 ADD DUP3 SWAP1 MSTORE DUP1 MLOAD SWAP2 DUP6 ADD DUP3 SWAP1 MSTORE SWAP1 PUSH1 0xA0 SWAP1 PUSH2 0x1475 DUP2 DUP4 DUP9 ADD DUP6 DUP14 ADD PUSH2 0x13CE JUMP JUMPDEST SWAP7 DUP10 ADD SWAP7 PUSH1 0x1F ADD PUSH1 0x1F NOT AND SWAP5 SWAP1 SWAP5 ADD SWAP1 SWAP4 ADD SWAP3 POP SWAP1 DUP7 ADD SWAP1 PUSH1 0x1 ADD PUSH2 0x1419 JUMP JUMPDEST POP SWAP1 SWAP9 SWAP8 POP POP POP POP POP POP POP POP JUMP JUMPDEST PUSH1 0x0 DUP1 PUSH1 0x0 DUP1 PUSH1 0x0 DUP1 PUSH1 0x0 DUP1 PUSH2 0x100 DUP10 DUP12 SUB SLT ISZERO PUSH2 0x14C0 JUMPI PUSH1 0x0 DUP1 REVERT JUMPDEST PUSH2 0x14C9 DUP10 PUSH2 0x1332 JUMP JUMPDEST SWAP8 POP PUSH2 0x14D7 PUSH1 0x20 DUP11 ADD PUSH2 0x1332 JUMP JUMPDEST SWAP8 SWAP11 SWAP8 SWAP10 POP POP POP POP PUSH1 0x40 DUP7 ADD CALLDATALOAD SWAP6 PUSH1 0x60 DUP2 ADD CALLDATALOAD SWAP6 PUSH1 0x80 DUP3 ADD CALLDATALOAD SWAP6 POP PUSH1 0xA0 DUP3 ADD CALLDATALOAD SWAP5 POP PUSH1 0xC0 DUP3 ADD CALLDATALOAD SWAP4 POP PUSH1 0xE0 SWAP1 SWAP2 ADD CALLDATALOAD SWAP2 POP JUMP JUMPDEST PUSH1 0x0 DUP1 PUSH1 0x40 DUP4 DUP6 SUB SLT ISZERO PUSH2 0x151D JUMPI PUSH1 0x0 DUP1 REVERT JUMPDEST PUSH2 0x1526 DUP4 PUSH2 0x1332 JUMP JUMPDEST SWAP5 PUSH1 0x20 SWAP4 SWAP1 SWAP4 ADD CALLDATALOAD SWAP4 POP POP POP JUMP JUMPDEST PUSH1 0x0 DUP1 PUSH1 0x0 DUP1 PUSH1 0x0 DUP1 PUSH1 0x0 PUSH1 0xE0 DUP9 DUP11 SUB SLT ISZERO PUSH2 0x154F JUMPI PUSH1 0x0 DUP1 REVERT JUMPDEST PUSH2 0x1558 DUP9 PUSH2 0x1332 JUMP JUMPDEST SWAP7 POP PUSH2 0x1566 PUSH1 0x20 DUP10 ADD PUSH2 0x1332 JUMP JUMPDEST SWAP7 SWAP10 SWAP7 SWAP9 POP POP POP POP PUSH1 0x40 DUP6 ADD CALLDATALOAD SWAP5 PUSH1 0x60 DUP2 ADD CALLDATALOAD SWAP5 PUSH1 0x80 DUP3 ADD CALLDATALOAD SWAP5 POP PUSH1 0xA0 DUP3 ADD CALLDATALOAD SWAP4 POP PUSH1 0xC0 SWAP1 SWAP2 ADD CALLDATALOAD SWAP2 POP JUMP JUMPDEST PUSH1 0x0 PUSH1 0x20 DUP3 DUP5 SUB SLT ISZERO PUSH2 0x15A4 JUMPI PUSH1 0x0 DUP1 REVERT JUMPDEST PUSH2 0x15AD DUP3 PUSH2 0x1332 JUMP JUMPDEST SWAP4 SWAP3 POP POP POP JUMP JUMPDEST PUSH4 0x4E487B71 PUSH1 0xE0 SHL PUSH1 0x0 MSTORE PUSH1 0x41 PUSH1 0x4 MSTORE PUSH1 0x24 PUSH1 0x0 REVERT JUMPDEST PUSH1 0x40 MLOAD PUSH1 0x1F DUP3 ADD PUSH1 0x1F NOT AND DUP2 ADD PUSH8 0xFFFFFFFFFFFFFFFF DUP2 GT DUP3 DUP3 LT OR ISZERO PUSH2 0x15F3 JUMPI PUSH2 0x15F3 PUSH2 0x15B4 JUMP JUMPDEST PUSH1 0x40 MSTORE SWAP2 SWAP1 POP JUMP JUMPDEST PUSH1 0x0 PUSH8 0xFFFFFFFFFFFFFFFF DUP3 GT ISZERO PUSH2 0x1615 JUMPI PUSH2 0x1615 PUSH2 0x15B4 JUMP JUMPDEST POP PUSH1 0x1F ADD PUSH1 0x1F NOT AND PUSH1 0x20 ADD SWAP1 JUMP JUMPDEST PUSH1 0x0 DUP1 PUSH1 0x0 PUSH1 0x60 DUP5 DUP7 SUB SLT ISZERO PUSH2 0x1638 JUMPI PUSH1 0x0 DUP1 REVERT JUMPDEST PUSH2 0x1641 DUP5 PUSH2 0x1332 JUMP JUMPDEST SWAP3 POP PUSH1 0x20 DUP5 ADD CALLDATALOAD SWAP2 POP PUSH1 0x40 DUP5 ADD CALLDATALOAD PUSH8 0xFFFFFFFFFFFFFFFF DUP2 GT ISZERO PUSH2 0x1664 JUMPI PUSH1 0x0 DUP1 REVERT JUMPDEST DUP5 ADD PUSH1 0x1F DUP2 ADD DUP7 SGT PUSH2 0x1675 JUMPI PUSH1 0x0 DUP1 REVERT JUMPDEST DUP1 CALLDATALOAD PUSH2 0x1688 PUSH2 0x1683 DUP3 PUSH2 0x15FB JUMP JUMPDEST PUSH2 0x15CA JUMP JUMPDEST DUP2 DUP2 MSTORE DUP8 PUSH1 0x20 DUP4 DUP6 ADD ADD GT ISZERO PUSH2 0x169D JUMPI PUSH1 0x0 DUP1 REVERT JUMPDEST DUP2 PUSH1 0x20 DUP5 ADD PUSH1 0x20 DUP4 ADD CALLDATACOPY PUSH1 0x0 PUSH1 0x20 DUP4 DUP4 ADD ADD MSTORE DUP1 SWAP4 POP POP POP POP SWAP3 POP SWAP3 POP SWAP3 JUMP JUMPDEST DUP1 ISZERO ISZERO DUP2 EQ PUSH2 0xA6E JUMPI PUSH1 0x0 DUP1 REVERT JUMPDEST PUSH1 0x0 DUP1 PUSH1 0x40 DUP4 DUP6 SUB SLT ISZERO PUSH2 0x16DE JUMPI PUSH1 0x0 DUP1 REVERT JUMPDEST PUSH2 0x16E7 DUP4 PUSH2 0x1332 JUMP JUMPDEST SWAP2 POP PUSH1 0x20 DUP4 ADD CALLDATALOAD PUSH2 0x16F7 DUP2 PUSH2 0x16BD JUMP JUMPDEST DUP1 SWAP2 POP POP SWAP3 POP SWAP3 SWAP1 POP JUMP JUMPDEST PUSH1 0x0 DUP1 PUSH1 0x40 DUP4 DUP6 SUB SLT ISZERO PUSH2 0x1715 JUMPI PUSH1 0x0 DUP1 REVERT JUMPDEST POP POP DUP1 CALLDATALOAD SWAP3 PUSH1 0x20 SWAP1 SWAP2 ADD CALLDATALOAD SWAP2 POP JUMP JUMPDEST PUSH1 0x20 DUP1 DUP3 MSTORE PUSH1 0x11 SWAP1 DUP3 ADD MSTORE PUSH17 0x4F6E6C7920636F6E74726163742044414F PUSH1 0x78 SHL PUSH1 0x40 DUP3 ADD MSTORE PUSH1 0x60 ADD SWAP1 JUMP JUMPDEST PUSH1 0x0 PUSH1 0x20 DUP3 DUP5 SUB SLT ISZERO PUSH2 0x1761 JUMPI PUSH1 0x0 DUP1 REVERT JUMPDEST DUP2 MLOAD PUSH2 0x15AD DUP2 PUSH2 0x16BD JUMP JUMPDEST PUSH4 0x4E487B71 PUSH1 0xE0 SHL PUSH1 0x0 MSTORE PUSH1 0x11 PUSH1 0x4 MSTORE PUSH1 0x24 PUSH1 0x0 REVERT JUMPDEST DUP1 DUP3 ADD DUP1 DUP3 GT ISZERO PUSH2 0x1795 JUMPI PUSH2 0x1795 PUSH2 0x176C JUMP JUMPDEST SWAP3 SWAP2 POP POP JUMP JUMPDEST PUSH4 0x4E487B71 PUSH1 0xE0 SHL PUSH1 0x0 MSTORE PUSH1 0x32 PUSH1 0x4 MSTORE PUSH1 0x24 PUSH1 0x0 REVERT JUMPDEST PUSH1 0x0 PUSH1 0x20 DUP3 DUP5 SUB SLT ISZERO PUSH2 0x17C3 JUMPI PUSH1 0x0 DUP1 REVERT JUMPDEST POP MLOAD SWAP2 SWAP1 POP JUMP JUMPDEST PUSH1 0x0 PUSH1 0x20 DUP3 DUP5 SUB SLT ISZERO PUSH2 0x17DC JUMPI PUSH1 0x0 DUP1 REVERT JUMPDEST DUP2 MLOAD PUSH1 0xFF DUP2 AND DUP2 EQ PUSH2 0x15AD JUMPI PUSH1 0x0 DUP1 REVERT JUMPDEST PUSH1 0x0 PUSH1 0x20 DUP3 DUP5 SUB SLT ISZERO PUSH2 0x17FF JUMPI PUSH1 0x0 DUP1 REVERT JUMPDEST DUP2 MLOAD PUSH8 0xFFFFFFFFFFFFFFFF DUP2 GT ISZERO PUSH2 0x1816 JUMPI PUSH1 0x0 DUP1 REVERT JUMPDEST DUP3 ADD PUSH1 0x1F DUP2 ADD DUP5 SGT PUSH2 0x1827 JUMPI PUSH1 0x0 DUP1 REVERT JUMPDEST DUP1 MLOAD PUSH2 0x1835 PUSH2 0x1683 DUP3 PUSH2 0x15FB JUMP JUMPDEST DUP2 DUP2 MSTORE DUP6 PUSH1 0x20 DUP4 DUP6 ADD ADD GT ISZERO PUSH2 0x184A JUMPI PUSH1 0x0 DUP1 REVERT JUMPDEST PUSH2 0x185B DUP3 PUSH1 0x20 DUP4 ADD PUSH1 0x20 DUP7 ADD PUSH2 0x13CE JUMP JUMPDEST SWAP6 SWAP5 POP POP POP POP POP JUMP JUMPDEST PUSH1 0x0 PUSH1 0x1 DUP3 ADD PUSH2 0x1876 JUMPI PUSH2 0x1876 PUSH2 0x176C JUMP JUMPDEST POP PUSH1 0x1 ADD SWAP1 JUMP JUMPDEST DUP2 DUP2 SUB DUP2 DUP2 GT ISZERO PUSH2 0x1795 JUMPI PUSH2 0x1795 PUSH2 0x176C JUMP JUMPDEST PUSH4 0x4E487B71 PUSH1 0xE0 SHL PUSH1 0x0 MSTORE PUSH1 0x31 PUSH1 0x4 MSTORE PUSH1 0x24 PUSH1 0x0 REVERT INVALID STOP STOP STOP STOP STOP STOP STOP STOP STOP STOP STOP STOP DUP2 STOP MSIZE 0xE1 BLOCKHASH PUSH14 0xEDAFD1BDCA4E0137CBA306C0CE36 LOG2 PUSH5 0x6970667358 0x22 SLT KECCAK256 SWAP2 0xE1 PUSH24 0xE220213F7DDB5BA0EE5AB1F38FDAEAB5BECB8F5AA2935934 0xAA 0xA9 EXTCODEHASH 0xB3 0x1E PUSH5 0x736F6C6343 STOP ADDMOD GT STOP CALLER "},"methodIdentifiers":{"ColdStaking()":"ff5cf4b1","DAO()":"98fabd3a","TwoBearsBalances()":"6d85e609","TwoBearsBots()":"6e3adf8d","WCLO()":"79cce4f5","coldStaking_Claim()":"8726968d","coldStaking_Start(uint256,uint256)":"f8004903","coldStaking_Withdraw()":"232fc349","tokenReceived(address,uint256,bytes)":"8943ec02","twoBears_Approve(address,bool)":"e1375801","twoBears_BotNetTrade(address,address,uint256,uint256,uint256,uint256,uint256,uint256)":"2e5a318d","twoBears_BotSellBuy(address,address,uint256,uint256,uint256,uint256,uint256)":"65fac6dc","twoBears_DeleteBot(uint256)":"29581b3e","twoBears_RestoreBot(uint256)":"b53a7052","twoBears_ViewListBots()":"1558c67c","walletDAO_AddTokenTracking(address)":"be66ca92","walletDAO_DelTokenTracking(address)":"87a7c32a","walletDAO_TransferCLO(address,uint256)":"44b6d9c4","walletDAO_TransferToken(address,address,uint256)":"11a92416","walletDAO_UnwrapWCLO(uint256)":"22c380e4","walletDAO_ViewBalances()":"20357b8c","walletDAO_WrapCLO(uint256)":"07ac32d8"}}}}}