{
  "_format": "hh-sol-artifact-1",
  "contractName": "MonetaryPolicy",
  "sourceName": "contracts/MonetaryPolicy.sol",
  "abi": [
    {
      "anonymous": false,
      "inputs": [
        {
          "indexed": true,
          "internalType": "address",
          "name": "owner",
          "type": "address"
        },
        {
          "indexed": true,
          "internalType": "bytes32",
          "name": "hash",
          "type": "bytes32"
        },
        {
          "indexed": true,
          "internalType": "bool",
          "name": "voice",
          "type": "bool"
        }
      ],
      "name": "Proposal",
      "type": "event"
    },
    {
      "inputs": [],
      "name": "CallistoNetwork",
      "outputs": [
        {
          "internalType": "address",
          "name": "",
          "type": "address"
        }
      ],
      "stateMutability": "view",
      "type": "function"
    },
    {
      "inputs": [],
      "name": "GovernanceDAO",
      "outputs": [
        {
          "internalType": "address",
          "name": "",
          "type": "address"
        }
      ],
      "stateMutability": "view",
      "type": "function"
    },
    {
      "inputs": [],
      "name": "MinerReward",
      "outputs": [
        {
          "internalType": "uint256",
          "name": "",
          "type": "uint256"
        }
      ],
      "stateMutability": "view",
      "type": "function"
    },
    {
      "inputs": [],
      "name": "ReserveAddress",
      "outputs": [
        {
          "internalType": "address",
          "name": "",
          "type": "address"
        }
      ],
      "stateMutability": "view",
      "type": "function"
    },
    {
      "inputs": [],
      "name": "ReserveReward",
      "outputs": [
        {
          "internalType": "uint256",
          "name": "",
          "type": "uint256"
        }
      ],
      "stateMutability": "view",
      "type": "function"
    },
    {
      "inputs": [],
      "name": "StakeAddress",
      "outputs": [
        {
          "internalType": "address",
          "name": "",
          "type": "address"
        }
      ],
      "stateMutability": "view",
      "type": "function"
    },
    {
      "inputs": [],
      "name": "StakeReward",
      "outputs": [
        {
          "internalType": "uint256",
          "name": "",
          "type": "uint256"
        }
      ],
      "stateMutability": "view",
      "type": "function"
    },
    {
      "inputs": [],
      "name": "TimeEnd",
      "outputs": [
        {
          "internalType": "uint256",
          "name": "",
          "type": "uint256"
        }
      ],
      "stateMutability": "view",
      "type": "function"
    },
    {
      "inputs": [],
      "name": "TimeVoice",
      "outputs": [
        {
          "internalType": "uint256",
          "name": "",
          "type": "uint256"
        }
      ],
      "stateMutability": "view",
      "type": "function"
    },
    {
      "inputs": [],
      "name": "TreasuryAddress",
      "outputs": [
        {
          "internalType": "address",
          "name": "",
          "type": "address"
        }
      ],
      "stateMutability": "view",
      "type": "function"
    },
    {
      "inputs": [],
      "name": "TreasuryReward",
      "outputs": [
        {
          "internalType": "uint256",
          "name": "",
          "type": "uint256"
        }
      ],
      "stateMutability": "view",
      "type": "function"
    },
    {
      "inputs": [
        {
          "internalType": "bytes32",
          "name": "",
          "type": "bytes32"
        }
      ],
      "name": "proposals",
      "outputs": [
        {
          "internalType": "uint256",
          "name": "timeVoice",
          "type": "uint256"
        },
        {
          "internalType": "uint256",
          "name": "timeEnd",
          "type": "uint256"
        },
        {
          "internalType": "bool",
          "name": "governanceDAO",
          "type": "bool"
        },
        {
          "internalType": "bool",
          "name": "callistoNetwork",
          "type": "bool"
        }
      ],
      "stateMutability": "view",
      "type": "function"
    },
    {
      "inputs": [
        {
          "internalType": "address",
          "name": "_owner",
          "type": "address"
        },
        {
          "internalType": "address",
          "name": "_newOwner",
          "type": "address"
        },
        {
          "internalType": "bool",
          "name": "_voice",
          "type": "bool"
        }
      ],
      "name": "resetOwner",
      "outputs": [],
      "stateMutability": "nonpayable",
      "type": "function"
    },
    {
      "inputs": [
        {
          "internalType": "address",
          "name": "_newOwner",
          "type": "address"
        }
      ],
      "name": "setNewOwners",
      "outputs": [],
      "stateMutability": "nonpayable",
      "type": "function"
    },
    {
      "inputs": [
        {
          "internalType": "uint256",
          "name": "_timeVoice",
          "type": "uint256"
        },
        {
          "internalType": "uint256",
          "name": "_timeEnd",
          "type": "uint256"
        },
        {
          "internalType": "bool",
          "name": "_voice",
          "type": "bool"
        }
      ],
      "name": "setPeriods",
      "outputs": [],
      "stateMutability": "nonpayable",
      "type": "function"
    },
    {
      "inputs": [
        {
          "internalType": "address",
          "name": "_reserveAddress",
          "type": "address"
        }
      ],
      "name": "setReserveAddress",
      "outputs": [],
      "stateMutability": "nonpayable",
      "type": "function"
    },
    {
      "inputs": [
        {
          "internalType": "uint256",
          "name": "_minerReward",
          "type": "uint256"
        },
        {
          "internalType": "uint256",
          "name": "_treasuryReward",
          "type": "uint256"
        },
        {
          "internalType": "uint256",
          "name": "_stakeReward",
          "type": "uint256"
        },
        {
          "internalType": "uint256",
          "name": "_reserveReward",
          "type": "uint256"
        },
        {
          "internalType": "bool",
          "name": "_voice",
          "type": "bool"
        }
      ],
      "name": "setRewards",
      "outputs": [],
      "stateMutability": "nonpayable",
      "type": "function"
    },
    {
      "inputs": [
        {
          "internalType": "address",
          "name": "_stakeAddress",
          "type": "address"
        }
      ],
      "name": "setStakeAddress",
      "outputs": [],
      "stateMutability": "nonpayable",
      "type": "function"
    },
    {
      "inputs": [
        {
          "internalType": "address",
          "name": "_treasuryAddress",
          "type": "address"
        },
        {
          "internalType": "bool",
          "name": "_voice",
          "type": "bool"
        }
      ],
      "name": "setTreasuryAddress",
      "outputs": [],
      "stateMutability": "nonpayable",
      "type": "function"
    }
  ],
  "bytecode": "0x6080604052600480546001600160a01b03199081167374682fc32007af0b6118f259cbe7bccc21641600179091556005805482167308a7c8be47773546dc5e173d67b0c38afffa4b84179055600680548216905560078054821673810059e1406dedafd1bdca4e0137cba306c0ce361790556008805490911673a9389db4610175cac4fad32670a5189a89f874b5179055623b5380600955624f1a00600a553480156100aa57600080fd5b50610cd9806100ba6000396000f3fe608060405234801561001057600080fd5b50600436106101215760003560e01c80639aacfc75116100ad578063ad5caa6211610071578063ad5caa621461028f578063ad91d540146102a2578063c4e986b2146102b5578063d8716ad9146102be578063f6c5a2f7146102c757600080fd5b80639aacfc751461023a5780639ca85bf0146102435780639d4346b314610256578063a043fda314610269578063a5a2286b1461027c57600080fd5b80633411f778116100f45780633411f778146101cd5780633d3f915f146101e057806345ce7db9146101f357806352bd99141461021e5780635b5c251f1461022757600080fd5b806314673d311461012657806323471d181461013b578063267e1bb51461014e57806332ed5b121461016a575b600080fd5b610139610134366004610af5565b6102d0565b005b610139610149366004610af5565b610346565b61015760005481565b6040519081526020015b60405180910390f35b6101a5610178366004610b17565b600b6020526000908152604090208054600182015460029092015490919060ff8082169161010090041684565b6040805194855260208501939093529015159183019190915215156060820152608001610161565b6101396101db366004610b40565b6103b7565b6101396101ee366004610b75565b61048d565b600554610206906001600160a01b031681565b6040516001600160a01b039091168152602001610161565b610157600a5481565b600454610206906001600160a01b031681565b61015760025481565b600754610206906001600160a01b031681565b610139610264366004610baf565b610621565b610139610277366004610bf8565b6106f9565b600654610206906001600160a01b031681565b600854610206906001600160a01b031681565b6101396102b0366004610af5565b6107d2565b61015760095481565b61015760015481565b61015760035481565b6007546001600160a01b031633146103245760405162461bcd60e51b81526020600482015260126024820152714f6e6c7920476f7665726e616e636544414f60701b60448201526064015b60405180910390fd5b600680546001600160a01b0319166001600160a01b0392909216919091179055565b6007546001600160a01b031633146103955760405162461bcd60e51b81526020600482015260126024820152714f6e6c7920476f7665726e616e636544414f60701b604482015260640161031b565b600580546001600160a01b0319166001600160a01b0392909216919091179055565b6008546001600160a01b03163314806103da57506007546001600160a01b031633145b6103f65760405162461bcd60e51b815260040161031b90610c2b565b60008311801561040557508282115b61040e57600080fd5b6040516306823eef60e31b6020820181905260248201859052604482018490529060009060640160405160208183030381529060405280519060200120905061045781846108ab565b15610467576009859055600a8490555b6040518315159082903390600080516020610c8483398151915290600090a45050505050565b6008546001600160a01b03163314806104b057506007546001600160a01b031633145b6104cc5760405162461bcd60e51b815260040161031b90610c2b565b6007546001600160a01b03848116911614806104f557506008546001600160a01b038481169116145b6104fe57600080fd5b6007546001600160a01b0383811691161480159061052a57506008546001600160a01b03838116911614155b61053357600080fd5b604051633d3f915f60e01b602082018190526bffffffffffffffffffffffff19606086811b8216602485015285901b16603883015290600090604c0160405160208183030381529060405280519060200120905061059181846108ab565b15610467576007546001600160a01b038681169116146105bd576007546001600160a01b0316846105cc565b60085484906001600160a01b03165b600880546001600160a01b039283166001600160a01b031991821617909155600780549390921692169190911790556040518315159082903390600080516020610c8483398151915290600090a45050505050565b6008546001600160a01b031633148061064457506007546001600160a01b031633145b6106605760405162461bcd60e51b815260040161031b90610c2b565b604051639d4346b360e01b60208201819052602482018790526044820186905260648201859052608482018490529060009060a4016040516020818303038152906040528051906020012090506106b781846108ab565b156106d15760008790556001869055600285905560038490555b6040518315159082903390600080516020610c8483398151915290600090a450505050505050565b6008546001600160a01b031633148061071c57506007546001600160a01b031633145b6107385760405162461bcd60e51b815260040161031b90610c2b565b60405163a043fda360e01b602082018190526bffffffffffffffffffffffff19606085901b1660248301529060009060380160405160208183030381529060405280519060200120905061078c81846108ab565b156107ad57600480546001600160a01b0319166001600160a01b0386161790555b6040518315159082903390600080516020610c8483398151915290600090a450505050565b6008546001600160a01b03163314806107f557506007546001600160a01b031633145b6108115760405162461bcd60e51b815260040161031b90610c2b565b6007546001600160a01b0382811691161480159061083d57506008546001600160a01b03828116911614155b61084657600080fd5b6007546001600160a01b0316331461086a576007546001600160a01b031681610879565b60085481906001600160a01b03165b600880546001600160a01b039283166001600160a01b0319918216179091556007805493909216921691909117905550565b6000828152600b6020526040812060010154421115610988576000838152600b602052604081208181556001810191909155600201805461ffff19169055816108f657506000610ad3565b6009546109039042610c62565b6000848152600b6020526040902055600a5461091f9042610c62565b6000848152600b60205260409020600101556007546001600160a01b0316331461094c5760006001610951565b600160005b6000858152600b60205260409020600201805492151560ff19921515610100029290921661ffff1990931692909217179055610acf565b6000838152600b60205260409020544211156109ca57506000828152600b60205260408120818155600180820192909255600201805461ffff19169055610ad3565b816109f9576000838152600b602052604081208181556001810191909155600201805461ffff19169055610acf565b6007546001600160a01b03163314610a27576000838152600b602052604090206002015460ff166001610a45565b6000838152600b6020526040902060020154600190610100900460ff165b6000858152600b60205260409020600201805492151560ff19921515610100029290921661ffff1990931692909217179081905560ff168015610a9e57506000838152600b6020526040902060020154610100900460ff165b15610acf57506000828152600b60205260408120818155600180820192909255600201805461ffff19169055610ad3565b5060005b92915050565b80356001600160a01b0381168114610af057600080fd5b919050565b600060208284031215610b0757600080fd5b610b1082610ad9565b9392505050565b600060208284031215610b2957600080fd5b5035919050565b80358015158114610af057600080fd5b600080600060608486031215610b5557600080fd5b8335925060208401359150610b6c60408501610b30565b90509250925092565b600080600060608486031215610b8a57600080fd5b610b9384610ad9565b9250610ba160208501610ad9565b9150610b6c60408501610b30565b600080600080600060a08688031215610bc757600080fd5b85359450602086013593506040860135925060608601359150610bec60808701610b30565b90509295509295909350565b60008060408385031215610c0b57600080fd5b610c1483610ad9565b9150610c2260208401610b30565b90509250929050565b60208082526017908201527f4f6e6c7920747265617375727920726563697069656e74000000000000000000604082015260600190565b80820180821115610ad357634e487b7160e01b600052601160045260246000fdfe159d2efd57404307b21eeffce76b42a2ac064dc31abfcf5390cb511ef9d0c1b2a2646970667358221220f4b5b00e7fa91145b1e1d5327c9684475559e8accc5cfd7edee4ea202ceb113464736f6c63430008110033",
  "linkReferences": {},
  "deployedLinkReferences": {}
}