{
  "_format": "hh-sol-artifact-1",
  "contractName": "Treasury",
  "sourceName": "contracts/Treasury.sol",
  "abi": [
    {
      "inputs": [],
      "stateMutability": "nonpayable",
      "type": "constructor"
    },
    {
      "anonymous": false,
      "inputs": [
        {
          "indexed": true,
          "internalType": "address",
          "name": "_old",
          "type": "address"
        },
        {
          "indexed": true,
          "internalType": "address",
          "name": "_new",
          "type": "address"
        }
      ],
      "name": "ChangeRecipient",
      "type": "event"
    },
    {
      "anonymous": false,
      "inputs": [
        {
          "indexed": true,
          "internalType": "address",
          "name": "_sender",
          "type": "address"
        },
        {
          "indexed": true,
          "internalType": "address",
          "name": "_recipient",
          "type": "address"
        },
        {
          "indexed": false,
          "internalType": "uint256",
          "name": "_value",
          "type": "uint256"
        }
      ],
      "name": "TransferCLO",
      "type": "event"
    },
    {
      "anonymous": false,
      "inputs": [
        {
          "indexed": true,
          "internalType": "address",
          "name": "_sender",
          "type": "address"
        },
        {
          "indexed": false,
          "internalType": "uint256",
          "name": "_percent",
          "type": "uint256"
        }
      ],
      "name": "TransferPercent",
      "type": "event"
    },
    {
      "inputs": [],
      "name": "callistoCommunity",
      "outputs": [
        {
          "internalType": "address",
          "name": "",
          "type": "address"
        }
      ],
      "stateMutability": "view",
      "type": "function"
    },
    {
      "inputs": [],
      "name": "callistoNetwork",
      "outputs": [
        {
          "internalType": "address",
          "name": "",
          "type": "address"
        }
      ],
      "stateMutability": "view",
      "type": "function"
    },
    {
      "inputs": [
        {
          "internalType": "address",
          "name": "_newRecepient",
          "type": "address"
        }
      ],
      "name": "changeRecepient",
      "outputs": [],
      "stateMutability": "nonpayable",
      "type": "function"
    },
    {
      "inputs": [
        {
          "internalType": "address",
          "name": "_token",
          "type": "address"
        }
      ],
      "name": "getBalanceToken",
      "outputs": [
        {
          "internalType": "uint256",
          "name": "",
          "type": "uint256"
        },
        {
          "internalType": "uint8",
          "name": "",
          "type": "uint8"
        },
        {
          "internalType": "string",
          "name": "",
          "type": "string"
        }
      ],
      "stateMutability": "view",
      "type": "function"
    },
    {
      "inputs": [
        {
          "internalType": "address",
          "name": "_recipient",
          "type": "address"
        }
      ],
      "name": "getRecipientData",
      "outputs": [
        {
          "components": [
            {
              "internalType": "uint256",
              "name": "percent",
              "type": "uint256"
            },
            {
              "internalType": "uint256",
              "name": "balance",
              "type": "uint256"
            }
          ],
          "internalType": "struct Treasury.RecipientData",
          "name": "",
          "type": "tuple"
        }
      ],
      "stateMutability": "view",
      "type": "function"
    },
    {
      "inputs": [
        {
          "internalType": "address",
          "name": "_from",
          "type": "address"
        },
        {
          "internalType": "uint256",
          "name": "_value",
          "type": "uint256"
        },
        {
          "internalType": "bytes",
          "name": "_data",
          "type": "bytes"
        }
      ],
      "name": "tokenReceived",
      "outputs": [
        {
          "internalType": "bytes4",
          "name": "",
          "type": "bytes4"
        }
      ],
      "stateMutability": "nonpayable",
      "type": "function"
    },
    {
      "inputs": [
        {
          "internalType": "address",
          "name": "_recipient",
          "type": "address"
        },
        {
          "internalType": "uint256",
          "name": "_value",
          "type": "uint256"
        }
      ],
      "name": "transferCLO",
      "outputs": [],
      "stateMutability": "nonpayable",
      "type": "function"
    },
    {
      "inputs": [
        {
          "internalType": "uint256",
          "name": "_percent",
          "type": "uint256"
        }
      ],
      "name": "transferPercent",
      "outputs": [],
      "stateMutability": "nonpayable",
      "type": "function"
    },
    {
      "inputs": [
        {
          "internalType": "address",
          "name": "_token",
          "type": "address"
        },
        {
          "internalType": "address",
          "name": "_recipient",
          "type": "address"
        },
        {
          "internalType": "uint256",
          "name": "_value",
          "type": "uint256"
        }
      ],
      "name": "transferToken",
      "outputs": [],
      "stateMutability": "nonpayable",
      "type": "function"
    },
    {
      "stateMutability": "payable",
      "type": "receive"
    }
  ],
  "bytecode": "0x6080604052600080546001600160a01b031990811673ebe894814554c8382ea6a24ccddf1527407a24f6179091556001805490911673fc8f3324b6d71d14bfd625ecdbd18f3bc29a993517905534801561005857600080fd5b50600080546001600160a01b039081168252600260205260408083206802b5e3af16b188000090819055600154909216835290912055610d778061009d6000396000f3fe6080604052600436106100895760003560e01c806348eca45c1161005957806348eca45c146101345780636c3fc445146101635780638943ec0214610183578063f5537ede146101c6578063fe37f7fe146101e657600080fd5b8062667f2914610095578063082455ce146100d25780630fb35fc6146100f45780632d5823711461011457600080fd5b3661009057005b600080fd5b3480156100a157600080fd5b506001546100b5906001600160a01b031681565b6040516001600160a01b0390911681526020015b60405180910390f35b3480156100de57600080fd5b506100f26100ed36600461099b565b610221565b005b34801561010057600080fd5b506100f261010f3660046109d0565b61036f565b34801561012057600080fd5b506000546100b5906001600160a01b031681565b34801561014057600080fd5b5061015461014f3660046109fa565b61049a565b6040516100c993929190610a40565b34801561016f57600080fd5b506100f261017e3660046109fa565b6105ea565b34801561018f57600080fd5b506101ad61019e366004610af3565b6344a1f60160e11b9392505050565b6040516001600160e01b031990911681526020016100c9565b3480156101d257600080fd5b506100f26101e1366004610b8d565b61070a565b3480156101f257600080fd5b506102066102013660046109fa565b6107c4565b604080518251815260209283015192810192909252016100c9565b6000546001600160a01b031633148061024457506001546001600160a01b031633145b6102695760405162461bcd60e51b815260040161026090610bc9565b60405180910390fd5b336000908152600260205260409020548082111561028657600080fd5b61028e6108bc565b6000546001600160a01b031633146102d357600080546001600160a01b03168152600260205260409020546102c4908390610c07565b6102ce8383610c20565b610303565b6102dd8282610c20565b6001546001600160a01b0316600090815260026020526040902054610303908490610c07565b600080546001600160a01b03908116825260026020526040808320600154909216835291829020929092559190555133907f700115a5a47daa46c4a0c7d6d282a2d45aa8aed28137136d59064f090a38a323906103639085815260200190565b60405180910390a25050565b6000546001600160a01b031633148061039257506001546001600160a01b031633145b6103ae5760405162461bcd60e51b815260040161026090610bc9565b6001600160a01b038216158015906103cf57506001600160a01b0382163014155b6103d857600080fd5b6103e06108bc565b336000908152600260205260409020600101548082111561040057600080fd5b61040a8282610c20565b336000908152600260205260408082206001019290925590516001600160a01b0385169184156108fc02918591818181858888f19350505050158015610454573d6000803e3d6000fd5b506040518281526001600160a01b0384169033907f4ddebed7447a12da95902559eac51ea2594f93265e70f2d11da210e33abdafcd9060200160405180910390a3505050565b6040516370a0823160e01b8152306004820152600090819060609082906001600160a01b038616906370a0823190602401602060405180830381865afa1580156104e8573d6000803e3d6000fd5b505050506040513d601f19601f8201168201806040525081019061050c9190610c33565b90506000856001600160a01b031663313ce5676040518163ffffffff1660e01b8152600401602060405180830381865afa15801561054e573d6000803e3d6000fd5b505050506040513d601f19601f820116820180604052508101906105729190610c4c565b90506000866001600160a01b03166395d89b416040518163ffffffff1660e01b8152600401600060405180830381865afa1580156105b4573d6000803e3d6000fd5b505050506040513d6000823e601f3d908101601f191682016040526105dc9190810190610c6f565b929791965091945092505050565b6000546001600160a01b031633148061060d57506001546001600160a01b031633145b6106295760405162461bcd60e51b815260040161026090610bc9565b33600081815260026020818152604080842080546001808301805493889055879055835180850185528281528086018481526001600160a01b038b81168a529790965293872093518455935192909301919091559254909391161461069a576000546001600160a01b0316836106a9565b60015483906001600160a01b03165b600180546001600160a01b03199081166001600160a01b0393841617909155600080549091169282169290921782556040519085169133917f68dd0f2c9ca18dce1e14e2e3f99123a6292bfde61698d10163545ee09a2bb7bb9190a3505050565b6001546001600160a01b0316331461072157600080fd5b6001600160a01b0382161580159061074257506001600160a01b0382163014155b61074b57600080fd5b60405163a9059cbb60e01b81526001600160a01b0383811660048301526024820183905284169063a9059cbb906044016020604051808303816000875af115801561079a573d6000803e3d6000fd5b505050506040513d601f19601f820116820180604052508101906107be9190610ce6565b50505050565b60408051808201909152600080825260208201526040805180820190915260008082526020820152600080546001600160a01b0390811682526002602052604080832060019081015481549093168452908320015490916108258284610c07565b61082f9047610c20565b6001600160a01b0387166000908152600260205260408120549192509068056bc75e2d6310000090610862908490610d08565b61086c9190610d1f565b6040805180820182526001600160a01b038a16600081815260026020818152948220805485529290915283526001015492935091908201906108af908490610c07565b9052979650505050505050565b600080546001600160a01b0390811682526002602052604080832060019081015481549093168452908320015490916108f58284610c07565b6108ff9047610c20565b600080546001600160a01b03168152600260205260408120549192509068056bc75e2d6310000090610932908490610d08565b61093c9190610d1f565b90506109488185610c07565b600080546001600160a01b031681526002602052604090206001015561096e8183610c20565b6109789084610c07565b600180546001600160a01b03166000908152600260205260409020015550505050565b6000602082840312156109ad57600080fd5b5035919050565b80356001600160a01b03811681146109cb57600080fd5b919050565b600080604083850312156109e357600080fd5b6109ec836109b4565b946020939093013593505050565b600060208284031215610a0c57600080fd5b610a15826109b4565b9392505050565b60005b83811015610a37578181015183820152602001610a1f565b50506000910152565b83815260ff831660208201526060604082015260008251806060840152610a6e816080850160208701610a1c565b601f01601f191691909101608001949350505050565b634e487b7160e01b600052604160045260246000fd5b604051601f8201601f1916810167ffffffffffffffff81118282101715610ac357610ac3610a84565b604052919050565b600067ffffffffffffffff821115610ae557610ae5610a84565b50601f01601f191660200190565b600080600060608486031215610b0857600080fd5b610b11846109b4565b925060208401359150604084013567ffffffffffffffff811115610b3457600080fd5b8401601f81018613610b4557600080fd5b8035610b58610b5382610acb565b610a9a565b818152876020838501011115610b6d57600080fd5b816020840160208301376000602083830101528093505050509250925092565b600080600060608486031215610ba257600080fd5b610bab846109b4565b9250610bb9602085016109b4565b9150604084013590509250925092565b6020808252600e908201526d13db9b1e481c9958da5c1a595b9d60921b604082015260600190565b634e487b7160e01b600052601160045260246000fd5b80820180821115610c1a57610c1a610bf1565b92915050565b81810381811115610c1a57610c1a610bf1565b600060208284031215610c4557600080fd5b5051919050565b600060208284031215610c5e57600080fd5b815160ff81168114610a1557600080fd5b600060208284031215610c8157600080fd5b815167ffffffffffffffff811115610c9857600080fd5b8201601f81018413610ca957600080fd5b8051610cb7610b5382610acb565b818152856020838501011115610ccc57600080fd5b610cdd826020830160208601610a1c565b95945050505050565b600060208284031215610cf857600080fd5b81518015158114610a1557600080fd5b8082028115828204841417610c1a57610c1a610bf1565b600082610d3c57634e487b7160e01b600052601260045260246000fd5b50049056fea2646970667358221220ea6d6c1003d44599585c9bf7440c9769c05eb8b375ad21fb0fe77364b1c9e59864736f6c63430008110033",
  "linkReferences": {},
  "deployedLinkReferences": {}
}