{
  "_format": "hh-sol-artifact-1",
  "contractName": "Treasury",
  "sourceName": "contracts/Treasury.sol",
  "abi": [
    {
      "inputs": [],
      "stateMutability": "nonpayable",
      "type": "constructor"
    },
    {
      "anonymous": false,
      "inputs": [
        {
          "indexed": true,
          "internalType": "address",
          "name": "_old",
          "type": "address"
        },
        {
          "indexed": true,
          "internalType": "address",
          "name": "_new",
          "type": "address"
        }
      ],
      "name": "ChangeRecipient",
      "type": "event"
    },
    {
      "anonymous": false,
      "inputs": [
        {
          "indexed": true,
          "internalType": "address",
          "name": "_sender",
          "type": "address"
        },
        {
          "indexed": true,
          "internalType": "address",
          "name": "_recipient",
          "type": "address"
        },
        {
          "indexed": false,
          "internalType": "uint256",
          "name": "_value",
          "type": "uint256"
        }
      ],
      "name": "TransferCLO",
      "type": "event"
    },
    {
      "anonymous": false,
      "inputs": [
        {
          "indexed": true,
          "internalType": "address",
          "name": "_sender",
          "type": "address"
        },
        {
          "indexed": false,
          "internalType": "uint256",
          "name": "_percent",
          "type": "uint256"
        }
      ],
      "name": "TransferPercent",
      "type": "event"
    },
    {
      "inputs": [],
      "name": "callistoCommunity",
      "outputs": [
        {
          "internalType": "address",
          "name": "",
          "type": "address"
        }
      ],
      "stateMutability": "view",
      "type": "function"
    },
    {
      "inputs": [],
      "name": "callistoNetwork",
      "outputs": [
        {
          "internalType": "address",
          "name": "",
          "type": "address"
        }
      ],
      "stateMutability": "view",
      "type": "function"
    },
    {
      "inputs": [
        {
          "internalType": "address",
          "name": "_newRecepient",
          "type": "address"
        }
      ],
      "name": "changeRecepient",
      "outputs": [],
      "stateMutability": "nonpayable",
      "type": "function"
    },
    {
      "inputs": [
        {
          "internalType": "address",
          "name": "_token",
          "type": "address"
        }
      ],
      "name": "getBalanceToken",
      "outputs": [
        {
          "internalType": "uint256",
          "name": "",
          "type": "uint256"
        }
      ],
      "stateMutability": "view",
      "type": "function"
    },
    {
      "inputs": [
        {
          "internalType": "address",
          "name": "_recipient",
          "type": "address"
        }
      ],
      "name": "getRecipientData",
      "outputs": [
        {
          "components": [
            {
              "internalType": "uint256",
              "name": "percent",
              "type": "uint256"
            },
            {
              "internalType": "uint256",
              "name": "balance",
              "type": "uint256"
            }
          ],
          "internalType": "struct Treasury.RecipientData",
          "name": "",
          "type": "tuple"
        }
      ],
      "stateMutability": "view",
      "type": "function"
    },
    {
      "inputs": [
        {
          "internalType": "address",
          "name": "_from",
          "type": "address"
        },
        {
          "internalType": "uint256",
          "name": "_value",
          "type": "uint256"
        },
        {
          "internalType": "bytes",
          "name": "_data",
          "type": "bytes"
        }
      ],
      "name": "tokenReceived",
      "outputs": [
        {
          "internalType": "bytes4",
          "name": "",
          "type": "bytes4"
        }
      ],
      "stateMutability": "nonpayable",
      "type": "function"
    },
    {
      "inputs": [
        {
          "internalType": "address",
          "name": "_recipient",
          "type": "address"
        },
        {
          "internalType": "uint256",
          "name": "_value",
          "type": "uint256"
        }
      ],
      "name": "transferCLO",
      "outputs": [],
      "stateMutability": "nonpayable",
      "type": "function"
    },
    {
      "inputs": [
        {
          "internalType": "uint256",
          "name": "_percent",
          "type": "uint256"
        }
      ],
      "name": "transferPercent",
      "outputs": [],
      "stateMutability": "nonpayable",
      "type": "function"
    },
    {
      "inputs": [
        {
          "internalType": "address",
          "name": "_token",
          "type": "address"
        },
        {
          "internalType": "address",
          "name": "_recipient",
          "type": "address"
        },
        {
          "internalType": "uint256",
          "name": "_value",
          "type": "uint256"
        }
      ],
      "name": "transferToken",
      "outputs": [],
      "stateMutability": "nonpayable",
      "type": "function"
    },
    {
      "stateMutability": "payable",
      "type": "receive"
    }
  ],
  "bytecode": "0x6080604052600080546001600160a01b031990811673ebe894814554c8382ea6a24ccddf1527407a24f6179091556001805490911673fc8f3324b6d71d14bfd625ecdbd18f3bc29a993517905534801561005857600080fd5b50600080546001600160a01b039081168252600260205260408083206802b5e3af16b188000090819055600154909216835290912055610b698061009d6000396000f3fe6080604052600436106100895760003560e01c806348eca45c1161005957806348eca45c146101345780636c3fc445146101625780638943ec0214610182578063f5537ede146101c5578063fe37f7fe146101e557600080fd5b8062667f2914610095578063082455ce146100d25780630fb35fc6146100f45780632d5823711461011457600080fd5b3661009057005b600080fd5b3480156100a157600080fd5b506001546100b5906001600160a01b031681565b6040516001600160a01b0390911681526020015b60405180910390f35b3480156100de57600080fd5b506100f26100ed3660046108be565b610220565b005b34801561010057600080fd5b506100f261010f3660046108f3565b61036e565b34801561012057600080fd5b506000546100b5906001600160a01b031681565b34801561014057600080fd5b5061015461014f36600461091d565b610499565b6040519081526020016100c9565b34801561016e57600080fd5b506100f261017d36600461091d565b61050d565b34801561018e57600080fd5b506101ac61019d36600461094e565b6344a1f60160e11b9392505050565b6040516001600160e01b031990911681526020016100c9565b3480156101d157600080fd5b506100f26101e0366004610a19565b61062d565b3480156101f157600080fd5b5061020561020036600461091d565b6106e7565b604080518251815260209283015192810192909252016100c9565b6000546001600160a01b031633148061024357506001546001600160a01b031633145b6102685760405162461bcd60e51b815260040161025f90610a55565b60405180910390fd5b336000908152600260205260409020548082111561028557600080fd5b61028d6107df565b6000546001600160a01b031633146102d257600080546001600160a01b03168152600260205260409020546102c3908390610a93565b6102cd8383610aac565b610302565b6102dc8282610aac565b6001546001600160a01b0316600090815260026020526040902054610302908490610a93565b600080546001600160a01b03908116825260026020526040808320600154909216835291829020929092559190555133907f700115a5a47daa46c4a0c7d6d282a2d45aa8aed28137136d59064f090a38a323906103629085815260200190565b60405180910390a25050565b6000546001600160a01b031633148061039157506001546001600160a01b031633145b6103ad5760405162461bcd60e51b815260040161025f90610a55565b6001600160a01b038216158015906103ce57506001600160a01b0382163014155b6103d757600080fd5b6103df6107df565b33600090815260026020526040902060010154808211156103ff57600080fd5b6104098282610aac565b336000908152600260205260408082206001019290925590516001600160a01b0385169184156108fc02918591818181858888f19350505050158015610453573d6000803e3d6000fd5b506040518281526001600160a01b0384169033907f4ddebed7447a12da95902559eac51ea2594f93265e70f2d11da210e33abdafcd9060200160405180910390a3505050565b6040516370a0823160e01b815230600482015260009081906001600160a01b038416906370a0823190602401602060405180830381865afa1580156104e2573d6000803e3d6000fd5b505050506040513d601f19601f820116820180604052508101906105069190610abf565b9392505050565b6000546001600160a01b031633148061053057506001546001600160a01b031633145b61054c5760405162461bcd60e51b815260040161025f90610a55565b33600081815260026020818152604080842080546001808301805493889055879055835180850185528281528086018481526001600160a01b038b81168a52979096529387209351845593519290930191909155925490939116146105bd576000546001600160a01b0316836105cc565b60015483906001600160a01b03165b600180546001600160a01b03199081166001600160a01b0393841617909155600080549091169282169290921782556040519085169133917f68dd0f2c9ca18dce1e14e2e3f99123a6292bfde61698d10163545ee09a2bb7bb9190a3505050565b6001546001600160a01b0316331461064457600080fd5b6001600160a01b0382161580159061066557506001600160a01b0382163014155b61066e57600080fd5b60405163a9059cbb60e01b81526001600160a01b0383811660048301526024820183905284169063a9059cbb906044016020604051808303816000875af11580156106bd573d6000803e3d6000fd5b505050506040513d601f19601f820116820180604052508101906106e19190610ad8565b50505050565b60408051808201909152600080825260208201526040805180820190915260008082526020820152600080546001600160a01b0390811682526002602052604080832060019081015481549093168452908320015490916107488284610a93565b6107529047610aac565b6001600160a01b0387166000908152600260205260408120549192509068056bc75e2d6310000090610785908490610afa565b61078f9190610b11565b6040805180820182526001600160a01b038a16600081815260026020818152948220805485529290915283526001015492935091908201906107d2908490610a93565b9052979650505050505050565b600080546001600160a01b0390811682526002602052604080832060019081015481549093168452908320015490916108188284610a93565b6108229047610aac565b600080546001600160a01b03168152600260205260408120549192509068056bc75e2d6310000090610855908490610afa565b61085f9190610b11565b905061086b8185610a93565b600080546001600160a01b03168152600260205260409020600101556108918183610aac565b61089b9084610a93565b600180546001600160a01b03166000908152600260205260409020015550505050565b6000602082840312156108d057600080fd5b5035919050565b80356001600160a01b03811681146108ee57600080fd5b919050565b6000806040838503121561090657600080fd5b61090f836108d7565b946020939093013593505050565b60006020828403121561092f57600080fd5b610506826108d7565b634e487b7160e01b600052604160045260246000fd5b60008060006060848603121561096357600080fd5b61096c846108d7565b925060208401359150604084013567ffffffffffffffff8082111561099057600080fd5b818601915086601f8301126109a457600080fd5b8135818111156109b6576109b6610938565b604051601f8201601f19908116603f011681019083821181831017156109de576109de610938565b816040528281528960208487010111156109f757600080fd5b8260208601602083013760006020848301015280955050505050509250925092565b600080600060608486031215610a2e57600080fd5b610a37846108d7565b9250610a45602085016108d7565b9150604084013590509250925092565b6020808252600e908201526d13db9b1e481c9958da5c1a595b9d60921b604082015260600190565b634e487b7160e01b600052601160045260246000fd5b80820180821115610aa657610aa6610a7d565b92915050565b81810381811115610aa657610aa6610a7d565b600060208284031215610ad157600080fd5b5051919050565b600060208284031215610aea57600080fd5b8151801515811461050657600080fd5b8082028115828204841417610aa657610aa6610a7d565b600082610b2e57634e487b7160e01b600052601260045260246000fd5b50049056fea2646970667358221220da953f3539b4811896822964cdae8fd8dbddd5ca302eabf95dda07827c4be06264736f6c63430008110033",
  "linkReferences": {},
  "deployedLinkReferences": {}
}