{
  "_format": "hh-sol-artifact-1",
  "contractName": "GovernanceDAO",
  "sourceName": "contracts/GovernanceDAO.sol",
  "abi": [
    {
      "inputs": [
        {
          "internalType": "address",
          "name": "_firstUser",
          "type": "address"
        },
        {
          "internalType": "string",
          "name": "_name",
          "type": "string"
        }
      ],
      "stateMutability": "nonpayable",
      "type": "constructor"
    },
    {
      "anonymous": false,
      "inputs": [
        {
          "indexed": true,
          "internalType": "uint256",
          "name": "_id",
          "type": "uint256"
        },
        {
          "indexed": false,
          "internalType": "uint8",
          "name": "_status",
          "type": "uint8"
        }
      ],
      "name": "ChangeStatus",
      "type": "event"
    },
    {
      "anonymous": false,
      "inputs": [
        {
          "indexed": true,
          "internalType": "address",
          "name": "_sender",
          "type": "address"
        },
        {
          "indexed": true,
          "internalType": "uint256",
          "name": "_id",
          "type": "uint256"
        },
        {
          "indexed": false,
          "internalType": "uint256",
          "name": "_pay",
          "type": "uint256"
        }
      ],
      "name": "Claim",
      "type": "event"
    },
    {
      "anonymous": false,
      "inputs": [
        {
          "indexed": true,
          "internalType": "uint256",
          "name": "_id",
          "type": "uint256"
        },
        {
          "indexed": false,
          "internalType": "uint256",
          "name": "_reward",
          "type": "uint256"
        }
      ],
      "name": "CreateProposal",
      "type": "event"
    },
    {
      "anonymous": false,
      "inputs": [
        {
          "indexed": true,
          "internalType": "address",
          "name": "_sender",
          "type": "address"
        },
        {
          "indexed": true,
          "internalType": "uint256",
          "name": "_id",
          "type": "uint256"
        },
        {
          "indexed": false,
          "internalType": "bool",
          "name": "_answer",
          "type": "bool"
        }
      ],
      "name": "Vote",
      "type": "event"
    },
    {
      "inputs": [
        {
          "internalType": "address",
          "name": "_user",
          "type": "address"
        },
        {
          "internalType": "string",
          "name": "_name",
          "type": "string"
        }
      ],
      "name": "addUserInDAO",
      "outputs": [],
      "stateMutability": "nonpayable",
      "type": "function"
    },
    {
      "inputs": [
        {
          "internalType": "uint256",
          "name": "_id",
          "type": "uint256"
        },
        {
          "internalType": "address",
          "name": "_user",
          "type": "address"
        }
      ],
      "name": "checkClaim",
      "outputs": [
        {
          "internalType": "bool",
          "name": "",
          "type": "bool"
        }
      ],
      "stateMutability": "view",
      "type": "function"
    },
    {
      "inputs": [
        {
          "internalType": "uint256",
          "name": "_id",
          "type": "uint256"
        }
      ],
      "name": "claim",
      "outputs": [],
      "stateMutability": "nonpayable",
      "type": "function"
    },
    {
      "inputs": [
        {
          "internalType": "address",
          "name": "_contract",
          "type": "address"
        },
        {
          "internalType": "bytes",
          "name": "_data",
          "type": "bytes"
        },
        {
          "internalType": "string",
          "name": "_comment",
          "type": "string"
        }
      ],
      "name": "createProposal",
      "outputs": [],
      "stateMutability": "payable",
      "type": "function"
    },
    {
      "inputs": [
        {
          "internalType": "address",
          "name": "_user",
          "type": "address"
        }
      ],
      "name": "delUserInDAO",
      "outputs": [],
      "stateMutability": "nonpayable",
      "type": "function"
    },
    {
      "inputs": [
        {
          "internalType": "uint256",
          "name": "_id",
          "type": "uint256"
        }
      ],
      "name": "execute",
      "outputs": [],
      "stateMutability": "nonpayable",
      "type": "function"
    },
    {
      "inputs": [],
      "name": "expire_period",
      "outputs": [
        {
          "internalType": "uint256",
          "name": "",
          "type": "uint256"
        }
      ],
      "stateMutability": "view",
      "type": "function"
    },
    {
      "inputs": [
        {
          "internalType": "address",
          "name": "_user",
          "type": "address"
        },
        {
          "internalType": "uint256",
          "name": "_start_ID",
          "type": "uint256"
        },
        {
          "internalType": "uint256",
          "name": "_amount",
          "type": "uint256"
        }
      ],
      "name": "getClaimList",
      "outputs": [
        {
          "internalType": "uint256[]",
          "name": "",
          "type": "uint256[]"
        },
        {
          "internalType": "bool[]",
          "name": "",
          "type": "bool[]"
        }
      ],
      "stateMutability": "view",
      "type": "function"
    },
    {
      "inputs": [
        {
          "internalType": "uint256",
          "name": "_id",
          "type": "uint256"
        }
      ],
      "name": "getProposal",
      "outputs": [
        {
          "components": [
            {
              "internalType": "uint256",
              "name": "id",
              "type": "uint256"
            },
            {
              "internalType": "uint256",
              "name": "time",
              "type": "uint256"
            },
            {
              "internalType": "uint256",
              "name": "reward",
              "type": "uint256"
            },
            {
              "internalType": "uint256",
              "name": "deadLine",
              "type": "uint256"
            },
            {
              "internalType": "address",
              "name": "owner",
              "type": "address"
            },
            {
              "internalType": "uint8",
              "name": "status",
              "type": "uint8"
            },
            {
              "internalType": "string",
              "name": "comment",
              "type": "string"
            },
            {
              "internalType": "address[]",
              "name": "vocesYes",
              "type": "address[]"
            },
            {
              "internalType": "address[]",
              "name": "vocesNo",
              "type": "address[]"
            },
            {
              "internalType": "address",
              "name": "to",
              "type": "address"
            },
            {
              "internalType": "bytes",
              "name": "data",
              "type": "bytes"
            }
          ],
          "internalType": "struct GovernanceDAO.ProposalData",
          "name": "",
          "type": "tuple"
        }
      ],
      "stateMutability": "view",
      "type": "function"
    },
    {
      "inputs": [
        {
          "internalType": "uint256",
          "name": "_start_ID",
          "type": "uint256"
        },
        {
          "internalType": "uint256",
          "name": "_amount",
          "type": "uint256"
        }
      ],
      "name": "getProposalsList",
      "outputs": [
        {
          "components": [
            {
              "internalType": "uint256",
              "name": "id",
              "type": "uint256"
            },
            {
              "internalType": "uint256",
              "name": "time",
              "type": "uint256"
            },
            {
              "internalType": "uint256",
              "name": "reward",
              "type": "uint256"
            },
            {
              "internalType": "uint256",
              "name": "deadLine",
              "type": "uint256"
            },
            {
              "internalType": "address",
              "name": "owner",
              "type": "address"
            },
            {
              "internalType": "uint8",
              "name": "status",
              "type": "uint8"
            },
            {
              "internalType": "string",
              "name": "comment",
              "type": "string"
            },
            {
              "internalType": "address[]",
              "name": "vocesYes",
              "type": "address[]"
            },
            {
              "internalType": "address[]",
              "name": "vocesNo",
              "type": "address[]"
            },
            {
              "internalType": "address",
              "name": "to",
              "type": "address"
            },
            {
              "internalType": "bytes",
              "name": "data",
              "type": "bytes"
            }
          ],
          "internalType": "struct GovernanceDAO.ProposalData[]",
          "name": "",
          "type": "tuple[]"
        }
      ],
      "stateMutability": "view",
      "type": "function"
    },
    {
      "inputs": [
        {
          "internalType": "address",
          "name": "_user",
          "type": "address"
        }
      ],
      "name": "getUser",
      "outputs": [
        {
          "components": [
            {
              "internalType": "uint256",
              "name": "index",
              "type": "uint256"
            },
            {
              "internalType": "uint256",
              "name": "votes",
              "type": "uint256"
            },
            {
              "internalType": "uint256",
              "name": "entered",
              "type": "uint256"
            },
            {
              "internalType": "address",
              "name": "userAddr",
              "type": "address"
            },
            {
              "internalType": "string",
              "name": "name",
              "type": "string"
            }
          ],
          "internalType": "struct GovernanceDAO.UserData",
          "name": "",
          "type": "tuple"
        }
      ],
      "stateMutability": "view",
      "type": "function"
    },
    {
      "inputs": [
        {
          "internalType": "uint256",
          "name": "_start_index",
          "type": "uint256"
        },
        {
          "internalType": "uint256",
          "name": "_amount",
          "type": "uint256"
        }
      ],
      "name": "getUsersList",
      "outputs": [
        {
          "components": [
            {
              "internalType": "uint256",
              "name": "index",
              "type": "uint256"
            },
            {
              "internalType": "uint256",
              "name": "votes",
              "type": "uint256"
            },
            {
              "internalType": "uint256",
              "name": "entered",
              "type": "uint256"
            },
            {
              "internalType": "address",
              "name": "userAddr",
              "type": "address"
            },
            {
              "internalType": "string",
              "name": "name",
              "type": "string"
            }
          ],
          "internalType": "struct GovernanceDAO.UserData[]",
          "name": "",
          "type": "tuple[]"
        }
      ],
      "stateMutability": "view",
      "type": "function"
    },
    {
      "inputs": [],
      "name": "min_payment_DAO",
      "outputs": [
        {
          "internalType": "uint256",
          "name": "",
          "type": "uint256"
        }
      ],
      "stateMutability": "view",
      "type": "function"
    },
    {
      "inputs": [],
      "name": "min_payment_other",
      "outputs": [
        {
          "internalType": "uint256",
          "name": "",
          "type": "uint256"
        }
      ],
      "stateMutability": "view",
      "type": "function"
    },
    {
      "inputs": [
        {
          "internalType": "uint256",
          "name": "_period",
          "type": "uint256"
        }
      ],
      "name": "setExpirePeriod",
      "outputs": [],
      "stateMutability": "nonpayable",
      "type": "function"
    },
    {
      "inputs": [
        {
          "internalType": "uint256",
          "name": "_min_payment_DAO",
          "type": "uint256"
        },
        {
          "internalType": "uint256",
          "name": "_min_payment_other",
          "type": "uint256"
        }
      ],
      "name": "setMinPayments",
      "outputs": [],
      "stateMutability": "nonpayable",
      "type": "function"
    },
    {
      "inputs": [],
      "name": "total_close_voting",
      "outputs": [
        {
          "internalType": "uint256",
          "name": "",
          "type": "uint256"
        }
      ],
      "stateMutability": "view",
      "type": "function"
    },
    {
      "inputs": [],
      "name": "total_user",
      "outputs": [
        {
          "internalType": "uint256",
          "name": "",
          "type": "uint256"
        }
      ],
      "stateMutability": "view",
      "type": "function"
    },
    {
      "inputs": [],
      "name": "total_voting",
      "outputs": [
        {
          "internalType": "uint256",
          "name": "",
          "type": "uint256"
        }
      ],
      "stateMutability": "view",
      "type": "function"
    },
    {
      "inputs": [
        {
          "internalType": "uint256",
          "name": "_id",
          "type": "uint256"
        },
        {
          "internalType": "bool",
          "name": "_answer",
          "type": "bool"
        }
      ],
      "name": "vote",
      "outputs": [],
      "stateMutability": "nonpayable",
      "type": "function"
    }
  ],
  "bytecode": "0x60806040526203f48060035568056bc75e2d6310000060045569021e19e0c9bab24000006005553480156200003357600080fd5b50604051620022383803806200223883398101604081905262000056916200012b565b600260008154620000679062000221565b9091555060028054600090815260066020908152604080832080546001600160a01b03199081166001600160a01b03898116918217909355835160a0810185528754815280860187815281860188815260608301848152608084018c8152948a526007909852959097208151815596516001880155935196860196909655925160038501805490941691161790915591516004820190620001099082620002d8565b509050505050620003a4565b634e487b7160e01b600052604160045260246000fd5b600080604083850312156200013f57600080fd5b82516001600160a01b03811681146200015757600080fd5b602084810151919350906001600160401b03808211156200017757600080fd5b818601915086601f8301126200018c57600080fd5b815181811115620001a157620001a162000115565b604051601f8201601f19908116603f01168101908382118183101715620001cc57620001cc62000115565b816040528281528986848701011115620001e557600080fd5b600093505b82841015620002095784840186015181850187015292850192620001ea565b60008684830101528096505050505050509250929050565b6000600182016200024257634e487b7160e01b600052601160045260246000fd5b5060010190565b600181811c908216806200025e57607f821691505b6020821081036200027f57634e487b7160e01b600052602260045260246000fd5b50919050565b601f821115620002d357600081815260208120601f850160051c81016020861015620002ae5750805b601f850160051c820191505b81811015620002cf57828155600101620002ba565b5050505b505050565b81516001600160401b03811115620002f457620002f462000115565b6200030c8162000305845462000249565b8462000285565b602080601f8311600181146200034457600084156200032b5750858301515b600019600386901b1c1916600185901b178555620002cf565b600085815260208120601f198616915b82811015620003755788860151825594840194600190910190840162000354565b5085821015620003945787850151600019600388901b60f8161c191681555b5050505050600190811b01905550565b611e8480620003b46000396000f3fe60806040526004361061011f5760003560e01c80636f77926b116100a0578063ce83ad9611610064578063ce83ad9614610315578063d7a52fa914610335578063eb72d0c814610355578063ef81bf1b14610382578063fe0d94c1146103a257600080fd5b80636f77926b1461026f578063b02909141461029c578063be8e4d19146102b2578063c7f758a8146102c8578063c9d27afe146102f557600080fd5b8063396e75cc116100e7578063396e75cc146101d557806340912990146102025780634dee3534146102185780635d0033321461024657806364bd0cb21461025c57600080fd5b806301081fc31461012457806310a4a2dc1461014657806323ddd0711461016f5780633121895414610185578063379607f5146101b5575b600080fd5b34801561013057600080fd5b5061014461013f36600461162f565b6103c2565b005b34801561015257600080fd5b5061015c60035481565b6040519081526020015b60405180910390f35b34801561017b57600080fd5b5061015c60015481565b34801561019157600080fd5b506101a56101a0366004611651565b6104d1565b6040519015158152602001610166565b3480156101c157600080fd5b506101446101d036600461167d565b6104fe565b3480156101e157600080fd5b506101f56101f0366004611696565b61068a565b6040516101669190611832565b34801561020e57600080fd5b5061015c60025481565b34801561022457600080fd5b50610238610233366004611894565b61073a565b6040516101669291906118c7565b34801561025257600080fd5b5061015c60045481565b61014461026a36600461198d565b61086b565b34801561027b57600080fd5b5061028f61028a36600461162f565b610a32565b6040516101669190611a5b565b3480156102a857600080fd5b5061015c60055481565b3480156102be57600080fd5b5061015c60005481565b3480156102d457600080fd5b506102e86102e336600461167d565b610b26565b6040516101669190611a6e565b34801561030157600080fd5b50610144610310366004611a81565b610d17565b34801561032157600080fd5b50610144610330366004611ab6565b611066565b34801561034157600080fd5b5061014461035036600461167d565b6111bc565b34801561036157600080fd5b50610375610370366004611696565b6111ff565b6040516101669190611b09565b34801561038e57600080fd5b5061014461039d366004611696565b6112c7565b3480156103ae57600080fd5b506101446103bd36600461167d565b6112f1565b3033146103ea5760405162461bcd60e51b81526004016103e190611b5e565b60405180910390fd5b6001600160a01b03811660009081526007602052604090205480156104cd5760025481146104565760025460009081526006602090815260408083205484845281842080546001600160a01b0319166001600160a01b0390921691821790558352600790915290208190555b60028054600090815260066020908152604080832080546001600160a01b03199081169091556001600160a01b0387168452600790925282208281556001810183905592830182905560038301805490911690556104b76004830182611519565b50506002600081546104c890611ba0565b909155505b5050565b60008281526009602090815260408083206001600160a01b038516845290915290205460ff165b92915050565b6000818152600860205260409020600401546001600160a01b90910460ff16116105665760405162461bcd60e51b81526020600482015260196024820152781c1c9bdc1bdcd85b081a5cc81b9bdd0818dbdb5c1b195d1959603a1b60448201526064016103e1565b600081815260096020908152604080832033845290915290205460ff166105bc5760405162461bcd60e51b815260206004820152600a6024820152691b9bc81c185e5b595b9d60b21b60448201526064016103e1565b60008181526009602090815260408083203384528252808320805460ff191690558383526008909152812060078101546006909101546105fc9190611bb7565b6000838152600860205260408120600201549192509061061d908390611bca565b604051909150339082156108fc029083906000818181858888f1935050505015801561064d573d6000803e3d6000fd5b50604051818152839033907f34fcbac0073d7c3d388e51312faf357774904998eeb8fca628b9e6f65ee1cbf79060200160405180910390a3505050565b606060008267ffffffffffffffff8111156106a7576106a7611bec565b6040519080825280602002602001820160405280156106e057816020015b6106cd611553565b8152602001906001900390816106c55790505b50905060005b8381101561073257610702856106fb81611c02565b9650610b26565b82828151811061071457610714611c1b565b6020026020010181905250808061072a90611c02565b9150506106e6565b509392505050565b60608060008367ffffffffffffffff81111561075857610758611bec565b604051908082528060200260200182016040528015610781578160200160208202803683370190505b50905060008467ffffffffffffffff81111561079f5761079f611bec565b6040519080825280602002602001820160405280156107c8578160200160208202803683370190505b50905060005b8581101561085e57868382815181106107e9576107e9611c1b565b60209081029190910181019190915260008881526009825260408082206001600160a01b038c1683529092522054825160ff9091169083908390811061083157610831611c1b565b9115156020928302919091019091015261084a87611c02565b96508061085681611c02565b9150506107ce565b5090969095509350505050565b33600090815260076020526040902054156108c7576004543410156108c25760405162461bcd60e51b815260206004820152600d60248201526c1cdb585b1b081c185e5b595b9d609a1b60448201526064016103e1565b610909565b6005543410156109095760405162461bcd60e51b815260206004820152600d60248201526c1cdb585b1b081c185e5b595b9d609a1b60448201526064016103e1565b600080815461091790611c02565b909155506000805480825260086020526040808320918255426001909201829055825483529091203460029091015560035461095291611bb7565b600080548152600860205260408082206003019290925580548152818120600490810180546001600160a01b031916331790558154825282822001805460ff60a01b1916600160a01b17905580548152206005016109b1828483611cb1565b5060008054815260086020819052604080832090910180546001600160a01b0319166001600160a01b0389161790558154825290206009016109f4848683611cb1565b506000546040513481527f6638d63c6abdbf0a059e322e8c8b9401488d94b95731a935ca9f76cde49fa4839060200160405180910390a25050505050565b610a3a6115c2565b6001600160a01b03808316600090815260076020908152604091829020825160a0810184528154815260018201549281019290925260028101549282019290925260038201549092166060830152600481018054608084019190610a9d90611c31565b80601f0160208091040260200160405190810160405280929190818152602001828054610ac990611c31565b8015610b165780601f10610aeb57610100808354040283529160200191610b16565b820191906000526020600020905b815481529060010190602001808311610af957829003601f168201915b5050505050815250509050919050565b610b2e611553565b600082815260086020908152604091829020825161016081018452815481526001820154928101929092526002810154928201929092526003820154606082015260048201546001600160a01b0381166080830152600160a01b900460ff1660a082015260058201805491929160c084019190610baa90611c31565b80601f0160208091040260200160405190810160405280929190818152602001828054610bd690611c31565b8015610c235780601f10610bf857610100808354040283529160200191610c23565b820191906000526020600020905b815481529060010190602001808311610c0657829003601f168201915b5050505050815260200160068201805480602002602001604051908101604052809291908181526020018280548015610c8557602002820191906000526020600020905b81546001600160a01b03168152600190910190602001808311610c67575b5050505050815260200160078201805480602002602001604051908101604052809291908181526020018280548015610ce757602002820191906000526020600020905b81546001600160a01b03168152600190910190602001808311610cc9575b505050918352505060088201546001600160a01b03166020820152600982018054604090920191610a9d90611c31565b600082815260086020526040902060010154610d755760405162461bcd60e51b815260206004820152601760248201527f70726f706f73616c20646f6573206e6f7420657869737400000000000000000060448201526064016103e1565b6000828152600860205260409020600401546001600160a01b90910460ff161115610d9e575050565b600082815260086020526040902060030154421115610e27576000828152600860205260408120600401805460ff60a01b1916600160a11b17905560018054909190610de990611c02565b909155506040516002815282907f199c49764c24c272ab05711f746ea69945084e537b524515f05902c3c9a7e9e89060200160405180910390a25050565b3360009081526007602052604090205480610e7b5760405162461bcd60e51b81526020600482015260146024820152733cb7ba9030b932903737ba10309036b2b6b132b960611b60448201526064016103e1565b600083815260096020908152604080832033845290915290205460ff1615610ede5760405162461bcd60e51b81526020600482015260166024820152751e5bdd481a185d9948185b1c9958591e481d9bdd195960521b60448201526064016103e1565b60008381526009602090815260408083203384528252808320805460ff191660019081179091556007909252822001805491610f1983611c02565b90915550506040518215158152839033907f8d85a70fd2c5d140a4a01143492d27ff82cfad4cead313e66c53f39b0feb5e0f9060200160405180910390a38115610f935760008381526008602090815260408220600601805460018101825590835291200180546001600160a01b03191633179055610fc5565b60008381526008602090815260408220600701805460018101825590835291200180546001600160a01b031916331790555b60008381526008602052604081206007810154600690910154610fe89190611bb7565b90506002548103611060576000848152600860205260408120600401805460ff60a01b1916600160a11b1790556001805490919061102590611c02565b909155506040516002815284907f199c49764c24c272ab05711f746ea69945084e537b524515f05902c3c9a7e9e89060200160405180910390a25b50505050565b3033146110855760405162461bcd60e51b81526004016103e190611b5e565b6001600160a01b038316156111b7576001600160a01b03831660009081526007602052604081205490036111b7576002600081546110c290611c02565b9091555060028054600090815260066020908152604080832080546001600160a01b0319166001600160a01b038916908117909155815160a08101835294548552848301939093526001548482015260608401929092528151601f8501829004820281018201909252838252608083019190859085908190840183828082843760009201829052509390945250506001600160a01b038681168252600760209081526040928390208551815590850151600182015591840151600283015560608401516003830180546001600160a01b03191691909216179055608083015190915060048201906111b39082611d72565b5050505b505050565b3033146111db5760405162461bcd60e51b81526004016103e190611b5e565b6203f48081101580156111f15750621275008111155b156111fc5760038190555b50565b606060008267ffffffffffffffff81111561121c5761121c611bec565b60405190808252806020026020018201604052801561125557816020015b6112426115c2565b81526020019060019003908161123a5790505b50905060005b8381101561073257611297600660008761127481611c02565b9082526020820192909252604001600020549096506001600160a01b0316610a32565b8282815181106112a9576112a9611c1b565b602002602001018190525080806112bf90611c02565b91505061125b565b3033146112e65760405162461bcd60e51b81526004016103e190611b5e565b600491909155600555565b600081815260086020526040902060040154600160a01b900460ff166002146113585760405162461bcd60e51b81526020600482015260196024820152781c1c9bdc1bdcd85b081a5cc81b9bdd0818dbdb5c1b195d1959603a1b60448201526064016103e1565b600081815260086020526040902060048101805460ff60a01b1916600360a01b179055600781015460069091015411156114435760008181526008602081905260409091209081015460099091018054611443926001600160a01b031691906113c090611c31565b80601f01602080910402602001604051908101604052809291908181526020018280546113ec90611c31565b80156114395780601f1061140e57610100808354040283529160200191611439565b820191906000526020600020905b81548152906001019060200180831161141c57829003601f168201915b505050505061147c565b6040516003815281907f199c49764c24c272ab05711f746ea69945084e537b524515f05902c3c9a7e9e89060200160405180910390a250565b6000826001600160a01b0316826040516114969190611e32565b6000604051808303816000865af19150503d80600081146114d3576040519150601f19603f3d011682016040523d82523d6000602084013e6114d8565b606091505b50509050806111b75760405162461bcd60e51b815260206004820152600d60248201526c22bc32b1baba329032b93937b960991b60448201526064016103e1565b50805461152590611c31565b6000825580601f10611535575050565b601f0160209004906000526020600020908101906111fc91906115fa565b6040518061016001604052806000815260200160008152602001600081526020016000815260200160006001600160a01b03168152602001600060ff16815260200160608152602001606081526020016060815260200160006001600160a01b03168152602001606081525090565b6040518060a0016040528060008152602001600081526020016000815260200160006001600160a01b03168152602001606081525090565b5b8082111561160f57600081556001016115fb565b5090565b80356001600160a01b038116811461162a57600080fd5b919050565b60006020828403121561164157600080fd5b61164a82611613565b9392505050565b6000806040838503121561166457600080fd5b8235915061167460208401611613565b90509250929050565b60006020828403121561168f57600080fd5b5035919050565b600080604083850312156116a957600080fd5b50508035926020909101359150565b60005b838110156116d35781810151838201526020016116bb565b50506000910152565b600081518084526116f48160208601602086016116b8565b601f01601f19169290920160200192915050565b600081518084526020808501945080840160005b838110156117415781516001600160a01b03168752958201959082019060010161171c565b509495945050505050565b600061016082518452602083015160208501526040830151604085015260608301516060850152608083015161178d60808601826001600160a01b03169052565b5060a08301516117a260a086018260ff169052565b5060c08301518160c08601526117ba828601826116dc565b91505060e083015184820360e08601526117d48282611708565b91505061010080840151858303828701526117ef8382611708565b925050506101208084015161180e828701826001600160a01b03169052565b5050610140808401518583038287015261182883826116dc565b9695505050505050565b6000602080830181845280855180835260408601915060408160051b870101925083870160005b8281101561188757603f1988860301845261187585835161174c565b94509285019290850190600101611859565b5092979650505050505050565b6000806000606084860312156118a957600080fd5b6118b284611613565b95602085013595506040909401359392505050565b604080825283519082018190526000906020906060840190828701845b82811015611900578151845292840192908401906001016118e4565b5050508381038285015284518082528583019183019060005b81811015611937578351151583529284019291840191600101611919565b5090979650505050505050565b60008083601f84011261195657600080fd5b50813567ffffffffffffffff81111561196e57600080fd5b60208301915083602082850101111561198657600080fd5b9250929050565b6000806000806000606086880312156119a557600080fd5b6119ae86611613565b9450602086013567ffffffffffffffff808211156119cb57600080fd5b6119d789838a01611944565b909650945060408801359150808211156119f057600080fd5b506119fd88828901611944565b969995985093965092949392505050565b80518252602081015160208301526040810151604083015260018060a01b0360608201511660608301526000608082015160a06080850152611a5360a08501826116dc565b949350505050565b60208152600061164a6020830184611a0e565b60208152600061164a602083018461174c565b60008060408385031215611a9457600080fd5b8235915060208301358015158114611aab57600080fd5b809150509250929050565b600080600060408486031215611acb57600080fd5b611ad484611613565b9250602084013567ffffffffffffffff811115611af057600080fd5b611afc86828701611944565b9497909650939450505050565b6000602080830181845280855180835260408601915060408160051b870101925083870160005b8281101561188757603f19888603018452611b4c858351611a0e565b94509285019290850190600101611b30565b6020808252601290820152714f6e6c7920476f7665726e616e636544414f60701b604082015260600190565b634e487b7160e01b600052601160045260246000fd5b600081611baf57611baf611b8a565b506000190190565b808201808211156104f8576104f8611b8a565b600082611be757634e487b7160e01b600052601260045260246000fd5b500490565b634e487b7160e01b600052604160045260246000fd5b600060018201611c1457611c14611b8a565b5060010190565b634e487b7160e01b600052603260045260246000fd5b600181811c90821680611c4557607f821691505b602082108103611c6557634e487b7160e01b600052602260045260246000fd5b50919050565b601f8211156111b757600081815260208120601f850160051c81016020861015611c925750805b601f850160051c820191505b818110156111b357828155600101611c9e565b67ffffffffffffffff831115611cc957611cc9611bec565b611cdd83611cd78354611c31565b83611c6b565b6000601f841160018114611d115760008515611cf95750838201355b600019600387901b1c1916600186901b178355611d6b565b600083815260209020601f19861690835b82811015611d425786850135825560209485019460019092019101611d22565b5086821015611d5f5760001960f88860031b161c19848701351681555b505060018560011b0183555b5050505050565b815167ffffffffffffffff811115611d8c57611d8c611bec565b611da081611d9a8454611c31565b84611c6b565b602080601f831160018114611dd55760008415611dbd5750858301515b600019600386901b1c1916600185901b1785556111b3565b600085815260208120601f198616915b82811015611e0457888601518255948401946001909101908401611de5565b5085821015611e225787850151600019600388901b60f8161c191681555b5050505050600190811b01905550565b60008251611e448184602087016116b8565b919091019291505056fea2646970667358221220638370b85ff54cf0739e8ec632cc8fa8d4e56516ed7687ad8345cf063abecbc764736f6c63430008110033",
  "linkReferences": {},
  "deployedLinkReferences": {}
}