{
  "_format": "hh-sol-artifact-1",
  "contractName": "WalletDAO",
  "sourceName": "contracts/WalletDAO.sol",
  "abi": [
    {
      "anonymous": false,
      "inputs": [
        {
          "indexed": true,
          "internalType": "address",
          "name": "_sender",
          "type": "address"
        },
        {
          "indexed": true,
          "internalType": "address",
          "name": "_recipient",
          "type": "address"
        },
        {
          "indexed": false,
          "internalType": "uint256",
          "name": "_value",
          "type": "uint256"
        }
      ],
      "name": "TransferCLO",
      "type": "event"
    },
    {
      "inputs": [],
      "name": "ColdStaking",
      "outputs": [
        {
          "internalType": "address",
          "name": "",
          "type": "address"
        }
      ],
      "stateMutability": "view",
      "type": "function"
    },
    {
      "inputs": [],
      "name": "DAO",
      "outputs": [
        {
          "internalType": "address",
          "name": "",
          "type": "address"
        }
      ],
      "stateMutability": "view",
      "type": "function"
    },
    {
      "inputs": [],
      "name": "TwoBearsBalances",
      "outputs": [
        {
          "internalType": "address",
          "name": "",
          "type": "address"
        }
      ],
      "stateMutability": "view",
      "type": "function"
    },
    {
      "inputs": [],
      "name": "TwoBearsBots",
      "outputs": [
        {
          "internalType": "address",
          "name": "",
          "type": "address"
        }
      ],
      "stateMutability": "view",
      "type": "function"
    },
    {
      "inputs": [],
      "name": "WCLO",
      "outputs": [
        {
          "internalType": "address",
          "name": "",
          "type": "address"
        }
      ],
      "stateMutability": "view",
      "type": "function"
    },
    {
      "inputs": [],
      "name": "coldStaking_Claim",
      "outputs": [],
      "stateMutability": "nonpayable",
      "type": "function"
    },
    {
      "inputs": [
        {
          "internalType": "uint256",
          "name": "_value",
          "type": "uint256"
        },
        {
          "internalType": "uint256",
          "name": "_rounds",
          "type": "uint256"
        }
      ],
      "name": "coldStaking_Start",
      "outputs": [],
      "stateMutability": "nonpayable",
      "type": "function"
    },
    {
      "inputs": [],
      "name": "coldStaking_Withdraw",
      "outputs": [],
      "stateMutability": "nonpayable",
      "type": "function"
    },
    {
      "inputs": [
        {
          "internalType": "address",
          "name": "_from",
          "type": "address"
        },
        {
          "internalType": "uint256",
          "name": "_value",
          "type": "uint256"
        },
        {
          "internalType": "bytes",
          "name": "_data",
          "type": "bytes"
        }
      ],
      "name": "tokenReceived",
      "outputs": [
        {
          "internalType": "bytes4",
          "name": "",
          "type": "bytes4"
        }
      ],
      "stateMutability": "nonpayable",
      "type": "function"
    },
    {
      "inputs": [
        {
          "internalType": "address",
          "name": "_token",
          "type": "address"
        },
        {
          "internalType": "bool",
          "name": "_permission",
          "type": "bool"
        }
      ],
      "name": "twoBears_Approve",
      "outputs": [],
      "stateMutability": "nonpayable",
      "type": "function"
    },
    {
      "inputs": [
        {
          "internalType": "address",
          "name": "_token_in",
          "type": "address"
        },
        {
          "internalType": "address",
          "name": "_token_out",
          "type": "address"
        },
        {
          "internalType": "uint256",
          "name": "_value_sell",
          "type": "uint256"
        },
        {
          "internalType": "uint256",
          "name": "_value_buy",
          "type": "uint256"
        },
        {
          "internalType": "uint256",
          "name": "_price",
          "type": "uint256"
        },
        {
          "internalType": "uint256",
          "name": "_price_step",
          "type": "uint256"
        },
        {
          "internalType": "uint256",
          "name": "_price_up_limit",
          "type": "uint256"
        },
        {
          "internalType": "uint256",
          "name": "_price_down_limit",
          "type": "uint256"
        }
      ],
      "name": "twoBears_BotNetTrade",
      "outputs": [],
      "stateMutability": "nonpayable",
      "type": "function"
    },
    {
      "inputs": [
        {
          "internalType": "address",
          "name": "_token_in",
          "type": "address"
        },
        {
          "internalType": "address",
          "name": "_token_out",
          "type": "address"
        },
        {
          "internalType": "uint256",
          "name": "_value",
          "type": "uint256"
        },
        {
          "internalType": "uint256",
          "name": "_value_inc",
          "type": "uint256"
        },
        {
          "internalType": "uint256",
          "name": "_price",
          "type": "uint256"
        },
        {
          "internalType": "uint256",
          "name": "_price_step",
          "type": "uint256"
        },
        {
          "internalType": "uint256",
          "name": "_price_limit",
          "type": "uint256"
        }
      ],
      "name": "twoBears_BotSellBuy",
      "outputs": [],
      "stateMutability": "nonpayable",
      "type": "function"
    },
    {
      "inputs": [
        {
          "internalType": "uint256",
          "name": "_id_bot",
          "type": "uint256"
        }
      ],
      "name": "twoBears_DeleteBot",
      "outputs": [],
      "stateMutability": "nonpayable",
      "type": "function"
    },
    {
      "inputs": [
        {
          "internalType": "uint256",
          "name": "_id_bot",
          "type": "uint256"
        }
      ],
      "name": "twoBears_RestoreBot",
      "outputs": [],
      "stateMutability": "nonpayable",
      "type": "function"
    },
    {
      "inputs": [],
      "name": "twoBears_ViewListBots",
      "outputs": [
        {
          "internalType": "uint256[]",
          "name": "",
          "type": "uint256[]"
        }
      ],
      "stateMutability": "view",
      "type": "function"
    },
    {
      "inputs": [
        {
          "internalType": "address",
          "name": "_token",
          "type": "address"
        }
      ],
      "name": "walletDAO_AddTokenTracking",
      "outputs": [],
      "stateMutability": "nonpayable",
      "type": "function"
    },
    {
      "inputs": [
        {
          "internalType": "address",
          "name": "_token",
          "type": "address"
        }
      ],
      "name": "walletDAO_DelTokenTracking",
      "outputs": [],
      "stateMutability": "nonpayable",
      "type": "function"
    },
    {
      "inputs": [
        {
          "internalType": "address",
          "name": "_recipient",
          "type": "address"
        },
        {
          "internalType": "uint256",
          "name": "_value",
          "type": "uint256"
        }
      ],
      "name": "walletDAO_TransferCLO",
      "outputs": [],
      "stateMutability": "nonpayable",
      "type": "function"
    },
    {
      "inputs": [
        {
          "internalType": "address",
          "name": "_token",
          "type": "address"
        },
        {
          "internalType": "address",
          "name": "_recipient",
          "type": "address"
        },
        {
          "internalType": "uint256",
          "name": "_value",
          "type": "uint256"
        }
      ],
      "name": "walletDAO_TransferToken",
      "outputs": [],
      "stateMutability": "nonpayable",
      "type": "function"
    },
    {
      "inputs": [
        {
          "internalType": "uint256",
          "name": "_value",
          "type": "uint256"
        }
      ],
      "name": "walletDAO_UnwrapWCLO",
      "outputs": [],
      "stateMutability": "nonpayable",
      "type": "function"
    },
    {
      "inputs": [],
      "name": "walletDAO_ViewBalances",
      "outputs": [
        {
          "components": [
            {
              "internalType": "uint256",
              "name": "balance",
              "type": "uint256"
            },
            {
              "internalType": "uint8",
              "name": "decimal",
              "type": "uint8"
            },
            {
              "internalType": "address",
              "name": "token",
              "type": "address"
            },
            {
              "internalType": "string",
              "name": "symbol",
              "type": "string"
            }
          ],
          "internalType": "struct WalletDAO.TokenData[]",
          "name": "",
          "type": "tuple[]"
        }
      ],
      "stateMutability": "view",
      "type": "function"
    },
    {
      "inputs": [
        {
          "internalType": "uint256",
          "name": "_value",
          "type": "uint256"
        }
      ],
      "name": "walletDAO_WrapCLO",
      "outputs": [],
      "stateMutability": "nonpayable",
      "type": "function"
    },
    {
      "stateMutability": "payable",
      "type": "receive"
    }
  ],
  "bytecode": "0x608060405234801561001057600080fd5b506118fc806100206000396000f3fe6080604052600436106101395760003560e01c80636e3adf8d116100ab57806398fabd3a1161006f57806398fabd3a14610391578063b53a7052146103b3578063be66ca92146103d3578063e1375801146103f3578063f800490314610413578063ff5cf4b11461043357600080fd5b80636e3adf8d146102c957806379cce4f5146102f15780638726968d1461031957806387a7c32a1461032e5780638943ec021461034e57600080fd5b8063232fc349116100fd578063232fc349146101f457806329581b3e146102095780632e5a318d1461022957806344b6d9c41461024957806365fac6dc146102695780636d85e6091461028957600080fd5b806307ac32d81461014557806311a92416146101675780631558c67c1461018757806320357b8c146101b257806322c380e4146101d457600080fd5b3661014057005b600080fd5b34801561015157600080fd5b50610165610160366004611319565b61045b565b005b34801561017357600080fd5b5061016561018236600461134e565b6104fc565b34801561019357600080fd5b5061019c6105a3565b6040516101a9919061138a565b60405180910390f35b3480156101be57600080fd5b506101c76105fb565b6040516101a991906113f2565b3480156101e057600080fd5b506101656101ef366004611319565b6108ad565b34801561020057600080fd5b50610165610943565b34801561021557600080fd5b50610165610224366004611319565b6109d3565b34801561023557600080fd5b506101656102443660046114a3565b610a71565b34801561025557600080fd5b5061016561026436600461150a565b610c09565b34801561027557600080fd5b50610165610284366004611534565b610cb1565b34801561029557600080fd5b506102b173820b5c3835b731ddeb1155ac0b37009e37524a5381565b6040516001600160a01b0390911681526020016101a9565b3480156102d557600080fd5b506102b173c113ed199ef9380e3f93b0a6e25fa86b7298fb1681565b3480156102fd57600080fd5b506102b173f5ad6f6edec824c7fd54a66d241a227f6503ad3a81565b34801561032557600080fd5b50610165610e38565b34801561033a57600080fd5b50610165610349366004611592565b610eb4565b34801561035a57600080fd5b50610378610369366004611623565b6344a1f60160e11b9392505050565b6040516001600160e01b031990911681526020016101a9565b34801561039d57600080fd5b506102b16000805160206118a783398151915281565b3480156103bf57600080fd5b506101656103ce366004611319565b610feb565b3480156103df57600080fd5b506101656103ee366004611592565b611050565b3480156103ff57600080fd5b5061016561040e3660046116cb565b611139565b34801561041f57600080fd5b5061016561042e366004611702565b6111c7565b34801561043f57600080fd5b506102b17308a7c8be47773546dc5e173d67b0c38afffa4b8481565b336000805160206118a7833981519152146104915760405162461bcd60e51b815260040161048890611724565b60405180910390fd5b73f5ad6f6edec824c7fd54a66d241a227f6503ad3a6001600160a01b031663d0e30db0826040518263ffffffff1660e01b81526004016000604051808303818588803b1580156104e057600080fd5b505af11580156104f4573d6000803e3d6000fd5b505050505050565b336000805160206118a7833981519152146105295760405162461bcd60e51b815260040161048890611724565b60405163a9059cbb60e01b81526001600160a01b0383811660048301526024820183905284169063a9059cbb906044015b6020604051808303816000875af1158015610579573d6000803e3d6000fd5b505050506040513d601f19601f8201168201806040525081019061059d919061174f565b50505050565b606060008054806020026020016040519081016040528092919081815260200182805480156105f157602002820191906000526020600020905b8154815260200190600101908083116105dd575b5050505050905090565b6001805460609160009161060e91611782565b67ffffffffffffffff811115610626576106266115b4565b60405190808252806020026020018201604052801561067757816020015b60408051608081018252600080825260208083018290529282015260608082015282526000199092019101816106445790505b5090506040518060800160405280478152602001601260ff16815260200160006001600160a01b0316815260200160405180604001604052806003815260200162434c4f60e81b815250815250816000815181106106d7576106d761179b565b602002602001018190525060005b6001548110156108a7576000600182815481106107045761070461179b565b6000918252602090912001546040805160808101918290526370a0823160e01b9091523060848201526001600160a01b03909116915080826370a0823160a48301602060405180830381865afa158015610762573d6000803e3d6000fd5b505050506040513d601f19601f8201168201806040525081019061078691906117b1565b8152602001826001600160a01b031663313ce5676040518163ffffffff1660e01b8152600401602060405180830381865afa1580156107c9573d6000803e3d6000fd5b505050506040513d601f19601f820116820180604052508101906107ed91906117ca565b60ff168152602001826001600160a01b03168152602001826001600160a01b03166395d89b416040518163ffffffff1660e01b8152600401600060405180830381865afa158015610842573d6000803e3d6000fd5b505050506040513d6000823e601f3d908101601f1916820160405261086a91908101906117ed565b905283610878846001611782565b815181106108885761088861179b565b602002602001018190525050808061089f90611864565b9150506106e5565b50919050565b336000805160206118a7833981519152146108da5760405162461bcd60e51b815260040161048890611724565b604051632e1a7d4d60e01b81526004810182905273f5ad6f6edec824c7fd54a66d241a227f6503ad3a90632e1a7d4d906024015b600060405180830381600087803b15801561092857600080fd5b505af115801561093c573d6000803e3d6000fd5b5050505050565b336000805160206118a7833981519152146109705760405162461bcd60e51b815260040161048890611724565b7308a7c8be47773546dc5e173d67b0c38afffa4b846001600160a01b031663cd9488556040518163ffffffff1660e01b8152600401600060405180830381600087803b1580156109bf57600080fd5b505af115801561059d573d6000803e3d6000fd5b336000805160206118a783398151915214610a005760405162461bcd60e51b815260040161048890611724565b60405163c78f936f60e01b81526004810182905273c113ed199ef9380e3f93b0a6e25fa86b7298fb169063c78f936f90602401600060405180830381600087803b158015610a4d57600080fd5b505af1158015610a61573d6000803e3d6000fd5b50505050610a6e8161125f565b50565b336000805160206118a783398151915214610a9e5760405162461bcd60e51b815260040161048890611724565b604051630185f08b60e51b81526001600160a01b03808a1660048301528816602482015260448101879052606481018690526084810185905260a4810184905260c4810183905260e481018290526000610104820181905261012482015273c113ed199ef9380e3f93b0a6e25fa86b7298fb16906330be11609061014401600060405180830381600087803b158015610b3657600080fd5b505af1158015610b4a573d6000803e3d6000fd5b50505050600073c113ed199ef9380e3f93b0a6e25fa86b7298fb166001600160a01b031663af640d0f6040518163ffffffff1660e01b8152600401602060405180830381865afa158015610ba2573d6000803e3d6000fd5b505050506040513d601f19601f82011682018060405250810190610bc691906117b1565b9050610bfe81600080546001810182559080527f290decd9548b62a8d60345a988386fc84ba6bc95484008f6362f93160ef3e5630155565b505050505050505050565b336000805160206118a783398151915214610c365760405162461bcd60e51b815260040161048890611724565b6040516001600160a01b0383169082156108fc029083906000818181858888f19350505050158015610c6c573d6000803e3d6000fd5b506040518181526001600160a01b0383169030907f4ddebed7447a12da95902559eac51ea2594f93265e70f2d11da210e33abdafcd9060200160405180910390a35050565b336000805160206118a783398151915214610cde5760405162461bcd60e51b815260040161048890611724565b604051632fd96ca960e01b81526001600160a01b0380891660048301528716602482015260448101869052606481018590526084810184905260a4810183905260c48101829052600060e482015273c113ed199ef9380e3f93b0a6e25fa86b7298fb1690632fd96ca99061010401600060405180830381600087803b158015610d6657600080fd5b505af1158015610d7a573d6000803e3d6000fd5b50505050600073c113ed199ef9380e3f93b0a6e25fa86b7298fb166001600160a01b031663af640d0f6040518163ffffffff1660e01b8152600401602060405180830381865afa158015610dd2573d6000803e3d6000fd5b505050506040513d601f19601f82011682018060405250810190610df691906117b1565b9050610e2e81600080546001810182559080527f290decd9548b62a8d60345a988386fc84ba6bc95484008f6362f93160ef3e5630155565b5050505050505050565b336000805160206118a783398151915214610e655760405162461bcd60e51b815260040161048890611724565b7308a7c8be47773546dc5e173d67b0c38afffa4b846001600160a01b0316634e71d92d6040518163ffffffff1660e01b8152600401600060405180830381600087803b1580156109bf57600080fd5b336000805160206118a783398151915214610ee15760405162461bcd60e51b815260040161048890611724565b60005b600154811015610fe757816001600160a01b031660018281548110610f0b57610f0b61179b565b6000918252602090912001546001600160a01b031603610fd55760018054610f3490829061187d565b81548110610f4457610f4461179b565b600091825260209091200154600180546001600160a01b039092169183908110610f7057610f7061179b565b9060005260206000200160006101000a8154816001600160a01b0302191690836001600160a01b031602179055506001805480610faf57610faf611890565b600082815260209020810160001990810180546001600160a01b03191690550190555050565b80610fdf81611864565b915050610ee4565b5050565b336000805160206118a7833981519152146110185760405162461bcd60e51b815260040161048890611724565b60405163038e346960e61b81526004810182905273c113ed199ef9380e3f93b0a6e25fa86b7298fb169063e38d1a409060240161090e565b336000805160206118a78339815191521461107d5760405162461bcd60e51b815260040161048890611724565b6000816001600160a01b031663313ce5676040518163ffffffff1660e01b8152600401602060405180830381865afa1580156110bd573d6000803e3d6000fd5b505050506040513d601f19601f820116820180604052508101906110e191906117ca565b60ff161115610a6e576001805480820182556000919091527fb10e2d527612073b26eecdfd717e6a320cf44b4afac2b0732d9fcbe2b7fa0cf60180546001600160a01b0383166001600160a01b031990911617905550565b336000805160206118a7833981519152146111665760405162461bcd60e51b815260040161048890611724565b600060018215151461117957600061117d565b6000195b60405163095ea7b360e01b815273820b5c3835b731ddeb1155ac0b37009e37524a536004820152602481018290529091506001600160a01b0384169063095ea7b39060440161055a565b336000805160206118a7833981519152146111f45760405162461bcd60e51b815260040161048890611724565b604051635d8c85ef60e01b8152600481018290527308a7c8be47773546dc5e173d67b0c38afffa4b8490635d8c85ef9084906024016000604051808303818588803b15801561124257600080fd5b505af1158015611256573d6000803e3d6000fd5b50505050505050565b60005b600054811015610fe75781600082815481106112805761128061179b565b90600052602060002001540361130757600080546112a09060019061187d565b815481106112b0576112b061179b565b9060005260206000200154600082815481106112ce576112ce61179b565b906000526020600020018190555060008054806112ed576112ed611890565b600190038181906000526020600020016000905590555050565b8061131181611864565b915050611262565b60006020828403121561132b57600080fd5b5035919050565b80356001600160a01b038116811461134957600080fd5b919050565b60008060006060848603121561136357600080fd5b61136c84611332565b925061137a60208501611332565b9150604084013590509250925092565b6020808252825182820181905260009190848201906040850190845b818110156113c2578351835292840192918401916001016113a6565b50909695505050505050565b60005b838110156113e95781810151838201526020016113d1565b50506000910152565b60006020808301818452808551808352604092508286019150828160051b87010184880160005b8381101561149557888303603f190185528151805184528781015160ff1688850152868101516001600160a01b031687850152606090810151608091850182905280519185018290529060a09061147581838801858d016113ce565b96890196601f01601f191694909401909301925090860190600101611419565b509098975050505050505050565b600080600080600080600080610100898b0312156114c057600080fd5b6114c989611332565b97506114d760208a01611332565b979a9799505050506040860135956060810135956080820135955060a0820135945060c0820135935060e0909101359150565b6000806040838503121561151d57600080fd5b61152683611332565b946020939093013593505050565b600080600080600080600060e0888a03121561154f57600080fd5b61155888611332565b965061156660208901611332565b96999698505050506040850135946060810135946080820135945060a0820135935060c0909101359150565b6000602082840312156115a457600080fd5b6115ad82611332565b9392505050565b634e487b7160e01b600052604160045260246000fd5b604051601f8201601f1916810167ffffffffffffffff811182821017156115f3576115f36115b4565b604052919050565b600067ffffffffffffffff821115611615576116156115b4565b50601f01601f191660200190565b60008060006060848603121561163857600080fd5b61164184611332565b925060208401359150604084013567ffffffffffffffff81111561166457600080fd5b8401601f8101861361167557600080fd5b8035611688611683826115fb565b6115ca565b81815287602083850101111561169d57600080fd5b816020840160208301376000602083830101528093505050509250925092565b8015158114610a6e57600080fd5b600080604083850312156116de57600080fd5b6116e783611332565b915060208301356116f7816116bd565b809150509250929050565b6000806040838503121561171557600080fd5b50508035926020909101359150565b6020808252601190820152704f6e6c7920636f6e74726163742044414f60781b604082015260600190565b60006020828403121561176157600080fd5b81516115ad816116bd565b634e487b7160e01b600052601160045260246000fd5b808201808211156117955761179561176c565b92915050565b634e487b7160e01b600052603260045260246000fd5b6000602082840312156117c357600080fd5b5051919050565b6000602082840312156117dc57600080fd5b815160ff811681146115ad57600080fd5b6000602082840312156117ff57600080fd5b815167ffffffffffffffff81111561181657600080fd5b8201601f8101841361182757600080fd5b8051611835611683826115fb565b81815285602083850101111561184a57600080fd5b61185b8260208301602086016113ce565b95945050505050565b6000600182016118765761187661176c565b5060010190565b818103818111156117955761179561176c565b634e487b7160e01b600052603160045260246000fdfe000000000000000000000000810059e1406dedafd1bdca4e0137cba306c0ce36a264697066735822122091e177e220213f7ddb5ba0ee5ab1f38fdaeab5becb8f5aa2935934aaa93fb31e64736f6c63430008110033",
  "linkReferences": {},
  "deployedLinkReferences": {}
}