{
  "_format": "hh-sol-artifact-1",
  "contractName": "WalletDAO",
  "sourceName": "contracts/WalletDAO.sol",
  "abi": [
    {
      "anonymous": false,
      "inputs": [
        {
          "indexed": true,
          "internalType": "address",
          "name": "_sender",
          "type": "address"
        },
        {
          "indexed": true,
          "internalType": "address",
          "name": "_recipient",
          "type": "address"
        },
        {
          "indexed": false,
          "internalType": "uint256",
          "name": "_value",
          "type": "uint256"
        }
      ],
      "name": "TransferCLO",
      "type": "event"
    },
    {
      "inputs": [],
      "name": "ColdStaking",
      "outputs": [
        {
          "internalType": "address",
          "name": "",
          "type": "address"
        }
      ],
      "stateMutability": "view",
      "type": "function"
    },
    {
      "inputs": [],
      "name": "DAO",
      "outputs": [
        {
          "internalType": "address",
          "name": "",
          "type": "address"
        }
      ],
      "stateMutability": "view",
      "type": "function"
    },
    {
      "inputs": [],
      "name": "TwoBearsBalances",
      "outputs": [
        {
          "internalType": "address",
          "name": "",
          "type": "address"
        }
      ],
      "stateMutability": "view",
      "type": "function"
    },
    {
      "inputs": [],
      "name": "TwoBearsBots",
      "outputs": [
        {
          "internalType": "address",
          "name": "",
          "type": "address"
        }
      ],
      "stateMutability": "view",
      "type": "function"
    },
    {
      "inputs": [],
      "name": "WCLO",
      "outputs": [
        {
          "internalType": "address",
          "name": "",
          "type": "address"
        }
      ],
      "stateMutability": "view",
      "type": "function"
    },
    {
      "inputs": [],
      "name": "coldStaking_Claim",
      "outputs": [],
      "stateMutability": "nonpayable",
      "type": "function"
    },
    {
      "inputs": [
        {
          "internalType": "uint256",
          "name": "_value",
          "type": "uint256"
        },
        {
          "internalType": "uint256",
          "name": "_rounds",
          "type": "uint256"
        }
      ],
      "name": "coldStaking_Start",
      "outputs": [],
      "stateMutability": "nonpayable",
      "type": "function"
    },
    {
      "inputs": [],
      "name": "coldStaking_Withdraw",
      "outputs": [],
      "stateMutability": "nonpayable",
      "type": "function"
    },
    {
      "inputs": [
        {
          "internalType": "uint256",
          "name": "",
          "type": "uint256"
        }
      ],
      "name": "listBots",
      "outputs": [
        {
          "internalType": "uint256",
          "name": "",
          "type": "uint256"
        }
      ],
      "stateMutability": "view",
      "type": "function"
    },
    {
      "inputs": [
        {
          "internalType": "address",
          "name": "_from",
          "type": "address"
        },
        {
          "internalType": "uint256",
          "name": "_value",
          "type": "uint256"
        },
        {
          "internalType": "bytes",
          "name": "_data",
          "type": "bytes"
        }
      ],
      "name": "tokenReceived",
      "outputs": [
        {
          "internalType": "bytes4",
          "name": "",
          "type": "bytes4"
        }
      ],
      "stateMutability": "nonpayable",
      "type": "function"
    },
    {
      "inputs": [
        {
          "internalType": "address",
          "name": "_token",
          "type": "address"
        },
        {
          "internalType": "bool",
          "name": "_permission",
          "type": "bool"
        }
      ],
      "name": "twoBears_Approve",
      "outputs": [],
      "stateMutability": "nonpayable",
      "type": "function"
    },
    {
      "inputs": [
        {
          "internalType": "address",
          "name": "_token_in",
          "type": "address"
        },
        {
          "internalType": "address",
          "name": "_token_out",
          "type": "address"
        },
        {
          "internalType": "uint256",
          "name": "_value_sell",
          "type": "uint256"
        },
        {
          "internalType": "uint256",
          "name": "_value_buy",
          "type": "uint256"
        },
        {
          "internalType": "uint256",
          "name": "_price",
          "type": "uint256"
        },
        {
          "internalType": "uint256",
          "name": "_price_step",
          "type": "uint256"
        },
        {
          "internalType": "uint256",
          "name": "_price_up_limit",
          "type": "uint256"
        },
        {
          "internalType": "uint256",
          "name": "_price_down_limit",
          "type": "uint256"
        }
      ],
      "name": "twoBears_BotNetTrade",
      "outputs": [],
      "stateMutability": "nonpayable",
      "type": "function"
    },
    {
      "inputs": [
        {
          "internalType": "address",
          "name": "_token_in",
          "type": "address"
        },
        {
          "internalType": "address",
          "name": "_token_out",
          "type": "address"
        },
        {
          "internalType": "uint256",
          "name": "_value",
          "type": "uint256"
        },
        {
          "internalType": "uint256",
          "name": "_value_inc",
          "type": "uint256"
        },
        {
          "internalType": "uint256",
          "name": "_price",
          "type": "uint256"
        },
        {
          "internalType": "uint256",
          "name": "_price_step",
          "type": "uint256"
        },
        {
          "internalType": "uint256",
          "name": "_price_limit",
          "type": "uint256"
        }
      ],
      "name": "twoBears_BotSellBuy",
      "outputs": [],
      "stateMutability": "nonpayable",
      "type": "function"
    },
    {
      "inputs": [
        {
          "internalType": "uint256",
          "name": "_id_bot",
          "type": "uint256"
        }
      ],
      "name": "twoBears_DeleteBot",
      "outputs": [],
      "stateMutability": "nonpayable",
      "type": "function"
    },
    {
      "inputs": [
        {
          "internalType": "uint256",
          "name": "_id_bot",
          "type": "uint256"
        }
      ],
      "name": "twoBears_RestoreBot",
      "outputs": [],
      "stateMutability": "nonpayable",
      "type": "function"
    },
    {
      "inputs": [
        {
          "internalType": "address",
          "name": "_token",
          "type": "address"
        }
      ],
      "name": "walletDAO_AddTokenTracking",
      "outputs": [],
      "stateMutability": "nonpayable",
      "type": "function"
    },
    {
      "inputs": [
        {
          "internalType": "address",
          "name": "_token",
          "type": "address"
        }
      ],
      "name": "walletDAO_DelTokenTracking",
      "outputs": [],
      "stateMutability": "nonpayable",
      "type": "function"
    },
    {
      "inputs": [
        {
          "internalType": "address",
          "name": "_recipient",
          "type": "address"
        },
        {
          "internalType": "uint256",
          "name": "_value",
          "type": "uint256"
        }
      ],
      "name": "walletDAO_TransferCLO",
      "outputs": [],
      "stateMutability": "nonpayable",
      "type": "function"
    },
    {
      "inputs": [
        {
          "internalType": "address",
          "name": "_token",
          "type": "address"
        },
        {
          "internalType": "address",
          "name": "_recipient",
          "type": "address"
        },
        {
          "internalType": "uint256",
          "name": "_value",
          "type": "uint256"
        }
      ],
      "name": "walletDAO_TransferToken",
      "outputs": [],
      "stateMutability": "nonpayable",
      "type": "function"
    },
    {
      "inputs": [
        {
          "internalType": "uint256",
          "name": "_value",
          "type": "uint256"
        }
      ],
      "name": "walletDAO_UnwrapWCLO",
      "outputs": [],
      "stateMutability": "nonpayable",
      "type": "function"
    },
    {
      "inputs": [],
      "name": "walletDAO_ViewBalances",
      "outputs": [
        {
          "components": [
            {
              "internalType": "uint256",
              "name": "balance",
              "type": "uint256"
            },
            {
              "internalType": "uint8",
              "name": "decimal",
              "type": "uint8"
            },
            {
              "internalType": "address",
              "name": "token",
              "type": "address"
            },
            {
              "internalType": "string",
              "name": "symbol",
              "type": "string"
            }
          ],
          "internalType": "struct WalletDAO.TokenData[]",
          "name": "",
          "type": "tuple[]"
        }
      ],
      "stateMutability": "view",
      "type": "function"
    },
    {
      "inputs": [
        {
          "internalType": "uint256",
          "name": "_value",
          "type": "uint256"
        }
      ],
      "name": "walletDAO_WrapCLO",
      "outputs": [],
      "stateMutability": "nonpayable",
      "type": "function"
    },
    {
      "stateMutability": "payable",
      "type": "receive"
    }
  ],
  "bytecode": "0x608060405234801561001057600080fd5b5061188d806100206000396000f3fe6080604052600436106101395760003560e01c806379cce4f5116100ab578063b4d06a6f1161006f578063b4d06a6f14610391578063b53a7052146103bf578063be66ca92146103df578063e1375801146103ff578063f80049031461041f578063ff5cf4b11461043f57600080fd5b806379cce4f5146102cf5780638726968d146102f757806387a7c32a1461030c5780638943ec021461032c57806398fabd3a1461036f57600080fd5b806329581b3e116100fd57806329581b3e146101e75780632e5a318d1461020757806344b6d9c41461022757806365fac6dc146102475780636d85e609146102675780636e3adf8d146102a757600080fd5b806307ac32d81461014557806311a924161461016757806320357b8c1461018757806322c380e4146101b2578063232fc349146101d257600080fd5b3661014057005b600080fd5b34801561015157600080fd5b506101656101603660046112ee565b610467565b005b34801561017357600080fd5b50610165610182366004611323565b610508565b34801561019357600080fd5b5061019c6105af565b6040516101a99190611383565b60405180910390f35b3480156101be57600080fd5b506101656101cd3660046112ee565b610861565b3480156101de57600080fd5b506101656108f7565b3480156101f357600080fd5b506101656102023660046112ee565b610987565b34801561021357600080fd5b50610165610222366004611434565b610a25565b34801561023357600080fd5b5061016561024236600461149b565b610bbd565b34801561025357600080fd5b506101656102623660046114c5565b610c65565b34801561027357600080fd5b5061028f731501bffb3d83239214ae55ece3a4ccd40092c92281565b6040516001600160a01b0390911681526020016101a9565b3480156102b357600080fd5b5061028f7369b78bf6300a39d186c7850a46ea6ca261c265c381565b3480156102db57600080fd5b5061028f73bd2d3bce975fd72e44a73cc8e834ad1b8441bdda81565b34801561030357600080fd5b50610165610dec565b34801561031857600080fd5b50610165610327366004611523565b610e68565b34801561033857600080fd5b506103566103473660046115b4565b6344a1f60160e11b9392505050565b6040516001600160e01b031990911681526020016101a9565b34801561037b57600080fd5b5061028f60008051602061183883398151915281565b34801561039d57600080fd5b506103b16103ac3660046112ee565b610f9f565b6040519081526020016101a9565b3480156103cb57600080fd5b506101656103da3660046112ee565b610fc0565b3480156103eb57600080fd5b506101656103fa366004611523565b611025565b34801561040b57600080fd5b5061016561041a36600461165c565b61110e565b34801561042b57600080fd5b5061016561043a366004611693565b61119c565b34801561044b57600080fd5b5061028f73bd38997d00295d738bdc258db4446577f4181ed781565b336000805160206118388339815191521461049d5760405162461bcd60e51b8152600401610494906116b5565b60405180910390fd5b73bd2d3bce975fd72e44a73cc8e834ad1b8441bdda6001600160a01b031663d0e30db0826040518263ffffffff1660e01b81526004016000604051808303818588803b1580156104ec57600080fd5b505af1158015610500573d6000803e3d6000fd5b505050505050565b33600080516020611838833981519152146105355760405162461bcd60e51b8152600401610494906116b5565b60405163a9059cbb60e01b81526001600160a01b0383811660048301526024820183905284169063a9059cbb906044015b6020604051808303816000875af1158015610585573d6000803e3d6000fd5b505050506040513d601f19601f820116820180604052508101906105a991906116e0565b50505050565b600180546060916000916105c291611713565b67ffffffffffffffff8111156105da576105da611545565b60405190808252806020026020018201604052801561062b57816020015b60408051608081018252600080825260208083018290529282015260608082015282526000199092019101816105f85790505b5090506040518060800160405280478152602001601260ff16815260200160006001600160a01b0316815260200160405180604001604052806003815260200162434c4f60e81b8152508152508160008151811061068b5761068b61172c565b602002602001018190525060005b60015481101561085b576000600182815481106106b8576106b861172c565b6000918252602090912001546040805160808101918290526370a0823160e01b9091523060848201526001600160a01b03909116915080826370a0823160a48301602060405180830381865afa158015610716573d6000803e3d6000fd5b505050506040513d601f19601f8201168201806040525081019061073a9190611742565b8152602001826001600160a01b031663313ce5676040518163ffffffff1660e01b8152600401602060405180830381865afa15801561077d573d6000803e3d6000fd5b505050506040513d601f19601f820116820180604052508101906107a1919061175b565b60ff168152602001826001600160a01b03168152602001826001600160a01b03166395d89b416040518163ffffffff1660e01b8152600401600060405180830381865afa1580156107f6573d6000803e3d6000fd5b505050506040513d6000823e601f3d908101601f1916820160405261081e919081019061177e565b90528361082c846001611713565b8151811061083c5761083c61172c565b6020026020010181905250508080610853906117f5565b915050610699565b50919050565b336000805160206118388339815191521461088e5760405162461bcd60e51b8152600401610494906116b5565b604051632e1a7d4d60e01b81526004810182905273bd2d3bce975fd72e44a73cc8e834ad1b8441bdda90632e1a7d4d906024015b600060405180830381600087803b1580156108dc57600080fd5b505af11580156108f0573d6000803e3d6000fd5b5050505050565b33600080516020611838833981519152146109245760405162461bcd60e51b8152600401610494906116b5565b73bd38997d00295d738bdc258db4446577f4181ed76001600160a01b031663cd9488556040518163ffffffff1660e01b8152600401600060405180830381600087803b15801561097357600080fd5b505af11580156105a9573d6000803e3d6000fd5b33600080516020611838833981519152146109b45760405162461bcd60e51b8152600401610494906116b5565b60405163c78f936f60e01b8152600481018290527369b78bf6300a39d186c7850a46ea6ca261c265c39063c78f936f90602401600060405180830381600087803b158015610a0157600080fd5b505af1158015610a15573d6000803e3d6000fd5b50505050610a2281611234565b50565b3360008051602061183883398151915214610a525760405162461bcd60e51b8152600401610494906116b5565b604051630185f08b60e51b81526001600160a01b03808a1660048301528816602482015260448101879052606481018690526084810185905260a4810184905260c4810183905260e48101829052600061010482018190526101248201527369b78bf6300a39d186c7850a46ea6ca261c265c3906330be11609061014401600060405180830381600087803b158015610aea57600080fd5b505af1158015610afe573d6000803e3d6000fd5b5050505060007369b78bf6300a39d186c7850a46ea6ca261c265c36001600160a01b031663af640d0f6040518163ffffffff1660e01b8152600401602060405180830381865afa158015610b56573d6000803e3d6000fd5b505050506040513d601f19601f82011682018060405250810190610b7a9190611742565b9050610bb281600080546001810182559080527f290decd9548b62a8d60345a988386fc84ba6bc95484008f6362f93160ef3e5630155565b505050505050505050565b3360008051602061183883398151915214610bea5760405162461bcd60e51b8152600401610494906116b5565b6040516001600160a01b0383169082156108fc029083906000818181858888f19350505050158015610c20573d6000803e3d6000fd5b506040518181526001600160a01b0383169030907f4ddebed7447a12da95902559eac51ea2594f93265e70f2d11da210e33abdafcd9060200160405180910390a35050565b3360008051602061183883398151915214610c925760405162461bcd60e51b8152600401610494906116b5565b604051632fd96ca960e01b81526001600160a01b0380891660048301528716602482015260448101869052606481018590526084810184905260a4810183905260c48101829052600060e48201527369b78bf6300a39d186c7850a46ea6ca261c265c390632fd96ca99061010401600060405180830381600087803b158015610d1a57600080fd5b505af1158015610d2e573d6000803e3d6000fd5b5050505060007369b78bf6300a39d186c7850a46ea6ca261c265c36001600160a01b031663af640d0f6040518163ffffffff1660e01b8152600401602060405180830381865afa158015610d86573d6000803e3d6000fd5b505050506040513d601f19601f82011682018060405250810190610daa9190611742565b9050610de281600080546001810182559080527f290decd9548b62a8d60345a988386fc84ba6bc95484008f6362f93160ef3e5630155565b5050505050505050565b3360008051602061183883398151915214610e195760405162461bcd60e51b8152600401610494906116b5565b73bd38997d00295d738bdc258db4446577f4181ed76001600160a01b0316634e71d92d6040518163ffffffff1660e01b8152600401600060405180830381600087803b15801561097357600080fd5b3360008051602061183883398151915214610e955760405162461bcd60e51b8152600401610494906116b5565b60005b600154811015610f9b57816001600160a01b031660018281548110610ebf57610ebf61172c565b6000918252602090912001546001600160a01b031603610f895760018054610ee890829061180e565b81548110610ef857610ef861172c565b600091825260209091200154600180546001600160a01b039092169183908110610f2457610f2461172c565b9060005260206000200160006101000a8154816001600160a01b0302191690836001600160a01b031602179055506001805480610f6357610f63611821565b600082815260209020810160001990810180546001600160a01b03191690550190555050565b80610f93816117f5565b915050610e98565b5050565b60008181548110610faf57600080fd5b600091825260209091200154905081565b3360008051602061183883398151915214610fed5760405162461bcd60e51b8152600401610494906116b5565b60405163038e346960e61b8152600481018290527369b78bf6300a39d186c7850a46ea6ca261c265c39063e38d1a40906024016108c2565b33600080516020611838833981519152146110525760405162461bcd60e51b8152600401610494906116b5565b6000816001600160a01b031663313ce5676040518163ffffffff1660e01b8152600401602060405180830381865afa158015611092573d6000803e3d6000fd5b505050506040513d601f19601f820116820180604052508101906110b6919061175b565b60ff161115610a22576001805480820182556000919091527fb10e2d527612073b26eecdfd717e6a320cf44b4afac2b0732d9fcbe2b7fa0cf60180546001600160a01b0383166001600160a01b031990911617905550565b336000805160206118388339815191521461113b5760405162461bcd60e51b8152600401610494906116b5565b600060018215151461114e576000611152565b6000195b60405163095ea7b360e01b8152731501bffb3d83239214ae55ece3a4ccd40092c9226004820152602481018290529091506001600160a01b0384169063095ea7b390604401610566565b33600080516020611838833981519152146111c95760405162461bcd60e51b8152600401610494906116b5565b604051635d8c85ef60e01b81526004810182905273bd38997d00295d738bdc258db4446577f4181ed790635d8c85ef9084906024016000604051808303818588803b15801561121757600080fd5b505af115801561122b573d6000803e3d6000fd5b50505050505050565b60005b600054811015610f9b5781600082815481106112555761125561172c565b9060005260206000200154036112dc57600080546112759060019061180e565b815481106112855761128561172c565b9060005260206000200154600082815481106112a3576112a361172c565b906000526020600020018190555060008054806112c2576112c2611821565b600190038181906000526020600020016000905590555050565b806112e6816117f5565b915050611237565b60006020828403121561130057600080fd5b5035919050565b80356001600160a01b038116811461131e57600080fd5b919050565b60008060006060848603121561133857600080fd5b61134184611307565b925061134f60208501611307565b9150604084013590509250925092565b60005b8381101561137a578181015183820152602001611362565b50506000910152565b60006020808301818452808551808352604092508286019150828160051b87010184880160005b8381101561142657888303603f190185528151805184528781015160ff1688850152868101516001600160a01b031687850152606090810151608091850182905280519185018290529060a09061140681838801858d0161135f565b96890196601f01601f1916949094019093019250908601906001016113aa565b509098975050505050505050565b600080600080600080600080610100898b03121561145157600080fd5b61145a89611307565b975061146860208a01611307565b979a9799505050506040860135956060810135956080820135955060a0820135945060c0820135935060e0909101359150565b600080604083850312156114ae57600080fd5b6114b783611307565b946020939093013593505050565b600080600080600080600060e0888a0312156114e057600080fd5b6114e988611307565b96506114f760208901611307565b96999698505050506040850135946060810135946080820135945060a0820135935060c0909101359150565b60006020828403121561153557600080fd5b61153e82611307565b9392505050565b634e487b7160e01b600052604160045260246000fd5b604051601f8201601f1916810167ffffffffffffffff8111828210171561158457611584611545565b604052919050565b600067ffffffffffffffff8211156115a6576115a6611545565b50601f01601f191660200190565b6000806000606084860312156115c957600080fd5b6115d284611307565b925060208401359150604084013567ffffffffffffffff8111156115f557600080fd5b8401601f8101861361160657600080fd5b80356116196116148261158c565b61155b565b81815287602083850101111561162e57600080fd5b816020840160208301376000602083830101528093505050509250925092565b8015158114610a2257600080fd5b6000806040838503121561166f57600080fd5b61167883611307565b915060208301356116888161164e565b809150509250929050565b600080604083850312156116a657600080fd5b50508035926020909101359150565b6020808252601190820152704f6e6c7920636f6e74726163742044414f60781b604082015260600190565b6000602082840312156116f257600080fd5b815161153e8161164e565b634e487b7160e01b600052601160045260246000fd5b80820180821115611726576117266116fd565b92915050565b634e487b7160e01b600052603260045260246000fd5b60006020828403121561175457600080fd5b5051919050565b60006020828403121561176d57600080fd5b815160ff8116811461153e57600080fd5b60006020828403121561179057600080fd5b815167ffffffffffffffff8111156117a757600080fd5b8201601f810184136117b857600080fd5b80516117c66116148261158c565b8181528560208385010111156117db57600080fd5b6117ec82602083016020860161135f565b95945050505050565b600060018201611807576118076116fd565b5060010190565b81810381811115611726576117266116fd565b634e487b7160e01b600052603160045260246000fdfe000000000000000000000000b356a5a5710cac1677854f1b95608d1d4b4b417da2646970667358221220f1e07779f12ef19217767bbb45427ee399f5ac2b2fe7651c79262225c21d347b64736f6c63430008110033",
  "linkReferences": {},
  "deployedLinkReferences": {}
}